{
  "_format": "hh-sol-artifact-1",
  "contractName": "NFT",
  "sourceName": "contracts/NFT.sol",
  "abi": [
    {
      "inputs": [],
      "stateMutability": "nonpayable",
      "type": "constructor"
    },
    {
      "anonymous": false,
      "inputs": [
        {
          "indexed": true,
          "internalType": "address",
          "name": "owner",
          "type": "address"
        },
        {
          "indexed": true,
          "internalType": "address",
          "name": "approved",
          "type": "address"
        },
        {
          "indexed": true,
          "internalType": "uint256",
          "name": "tokenId",
          "type": "uint256"
        }
      ],
      "name": "Approval",
      "type": "event"
    },
    {
      "anonymous": false,
      "inputs": [
        {
          "indexed": true,
          "internalType": "address",
          "name": "owner",
          "type": "address"
        },
        {
          "indexed": true,
          "internalType": "address",
          "name": "operator",
          "type": "address"
        },
        {
          "indexed": false,
          "internalType": "bool",
          "name": "approved",
          "type": "bool"
        }
      ],
      "name": "ApprovalForAll",
      "type": "event"
    },
    {
      "anonymous": false,
      "inputs": [
        {
          "indexed": true,
          "internalType": "uint256",
          "name": "tokenId",
          "type": "uint256"
        },
        {
          "indexed": false,
          "internalType": "string",
          "name": "newMetadata",
          "type": "string"
        }
      ],
      "name": "MetadataUpdated",
      "type": "event"
    },
    {
      "anonymous": false,
      "inputs": [
        {
          "indexed": true,
          "internalType": "address",
          "name": "to",
          "type": "address"
        },
        {
          "indexed": false,
          "internalType": "uint256",
          "name": "tokenId",
          "type": "uint256"
        },
        {
          "indexed": false,
          "internalType": "enum NFT.NFTType",
          "name": "nftType",
          "type": "uint8"
        },
        {
          "indexed": false,
          "internalType": "string",
          "name": "metadata",
          "type": "string"
        }
      ],
      "name": "NFTMinted",
      "type": "event"
    },
    {
      "anonymous": false,
      "inputs": [
        {
          "indexed": true,
          "internalType": "address",
          "name": "previousOwner",
          "type": "address"
        },
        {
          "indexed": true,
          "internalType": "address",
          "name": "newOwner",
          "type": "address"
        }
      ],
      "name": "OwnershipTransferred",
      "type": "event"
    },
    {
      "anonymous": false,
      "inputs": [
        {
          "indexed": true,
          "internalType": "address",
          "name": "from",
          "type": "address"
        },
        {
          "indexed": true,
          "internalType": "address",
          "name": "to",
          "type": "address"
        },
        {
          "indexed": true,
          "internalType": "uint256",
          "name": "tokenId",
          "type": "uint256"
        }
      ],
      "name": "Transfer",
      "type": "event"
    },
    {
      "inputs": [
        {
          "internalType": "address",
          "name": "to",
          "type": "address"
        },
        {
          "internalType": "uint256",
          "name": "tokenId",
          "type": "uint256"
        }
      ],
      "name": "approve",
      "outputs": [],
      "stateMutability": "nonpayable",
      "type": "function"
    },
    {
      "inputs": [
        {
          "internalType": "address",
          "name": "owner",
          "type": "address"
        }
      ],
      "name": "balanceOf",
      "outputs": [
        {
          "internalType": "uint256",
          "name": "",
          "type": "uint256"
        }
      ],
      "stateMutability": "view",
      "type": "function"
    },
    {
      "inputs": [
        {
          "internalType": "uint256",
          "name": "tokenId",
          "type": "uint256"
        }
      ],
      "name": "deleteNFT",
      "outputs": [],
      "stateMutability": "nonpayable",
      "type": "function"
    },
    {
      "inputs": [
        {
          "internalType": "uint256",
          "name": "tokenId",
          "type": "uint256"
        }
      ],
      "name": "exists",
      "outputs": [
        {
          "internalType": "bool",
          "name": "",
          "type": "bool"
        }
      ],
      "stateMutability": "view",
      "type": "function"
    },
    {
      "inputs": [
        {
          "internalType": "uint256",
          "name": "tokenId",
          "type": "uint256"
        }
      ],
      "name": "getApproved",
      "outputs": [
        {
          "internalType": "address",
          "name": "",
          "type": "address"
        }
      ],
      "stateMutability": "view",
      "type": "function"
    },
    {
      "inputs": [
        {
          "internalType": "uint256",
          "name": "tokenId",
          "type": "uint256"
        }
      ],
      "name": "getNFTDetails",
      "outputs": [
        {
          "components": [
            {
              "internalType": "enum NFT.NFTType",
              "name": "nftType",
              "type": "uint8"
            },
            {
              "internalType": "string",
              "name": "metadata",
              "type": "string"
            },
            {
              "internalType": "address",
              "name": "associatedPlayer",
              "type": "address"
            },
            {
              "internalType": "address",
              "name": "associatedTeam",
              "type": "address"
            }
          ],
          "internalType": "struct NFT.NFTData",
          "name": "",
          "type": "tuple"
        }
      ],
      "stateMutability": "view",
      "type": "function"
    },
    {
      "inputs": [
        {
          "internalType": "address",
          "name": "owner",
          "type": "address"
        },
        {
          "internalType": "address",
          "name": "operator",
          "type": "address"
        }
      ],
      "name": "isApprovedForAll",
      "outputs": [
        {
          "internalType": "bool",
          "name": "",
          "type": "bool"
        }
      ],
      "stateMutability": "view",
      "type": "function"
    },
    {
      "inputs": [
        {
          "internalType": "address",
          "name": "to",
          "type": "address"
        },
        {
          "internalType": "string",
          "name": "metadata",
          "type": "string"
        },
        {
          "internalType": "address",
          "name": "team",
          "type": "address"
        }
      ],
      "name": "mintColeccionable",
      "outputs": [],
      "stateMutability": "nonpayable",
      "type": "function"
    },
    {
      "inputs": [
        {
          "internalType": "address",
          "name": "to",
          "type": "address"
        },
        {
          "internalType": "string",
          "name": "metadata",
          "type": "string"
        },
        {
          "internalType": "address",
          "name": "player",
          "type": "address"
        }
      ],
      "name": "mintReconocimiento",
      "outputs": [],
      "stateMutability": "nonpayable",
      "type": "function"
    },
    {
      "inputs": [],
      "name": "name",
      "outputs": [
        {
          "internalType": "string",
          "name": "",
          "type": "string"
        }
      ],
      "stateMutability": "view",
      "type": "function"
    },
    {
      "inputs": [],
      "name": "owner",
      "outputs": [
        {
          "internalType": "address",
          "name": "",
          "type": "address"
        }
      ],
      "stateMutability": "view",
      "type": "function"
    },
    {
      "inputs": [
        {
          "internalType": "uint256",
          "name": "tokenId",
          "type": "uint256"
        }
      ],
      "name": "ownerOf",
      "outputs": [
        {
          "internalType": "address",
          "name": "",
          "type": "address"
        }
      ],
      "stateMutability": "view",
      "type": "function"
    },
    {
      "inputs": [],
      "name": "renounceOwnership",
      "outputs": [],
      "stateMutability": "nonpayable",
      "type": "function"
    },
    {
      "inputs": [
        {
          "internalType": "address",
          "name": "from",
          "type": "address"
        },
        {
          "internalType": "address",
          "name": "to",
          "type": "address"
        },
        {
          "internalType": "uint256",
          "name": "tokenId",
          "type": "uint256"
        }
      ],
      "name": "safeTransferFrom",
      "outputs": [],
      "stateMutability": "nonpayable",
      "type": "function"
    },
    {
      "inputs": [
        {
          "internalType": "address",
          "name": "from",
          "type": "address"
        },
        {
          "internalType": "address",
          "name": "to",
          "type": "address"
        },
        {
          "internalType": "uint256",
          "name": "tokenId",
          "type": "uint256"
        },
        {
          "internalType": "bytes",
          "name": "data",
          "type": "bytes"
        }
      ],
      "name": "safeTransferFrom",
      "outputs": [],
      "stateMutability": "nonpayable",
      "type": "function"
    },
    {
      "inputs": [
        {
          "internalType": "address",
          "name": "operator",
          "type": "address"
        },
        {
          "internalType": "bool",
          "name": "approved",
          "type": "bool"
        }
      ],
      "name": "setApprovalForAll",
      "outputs": [],
      "stateMutability": "nonpayable",
      "type": "function"
    },
    {
      "inputs": [
        {
          "internalType": "bytes4",
          "name": "interfaceId",
          "type": "bytes4"
        }
      ],
      "name": "supportsInterface",
      "outputs": [
        {
          "internalType": "bool",
          "name": "",
          "type": "bool"
        }
      ],
      "stateMutability": "view",
      "type": "function"
    },
    {
      "inputs": [],
      "name": "symbol",
      "outputs": [
        {
          "internalType": "string",
          "name": "",
          "type": "string"
        }
      ],
      "stateMutability": "view",
      "type": "function"
    },
    {
      "inputs": [
        {
          "internalType": "uint256",
          "name": "tokenId",
          "type": "uint256"
        }
      ],
      "name": "tokenURI",
      "outputs": [
        {
          "internalType": "string",
          "name": "",
          "type": "string"
        }
      ],
      "stateMutability": "view",
      "type": "function"
    },
    {
      "inputs": [],
      "name": "totalMinted",
      "outputs": [
        {
          "internalType": "uint256",
          "name": "",
          "type": "uint256"
        }
      ],
      "stateMutability": "view",
      "type": "function"
    },
    {
      "inputs": [
        {
          "internalType": "address",
          "name": "from",
          "type": "address"
        },
        {
          "internalType": "address",
          "name": "to",
          "type": "address"
        },
        {
          "internalType": "uint256",
          "name": "tokenId",
          "type": "uint256"
        }
      ],
      "name": "transferFrom",
      "outputs": [],
      "stateMutability": "nonpayable",
      "type": "function"
    },
    {
      "inputs": [
        {
          "internalType": "address",
          "name": "newOwner",
          "type": "address"
        }
      ],
      "name": "transferOwnership",
      "outputs": [],
      "stateMutability": "nonpayable",
      "type": "function"
    },
    {
      "inputs": [
        {
          "internalType": "uint256",
          "name": "tokenId",
          "type": "uint256"
        },
        {
          "internalType": "string",
          "name": "newMetadata",
          "type": "string"
        }
      ],
      "name": "updateMetadata",
      "outputs": [],
      "stateMutability": "nonpayable",
      "type": "function"
    }
  ],
  "bytecode": "0x608060405234801561001057600080fd5b506040518060400160405280600b81526020017f4368616d70696f6e4e46540000000000000000000000000000000000000000008152506040518060400160405280600381526020017f4e46540000000000000000000000000000000000000000000000000000000000815250816000908161008c91906103de565b50806001908161009c91906103de565b5050506100bb6100b06100c060201b60201c565b6100c860201b60201c565b6104b0565b600033905090565b6000600660009054906101000a900473ffffffffffffffffffffffffffffffffffffffff16905081600660006101000a81548173ffffffffffffffffffffffffffffffffffffffff021916908373ffffffffffffffffffffffffffffffffffffffff1602179055508173ffffffffffffffffffffffffffffffffffffffff168173ffffffffffffffffffffffffffffffffffffffff167f8be0079c531659141344cd1fd0a4f28419497f9722a3daafe3b4186f6b6457e060405160405180910390a35050565b600081519050919050565b7f4e487b7100000000000000000000000000000000000000000000000000000000600052604160045260246000fd5b7f4e487b7100000000000000000000000000000000000000000000000000000000600052602260045260246000fd5b6000600282049050600182168061020f57607f821691505b602082108103610222576102216101c8565b5b50919050565b60008190508160005260206000209050919050565b60006020601f8301049050919050565b600082821b905092915050565b60006008830261028a7fffffffffffffffffffffffffffffffffffffffffffffffffffffffffffffffff8261024d565b610294868361024d565b95508019841693508086168417925050509392505050565b6000819050919050565b6000819050919050565b60006102db6102d66102d1846102ac565b6102b6565b6102ac565b9050919050565b6000819050919050565b6102f5836102c0565b610309610301826102e2565b84845461025a565b825550505050565b600090565b61031e610311565b6103298184846102ec565b505050565b5b8181101561034d57610342600082610316565b60018101905061032f565b5050565b601f8211156103925761036381610228565b61036c8461023d565b8101602085101561037b578190505b61038f6103878561023d565b83018261032e565b50505b505050565b600082821c905092915050565b60006103b560001984600802610397565b1980831691505092915050565b60006103ce83836103a4565b9150826002028217905092915050565b6103e78261018e565b67ffffffffffffffff811115610400576103ff610199565b5b61040a82546101f7565b610415828285610351565b600060209050601f8311600181146104485760008415610436578287015190505b61044085826103c2565b8655506104a8565b601f19841661045686610228565b60005b8281101561047e57848901518255600182019150602085019450602081019050610459565b8683101561049b5784890151610497601f8916826103a4565b8355505b6001600288020188555050505b505050505050565b613ad0806104bf6000396000f3fe608060405234801561001057600080fd5b506004361061014d5760003560e01c806382260f35116100c3578063b88d4fde1161007c578063b88d4fde1461039c578063c87b56dd146103b8578063e985e9c5146103e8578063f2fde38b14610418578063f61d1e8614610434578063f687ed57146104505761014d565b806382260f35146102da5780638da5cb5b1461030a57806395d89b4114610328578063a22cb46514610346578063a2309ff814610362578063b182fcc9146103805761014d565b806342842e0e1161011557806342842e0e146102085780634f558e791461022457806353c8388e146102545780636352211e1461027057806370a08231146102a0578063715018a6146102d05761014d565b806301ffc9a71461015257806306fdde0314610182578063081812fc146101a0578063095ea7b3146101d057806323b872dd146101ec575b600080fd5b61016c60048036038101906101679190612615565b61046c565b604051610179919061265d565b60405180910390f35b61018a61054e565b6040516101979190612708565b60405180910390f35b6101ba60048036038101906101b59190612760565b6105e0565b6040516101c791906127ce565b60405180910390f35b6101ea60048036038101906101e59190612815565b610626565b005b61020660048036038101906102019190612855565b61073d565b005b610222600480360381019061021d9190612855565b61079d565b005b61023e60048036038101906102399190612760565b6107bd565b60405161024b919061265d565b60405180910390f35b61026e600480360381019061026991906129dd565b6107cf565b005b61028a60048036038101906102859190612760565b61087f565b60405161029791906127ce565b60405180910390f35b6102ba60048036038101906102b59190612a39565b610905565b6040516102c79190612a75565b60405180910390f35b6102d86109bc565b005b6102f460048036038101906102ef9190612760565b6109d0565b6040516103019190612bc3565b60405180910390f35b610312610bbe565b60405161031f91906127ce565b60405180910390f35b610330610be8565b60405161033d9190612708565b60405180910390f35b610360600480360381019061035b9190612c11565b610c7a565b005b61036a610c90565b6040516103779190612a75565b60405180910390f35b61039a60048036038101906103959190612c51565b610ca1565b005b6103b660048036038101906103b19190612d61565b610ed4565b005b6103d260048036038101906103cd9190612760565b610f36565b6040516103df9190612708565b60405180910390f35b61040260048036038101906103fd9190612de4565b610f9e565b60405161040f919061265d565b60405180910390f35b610432600480360381019061042d9190612a39565b611032565b005b61044e60048036038101906104499190612c51565b6110b5565b005b61046a60048036038101906104659190612760565b6112e9565b005b60007f80ac58cd000000000000000000000000000000000000000000000000000000007bffffffffffffffffffffffffffffffffffffffffffffffffffffffff1916827bffffffffffffffffffffffffffffffffffffffffffffffffffffffff1916148061053757507f5b5e139f000000000000000000000000000000000000000000000000000000007bffffffffffffffffffffffffffffffffffffffffffffffffffffffff1916827bffffffffffffffffffffffffffffffffffffffffffffffffffffffff1916145b806105475750610546826114db565b5b9050919050565b60606000805461055d90612e53565b80601f016020809104026020016040519081016040528092919081815260200182805461058990612e53565b80156105d65780601f106105ab576101008083540402835291602001916105d6565b820191906000526020600020905b8154815290600101906020018083116105b957829003601f168201915b5050505050905090565b60006105eb82611545565b6004600083815260200190815260200160002060009054906101000a900473ffffffffffffffffffffffffffffffffffffffff169050919050565b60006106318261087f565b90508073ffffffffffffffffffffffffffffffffffffffff168373ffffffffffffffffffffffffffffffffffffffff16036106a1576040517f08c379a000000000000000000000000000000000000000000000000000000000815260040161069890612ef6565b60405180910390fd5b8073ffffffffffffffffffffffffffffffffffffffff166106c0611590565b73ffffffffffffffffffffffffffffffffffffffff1614806106ef57506106ee816106e9611590565b610f9e565b5b61072e576040517f08c379a000000000000000000000000000000000000000000000000000000000815260040161072590612f88565b60405180910390fd5b6107388383611598565b505050565b61074e610748611590565b82611651565b61078d576040517f08c379a00000000000000000000000000000000000000000000000000000000081526004016107849061301a565b60405180910390fd5b6107988383836116e6565b505050565b6107b883838360405180602001604052806000815250610ed4565b505050565b60006107c8826119df565b9050919050565b6107d7611a20565b6107e0826119df565b61081f576040517f08c379a000000000000000000000000000000000000000000000000000000000815260040161081690613086565b60405180910390fd5b806008600084815260200190815260200160002060010190816108429190613252565b50817f459157ba24c7ab9878b165ef465fa6ae2ab42bcd8445f576be378768b0c47309826040516108739190612708565b60405180910390a25050565b60008061088b83611a9e565b9050600073ffffffffffffffffffffffffffffffffffffffff168173ffffffffffffffffffffffffffffffffffffffff16036108fc576040517f08c379a00000000000000000000000000000000000000000000000000000000081526004016108f390613370565b60405180910390fd5b80915050919050565b60008073ffffffffffffffffffffffffffffffffffffffff168273ffffffffffffffffffffffffffffffffffffffff1603610975576040517f08c379a000000000000000000000000000000000000000000000000000000000815260040161096c90613402565b60405180910390fd5b600360008373ffffffffffffffffffffffffffffffffffffffff1673ffffffffffffffffffffffffffffffffffffffff168152602001908152602001600020549050919050565b6109c4611a20565b6109ce6000611adb565b565b6109d86124e6565b6109e1826119df565b610a20576040517f08c379a0000000000000000000000000000000000000000000000000000000008152600401610a1790613086565b60405180910390fd5b600860008381526020019081526020016000206040518060800160405290816000820160009054906101000a900460ff166001811115610a6357610a62612a90565b5b6001811115610a7557610a74612a90565b5b8152602001600182018054610a8990612e53565b80601f0160208091040260200160405190810160405280929190818152602001828054610ab590612e53565b8015610b025780601f10610ad757610100808354040283529160200191610b02565b820191906000526020600020905b815481529060010190602001808311610ae557829003601f168201915b505050505081526020016002820160009054906101000a900473ffffffffffffffffffffffffffffffffffffffff1673ffffffffffffffffffffffffffffffffffffffff1673ffffffffffffffffffffffffffffffffffffffff1681526020016003820160009054906101000a900473ffffffffffffffffffffffffffffffffffffffff1673ffffffffffffffffffffffffffffffffffffffff1673ffffffffffffffffffffffffffffffffffffffff16815250509050919050565b6000600660009054906101000a900473ffffffffffffffffffffffffffffffffffffffff16905090565b606060018054610bf790612e53565b80601f0160208091040260200160405190810160405280929190818152602001828054610c2390612e53565b8015610c705780601f10610c4557610100808354040283529160200191610c70565b820191906000526020600020905b815481529060010190602001808311610c5357829003601f168201915b5050505050905090565b610c8c610c85611590565b8383611ba1565b5050565b6000610c9c6007611d0d565b905090565b610ca9611a20565b610cb36007611d1b565b6000610cbf6007611d0d565b9050610ccb8482611d31565b6040518060800160405280600180811115610ce957610ce8612a90565b5b81526020018481526020018373ffffffffffffffffffffffffffffffffffffffff168152602001600073ffffffffffffffffffffffffffffffffffffffff168152506008600083815260200190815260200160002060008201518160000160006101000a81548160ff02191690836001811115610d6957610d68612a90565b5b02179055506020820151816001019081610d839190613252565b5060408201518160020160006101000a81548173ffffffffffffffffffffffffffffffffffffffff021916908373ffffffffffffffffffffffffffffffffffffffff16021790555060608201518160030160006101000a81548173ffffffffffffffffffffffffffffffffffffffff021916908373ffffffffffffffffffffffffffffffffffffffff160217905550905050600960008573ffffffffffffffffffffffffffffffffffffffff1673ffffffffffffffffffffffffffffffffffffffff1681526020019081526020016000208190806001815401808255809150506001900390600052602060002001600090919091909150558373ffffffffffffffffffffffffffffffffffffffff167fa08b3bf5b7af36b46fffc856a242e512024f345d8981c820b40ed15e1a7b5cae82600186604051610ec693929190613431565b60405180910390a250505050565b610ee5610edf611590565b83611651565b610f24576040517f08c379a0000000000000000000000000000000000000000000000000000000008152600401610f1b9061301a565b60405180910390fd5b610f3084848484611f4e565b50505050565b6060610f4182611545565b6000610f4b611faa565b90506000815111610f6b5760405180602001604052806000815250610f96565b80610f7584611fc1565b604051602001610f869291906134ab565b6040516020818303038152906040525b915050919050565b6000600560008473ffffffffffffffffffffffffffffffffffffffff1673ffffffffffffffffffffffffffffffffffffffff16815260200190815260200160002060008373ffffffffffffffffffffffffffffffffffffffff1673ffffffffffffffffffffffffffffffffffffffff16815260200190815260200160002060009054906101000a900460ff16905092915050565b61103a611a20565b600073ffffffffffffffffffffffffffffffffffffffff168173ffffffffffffffffffffffffffffffffffffffff16036110a9576040517f08c379a00000000000000000000000000000000000000000000000000000000081526004016110a090613541565b60405180910390fd5b6110b281611adb565b50565b6110bd611a20565b6110c76007611d1b565b60006110d36007611d0d565b90506110df8482611d31565b6040518060800160405280600060018111156110fe576110fd612a90565b5b8152602001848152602001600073ffffffffffffffffffffffffffffffffffffffff1681526020018373ffffffffffffffffffffffffffffffffffffffff168152506008600083815260200190815260200160002060008201518160000160006101000a81548160ff0219169083600181111561117e5761117d612a90565b5b021790555060208201518160010190816111989190613252565b5060408201518160020160006101000a81548173ffffffffffffffffffffffffffffffffffffffff021916908373ffffffffffffffffffffffffffffffffffffffff16021790555060608201518160030160006101000a81548173ffffffffffffffffffffffffffffffffffffffff021916908373ffffffffffffffffffffffffffffffffffffffff160217905550905050600960008573ffffffffffffffffffffffffffffffffffffffff1673ffffffffffffffffffffffffffffffffffffffff1681526020019081526020016000208190806001815401808255809150506001900390600052602060002001600090919091909150558373ffffffffffffffffffffffffffffffffffffffff167fa08b3bf5b7af36b46fffc856a242e512024f345d8981c820b40ed15e1a7b5cae826000866040516112db93929190613431565b60405180910390a250505050565b6112f1611a20565b6112fa816119df565b611339576040517f08c379a000000000000000000000000000000000000000000000000000000000815260040161133090613086565b60405180910390fd5b60006113448261087f565b90506000600960008373ffffffffffffffffffffffffffffffffffffffff1673ffffffffffffffffffffffffffffffffffffffff168152602001908152602001600020905060005b818054905081101561144457838282815481106113ac576113ab613561565b5b9060005260206000200154036114375781600183805490506113ce91906135bf565b815481106113df576113de613561565b5b90600052602060002001548282815481106113fd576113fc613561565b5b90600052602060002001819055508180548061141c5761141b6135f3565b5b60019003818190600052602060002001600090559055611444565b808060010191505061138c565b5061144e8361208f565b60086000848152602001908152602001600020600080820160006101000a81549060ff0219169055600182016000611486919061254c565b6002820160006101000a81549073ffffffffffffffffffffffffffffffffffffffff02191690556003820160006101000a81549073ffffffffffffffffffffffffffffffffffffffff02191690555050505050565b60007f01ffc9a7000000000000000000000000000000000000000000000000000000007bffffffffffffffffffffffffffffffffffffffffffffffffffffffff1916827bffffffffffffffffffffffffffffffffffffffffffffffffffffffff1916149050919050565b61154e816119df565b61158d576040517f08c379a000000000000000000000000000000000000000000000000000000000815260040161158490613370565b60405180910390fd5b50565b600033905090565b816004600083815260200190815260200160002060006101000a81548173ffffffffffffffffffffffffffffffffffffffff021916908373ffffffffffffffffffffffffffffffffffffffff160217905550808273ffffffffffffffffffffffffffffffffffffffff1661160b8361087f565b73ffffffffffffffffffffffffffffffffffffffff167f8c5be1e5ebec7d5bd14f71427d1e84f3dd0314c0f7b2291e5b200ac8c7c3b92560405160405180910390a45050565b60008061165d8361087f565b90508073ffffffffffffffffffffffffffffffffffffffff168473ffffffffffffffffffffffffffffffffffffffff16148061169f575061169e8185610f9e565b5b806116dd57508373ffffffffffffffffffffffffffffffffffffffff166116c5846105e0565b73ffffffffffffffffffffffffffffffffffffffff16145b91505092915050565b8273ffffffffffffffffffffffffffffffffffffffff166117068261087f565b73ffffffffffffffffffffffffffffffffffffffff161461175c576040517f08c379a000000000000000000000000000000000000000000000000000000000815260040161175390613694565b60405180910390fd5b600073ffffffffffffffffffffffffffffffffffffffff168273ffffffffffffffffffffffffffffffffffffffff16036117cb576040517f08c379a00000000000000000000000000000000000000000000000000000000081526004016117c290613726565b60405180910390fd5b6117d883838360016121dd565b8273ffffffffffffffffffffffffffffffffffffffff166117f88261087f565b73ffffffffffffffffffffffffffffffffffffffff161461184e576040517f08c379a000000000000000000000000000000000000000000000000000000000815260040161184590613694565b60405180910390fd5b6004600082815260200190815260200160002060006101000a81549073ffffffffffffffffffffffffffffffffffffffff02191690556001600360008573ffffffffffffffffffffffffffffffffffffffff1673ffffffffffffffffffffffffffffffffffffffff168152602001908152602001600020600082825403925050819055506001600360008473ffffffffffffffffffffffffffffffffffffffff1673ffffffffffffffffffffffffffffffffffffffff16815260200190815260200160002060008282540192505081905550816002600083815260200190815260200160002060006101000a81548173ffffffffffffffffffffffffffffffffffffffff021916908373ffffffffffffffffffffffffffffffffffffffff160217905550808273ffffffffffffffffffffffffffffffffffffffff168473ffffffffffffffffffffffffffffffffffffffff167fddf252ad1be2c89b69c2b068fc378daa952ba7f163c4a11628f55a4df523b3ef60405160405180910390a46119da83838360016121e3565b505050565b60008073ffffffffffffffffffffffffffffffffffffffff16611a0183611a9e565b73ffffffffffffffffffffffffffffffffffffffff1614159050919050565b611a28611590565b73ffffffffffffffffffffffffffffffffffffffff16611a46610bbe565b73ffffffffffffffffffffffffffffffffffffffff1614611a9c576040517f08c379a0000000000000000000000000000000000000000000000000000000008152600401611a9390613792565b60405180910390fd5b565b60006002600083815260200190815260200160002060009054906101000a900473ffffffffffffffffffffffffffffffffffffffff169050919050565b6000600660009054906101000a900473ffffffffffffffffffffffffffffffffffffffff16905081600660006101000a81548173ffffffffffffffffffffffffffffffffffffffff021916908373ffffffffffffffffffffffffffffffffffffffff1602179055508173ffffffffffffffffffffffffffffffffffffffff168173ffffffffffffffffffffffffffffffffffffffff167f8be0079c531659141344cd1fd0a4f28419497f9722a3daafe3b4186f6b6457e060405160405180910390a35050565b8173ffffffffffffffffffffffffffffffffffffffff168373ffffffffffffffffffffffffffffffffffffffff1603611c0f576040517f08c379a0000000000000000000000000000000000000000000000000000000008152600401611c06906137fe565b60405180910390fd5b80600560008573ffffffffffffffffffffffffffffffffffffffff1673ffffffffffffffffffffffffffffffffffffffff16815260200190815260200160002060008473ffffffffffffffffffffffffffffffffffffffff1673ffffffffffffffffffffffffffffffffffffffff16815260200190815260200160002060006101000a81548160ff0219169083151502179055508173ffffffffffffffffffffffffffffffffffffffff168373ffffffffffffffffffffffffffffffffffffffff167f17307eab39ab6107e8899845ad3d59bd9653f200f220920489ca2b5937696c3183604051611d00919061265d565b60405180910390a3505050565b600081600001549050919050565b6001816000016000828254019250508190555050565b600073ffffffffffffffffffffffffffffffffffffffff168273ffffffffffffffffffffffffffffffffffffffff1603611da0576040517f08c379a0000000000000000000000000000000000000000000000000000000008152600401611d979061386a565b60405180910390fd5b611da9816119df565b15611de9576040517f08c379a0000000000000000000000000000000000000000000000000000000008152600401611de0906138d6565b60405180910390fd5b611df76000838360016121dd565b611e00816119df565b15611e40576040517f08c379a0000000000000000000000000000000000000000000000000000000008152600401611e37906138d6565b60405180910390fd5b6001600360008473ffffffffffffffffffffffffffffffffffffffff1673ffffffffffffffffffffffffffffffffffffffff16815260200190815260200160002060008282540192505081905550816002600083815260200190815260200160002060006101000a81548173ffffffffffffffffffffffffffffffffffffffff021916908373ffffffffffffffffffffffffffffffffffffffff160217905550808273ffffffffffffffffffffffffffffffffffffffff16600073ffffffffffffffffffffffffffffffffffffffff167fddf252ad1be2c89b69c2b068fc378daa952ba7f163c4a11628f55a4df523b3ef60405160405180910390a4611f4a6000838360016121e3565b5050565b611f598484846116e6565b611f65848484846121e9565b611fa4576040517f08c379a0000000000000000000000000000000000000000000000000000000008152600401611f9b90613968565b60405180910390fd5b50505050565b606060405180602001604052806000815250905090565b606060006001611fd084612370565b01905060008167ffffffffffffffff811115611fef57611fee6128b2565b5b6040519080825280601f01601f1916602001820160405280156120215781602001600182028036833780820191505090505b509050600082602001820190505b600115612084578080600190039150507f3031323334353637383961626364656600000000000000000000000000000000600a86061a8153600a858161207857612077613988565b5b0494506000850361202f575b819350505050919050565b600061209a8261087f565b90506120aa8160008460016121dd565b6120b38261087f565b90506004600083815260200190815260200160002060006101000a81549073ffffffffffffffffffffffffffffffffffffffff02191690556001600360008373ffffffffffffffffffffffffffffffffffffffff1673ffffffffffffffffffffffffffffffffffffffff168152602001908152602001600020600082825403925050819055506002600083815260200190815260200160002060006101000a81549073ffffffffffffffffffffffffffffffffffffffff021916905581600073ffffffffffffffffffffffffffffffffffffffff168273ffffffffffffffffffffffffffffffffffffffff167fddf252ad1be2c89b69c2b068fc378daa952ba7f163c4a11628f55a4df523b3ef60405160405180910390a46121d98160008460016121e3565b5050565b50505050565b50505050565b600061220a8473ffffffffffffffffffffffffffffffffffffffff166124c3565b15612363578373ffffffffffffffffffffffffffffffffffffffff1663150b7a02612233611590565b8786866040518563ffffffff1660e01b81526004016122559493929190613a0c565b6020604051808303816000875af192505050801561229157506040513d601f19601f8201168201806040525081019061228e9190613a6d565b60015b612313573d80600081146122c1576040519150601f19603f3d011682016040523d82523d6000602084013e6122c6565b606091505b50600081510361230b576040517f08c379a000000000000000000000000000000000000000000000000000000000815260040161230290613968565b60405180910390fd5b805181602001fd5b63150b7a0260e01b7bffffffffffffffffffffffffffffffffffffffffffffffffffffffff1916817bffffffffffffffffffffffffffffffffffffffffffffffffffffffff191614915050612368565b600190505b949350505050565b600080600090507a184f03e93ff9f4daa797ed6e38ed64bf6a1f01000000000000000083106123ce577a184f03e93ff9f4daa797ed6e38ed64bf6a1f01000000000000000083816123c4576123c3613988565b5b0492506040810190505b6d04ee2d6d415b85acef8100000000831061240b576d04ee2d6d415b85acef8100000000838161240157612400613988565b5b0492506020810190505b662386f26fc10000831061243a57662386f26fc1000083816124305761242f613988565b5b0492506010810190505b6305f5e1008310612463576305f5e100838161245957612458613988565b5b0492506008810190505b612710831061248857612710838161247e5761247d613988565b5b0492506004810190505b606483106124ab57606483816124a1576124a0613988565b5b0492506002810190505b600a83106124ba576001810190505b80915050919050565b6000808273ffffffffffffffffffffffffffffffffffffffff163b119050919050565b60405180608001604052806000600181111561250557612504612a90565b5b815260200160608152602001600073ffffffffffffffffffffffffffffffffffffffff168152602001600073ffffffffffffffffffffffffffffffffffffffff1681525090565b50805461255890612e53565b6000825580601f1061256a5750612589565b601f016020900490600052602060002090810190612588919061258c565b5b50565b5b808211156125a557600081600090555060010161258d565b5090565b6000604051905090565b600080fd5b600080fd5b60007fffffffff0000000000000000000000000000000000000000000000000000000082169050919050565b6125f2816125bd565b81146125fd57600080fd5b50565b60008135905061260f816125e9565b92915050565b60006020828403121561262b5761262a6125b3565b5b600061263984828501612600565b91505092915050565b60008115159050919050565b61265781612642565b82525050565b6000602082019050612672600083018461264e565b92915050565b600081519050919050565b600082825260208201905092915050565b60005b838110156126b2578082015181840152602081019050612697565b60008484015250505050565b6000601f19601f8301169050919050565b60006126da82612678565b6126e48185612683565b93506126f4818560208601612694565b6126fd816126be565b840191505092915050565b6000602082019050818103600083015261272281846126cf565b905092915050565b6000819050919050565b61273d8161272a565b811461274857600080fd5b50565b60008135905061275a81612734565b92915050565b600060208284031215612776576127756125b3565b5b60006127848482850161274b565b91505092915050565b600073ffffffffffffffffffffffffffffffffffffffff82169050919050565b60006127b88261278d565b9050919050565b6127c8816127ad565b82525050565b60006020820190506127e360008301846127bf565b92915050565b6127f2816127ad565b81146127fd57600080fd5b50565b60008135905061280f816127e9565b92915050565b6000806040838503121561282c5761282b6125b3565b5b600061283a85828601612800565b925050602061284b8582860161274b565b9150509250929050565b60008060006060848603121561286e5761286d6125b3565b5b600061287c86828701612800565b935050602061288d86828701612800565b925050604061289e8682870161274b565b9150509250925092565b600080fd5b600080fd5b7f4e487b7100000000000000000000000000000000000000000000000000000000600052604160045260246000fd5b6128ea826126be565b810181811067ffffffffffffffff82111715612909576129086128b2565b5b80604052505050565b600061291c6125a9565b905061292882826128e1565b919050565b600067ffffffffffffffff821115612948576129476128b2565b5b612951826126be565b9050602081019050919050565b82818337600083830152505050565b600061298061297b8461292d565b612912565b90508281526020810184848401111561299c5761299b6128ad565b5b6129a784828561295e565b509392505050565b600082601f8301126129c4576129c36128a8565b5b81356129d484826020860161296d565b91505092915050565b600080604083850312156129f4576129f36125b3565b5b6000612a028582860161274b565b925050602083013567ffffffffffffffff811115612a2357612a226125b8565b5b612a2f858286016129af565b9150509250929050565b600060208284031215612a4f57612a4e6125b3565b5b6000612a5d84828501612800565b91505092915050565b612a6f8161272a565b82525050565b6000602082019050612a8a6000830184612a66565b92915050565b7f4e487b7100000000000000000000000000000000000000000000000000000000600052602160045260246000fd5b60028110612ad057612acf612a90565b5b50565b6000819050612ae182612abf565b919050565b6000612af182612ad3565b9050919050565b612b0181612ae6565b82525050565b600082825260208201905092915050565b6000612b2382612678565b612b2d8185612b07565b9350612b3d818560208601612694565b612b46816126be565b840191505092915050565b612b5a816127ad565b82525050565b6000608083016000830151612b786000860182612af8565b5060208301518482036020860152612b908282612b18565b9150506040830151612ba56040860182612b51565b506060830151612bb86060860182612b51565b508091505092915050565b60006020820190508181036000830152612bdd8184612b60565b905092915050565b612bee81612642565b8114612bf957600080fd5b50565b600081359050612c0b81612be5565b92915050565b60008060408385031215612c2857612c276125b3565b5b6000612c3685828601612800565b9250506020612c4785828601612bfc565b9150509250929050565b600080600060608486031215612c6a57612c696125b3565b5b6000612c7886828701612800565b935050602084013567ffffffffffffffff811115612c9957612c986125b8565b5b612ca5868287016129af565b9250506040612cb686828701612800565b9150509250925092565b600067ffffffffffffffff821115612cdb57612cda6128b2565b5b612ce4826126be565b9050602081019050919050565b6000612d04612cff84612cc0565b612912565b905082815260208101848484011115612d2057612d1f6128ad565b5b612d2b84828561295e565b509392505050565b600082601f830112612d4857612d476128a8565b5b8135612d58848260208601612cf1565b91505092915050565b60008060008060808587031215612d7b57612d7a6125b3565b5b6000612d8987828801612800565b9450506020612d9a87828801612800565b9350506040612dab8782880161274b565b925050606085013567ffffffffffffffff811115612dcc57612dcb6125b8565b5b612dd887828801612d33565b91505092959194509250565b60008060408385031215612dfb57612dfa6125b3565b5b6000612e0985828601612800565b9250506020612e1a85828601612800565b9150509250929050565b7f4e487b7100000000000000000000000000000000000000000000000000000000600052602260045260246000fd5b60006002820490506001821680612e6b57607f821691505b602082108103612e7e57612e7d612e24565b5b50919050565b7f4552433732313a20617070726f76616c20746f2063757272656e74206f776e6560008201527f7200000000000000000000000000000000000000000000000000000000000000602082015250565b6000612ee0602183612683565b9150612eeb82612e84565b604082019050919050565b60006020820190508181036000830152612f0f81612ed3565b9050919050565b7f4552433732313a20617070726f76652063616c6c6572206973206e6f7420746f60008201527f6b656e206f776e6572206f7220617070726f76656420666f7220616c6c000000602082015250565b6000612f72603d83612683565b9150612f7d82612f16565b604082019050919050565b60006020820190508181036000830152612fa181612f65565b9050919050565b7f4552433732313a2063616c6c6572206973206e6f7420746f6b656e206f776e6560008201527f72206f7220617070726f76656400000000000000000000000000000000000000602082015250565b6000613004602d83612683565b915061300f82612fa8565b604082019050919050565b6000602082019050818103600083015261303381612ff7565b9050919050565b7f4e4654206e6f2065786973746500000000000000000000000000000000000000600082015250565b6000613070600d83612683565b915061307b8261303a565b602082019050919050565b6000602082019050818103600083015261309f81613063565b9050919050565b60008190508160005260206000209050919050565b60006020601f8301049050919050565b600082821b905092915050565b6000600883026131087fffffffffffffffffffffffffffffffffffffffffffffffffffffffffffffffff826130cb565b61311286836130cb565b95508019841693508086168417925050509392505050565b6000819050919050565b600061314f61314a6131458461272a565b61312a565b61272a565b9050919050565b6000819050919050565b61316983613134565b61317d61317582613156565b8484546130d8565b825550505050565b600090565b613192613185565b61319d818484613160565b505050565b5b818110156131c1576131b660008261318a565b6001810190506131a3565b5050565b601f821115613206576131d7816130a6565b6131e0846130bb565b810160208510156131ef578190505b6132036131fb856130bb565b8301826131a2565b50505b505050565b600082821c905092915050565b60006132296000198460080261320b565b1980831691505092915050565b60006132428383613218565b9150826002028217905092915050565b61325b82612678565b67ffffffffffffffff811115613274576132736128b2565b5b61327e8254612e53565b6132898282856131c5565b600060209050601f8311600181146132bc57600084156132aa578287015190505b6132b48582613236565b86555061331c565b601f1984166132ca866130a6565b60005b828110156132f2578489015182556001820191506020850194506020810190506132cd565b8683101561330f578489015161330b601f891682613218565b8355505b6001600288020188555050505b505050505050565b7f4552433732313a20696e76616c696420746f6b656e2049440000000000000000600082015250565b600061335a601883612683565b915061336582613324565b602082019050919050565b600060208201905081810360008301526133898161334d565b9050919050565b7f4552433732313a2061646472657373207a65726f206973206e6f74206120766160008201527f6c6964206f776e65720000000000000000000000000000000000000000000000602082015250565b60006133ec602983612683565b91506133f782613390565b604082019050919050565b6000602082019050818103600083015261341b816133df565b9050919050565b61342b81612ae6565b82525050565b60006060820190506134466000830186612a66565b6134536020830185613422565b818103604083015261346581846126cf565b9050949350505050565b600081905092915050565b600061348582612678565b61348f818561346f565b935061349f818560208601612694565b80840191505092915050565b60006134b7828561347a565b91506134c3828461347a565b91508190509392505050565b7f4f776e61626c653a206e6577206f776e657220697320746865207a65726f206160008201527f6464726573730000000000000000000000000000000000000000000000000000602082015250565b600061352b602683612683565b9150613536826134cf565b604082019050919050565b6000602082019050818103600083015261355a8161351e565b9050919050565b7f4e487b7100000000000000000000000000000000000000000000000000000000600052603260045260246000fd5b7f4e487b7100000000000000000000000000000000000000000000000000000000600052601160045260246000fd5b60006135ca8261272a565b91506135d58361272a565b92508282039050818111156135ed576135ec613590565b5b92915050565b7f4e487b7100000000000000000000000000000000000000000000000000000000600052603160045260246000fd5b7f4552433732313a207472616e736665722066726f6d20696e636f72726563742060008201527f6f776e6572000000000000000000000000000000000000000000000000000000602082015250565b600061367e602583612683565b915061368982613622565b604082019050919050565b600060208201905081810360008301526136ad81613671565b9050919050565b7f4552433732313a207472616e7366657220746f20746865207a65726f2061646460008201527f7265737300000000000000000000000000000000000000000000000000000000602082015250565b6000613710602483612683565b915061371b826136b4565b604082019050919050565b6000602082019050818103600083015261373f81613703565b9050919050565b7f4f776e61626c653a2063616c6c6572206973206e6f7420746865206f776e6572600082015250565b600061377c602083612683565b915061378782613746565b602082019050919050565b600060208201905081810360008301526137ab8161376f565b9050919050565b7f4552433732313a20617070726f766520746f2063616c6c657200000000000000600082015250565b60006137e8601983612683565b91506137f3826137b2565b602082019050919050565b60006020820190508181036000830152613817816137db565b9050919050565b7f4552433732313a206d696e7420746f20746865207a65726f2061646472657373600082015250565b6000613854602083612683565b915061385f8261381e565b602082019050919050565b6000602082019050818103600083015261388381613847565b9050919050565b7f4552433732313a20746f6b656e20616c7265616479206d696e74656400000000600082015250565b60006138c0601c83612683565b91506138cb8261388a565b602082019050919050565b600060208201905081810360008301526138ef816138b3565b9050919050565b7f4552433732313a207472616e7366657220746f206e6f6e20455243373231526560008201527f63656976657220696d706c656d656e7465720000000000000000000000000000602082015250565b6000613952603283612683565b915061395d826138f6565b604082019050919050565b6000602082019050818103600083015261398181613945565b9050919050565b7f4e487b7100000000000000000000000000000000000000000000000000000000600052601260045260246000fd5b600081519050919050565b600082825260208201905092915050565b60006139de826139b7565b6139e881856139c2565b93506139f8818560208601612694565b613a01816126be565b840191505092915050565b6000608082019050613a2160008301876127bf565b613a2e60208301866127bf565b613a3b6040830185612a66565b8181036060830152613a4d81846139d3565b905095945050505050565b600081519050613a67816125e9565b92915050565b600060208284031215613a8357613a826125b3565b5b6000613a9184828501613a58565b9150509291505056fea2646970667358221220e11b0aa5b56664e481f8dffb15967127a3cb902ac8c344641e32435c1a48edee64736f6c634300081b0033",
  "linkReferences": {},
  "deployedLinkReferences": {}
}