{
  "_format": "hh-sol-artifact-1",
  "contractName": "NFT",
  "sourceName": "contracts/NFT.sol",
  "abi": [
    {
      "inputs": [],
      "stateMutability": "nonpayable",
      "type": "constructor"
    },
    {
      "anonymous": false,
      "inputs": [
        {
          "indexed": true,
          "internalType": "address",
          "name": "owner",
          "type": "address"
        },
        {
          "indexed": true,
          "internalType": "address",
          "name": "approved",
          "type": "address"
        },
        {
          "indexed": true,
          "internalType": "uint256",
          "name": "tokenId",
          "type": "uint256"
        }
      ],
      "name": "Approval",
      "type": "event"
    },
    {
      "anonymous": false,
      "inputs": [
        {
          "indexed": true,
          "internalType": "address",
          "name": "owner",
          "type": "address"
        },
        {
          "indexed": true,
          "internalType": "address",
          "name": "operator",
          "type": "address"
        },
        {
          "indexed": false,
          "internalType": "bool",
          "name": "approved",
          "type": "bool"
        }
      ],
      "name": "ApprovalForAll",
      "type": "event"
    },
    {
      "anonymous": false,
      "inputs": [
        {
          "indexed": true,
          "internalType": "uint256",
          "name": "tokenId",
          "type": "uint256"
        },
        {
          "indexed": false,
          "internalType": "string",
          "name": "newMetadata",
          "type": "string"
        }
      ],
      "name": "MetadataUpdated",
      "type": "event"
    },
    {
      "anonymous": false,
      "inputs": [
        {
          "indexed": true,
          "internalType": "address",
          "name": "to",
          "type": "address"
        },
        {
          "indexed": false,
          "internalType": "uint256",
          "name": "tokenId",
          "type": "uint256"
        },
        {
          "indexed": false,
          "internalType": "enum NFT.NFTType",
          "name": "nftType",
          "type": "uint8"
        },
        {
          "indexed": false,
          "internalType": "string",
          "name": "metadata",
          "type": "string"
        }
      ],
      "name": "NFTMinted",
      "type": "event"
    },
    {
      "anonymous": false,
      "inputs": [
        {
          "indexed": true,
          "internalType": "address",
          "name": "previousOwner",
          "type": "address"
        },
        {
          "indexed": true,
          "internalType": "address",
          "name": "newOwner",
          "type": "address"
        }
      ],
      "name": "OwnershipTransferred",
      "type": "event"
    },
    {
      "anonymous": false,
      "inputs": [
        {
          "indexed": true,
          "internalType": "address",
          "name": "from",
          "type": "address"
        },
        {
          "indexed": true,
          "internalType": "address",
          "name": "to",
          "type": "address"
        },
        {
          "indexed": true,
          "internalType": "uint256",
          "name": "tokenId",
          "type": "uint256"
        }
      ],
      "name": "Transfer",
      "type": "event"
    },
    {
      "inputs": [
        {
          "internalType": "address",
          "name": "to",
          "type": "address"
        },
        {
          "internalType": "uint256",
          "name": "tokenId",
          "type": "uint256"
        }
      ],
      "name": "approve",
      "outputs": [],
      "stateMutability": "nonpayable",
      "type": "function"
    },
    {
      "inputs": [
        {
          "internalType": "address",
          "name": "owner",
          "type": "address"
        }
      ],
      "name": "balanceOf",
      "outputs": [
        {
          "internalType": "uint256",
          "name": "",
          "type": "uint256"
        }
      ],
      "stateMutability": "view",
      "type": "function"
    },
    {
      "inputs": [
        {
          "internalType": "uint256",
          "name": "tokenId",
          "type": "uint256"
        }
      ],
      "name": "exists",
      "outputs": [
        {
          "internalType": "bool",
          "name": "",
          "type": "bool"
        }
      ],
      "stateMutability": "view",
      "type": "function"
    },
    {
      "inputs": [
        {
          "internalType": "uint256",
          "name": "tokenId",
          "type": "uint256"
        }
      ],
      "name": "getApproved",
      "outputs": [
        {
          "internalType": "address",
          "name": "",
          "type": "address"
        }
      ],
      "stateMutability": "view",
      "type": "function"
    },
    {
      "inputs": [
        {
          "internalType": "uint256",
          "name": "tokenId",
          "type": "uint256"
        }
      ],
      "name": "getNFTDetails",
      "outputs": [
        {
          "components": [
            {
              "internalType": "enum NFT.NFTType",
              "name": "nftType",
              "type": "uint8"
            },
            {
              "internalType": "string",
              "name": "metadata",
              "type": "string"
            },
            {
              "internalType": "address",
              "name": "associatedPlayer",
              "type": "address"
            },
            {
              "internalType": "uint256",
              "name": "associatedTeam",
              "type": "uint256"
            }
          ],
          "internalType": "struct NFT.NFTData",
          "name": "",
          "type": "tuple"
        }
      ],
      "stateMutability": "view",
      "type": "function"
    },
    {
      "inputs": [
        {
          "internalType": "address",
          "name": "owner",
          "type": "address"
        }
      ],
      "name": "getNFTsByOwner",
      "outputs": [
        {
          "internalType": "uint256[]",
          "name": "",
          "type": "uint256[]"
        }
      ],
      "stateMutability": "view",
      "type": "function"
    },
    {
      "inputs": [
        {
          "internalType": "address",
          "name": "owner",
          "type": "address"
        },
        {
          "internalType": "address",
          "name": "operator",
          "type": "address"
        }
      ],
      "name": "isApprovedForAll",
      "outputs": [
        {
          "internalType": "bool",
          "name": "",
          "type": "bool"
        }
      ],
      "stateMutability": "view",
      "type": "function"
    },
    {
      "inputs": [
        {
          "internalType": "address",
          "name": "to",
          "type": "address"
        },
        {
          "internalType": "string",
          "name": "metadata",
          "type": "string"
        },
        {
          "internalType": "uint256",
          "name": "teamId",
          "type": "uint256"
        }
      ],
      "name": "mintColeccionable",
      "outputs": [],
      "stateMutability": "nonpayable",
      "type": "function"
    },
    {
      "inputs": [
        {
          "internalType": "address",
          "name": "to",
          "type": "address"
        },
        {
          "internalType": "string",
          "name": "metadata",
          "type": "string"
        },
        {
          "internalType": "address",
          "name": "player",
          "type": "address"
        }
      ],
      "name": "mintReconocimiento",
      "outputs": [],
      "stateMutability": "nonpayable",
      "type": "function"
    },
    {
      "inputs": [],
      "name": "name",
      "outputs": [
        {
          "internalType": "string",
          "name": "",
          "type": "string"
        }
      ],
      "stateMutability": "view",
      "type": "function"
    },
    {
      "inputs": [],
      "name": "owner",
      "outputs": [
        {
          "internalType": "address",
          "name": "",
          "type": "address"
        }
      ],
      "stateMutability": "view",
      "type": "function"
    },
    {
      "inputs": [
        {
          "internalType": "uint256",
          "name": "tokenId",
          "type": "uint256"
        }
      ],
      "name": "ownerOf",
      "outputs": [
        {
          "internalType": "address",
          "name": "",
          "type": "address"
        }
      ],
      "stateMutability": "view",
      "type": "function"
    },
    {
      "inputs": [],
      "name": "renounceOwnership",
      "outputs": [],
      "stateMutability": "nonpayable",
      "type": "function"
    },
    {
      "inputs": [
        {
          "internalType": "address",
          "name": "from",
          "type": "address"
        },
        {
          "internalType": "address",
          "name": "to",
          "type": "address"
        },
        {
          "internalType": "uint256",
          "name": "tokenId",
          "type": "uint256"
        }
      ],
      "name": "safeTransferFrom",
      "outputs": [],
      "stateMutability": "nonpayable",
      "type": "function"
    },
    {
      "inputs": [
        {
          "internalType": "address",
          "name": "from",
          "type": "address"
        },
        {
          "internalType": "address",
          "name": "to",
          "type": "address"
        },
        {
          "internalType": "uint256",
          "name": "tokenId",
          "type": "uint256"
        },
        {
          "internalType": "bytes",
          "name": "data",
          "type": "bytes"
        }
      ],
      "name": "safeTransferFrom",
      "outputs": [],
      "stateMutability": "nonpayable",
      "type": "function"
    },
    {
      "inputs": [
        {
          "internalType": "address",
          "name": "operator",
          "type": "address"
        },
        {
          "internalType": "bool",
          "name": "approved",
          "type": "bool"
        }
      ],
      "name": "setApprovalForAll",
      "outputs": [],
      "stateMutability": "nonpayable",
      "type": "function"
    },
    {
      "inputs": [
        {
          "internalType": "bytes4",
          "name": "interfaceId",
          "type": "bytes4"
        }
      ],
      "name": "supportsInterface",
      "outputs": [
        {
          "internalType": "bool",
          "name": "",
          "type": "bool"
        }
      ],
      "stateMutability": "view",
      "type": "function"
    },
    {
      "inputs": [],
      "name": "symbol",
      "outputs": [
        {
          "internalType": "string",
          "name": "",
          "type": "string"
        }
      ],
      "stateMutability": "view",
      "type": "function"
    },
    {
      "inputs": [
        {
          "internalType": "uint256",
          "name": "tokenId",
          "type": "uint256"
        }
      ],
      "name": "tokenURI",
      "outputs": [
        {
          "internalType": "string",
          "name": "",
          "type": "string"
        }
      ],
      "stateMutability": "view",
      "type": "function"
    },
    {
      "inputs": [],
      "name": "totalMinted",
      "outputs": [
        {
          "internalType": "uint256",
          "name": "",
          "type": "uint256"
        }
      ],
      "stateMutability": "view",
      "type": "function"
    },
    {
      "inputs": [
        {
          "internalType": "address",
          "name": "from",
          "type": "address"
        },
        {
          "internalType": "address",
          "name": "to",
          "type": "address"
        },
        {
          "internalType": "uint256",
          "name": "tokenId",
          "type": "uint256"
        }
      ],
      "name": "transferFrom",
      "outputs": [],
      "stateMutability": "nonpayable",
      "type": "function"
    },
    {
      "inputs": [
        {
          "internalType": "address",
          "name": "newOwner",
          "type": "address"
        }
      ],
      "name": "transferOwnership",
      "outputs": [],
      "stateMutability": "nonpayable",
      "type": "function"
    },
    {
      "inputs": [
        {
          "internalType": "uint256",
          "name": "tokenId",
          "type": "uint256"
        },
        {
          "internalType": "string",
          "name": "newMetadata",
          "type": "string"
        }
      ],
      "name": "updateMetadata",
      "outputs": [],
      "stateMutability": "nonpayable",
      "type": "function"
    }
  ],
  "bytecode": "0x608060405234801561001057600080fd5b506040518060400160405280600b81526020017f4368616d70696f6e4e46540000000000000000000000000000000000000000008152506040518060400160405280600381526020017f4e46540000000000000000000000000000000000000000000000000000000000815250816000908161008c91906103de565b50806001908161009c91906103de565b5050506100bb6100b06100c060201b60201c565b6100c860201b60201c565b6104b0565b600033905090565b6000600660009054906101000a900473ffffffffffffffffffffffffffffffffffffffff16905081600660006101000a81548173ffffffffffffffffffffffffffffffffffffffff021916908373ffffffffffffffffffffffffffffffffffffffff1602179055508173ffffffffffffffffffffffffffffffffffffffff168173ffffffffffffffffffffffffffffffffffffffff167f8be0079c531659141344cd1fd0a4f28419497f9722a3daafe3b4186f6b6457e060405160405180910390a35050565b600081519050919050565b7f4e487b7100000000000000000000000000000000000000000000000000000000600052604160045260246000fd5b7f4e487b7100000000000000000000000000000000000000000000000000000000600052602260045260246000fd5b6000600282049050600182168061020f57607f821691505b602082108103610222576102216101c8565b5b50919050565b60008190508160005260206000209050919050565b60006020601f8301049050919050565b600082821b905092915050565b60006008830261028a7fffffffffffffffffffffffffffffffffffffffffffffffffffffffffffffffff8261024d565b610294868361024d565b95508019841693508086168417925050509392505050565b6000819050919050565b6000819050919050565b60006102db6102d66102d1846102ac565b6102b6565b6102ac565b9050919050565b6000819050919050565b6102f5836102c0565b610309610301826102e2565b84845461025a565b825550505050565b600090565b61031e610311565b6103298184846102ec565b505050565b5b8181101561034d57610342600082610316565b60018101905061032f565b5050565b601f8211156103925761036381610228565b61036c8461023d565b8101602085101561037b578190505b61038f6103878561023d565b83018261032e565b50505b505050565b600082821c905092915050565b60006103b560001984600802610397565b1980831691505092915050565b60006103ce83836103a4565b9150826002028217905092915050565b6103e78261018e565b67ffffffffffffffff811115610400576103ff610199565b5b61040a82546101f7565b610415828285610351565b600060209050601f8311600181146104485760008415610436578287015190505b61044085826103c2565b8655506104a8565b601f19841661045686610228565b60005b8281101561047e57848901518255600182019150602085019450602081019050610459565b8683101561049b5784890151610497601f8916826103a4565b8355505b6001600288020188555050505b505050505050565b613764806104bf6000396000f3fe608060405234801561001057600080fd5b506004361061014d5760003560e01c8063715018a6116100c3578063b182fcc91161007c578063b182fcc91461039c578063b88d4fde146103b8578063c87b56dd146103d4578063e2afe8b314610404578063e985e9c514610434578063f2fde38b146104645761014d565b8063715018a6146102ec57806382260f35146102f65780638da5cb5b1461032657806395d89b4114610344578063a22cb46514610362578063a2309ff81461037e5761014d565b806323b872dd1161011557806323b872dd1461020857806342842e0e146102245780634f558e791461024057806353c8388e146102705780636352211e1461028c57806370a08231146102bc5761014d565b806301ffc9a71461015257806306fdde0314610182578063081812fc146101a0578063095ea7b3146101d05780632292815b146101ec575b600080fd5b61016c6004803603810190610167919061221b565b610480565b6040516101799190612263565b60405180910390f35b61018a610562565b604051610197919061230e565b60405180910390f35b6101ba60048036038101906101b59190612366565b6105f4565b6040516101c791906123d4565b60405180910390f35b6101ea60048036038101906101e5919061241b565b61063a565b005b61020660048036038101906102019190612590565b610751565b005b610222600480360381019061021d91906125ff565b610932565b005b61023e600480360381019061023991906125ff565b610992565b005b61025a60048036038101906102559190612366565b6109b2565b6040516102679190612263565b60405180910390f35b61028a60048036038101906102859190612652565b6109c4565b005b6102a660048036038101906102a19190612366565b610a74565b6040516102b391906123d4565b60405180910390f35b6102d660048036038101906102d191906126ae565b610afa565b6040516102e391906126ea565b60405180910390f35b6102f4610bb1565b005b610310600480360381019061030b9190612366565b610bc5565b60405161031d9190612847565b60405180910390f35b61032e610d67565b60405161033b91906123d4565b60405180910390f35b61034c610d91565b604051610359919061230e565b60405180910390f35b61037c60048036038101906103779190612895565b610e23565b005b610386610e39565b60405161039391906126ea565b60405180910390f35b6103b660048036038101906103b191906128d5565b610e4a565b005b6103d260048036038101906103cd91906129e5565b61102a565b005b6103ee60048036038101906103e99190612366565b61108c565b6040516103fb919061230e565b60405180910390f35b61041e600480360381019061041991906126ae565b6110f4565b60405161042b9190612b17565b60405180910390f35b61044e60048036038101906104499190612b39565b61118b565b60405161045b9190612263565b60405180910390f35b61047e600480360381019061047991906126ae565b61121f565b005b60007f80ac58cd000000000000000000000000000000000000000000000000000000007bffffffffffffffffffffffffffffffffffffffffffffffffffffffff1916827bffffffffffffffffffffffffffffffffffffffffffffffffffffffff1916148061054b57507f5b5e139f000000000000000000000000000000000000000000000000000000007bffffffffffffffffffffffffffffffffffffffffffffffffffffffff1916827bffffffffffffffffffffffffffffffffffffffffffffffffffffffff1916145b8061055b575061055a826112a2565b5b9050919050565b60606000805461057190612ba8565b80601f016020809104026020016040519081016040528092919081815260200182805461059d90612ba8565b80156105ea5780601f106105bf576101008083540402835291602001916105ea565b820191906000526020600020905b8154815290600101906020018083116105cd57829003601f168201915b5050505050905090565b60006105ff8261130c565b6004600083815260200190815260200160002060009054906101000a900473ffffffffffffffffffffffffffffffffffffffff169050919050565b600061064582610a74565b90508073ffffffffffffffffffffffffffffffffffffffff168373ffffffffffffffffffffffffffffffffffffffff16036106b5576040517f08c379a00000000000000000000000000000000000000000000000000000000081526004016106ac90612c4b565b60405180910390fd5b8073ffffffffffffffffffffffffffffffffffffffff166106d4611357565b73ffffffffffffffffffffffffffffffffffffffff1614806107035750610702816106fd611357565b61118b565b5b610742576040517f08c379a000000000000000000000000000000000000000000000000000000000815260040161073990612cdd565b60405180910390fd5b61074c838361135f565b505050565b610759611418565b6107636007611496565b600061076f60076114ac565b905061077b84826114ba565b60405180608001604052806000600181111561079a57610799612705565b5b8152602001848152602001600073ffffffffffffffffffffffffffffffffffffffff168152602001838152506008600083815260200190815260200160002060008201518160000160006101000a81548160ff0219169083600181111561080457610803612705565b5b0217905550602082015181600101908161081e9190612ea9565b5060408201518160020160006101000a81548173ffffffffffffffffffffffffffffffffffffffff021916908373ffffffffffffffffffffffffffffffffffffffff16021790555060608201518160030155905050600960008573ffffffffffffffffffffffffffffffffffffffff1673ffffffffffffffffffffffffffffffffffffffff1681526020019081526020016000208190806001815401808255809150506001900390600052602060002001600090919091909150558373ffffffffffffffffffffffffffffffffffffffff167fa08b3bf5b7af36b46fffc856a242e512024f345d8981c820b40ed15e1a7b5cae8260008660405161092493929190612f8a565b60405180910390a250505050565b61094361093d611357565b826116d7565b610982576040517f08c379a00000000000000000000000000000000000000000000000000000000081526004016109799061303a565b60405180910390fd5b61098d83838361176c565b505050565b6109ad8383836040518060200160405280600081525061102a565b505050565b60006109bd82611a65565b9050919050565b6109cc611418565b6109d582611a65565b610a14576040517f08c379a0000000000000000000000000000000000000000000000000000000008152600401610a0b906130a6565b60405180910390fd5b80600860008481526020019081526020016000206001019081610a379190612ea9565b50817f459157ba24c7ab9878b165ef465fa6ae2ab42bcd8445f576be378768b0c4730982604051610a68919061230e565b60405180910390a25050565b600080610a8083611aa6565b9050600073ffffffffffffffffffffffffffffffffffffffff168173ffffffffffffffffffffffffffffffffffffffff1603610af1576040517f08c379a0000000000000000000000000000000000000000000000000000000008152600401610ae890613112565b60405180910390fd5b80915050919050565b60008073ffffffffffffffffffffffffffffffffffffffff168273ffffffffffffffffffffffffffffffffffffffff1603610b6a576040517f08c379a0000000000000000000000000000000000000000000000000000000008152600401610b61906131a4565b60405180910390fd5b600360008373ffffffffffffffffffffffffffffffffffffffff1673ffffffffffffffffffffffffffffffffffffffff168152602001908152602001600020549050919050565b610bb9611418565b610bc36000611ae3565b565b610bcd61215f565b610bd682611a65565b610c15576040517f08c379a0000000000000000000000000000000000000000000000000000000008152600401610c0c906130a6565b60405180910390fd5b600860008381526020019081526020016000206040518060800160405290816000820160009054906101000a900460ff166001811115610c5857610c57612705565b5b6001811115610c6a57610c69612705565b5b8152602001600182018054610c7e90612ba8565b80601f0160208091040260200160405190810160405280929190818152602001828054610caa90612ba8565b8015610cf75780601f10610ccc57610100808354040283529160200191610cf7565b820191906000526020600020905b815481529060010190602001808311610cda57829003601f168201915b505050505081526020016002820160009054906101000a900473ffffffffffffffffffffffffffffffffffffffff1673ffffffffffffffffffffffffffffffffffffffff1673ffffffffffffffffffffffffffffffffffffffff1681526020016003820154815250509050919050565b6000600660009054906101000a900473ffffffffffffffffffffffffffffffffffffffff16905090565b606060018054610da090612ba8565b80601f0160208091040260200160405190810160405280929190818152602001828054610dcc90612ba8565b8015610e195780601f10610dee57610100808354040283529160200191610e19565b820191906000526020600020905b815481529060010190602001808311610dfc57829003601f168201915b5050505050905090565b610e35610e2e611357565b8383611ba9565b5050565b6000610e4560076114ac565b905090565b610e52611418565b610e5c6007611496565b6000610e6860076114ac565b9050610e7484826114ba565b6040518060800160405280600180811115610e9257610e91612705565b5b81526020018481526020018373ffffffffffffffffffffffffffffffffffffffff16815260200160008152506008600083815260200190815260200160002060008201518160000160006101000a81548160ff02191690836001811115610efc57610efb612705565b5b02179055506020820151816001019081610f169190612ea9565b5060408201518160020160006101000a81548173ffffffffffffffffffffffffffffffffffffffff021916908373ffffffffffffffffffffffffffffffffffffffff16021790555060608201518160030155905050600960008573ffffffffffffffffffffffffffffffffffffffff1673ffffffffffffffffffffffffffffffffffffffff1681526020019081526020016000208190806001815401808255809150506001900390600052602060002001600090919091909150558373ffffffffffffffffffffffffffffffffffffffff167fa08b3bf5b7af36b46fffc856a242e512024f345d8981c820b40ed15e1a7b5cae8260018660405161101c93929190612f8a565b60405180910390a250505050565b61103b611035611357565b836116d7565b61107a576040517f08c379a00000000000000000000000000000000000000000000000000000000081526004016110719061303a565b60405180910390fd5b61108684848484611d15565b50505050565b60606110978261130c565b60006110a1611d71565b905060008151116110c157604051806020016040528060008152506110ec565b806110cb84611d88565b6040516020016110dc929190613200565b6040516020818303038152906040525b915050919050565b6060600960008373ffffffffffffffffffffffffffffffffffffffff1673ffffffffffffffffffffffffffffffffffffffff16815260200190815260200160002080548060200260200160405190810160405280929190818152602001828054801561117f57602002820191906000526020600020905b81548152602001906001019080831161116b575b50505050509050919050565b6000600560008473ffffffffffffffffffffffffffffffffffffffff1673ffffffffffffffffffffffffffffffffffffffff16815260200190815260200160002060008373ffffffffffffffffffffffffffffffffffffffff1673ffffffffffffffffffffffffffffffffffffffff16815260200190815260200160002060009054906101000a900460ff16905092915050565b611227611418565b600073ffffffffffffffffffffffffffffffffffffffff168173ffffffffffffffffffffffffffffffffffffffff1603611296576040517f08c379a000000000000000000000000000000000000000000000000000000000815260040161128d90613296565b60405180910390fd5b61129f81611ae3565b50565b60007f01ffc9a7000000000000000000000000000000000000000000000000000000007bffffffffffffffffffffffffffffffffffffffffffffffffffffffff1916827bffffffffffffffffffffffffffffffffffffffffffffffffffffffff1916149050919050565b61131581611a65565b611354576040517f08c379a000000000000000000000000000000000000000000000000000000000815260040161134b90613112565b60405180910390fd5b50565b600033905090565b816004600083815260200190815260200160002060006101000a81548173ffffffffffffffffffffffffffffffffffffffff021916908373ffffffffffffffffffffffffffffffffffffffff160217905550808273ffffffffffffffffffffffffffffffffffffffff166113d283610a74565b73ffffffffffffffffffffffffffffffffffffffff167f8c5be1e5ebec7d5bd14f71427d1e84f3dd0314c0f7b2291e5b200ac8c7c3b92560405160405180910390a45050565b611420611357565b73ffffffffffffffffffffffffffffffffffffffff1661143e610d67565b73ffffffffffffffffffffffffffffffffffffffff1614611494576040517f08c379a000000000000000000000000000000000000000000000000000000000815260040161148b90613302565b60405180910390fd5b565b6001816000016000828254019250508190555050565b600081600001549050919050565b600073ffffffffffffffffffffffffffffffffffffffff168273ffffffffffffffffffffffffffffffffffffffff1603611529576040517f08c379a00000000000000000000000000000000000000000000000000000000081526004016115209061336e565b60405180910390fd5b61153281611a65565b15611572576040517f08c379a0000000000000000000000000000000000000000000000000000000008152600401611569906133da565b60405180910390fd5b611580600083836001611e56565b61158981611a65565b156115c9576040517f08c379a00000000000000000000000000000000000000000000000000000000081526004016115c0906133da565b60405180910390fd5b6001600360008473ffffffffffffffffffffffffffffffffffffffff1673ffffffffffffffffffffffffffffffffffffffff16815260200190815260200160002060008282540192505081905550816002600083815260200190815260200160002060006101000a81548173ffffffffffffffffffffffffffffffffffffffff021916908373ffffffffffffffffffffffffffffffffffffffff160217905550808273ffffffffffffffffffffffffffffffffffffffff16600073ffffffffffffffffffffffffffffffffffffffff167fddf252ad1be2c89b69c2b068fc378daa952ba7f163c4a11628f55a4df523b3ef60405160405180910390a46116d3600083836001611e5c565b5050565b6000806116e383610a74565b90508073ffffffffffffffffffffffffffffffffffffffff168473ffffffffffffffffffffffffffffffffffffffff1614806117255750611724818561118b565b5b8061176357508373ffffffffffffffffffffffffffffffffffffffff1661174b846105f4565b73ffffffffffffffffffffffffffffffffffffffff16145b91505092915050565b8273ffffffffffffffffffffffffffffffffffffffff1661178c82610a74565b73ffffffffffffffffffffffffffffffffffffffff16146117e2576040517f08c379a00000000000000000000000000000000000000000000000000000000081526004016117d99061346c565b60405180910390fd5b600073ffffffffffffffffffffffffffffffffffffffff168273ffffffffffffffffffffffffffffffffffffffff1603611851576040517f08c379a0000000000000000000000000000000000000000000000000000000008152600401611848906134fe565b60405180910390fd5b61185e8383836001611e56565b8273ffffffffffffffffffffffffffffffffffffffff1661187e82610a74565b73ffffffffffffffffffffffffffffffffffffffff16146118d4576040517f08c379a00000000000000000000000000000000000000000000000000000000081526004016118cb9061346c565b60405180910390fd5b6004600082815260200190815260200160002060006101000a81549073ffffffffffffffffffffffffffffffffffffffff02191690556001600360008573ffffffffffffffffffffffffffffffffffffffff1673ffffffffffffffffffffffffffffffffffffffff168152602001908152602001600020600082825403925050819055506001600360008473ffffffffffffffffffffffffffffffffffffffff1673ffffffffffffffffffffffffffffffffffffffff16815260200190815260200160002060008282540192505081905550816002600083815260200190815260200160002060006101000a81548173ffffffffffffffffffffffffffffffffffffffff021916908373ffffffffffffffffffffffffffffffffffffffff160217905550808273ffffffffffffffffffffffffffffffffffffffff168473ffffffffffffffffffffffffffffffffffffffff167fddf252ad1be2c89b69c2b068fc378daa952ba7f163c4a11628f55a4df523b3ef60405160405180910390a4611a608383836001611e5c565b505050565b60008073ffffffffffffffffffffffffffffffffffffffff16611a8783611aa6565b73ffffffffffffffffffffffffffffffffffffffff1614159050919050565b60006002600083815260200190815260200160002060009054906101000a900473ffffffffffffffffffffffffffffffffffffffff169050919050565b6000600660009054906101000a900473ffffffffffffffffffffffffffffffffffffffff16905081600660006101000a81548173ffffffffffffffffffffffffffffffffffffffff021916908373ffffffffffffffffffffffffffffffffffffffff1602179055508173ffffffffffffffffffffffffffffffffffffffff168173ffffffffffffffffffffffffffffffffffffffff167f8be0079c531659141344cd1fd0a4f28419497f9722a3daafe3b4186f6b6457e060405160405180910390a35050565b8173ffffffffffffffffffffffffffffffffffffffff168373ffffffffffffffffffffffffffffffffffffffff1603611c17576040517f08c379a0000000000000000000000000000000000000000000000000000000008152600401611c0e9061356a565b60405180910390fd5b80600560008573ffffffffffffffffffffffffffffffffffffffff1673ffffffffffffffffffffffffffffffffffffffff16815260200190815260200160002060008473ffffffffffffffffffffffffffffffffffffffff1673ffffffffffffffffffffffffffffffffffffffff16815260200190815260200160002060006101000a81548160ff0219169083151502179055508173ffffffffffffffffffffffffffffffffffffffff168373ffffffffffffffffffffffffffffffffffffffff167f17307eab39ab6107e8899845ad3d59bd9653f200f220920489ca2b5937696c3183604051611d089190612263565b60405180910390a3505050565b611d2084848461176c565b611d2c84848484611e62565b611d6b576040517f08c379a0000000000000000000000000000000000000000000000000000000008152600401611d62906135fc565b60405180910390fd5b50505050565b606060405180602001604052806000815250905090565b606060006001611d9784611fe9565b01905060008167ffffffffffffffff811115611db657611db5612465565b5b6040519080825280601f01601f191660200182016040528015611de85781602001600182028036833780820191505090505b509050600082602001820190505b600115611e4b578080600190039150507f3031323334353637383961626364656600000000000000000000000000000000600a86061a8153600a8581611e3f57611e3e61361c565b5b04945060008503611df6575b819350505050919050565b50505050565b50505050565b6000611e838473ffffffffffffffffffffffffffffffffffffffff1661213c565b15611fdc578373ffffffffffffffffffffffffffffffffffffffff1663150b7a02611eac611357565b8786866040518563ffffffff1660e01b8152600401611ece94939291906136a0565b6020604051808303816000875af1925050508015611f0a57506040513d601f19601f82011682018060405250810190611f079190613701565b60015b611f8c573d8060008114611f3a576040519150601f19603f3d011682016040523d82523d6000602084013e611f3f565b606091505b506000815103611f84576040517f08c379a0000000000000000000000000000000000000000000000000000000008152600401611f7b906135fc565b60405180910390fd5b805181602001fd5b63150b7a0260e01b7bffffffffffffffffffffffffffffffffffffffffffffffffffffffff1916817bffffffffffffffffffffffffffffffffffffffffffffffffffffffff191614915050611fe1565b600190505b949350505050565b600080600090507a184f03e93ff9f4daa797ed6e38ed64bf6a1f0100000000000000008310612047577a184f03e93ff9f4daa797ed6e38ed64bf6a1f010000000000000000838161203d5761203c61361c565b5b0492506040810190505b6d04ee2d6d415b85acef81000000008310612084576d04ee2d6d415b85acef8100000000838161207a5761207961361c565b5b0492506020810190505b662386f26fc1000083106120b357662386f26fc1000083816120a9576120a861361c565b5b0492506010810190505b6305f5e10083106120dc576305f5e10083816120d2576120d161361c565b5b0492506008810190505b61271083106121015761271083816120f7576120f661361c565b5b0492506004810190505b60648310612124576064838161211a5761211961361c565b5b0492506002810190505b600a8310612133576001810190505b80915050919050565b6000808273ffffffffffffffffffffffffffffffffffffffff163b119050919050565b60405180608001604052806000600181111561217e5761217d612705565b5b815260200160608152602001600073ffffffffffffffffffffffffffffffffffffffff168152602001600081525090565b6000604051905090565b600080fd5b600080fd5b60007fffffffff0000000000000000000000000000000000000000000000000000000082169050919050565b6121f8816121c3565b811461220357600080fd5b50565b600081359050612215816121ef565b92915050565b600060208284031215612231576122306121b9565b5b600061223f84828501612206565b91505092915050565b60008115159050919050565b61225d81612248565b82525050565b60006020820190506122786000830184612254565b92915050565b600081519050919050565b600082825260208201905092915050565b60005b838110156122b857808201518184015260208101905061229d565b60008484015250505050565b6000601f19601f8301169050919050565b60006122e08261227e565b6122ea8185612289565b93506122fa81856020860161229a565b612303816122c4565b840191505092915050565b6000602082019050818103600083015261232881846122d5565b905092915050565b6000819050919050565b61234381612330565b811461234e57600080fd5b50565b6000813590506123608161233a565b92915050565b60006020828403121561237c5761237b6121b9565b5b600061238a84828501612351565b91505092915050565b600073ffffffffffffffffffffffffffffffffffffffff82169050919050565b60006123be82612393565b9050919050565b6123ce816123b3565b82525050565b60006020820190506123e960008301846123c5565b92915050565b6123f8816123b3565b811461240357600080fd5b50565b600081359050612415816123ef565b92915050565b60008060408385031215612432576124316121b9565b5b600061244085828601612406565b925050602061245185828601612351565b9150509250929050565b600080fd5b600080fd5b7f4e487b7100000000000000000000000000000000000000000000000000000000600052604160045260246000fd5b61249d826122c4565b810181811067ffffffffffffffff821117156124bc576124bb612465565b5b80604052505050565b60006124cf6121af565b90506124db8282612494565b919050565b600067ffffffffffffffff8211156124fb576124fa612465565b5b612504826122c4565b9050602081019050919050565b82818337600083830152505050565b600061253361252e846124e0565b6124c5565b90508281526020810184848401111561254f5761254e612460565b5b61255a848285612511565b509392505050565b600082601f8301126125775761257661245b565b5b8135612587848260208601612520565b91505092915050565b6000806000606084860312156125a9576125a86121b9565b5b60006125b786828701612406565b935050602084013567ffffffffffffffff8111156125d8576125d76121be565b5b6125e486828701612562565b92505060406125f586828701612351565b9150509250925092565b600080600060608486031215612618576126176121b9565b5b600061262686828701612406565b935050602061263786828701612406565b925050604061264886828701612351565b9150509250925092565b60008060408385031215612669576126686121b9565b5b600061267785828601612351565b925050602083013567ffffffffffffffff811115612698576126976121be565b5b6126a485828601612562565b9150509250929050565b6000602082840312156126c4576126c36121b9565b5b60006126d284828501612406565b91505092915050565b6126e481612330565b82525050565b60006020820190506126ff60008301846126db565b92915050565b7f4e487b7100000000000000000000000000000000000000000000000000000000600052602160045260246000fd5b6002811061274557612744612705565b5b50565b600081905061275682612734565b919050565b600061276682612748565b9050919050565b6127768161275b565b82525050565b600082825260208201905092915050565b60006127988261227e565b6127a2818561277c565b93506127b281856020860161229a565b6127bb816122c4565b840191505092915050565b6127cf816123b3565b82525050565b6127de81612330565b82525050565b60006080830160008301516127fc600086018261276d565b5060208301518482036020860152612814828261278d565b915050604083015161282960408601826127c6565b50606083015161283c60608601826127d5565b508091505092915050565b6000602082019050818103600083015261286181846127e4565b905092915050565b61287281612248565b811461287d57600080fd5b50565b60008135905061288f81612869565b92915050565b600080604083850312156128ac576128ab6121b9565b5b60006128ba85828601612406565b92505060206128cb85828601612880565b9150509250929050565b6000806000606084860312156128ee576128ed6121b9565b5b60006128fc86828701612406565b935050602084013567ffffffffffffffff81111561291d5761291c6121be565b5b61292986828701612562565b925050604061293a86828701612406565b9150509250925092565b600067ffffffffffffffff82111561295f5761295e612465565b5b612968826122c4565b9050602081019050919050565b600061298861298384612944565b6124c5565b9050828152602081018484840111156129a4576129a3612460565b5b6129af848285612511565b509392505050565b600082601f8301126129cc576129cb61245b565b5b81356129dc848260208601612975565b91505092915050565b600080600080608085870312156129ff576129fe6121b9565b5b6000612a0d87828801612406565b9450506020612a1e87828801612406565b9350506040612a2f87828801612351565b925050606085013567ffffffffffffffff811115612a5057612a4f6121be565b5b612a5c878288016129b7565b91505092959194509250565b600081519050919050565b600082825260208201905092915050565b6000819050602082019050919050565b6000612aa083836127d5565b60208301905092915050565b6000602082019050919050565b6000612ac482612a68565b612ace8185612a73565b9350612ad983612a84565b8060005b83811015612b0a578151612af18882612a94565b9750612afc83612aac565b925050600181019050612add565b5085935050505092915050565b60006020820190508181036000830152612b318184612ab9565b905092915050565b60008060408385031215612b5057612b4f6121b9565b5b6000612b5e85828601612406565b9250506020612b6f85828601612406565b9150509250929050565b7f4e487b7100000000000000000000000000000000000000000000000000000000600052602260045260246000fd5b60006002820490506001821680612bc057607f821691505b602082108103612bd357612bd2612b79565b5b50919050565b7f4552433732313a20617070726f76616c20746f2063757272656e74206f776e6560008201527f7200000000000000000000000000000000000000000000000000000000000000602082015250565b6000612c35602183612289565b9150612c4082612bd9565b604082019050919050565b60006020820190508181036000830152612c6481612c28565b9050919050565b7f4552433732313a20617070726f76652063616c6c6572206973206e6f7420746f60008201527f6b656e206f776e6572206f7220617070726f76656420666f7220616c6c000000602082015250565b6000612cc7603d83612289565b9150612cd282612c6b565b604082019050919050565b60006020820190508181036000830152612cf681612cba565b9050919050565b60008190508160005260206000209050919050565b60006020601f8301049050919050565b600082821b905092915050565b600060088302612d5f7fffffffffffffffffffffffffffffffffffffffffffffffffffffffffffffffff82612d22565b612d698683612d22565b95508019841693508086168417925050509392505050565b6000819050919050565b6000612da6612da1612d9c84612330565b612d81565b612330565b9050919050565b6000819050919050565b612dc083612d8b565b612dd4612dcc82612dad565b848454612d2f565b825550505050565b600090565b612de9612ddc565b612df4818484612db7565b505050565b5b81811015612e1857612e0d600082612de1565b600181019050612dfa565b5050565b601f821115612e5d57612e2e81612cfd565b612e3784612d12565b81016020851015612e46578190505b612e5a612e5285612d12565b830182612df9565b50505b505050565b600082821c905092915050565b6000612e8060001984600802612e62565b1980831691505092915050565b6000612e998383612e6f565b9150826002028217905092915050565b612eb28261227e565b67ffffffffffffffff811115612ecb57612eca612465565b5b612ed58254612ba8565b612ee0828285612e1c565b600060209050601f831160018114612f135760008415612f01578287015190505b612f0b8582612e8d565b865550612f73565b601f198416612f2186612cfd565b60005b82811015612f4957848901518255600182019150602085019450602081019050612f24565b86831015612f665784890151612f62601f891682612e6f565b8355505b6001600288020188555050505b505050505050565b612f848161275b565b82525050565b6000606082019050612f9f60008301866126db565b612fac6020830185612f7b565b8181036040830152612fbe81846122d5565b9050949350505050565b7f4552433732313a2063616c6c6572206973206e6f7420746f6b656e206f776e6560008201527f72206f7220617070726f76656400000000000000000000000000000000000000602082015250565b6000613024602d83612289565b915061302f82612fc8565b604082019050919050565b6000602082019050818103600083015261305381613017565b9050919050565b7f4e4654206e6f2065786973746500000000000000000000000000000000000000600082015250565b6000613090600d83612289565b915061309b8261305a565b602082019050919050565b600060208201905081810360008301526130bf81613083565b9050919050565b7f4552433732313a20696e76616c696420746f6b656e2049440000000000000000600082015250565b60006130fc601883612289565b9150613107826130c6565b602082019050919050565b6000602082019050818103600083015261312b816130ef565b9050919050565b7f4552433732313a2061646472657373207a65726f206973206e6f74206120766160008201527f6c6964206f776e65720000000000000000000000000000000000000000000000602082015250565b600061318e602983612289565b915061319982613132565b604082019050919050565b600060208201905081810360008301526131bd81613181565b9050919050565b600081905092915050565b60006131da8261227e565b6131e481856131c4565b93506131f481856020860161229a565b80840191505092915050565b600061320c82856131cf565b915061321882846131cf565b91508190509392505050565b7f4f776e61626c653a206e6577206f776e657220697320746865207a65726f206160008201527f6464726573730000000000000000000000000000000000000000000000000000602082015250565b6000613280602683612289565b915061328b82613224565b604082019050919050565b600060208201905081810360008301526132af81613273565b9050919050565b7f4f776e61626c653a2063616c6c6572206973206e6f7420746865206f776e6572600082015250565b60006132ec602083612289565b91506132f7826132b6565b602082019050919050565b6000602082019050818103600083015261331b816132df565b9050919050565b7f4552433732313a206d696e7420746f20746865207a65726f2061646472657373600082015250565b6000613358602083612289565b915061336382613322565b602082019050919050565b600060208201905081810360008301526133878161334b565b9050919050565b7f4552433732313a20746f6b656e20616c7265616479206d696e74656400000000600082015250565b60006133c4601c83612289565b91506133cf8261338e565b602082019050919050565b600060208201905081810360008301526133f3816133b7565b9050919050565b7f4552433732313a207472616e736665722066726f6d20696e636f72726563742060008201527f6f776e6572000000000000000000000000000000000000000000000000000000602082015250565b6000613456602583612289565b9150613461826133fa565b604082019050919050565b6000602082019050818103600083015261348581613449565b9050919050565b7f4552433732313a207472616e7366657220746f20746865207a65726f2061646460008201527f7265737300000000000000000000000000000000000000000000000000000000602082015250565b60006134e8602483612289565b91506134f38261348c565b604082019050919050565b60006020820190508181036000830152613517816134db565b9050919050565b7f4552433732313a20617070726f766520746f2063616c6c657200000000000000600082015250565b6000613554601983612289565b915061355f8261351e565b602082019050919050565b6000602082019050818103600083015261358381613547565b9050919050565b7f4552433732313a207472616e7366657220746f206e6f6e20455243373231526560008201527f63656976657220696d706c656d656e7465720000000000000000000000000000602082015250565b60006135e6603283612289565b91506135f18261358a565b604082019050919050565b60006020820190508181036000830152613615816135d9565b9050919050565b7f4e487b7100000000000000000000000000000000000000000000000000000000600052601260045260246000fd5b600081519050919050565b600082825260208201905092915050565b60006136728261364b565b61367c8185613656565b935061368c81856020860161229a565b613695816122c4565b840191505092915050565b60006080820190506136b560008301876123c5565b6136c260208301866123c5565b6136cf60408301856126db565b81810360608301526136e18184613667565b905095945050505050565b6000815190506136fb816121ef565b92915050565b600060208284031215613717576137166121b9565b5b6000613725848285016136ec565b9150509291505056fea2646970667358221220ec3a5671d08aef5ac8c42731786b39470873d3f81e8b61ba2a973ed6e411554264736f6c634300081b0033",
  "linkReferences": {},
  "deployedLinkReferences": {}
}