{
  "_format": "hh-sol-artifact-1",
  "contractName": "NFT",
  "sourceName": "contracts/NFT.sol",
  "abi": [
    {
      "inputs": [],
      "stateMutability": "nonpayable",
      "type": "constructor"
    },
    {
      "anonymous": false,
      "inputs": [
        {
          "indexed": true,
          "internalType": "address",
          "name": "owner",
          "type": "address"
        },
        {
          "indexed": true,
          "internalType": "address",
          "name": "approved",
          "type": "address"
        },
        {
          "indexed": true,
          "internalType": "uint256",
          "name": "tokenId",
          "type": "uint256"
        }
      ],
      "name": "Approval",
      "type": "event"
    },
    {
      "anonymous": false,
      "inputs": [
        {
          "indexed": true,
          "internalType": "address",
          "name": "owner",
          "type": "address"
        },
        {
          "indexed": true,
          "internalType": "address",
          "name": "operator",
          "type": "address"
        },
        {
          "indexed": false,
          "internalType": "bool",
          "name": "approved",
          "type": "bool"
        }
      ],
      "name": "ApprovalForAll",
      "type": "event"
    },
    {
      "anonymous": false,
      "inputs": [
        {
          "indexed": true,
          "internalType": "uint256",
          "name": "tokenId",
          "type": "uint256"
        },
        {
          "indexed": false,
          "internalType": "string",
          "name": "newMetadata",
          "type": "string"
        }
      ],
      "name": "MetadataUpdated",
      "type": "event"
    },
    {
      "anonymous": false,
      "inputs": [
        {
          "indexed": true,
          "internalType": "address",
          "name": "to",
          "type": "address"
        },
        {
          "indexed": false,
          "internalType": "uint256",
          "name": "tokenId",
          "type": "uint256"
        },
        {
          "indexed": false,
          "internalType": "string",
          "name": "metadata",
          "type": "string"
        }
      ],
      "name": "NFTMinted",
      "type": "event"
    },
    {
      "anonymous": false,
      "inputs": [
        {
          "indexed": true,
          "internalType": "address",
          "name": "previousOwner",
          "type": "address"
        },
        {
          "indexed": true,
          "internalType": "address",
          "name": "newOwner",
          "type": "address"
        }
      ],
      "name": "OwnershipTransferred",
      "type": "event"
    },
    {
      "anonymous": false,
      "inputs": [
        {
          "indexed": true,
          "internalType": "address",
          "name": "from",
          "type": "address"
        },
        {
          "indexed": true,
          "internalType": "address",
          "name": "to",
          "type": "address"
        },
        {
          "indexed": true,
          "internalType": "uint256",
          "name": "tokenId",
          "type": "uint256"
        }
      ],
      "name": "Transfer",
      "type": "event"
    },
    {
      "inputs": [
        {
          "internalType": "address",
          "name": "to",
          "type": "address"
        },
        {
          "internalType": "uint256",
          "name": "tokenId",
          "type": "uint256"
        }
      ],
      "name": "approve",
      "outputs": [],
      "stateMutability": "nonpayable",
      "type": "function"
    },
    {
      "inputs": [
        {
          "internalType": "address",
          "name": "owner",
          "type": "address"
        }
      ],
      "name": "balanceOf",
      "outputs": [
        {
          "internalType": "uint256",
          "name": "",
          "type": "uint256"
        }
      ],
      "stateMutability": "view",
      "type": "function"
    },
    {
      "inputs": [
        {
          "internalType": "uint256",
          "name": "tokenId",
          "type": "uint256"
        }
      ],
      "name": "exists",
      "outputs": [
        {
          "internalType": "bool",
          "name": "",
          "type": "bool"
        }
      ],
      "stateMutability": "view",
      "type": "function"
    },
    {
      "inputs": [
        {
          "internalType": "uint256",
          "name": "tokenId",
          "type": "uint256"
        }
      ],
      "name": "getApproved",
      "outputs": [
        {
          "internalType": "address",
          "name": "",
          "type": "address"
        }
      ],
      "stateMutability": "view",
      "type": "function"
    },
    {
      "inputs": [
        {
          "internalType": "uint256",
          "name": "tokenId",
          "type": "uint256"
        }
      ],
      "name": "getMetadata",
      "outputs": [
        {
          "internalType": "string",
          "name": "",
          "type": "string"
        }
      ],
      "stateMutability": "view",
      "type": "function"
    },
    {
      "inputs": [
        {
          "internalType": "address",
          "name": "owner",
          "type": "address"
        }
      ],
      "name": "getNFTsByOwner",
      "outputs": [
        {
          "internalType": "uint256[]",
          "name": "",
          "type": "uint256[]"
        }
      ],
      "stateMutability": "view",
      "type": "function"
    },
    {
      "inputs": [
        {
          "internalType": "address",
          "name": "owner",
          "type": "address"
        },
        {
          "internalType": "address",
          "name": "operator",
          "type": "address"
        }
      ],
      "name": "isApprovedForAll",
      "outputs": [
        {
          "internalType": "bool",
          "name": "",
          "type": "bool"
        }
      ],
      "stateMutability": "view",
      "type": "function"
    },
    {
      "inputs": [
        {
          "internalType": "address",
          "name": "to",
          "type": "address"
        },
        {
          "internalType": "string",
          "name": "metadata",
          "type": "string"
        }
      ],
      "name": "mint",
      "outputs": [],
      "stateMutability": "nonpayable",
      "type": "function"
    },
    {
      "inputs": [],
      "name": "name",
      "outputs": [
        {
          "internalType": "string",
          "name": "",
          "type": "string"
        }
      ],
      "stateMutability": "view",
      "type": "function"
    },
    {
      "inputs": [],
      "name": "owner",
      "outputs": [
        {
          "internalType": "address",
          "name": "",
          "type": "address"
        }
      ],
      "stateMutability": "view",
      "type": "function"
    },
    {
      "inputs": [
        {
          "internalType": "uint256",
          "name": "tokenId",
          "type": "uint256"
        }
      ],
      "name": "ownerOf",
      "outputs": [
        {
          "internalType": "address",
          "name": "",
          "type": "address"
        }
      ],
      "stateMutability": "view",
      "type": "function"
    },
    {
      "inputs": [],
      "name": "renounceOwnership",
      "outputs": [],
      "stateMutability": "nonpayable",
      "type": "function"
    },
    {
      "inputs": [
        {
          "internalType": "address",
          "name": "from",
          "type": "address"
        },
        {
          "internalType": "address",
          "name": "to",
          "type": "address"
        },
        {
          "internalType": "uint256",
          "name": "tokenId",
          "type": "uint256"
        }
      ],
      "name": "safeTransferFrom",
      "outputs": [],
      "stateMutability": "nonpayable",
      "type": "function"
    },
    {
      "inputs": [
        {
          "internalType": "address",
          "name": "from",
          "type": "address"
        },
        {
          "internalType": "address",
          "name": "to",
          "type": "address"
        },
        {
          "internalType": "uint256",
          "name": "tokenId",
          "type": "uint256"
        },
        {
          "internalType": "bytes",
          "name": "data",
          "type": "bytes"
        }
      ],
      "name": "safeTransferFrom",
      "outputs": [],
      "stateMutability": "nonpayable",
      "type": "function"
    },
    {
      "inputs": [
        {
          "internalType": "address",
          "name": "operator",
          "type": "address"
        },
        {
          "internalType": "bool",
          "name": "approved",
          "type": "bool"
        }
      ],
      "name": "setApprovalForAll",
      "outputs": [],
      "stateMutability": "nonpayable",
      "type": "function"
    },
    {
      "inputs": [
        {
          "internalType": "bytes4",
          "name": "interfaceId",
          "type": "bytes4"
        }
      ],
      "name": "supportsInterface",
      "outputs": [
        {
          "internalType": "bool",
          "name": "",
          "type": "bool"
        }
      ],
      "stateMutability": "view",
      "type": "function"
    },
    {
      "inputs": [],
      "name": "symbol",
      "outputs": [
        {
          "internalType": "string",
          "name": "",
          "type": "string"
        }
      ],
      "stateMutability": "view",
      "type": "function"
    },
    {
      "inputs": [
        {
          "internalType": "uint256",
          "name": "tokenId",
          "type": "uint256"
        }
      ],
      "name": "tokenURI",
      "outputs": [
        {
          "internalType": "string",
          "name": "",
          "type": "string"
        }
      ],
      "stateMutability": "view",
      "type": "function"
    },
    {
      "inputs": [],
      "name": "totalMinted",
      "outputs": [
        {
          "internalType": "uint256",
          "name": "",
          "type": "uint256"
        }
      ],
      "stateMutability": "view",
      "type": "function"
    },
    {
      "inputs": [
        {
          "internalType": "address",
          "name": "from",
          "type": "address"
        },
        {
          "internalType": "address",
          "name": "to",
          "type": "address"
        },
        {
          "internalType": "uint256",
          "name": "tokenId",
          "type": "uint256"
        }
      ],
      "name": "transferFrom",
      "outputs": [],
      "stateMutability": "nonpayable",
      "type": "function"
    },
    {
      "inputs": [
        {
          "internalType": "address",
          "name": "newOwner",
          "type": "address"
        }
      ],
      "name": "transferOwnership",
      "outputs": [],
      "stateMutability": "nonpayable",
      "type": "function"
    },
    {
      "inputs": [
        {
          "internalType": "uint256",
          "name": "tokenId",
          "type": "uint256"
        },
        {
          "internalType": "string",
          "name": "newMetadata",
          "type": "string"
        }
      ],
      "name": "updateMetadata",
      "outputs": [],
      "stateMutability": "nonpayable",
      "type": "function"
    }
  ],
  "bytecode": "0x608060405234801561001057600080fd5b506040518060400160405280600b81526020017f4368616d70696f6e4e46540000000000000000000000000000000000000000008152506040518060400160405280600381526020017f4e46540000000000000000000000000000000000000000000000000000000000815250816000908161008c91906103de565b50806001908161009c91906103de565b5050506100bb6100b06100c060201b60201c565b6100c860201b60201c565b6104b0565b600033905090565b6000600660009054906101000a900473ffffffffffffffffffffffffffffffffffffffff16905081600660006101000a81548173ffffffffffffffffffffffffffffffffffffffff021916908373ffffffffffffffffffffffffffffffffffffffff1602179055508173ffffffffffffffffffffffffffffffffffffffff168173ffffffffffffffffffffffffffffffffffffffff167f8be0079c531659141344cd1fd0a4f28419497f9722a3daafe3b4186f6b6457e060405160405180910390a35050565b600081519050919050565b7f4e487b7100000000000000000000000000000000000000000000000000000000600052604160045260246000fd5b7f4e487b7100000000000000000000000000000000000000000000000000000000600052602260045260246000fd5b6000600282049050600182168061020f57607f821691505b602082108103610222576102216101c8565b5b50919050565b60008190508160005260206000209050919050565b60006020601f8301049050919050565b600082821b905092915050565b60006008830261028a7fffffffffffffffffffffffffffffffffffffffffffffffffffffffffffffffff8261024d565b610294868361024d565b95508019841693508086168417925050509392505050565b6000819050919050565b6000819050919050565b60006102db6102d66102d1846102ac565b6102b6565b6102ac565b9050919050565b6000819050919050565b6102f5836102c0565b610309610301826102e2565b84845461025a565b825550505050565b600090565b61031e610311565b6103298184846102ec565b505050565b5b8181101561034d57610342600082610316565b60018101905061032f565b5050565b601f8211156103925761036381610228565b61036c8461023d565b8101602085101561037b578190505b61038f6103878561023d565b83018261032e565b50505b505050565b600082821c905092915050565b60006103b560001984600802610397565b1980831691505092915050565b60006103ce83836103a4565b9150826002028217905092915050565b6103e78261018e565b67ffffffffffffffff811115610400576103ff610199565b5b61040a82546101f7565b610415828285610351565b600060209050601f8311600181146104485760008415610436578287015190505b61044085826103c2565b8655506104a8565b601f19841661045686610228565b60005b8281101561047e57848901518255600182019150602085019450602081019050610459565b8683101561049b5784890151610497601f8916826103a4565b8355505b6001600288020188555050505b505050505050565b613186806104bf6000396000f3fe608060405234801561001057600080fd5b50600436106101425760003560e01c80638da5cb5b116100b8578063b88d4fde1161007c578063b88d4fde14610375578063c87b56dd14610391578063d0def521146103c1578063e2afe8b3146103dd578063e985e9c51461040d578063f2fde38b1461043d57610142565b80638da5cb5b146102cf57806395d89b41146102ed578063a22cb4651461030b578063a2309ff814610327578063a574cea41461034557610142565b806342842e0e1161010a57806342842e0e146101fd5780634f558e791461021957806353c8388e146102495780636352211e1461026557806370a0823114610295578063715018a6146102c557610142565b806301ffc9a71461014757806306fdde0314610177578063081812fc14610195578063095ea7b3146101c557806323b872dd146101e1575b600080fd5b610161600480360381019061015c9190611e31565b610459565b60405161016e9190611e79565b60405180910390f35b61017f61053b565b60405161018c9190611f24565b60405180910390f35b6101af60048036038101906101aa9190611f7c565b6105cd565b6040516101bc9190611fea565b60405180910390f35b6101df60048036038101906101da9190612031565b610613565b005b6101fb60048036038101906101f69190612071565b61072a565b005b61021760048036038101906102129190612071565b61078a565b005b610233600480360381019061022e9190611f7c565b6107aa565b6040516102409190611e79565b60405180910390f35b610263600480360381019061025e91906121f9565b6107bc565b005b61027f600480360381019061027a9190611f7c565b610869565b60405161028c9190611fea565b60405180910390f35b6102af60048036038101906102aa9190612255565b6108ef565b6040516102bc9190612291565b60405180910390f35b6102cd6109a6565b005b6102d76109ba565b6040516102e49190611fea565b60405180910390f35b6102f56109e4565b6040516103029190611f24565b60405180910390f35b610325600480360381019061032091906122d8565b610a76565b005b61032f610a8c565b60405161033c9190612291565b60405180910390f35b61035f600480360381019061035a9190611f7c565b610a9d565b60405161036c9190611f24565b60405180910390f35b61038f600480360381019061038a91906123b9565b610b8a565b005b6103ab60048036038101906103a69190611f7c565b610bec565b6040516103b89190611f24565b60405180910390f35b6103db60048036038101906103d6919061243c565b610c54565b005b6103f760048036038101906103f29190612255565b610d5a565b6040516104049190612556565b60405180910390f35b61042760048036038101906104229190612578565b610df1565b6040516104349190611e79565b60405180910390f35b61045760048036038101906104529190612255565b610e85565b005b60007f80ac58cd000000000000000000000000000000000000000000000000000000007bffffffffffffffffffffffffffffffffffffffffffffffffffffffff1916827bffffffffffffffffffffffffffffffffffffffffffffffffffffffff1916148061052457507f5b5e139f000000000000000000000000000000000000000000000000000000007bffffffffffffffffffffffffffffffffffffffffffffffffffffffff1916827bffffffffffffffffffffffffffffffffffffffffffffffffffffffff1916145b80610534575061053382610f08565b5b9050919050565b60606000805461054a906125e7565b80601f0160208091040260200160405190810160405280929190818152602001828054610576906125e7565b80156105c35780601f10610598576101008083540402835291602001916105c3565b820191906000526020600020905b8154815290600101906020018083116105a657829003601f168201915b5050505050905090565b60006105d882610f72565b6004600083815260200190815260200160002060009054906101000a900473ffffffffffffffffffffffffffffffffffffffff169050919050565b600061061e82610869565b90508073ffffffffffffffffffffffffffffffffffffffff168373ffffffffffffffffffffffffffffffffffffffff160361068e576040517f08c379a00000000000000000000000000000000000000000000000000000000081526004016106859061268a565b60405180910390fd5b8073ffffffffffffffffffffffffffffffffffffffff166106ad610fbd565b73ffffffffffffffffffffffffffffffffffffffff1614806106dc57506106db816106d6610fbd565b610df1565b5b61071b576040517f08c379a00000000000000000000000000000000000000000000000000000000081526004016107129061271c565b60405180910390fd5b6107258383610fc5565b505050565b61073b610735610fbd565b8261107e565b61077a576040517f08c379a0000000000000000000000000000000000000000000000000000000008152600401610771906127ae565b60405180910390fd5b610785838383611113565b505050565b6107a583838360405180602001604052806000815250610b8a565b505050565b60006107b58261140c565b9050919050565b6107c461144d565b6107cd8261140c565b61080c576040517f08c379a00000000000000000000000000000000000000000000000000000000081526004016108039061281a565b60405180910390fd5b8060086000848152602001908152602001600020908161082c91906129e6565b50817f459157ba24c7ab9878b165ef465fa6ae2ab42bcd8445f576be378768b0c473098260405161085d9190611f24565b60405180910390a25050565b600080610875836114cb565b9050600073ffffffffffffffffffffffffffffffffffffffff168173ffffffffffffffffffffffffffffffffffffffff16036108e6576040517f08c379a00000000000000000000000000000000000000000000000000000000081526004016108dd90612b04565b60405180910390fd5b80915050919050565b60008073ffffffffffffffffffffffffffffffffffffffff168273ffffffffffffffffffffffffffffffffffffffff160361095f576040517f08c379a000000000000000000000000000000000000000000000000000000000815260040161095690612b96565b60405180910390fd5b600360008373ffffffffffffffffffffffffffffffffffffffff1673ffffffffffffffffffffffffffffffffffffffff168152602001908152602001600020549050919050565b6109ae61144d565b6109b86000611508565b565b6000600660009054906101000a900473ffffffffffffffffffffffffffffffffffffffff16905090565b6060600180546109f3906125e7565b80601f0160208091040260200160405190810160405280929190818152602001828054610a1f906125e7565b8015610a6c5780601f10610a4157610100808354040283529160200191610a6c565b820191906000526020600020905b815481529060010190602001808311610a4f57829003601f168201915b5050505050905090565b610a88610a81610fbd565b83836115ce565b5050565b6000610a98600761173a565b905090565b6060610aa88261140c565b610ae7576040517f08c379a0000000000000000000000000000000000000000000000000000000008152600401610ade9061281a565b60405180910390fd5b600860008381526020019081526020016000208054610b05906125e7565b80601f0160208091040260200160405190810160405280929190818152602001828054610b31906125e7565b8015610b7e5780601f10610b5357610100808354040283529160200191610b7e565b820191906000526020600020905b815481529060010190602001808311610b6157829003601f168201915b50505050509050919050565b610b9b610b95610fbd565b8361107e565b610bda576040517f08c379a0000000000000000000000000000000000000000000000000000000008152600401610bd1906127ae565b60405180910390fd5b610be684848484611748565b50505050565b6060610bf782610f72565b6000610c016117a4565b90506000815111610c215760405180602001604052806000815250610c4c565b80610c2b846117bb565b604051602001610c3c929190612bf2565b6040516020818303038152906040525b915050919050565b610c5c61144d565b610c666007611889565b6000610c72600761173a565b9050610c7e838261189f565b81600860008381526020019081526020016000209081610c9e91906129e6565b50600960008473ffffffffffffffffffffffffffffffffffffffff1673ffffffffffffffffffffffffffffffffffffffff1681526020019081526020016000208190806001815401808255809150506001900390600052602060002001600090919091909150558273ffffffffffffffffffffffffffffffffffffffff167fd35bb95e09c04b219e35047ce7b7b300e3384264ef84a40456943dbc0fc17c148284604051610d4d929190612c16565b60405180910390a2505050565b6060600960008373ffffffffffffffffffffffffffffffffffffffff1673ffffffffffffffffffffffffffffffffffffffff168152602001908152602001600020805480602002602001604051908101604052809291908181526020018280548015610de557602002820191906000526020600020905b815481526020019060010190808311610dd1575b50505050509050919050565b6000600560008473ffffffffffffffffffffffffffffffffffffffff1673ffffffffffffffffffffffffffffffffffffffff16815260200190815260200160002060008373ffffffffffffffffffffffffffffffffffffffff1673ffffffffffffffffffffffffffffffffffffffff16815260200190815260200160002060009054906101000a900460ff16905092915050565b610e8d61144d565b600073ffffffffffffffffffffffffffffffffffffffff168173ffffffffffffffffffffffffffffffffffffffff1603610efc576040517f08c379a0000000000000000000000000000000000000000000000000000000008152600401610ef390612cb8565b60405180910390fd5b610f0581611508565b50565b60007f01ffc9a7000000000000000000000000000000000000000000000000000000007bffffffffffffffffffffffffffffffffffffffffffffffffffffffff1916827bffffffffffffffffffffffffffffffffffffffffffffffffffffffff1916149050919050565b610f7b8161140c565b610fba576040517f08c379a0000000000000000000000000000000000000000000000000000000008152600401610fb190612b04565b60405180910390fd5b50565b600033905090565b816004600083815260200190815260200160002060006101000a81548173ffffffffffffffffffffffffffffffffffffffff021916908373ffffffffffffffffffffffffffffffffffffffff160217905550808273ffffffffffffffffffffffffffffffffffffffff1661103883610869565b73ffffffffffffffffffffffffffffffffffffffff167f8c5be1e5ebec7d5bd14f71427d1e84f3dd0314c0f7b2291e5b200ac8c7c3b92560405160405180910390a45050565b60008061108a83610869565b90508073ffffffffffffffffffffffffffffffffffffffff168473ffffffffffffffffffffffffffffffffffffffff1614806110cc57506110cb8185610df1565b5b8061110a57508373ffffffffffffffffffffffffffffffffffffffff166110f2846105cd565b73ffffffffffffffffffffffffffffffffffffffff16145b91505092915050565b8273ffffffffffffffffffffffffffffffffffffffff1661113382610869565b73ffffffffffffffffffffffffffffffffffffffff1614611189576040517f08c379a000000000000000000000000000000000000000000000000000000000815260040161118090612d4a565b60405180910390fd5b600073ffffffffffffffffffffffffffffffffffffffff168273ffffffffffffffffffffffffffffffffffffffff16036111f8576040517f08c379a00000000000000000000000000000000000000000000000000000000081526004016111ef90612ddc565b60405180910390fd5b6112058383836001611abc565b8273ffffffffffffffffffffffffffffffffffffffff1661122582610869565b73ffffffffffffffffffffffffffffffffffffffff161461127b576040517f08c379a000000000000000000000000000000000000000000000000000000000815260040161127290612d4a565b60405180910390fd5b6004600082815260200190815260200160002060006101000a81549073ffffffffffffffffffffffffffffffffffffffff02191690556001600360008573ffffffffffffffffffffffffffffffffffffffff1673ffffffffffffffffffffffffffffffffffffffff168152602001908152602001600020600082825403925050819055506001600360008473ffffffffffffffffffffffffffffffffffffffff1673ffffffffffffffffffffffffffffffffffffffff16815260200190815260200160002060008282540192505081905550816002600083815260200190815260200160002060006101000a81548173ffffffffffffffffffffffffffffffffffffffff021916908373ffffffffffffffffffffffffffffffffffffffff160217905550808273ffffffffffffffffffffffffffffffffffffffff168473ffffffffffffffffffffffffffffffffffffffff167fddf252ad1be2c89b69c2b068fc378daa952ba7f163c4a11628f55a4df523b3ef60405160405180910390a46114078383836001611ac2565b505050565b60008073ffffffffffffffffffffffffffffffffffffffff1661142e836114cb565b73ffffffffffffffffffffffffffffffffffffffff1614159050919050565b611455610fbd565b73ffffffffffffffffffffffffffffffffffffffff166114736109ba565b73ffffffffffffffffffffffffffffffffffffffff16146114c9576040517f08c379a00000000000000000000000000000000000000000000000000000000081526004016114c090612e48565b60405180910390fd5b565b60006002600083815260200190815260200160002060009054906101000a900473ffffffffffffffffffffffffffffffffffffffff169050919050565b6000600660009054906101000a900473ffffffffffffffffffffffffffffffffffffffff16905081600660006101000a81548173ffffffffffffffffffffffffffffffffffffffff021916908373ffffffffffffffffffffffffffffffffffffffff1602179055508173ffffffffffffffffffffffffffffffffffffffff168173ffffffffffffffffffffffffffffffffffffffff167f8be0079c531659141344cd1fd0a4f28419497f9722a3daafe3b4186f6b6457e060405160405180910390a35050565b8173ffffffffffffffffffffffffffffffffffffffff168373ffffffffffffffffffffffffffffffffffffffff160361163c576040517f08c379a000000000000000000000000000000000000000000000000000000000815260040161163390612eb4565b60405180910390fd5b80600560008573ffffffffffffffffffffffffffffffffffffffff1673ffffffffffffffffffffffffffffffffffffffff16815260200190815260200160002060008473ffffffffffffffffffffffffffffffffffffffff1673ffffffffffffffffffffffffffffffffffffffff16815260200190815260200160002060006101000a81548160ff0219169083151502179055508173ffffffffffffffffffffffffffffffffffffffff168373ffffffffffffffffffffffffffffffffffffffff167f17307eab39ab6107e8899845ad3d59bd9653f200f220920489ca2b5937696c318360405161172d9190611e79565b60405180910390a3505050565b600081600001549050919050565b611753848484611113565b61175f84848484611ac8565b61179e576040517f08c379a000000000000000000000000000000000000000000000000000000000815260040161179590612f46565b60405180910390fd5b50505050565b606060405180602001604052806000815250905090565b6060600060016117ca84611c4f565b01905060008167ffffffffffffffff8111156117e9576117e86120ce565b5b6040519080825280601f01601f19166020018201604052801561181b5781602001600182028036833780820191505090505b509050600082602001820190505b60011561187e578080600190039150507f3031323334353637383961626364656600000000000000000000000000000000600a86061a8153600a858161187257611871612f66565b5b04945060008503611829575b819350505050919050565b6001816000016000828254019250508190555050565b600073ffffffffffffffffffffffffffffffffffffffff168273ffffffffffffffffffffffffffffffffffffffff160361190e576040517f08c379a000000000000000000000000000000000000000000000000000000000815260040161190590612fe1565b60405180910390fd5b6119178161140c565b15611957576040517f08c379a000000000000000000000000000000000000000000000000000000000815260040161194e9061304d565b60405180910390fd5b611965600083836001611abc565b61196e8161140c565b156119ae576040517f08c379a00000000000000000000000000000000000000000000000000000000081526004016119a59061304d565b60405180910390fd5b6001600360008473ffffffffffffffffffffffffffffffffffffffff1673ffffffffffffffffffffffffffffffffffffffff16815260200190815260200160002060008282540192505081905550816002600083815260200190815260200160002060006101000a81548173ffffffffffffffffffffffffffffffffffffffff021916908373ffffffffffffffffffffffffffffffffffffffff160217905550808273ffffffffffffffffffffffffffffffffffffffff16600073ffffffffffffffffffffffffffffffffffffffff167fddf252ad1be2c89b69c2b068fc378daa952ba7f163c4a11628f55a4df523b3ef60405160405180910390a4611ab8600083836001611ac2565b5050565b50505050565b50505050565b6000611ae98473ffffffffffffffffffffffffffffffffffffffff16611da2565b15611c42578373ffffffffffffffffffffffffffffffffffffffff1663150b7a02611b12610fbd565b8786866040518563ffffffff1660e01b8152600401611b3494939291906130c2565b6020604051808303816000875af1925050508015611b7057506040513d601f19601f82011682018060405250810190611b6d9190613123565b60015b611bf2573d8060008114611ba0576040519150601f19603f3d011682016040523d82523d6000602084013e611ba5565b606091505b506000815103611bea576040517f08c379a0000000000000000000000000000000000000000000000000000000008152600401611be190612f46565b60405180910390fd5b805181602001fd5b63150b7a0260e01b7bffffffffffffffffffffffffffffffffffffffffffffffffffffffff1916817bffffffffffffffffffffffffffffffffffffffffffffffffffffffff191614915050611c47565b600190505b949350505050565b600080600090507a184f03e93ff9f4daa797ed6e38ed64bf6a1f0100000000000000008310611cad577a184f03e93ff9f4daa797ed6e38ed64bf6a1f0100000000000000008381611ca357611ca2612f66565b5b0492506040810190505b6d04ee2d6d415b85acef81000000008310611cea576d04ee2d6d415b85acef81000000008381611ce057611cdf612f66565b5b0492506020810190505b662386f26fc100008310611d1957662386f26fc100008381611d0f57611d0e612f66565b5b0492506010810190505b6305f5e1008310611d42576305f5e1008381611d3857611d37612f66565b5b0492506008810190505b6127108310611d67576127108381611d5d57611d5c612f66565b5b0492506004810190505b60648310611d8a5760648381611d8057611d7f612f66565b5b0492506002810190505b600a8310611d99576001810190505b80915050919050565b6000808273ffffffffffffffffffffffffffffffffffffffff163b119050919050565b6000604051905090565b600080fd5b600080fd5b60007fffffffff0000000000000000000000000000000000000000000000000000000082169050919050565b611e0e81611dd9565b8114611e1957600080fd5b50565b600081359050611e2b81611e05565b92915050565b600060208284031215611e4757611e46611dcf565b5b6000611e5584828501611e1c565b91505092915050565b60008115159050919050565b611e7381611e5e565b82525050565b6000602082019050611e8e6000830184611e6a565b92915050565b600081519050919050565b600082825260208201905092915050565b60005b83811015611ece578082015181840152602081019050611eb3565b60008484015250505050565b6000601f19601f8301169050919050565b6000611ef682611e94565b611f008185611e9f565b9350611f10818560208601611eb0565b611f1981611eda565b840191505092915050565b60006020820190508181036000830152611f3e8184611eeb565b905092915050565b6000819050919050565b611f5981611f46565b8114611f6457600080fd5b50565b600081359050611f7681611f50565b92915050565b600060208284031215611f9257611f91611dcf565b5b6000611fa084828501611f67565b91505092915050565b600073ffffffffffffffffffffffffffffffffffffffff82169050919050565b6000611fd482611fa9565b9050919050565b611fe481611fc9565b82525050565b6000602082019050611fff6000830184611fdb565b92915050565b61200e81611fc9565b811461201957600080fd5b50565b60008135905061202b81612005565b92915050565b6000806040838503121561204857612047611dcf565b5b60006120568582860161201c565b925050602061206785828601611f67565b9150509250929050565b60008060006060848603121561208a57612089611dcf565b5b60006120988682870161201c565b93505060206120a98682870161201c565b92505060406120ba86828701611f67565b9150509250925092565b600080fd5b600080fd5b7f4e487b7100000000000000000000000000000000000000000000000000000000600052604160045260246000fd5b61210682611eda565b810181811067ffffffffffffffff82111715612125576121246120ce565b5b80604052505050565b6000612138611dc5565b905061214482826120fd565b919050565b600067ffffffffffffffff821115612164576121636120ce565b5b61216d82611eda565b9050602081019050919050565b82818337600083830152505050565b600061219c61219784612149565b61212e565b9050828152602081018484840111156121b8576121b76120c9565b5b6121c384828561217a565b509392505050565b600082601f8301126121e0576121df6120c4565b5b81356121f0848260208601612189565b91505092915050565b600080604083850312156122105761220f611dcf565b5b600061221e85828601611f67565b925050602083013567ffffffffffffffff81111561223f5761223e611dd4565b5b61224b858286016121cb565b9150509250929050565b60006020828403121561226b5761226a611dcf565b5b60006122798482850161201c565b91505092915050565b61228b81611f46565b82525050565b60006020820190506122a66000830184612282565b92915050565b6122b581611e5e565b81146122c057600080fd5b50565b6000813590506122d2816122ac565b92915050565b600080604083850312156122ef576122ee611dcf565b5b60006122fd8582860161201c565b925050602061230e858286016122c3565b9150509250929050565b600067ffffffffffffffff821115612333576123326120ce565b5b61233c82611eda565b9050602081019050919050565b600061235c61235784612318565b61212e565b905082815260208101848484011115612378576123776120c9565b5b61238384828561217a565b509392505050565b600082601f8301126123a05761239f6120c4565b5b81356123b0848260208601612349565b91505092915050565b600080600080608085870312156123d3576123d2611dcf565b5b60006123e18782880161201c565b94505060206123f28782880161201c565b935050604061240387828801611f67565b925050606085013567ffffffffffffffff81111561242457612423611dd4565b5b6124308782880161238b565b91505092959194509250565b6000806040838503121561245357612452611dcf565b5b60006124618582860161201c565b925050602083013567ffffffffffffffff81111561248257612481611dd4565b5b61248e858286016121cb565b9150509250929050565b600081519050919050565b600082825260208201905092915050565b6000819050602082019050919050565b6124cd81611f46565b82525050565b60006124df83836124c4565b60208301905092915050565b6000602082019050919050565b600061250382612498565b61250d81856124a3565b9350612518836124b4565b8060005b8381101561254957815161253088826124d3565b975061253b836124eb565b92505060018101905061251c565b5085935050505092915050565b6000602082019050818103600083015261257081846124f8565b905092915050565b6000806040838503121561258f5761258e611dcf565b5b600061259d8582860161201c565b92505060206125ae8582860161201c565b9150509250929050565b7f4e487b7100000000000000000000000000000000000000000000000000000000600052602260045260246000fd5b600060028204905060018216806125ff57607f821691505b602082108103612612576126116125b8565b5b50919050565b7f4552433732313a20617070726f76616c20746f2063757272656e74206f776e6560008201527f7200000000000000000000000000000000000000000000000000000000000000602082015250565b6000612674602183611e9f565b915061267f82612618565b604082019050919050565b600060208201905081810360008301526126a381612667565b9050919050565b7f4552433732313a20617070726f76652063616c6c6572206973206e6f7420746f60008201527f6b656e206f776e6572206f7220617070726f76656420666f7220616c6c000000602082015250565b6000612706603d83611e9f565b9150612711826126aa565b604082019050919050565b60006020820190508181036000830152612735816126f9565b9050919050565b7f4552433732313a2063616c6c6572206973206e6f7420746f6b656e206f776e6560008201527f72206f7220617070726f76656400000000000000000000000000000000000000602082015250565b6000612798602d83611e9f565b91506127a38261273c565b604082019050919050565b600060208201905081810360008301526127c78161278b565b9050919050565b7f4e4654206e6f2065786973746500000000000000000000000000000000000000600082015250565b6000612804600d83611e9f565b915061280f826127ce565b602082019050919050565b60006020820190508181036000830152612833816127f7565b9050919050565b60008190508160005260206000209050919050565b60006020601f8301049050919050565b600082821b905092915050565b60006008830261289c7fffffffffffffffffffffffffffffffffffffffffffffffffffffffffffffffff8261285f565b6128a6868361285f565b95508019841693508086168417925050509392505050565b6000819050919050565b60006128e36128de6128d984611f46565b6128be565b611f46565b9050919050565b6000819050919050565b6128fd836128c8565b612911612909826128ea565b84845461286c565b825550505050565b600090565b612926612919565b6129318184846128f4565b505050565b5b818110156129555761294a60008261291e565b600181019050612937565b5050565b601f82111561299a5761296b8161283a565b6129748461284f565b81016020851015612983578190505b61299761298f8561284f565b830182612936565b50505b505050565b600082821c905092915050565b60006129bd6000198460080261299f565b1980831691505092915050565b60006129d683836129ac565b9150826002028217905092915050565b6129ef82611e94565b67ffffffffffffffff811115612a0857612a076120ce565b5b612a1282546125e7565b612a1d828285612959565b600060209050601f831160018114612a505760008415612a3e578287015190505b612a4885826129ca565b865550612ab0565b601f198416612a5e8661283a565b60005b82811015612a8657848901518255600182019150602085019450602081019050612a61565b86831015612aa35784890151612a9f601f8916826129ac565b8355505b6001600288020188555050505b505050505050565b7f4552433732313a20696e76616c696420746f6b656e2049440000000000000000600082015250565b6000612aee601883611e9f565b9150612af982612ab8565b602082019050919050565b60006020820190508181036000830152612b1d81612ae1565b9050919050565b7f4552433732313a2061646472657373207a65726f206973206e6f74206120766160008201527f6c6964206f776e65720000000000000000000000000000000000000000000000602082015250565b6000612b80602983611e9f565b9150612b8b82612b24565b604082019050919050565b60006020820190508181036000830152612baf81612b73565b9050919050565b600081905092915050565b6000612bcc82611e94565b612bd68185612bb6565b9350612be6818560208601611eb0565b80840191505092915050565b6000612bfe8285612bc1565b9150612c0a8284612bc1565b91508190509392505050565b6000604082019050612c2b6000830185612282565b8181036020830152612c3d8184611eeb565b90509392505050565b7f4f776e61626c653a206e6577206f776e657220697320746865207a65726f206160008201527f6464726573730000000000000000000000000000000000000000000000000000602082015250565b6000612ca2602683611e9f565b9150612cad82612c46565b604082019050919050565b60006020820190508181036000830152612cd181612c95565b9050919050565b7f4552433732313a207472616e736665722066726f6d20696e636f72726563742060008201527f6f776e6572000000000000000000000000000000000000000000000000000000602082015250565b6000612d34602583611e9f565b9150612d3f82612cd8565b604082019050919050565b60006020820190508181036000830152612d6381612d27565b9050919050565b7f4552433732313a207472616e7366657220746f20746865207a65726f2061646460008201527f7265737300000000000000000000000000000000000000000000000000000000602082015250565b6000612dc6602483611e9f565b9150612dd182612d6a565b604082019050919050565b60006020820190508181036000830152612df581612db9565b9050919050565b7f4f776e61626c653a2063616c6c6572206973206e6f7420746865206f776e6572600082015250565b6000612e32602083611e9f565b9150612e3d82612dfc565b602082019050919050565b60006020820190508181036000830152612e6181612e25565b9050919050565b7f4552433732313a20617070726f766520746f2063616c6c657200000000000000600082015250565b6000612e9e601983611e9f565b9150612ea982612e68565b602082019050919050565b60006020820190508181036000830152612ecd81612e91565b9050919050565b7f4552433732313a207472616e7366657220746f206e6f6e20455243373231526560008201527f63656976657220696d706c656d656e7465720000000000000000000000000000602082015250565b6000612f30603283611e9f565b9150612f3b82612ed4565b604082019050919050565b60006020820190508181036000830152612f5f81612f23565b9050919050565b7f4e487b7100000000000000000000000000000000000000000000000000000000600052601260045260246000fd5b7f4552433732313a206d696e7420746f20746865207a65726f2061646472657373600082015250565b6000612fcb602083611e9f565b9150612fd682612f95565b602082019050919050565b60006020820190508181036000830152612ffa81612fbe565b9050919050565b7f4552433732313a20746f6b656e20616c7265616479206d696e74656400000000600082015250565b6000613037601c83611e9f565b915061304282613001565b602082019050919050565b600060208201905081810360008301526130668161302a565b9050919050565b600081519050919050565b600082825260208201905092915050565b60006130948261306d565b61309e8185613078565b93506130ae818560208601611eb0565b6130b781611eda565b840191505092915050565b60006080820190506130d76000830187611fdb565b6130e46020830186611fdb565b6130f16040830185612282565b81810360608301526131038184613089565b905095945050505050565b60008151905061311d81611e05565b92915050565b60006020828403121561313957613138611dcf565b5b60006131478482850161310e565b9150509291505056fea2646970667358221220a28891aa23b735d68b715e8c43f97e4584147e400d768d40a1bcc6312a860c8964736f6c634300081b0033",
  "linkReferences": {},
  "deployedLinkReferences": {}
}