{
  "_format": "hh-sol-artifact-1",
  "contractName": "Equipos",
  "sourceName": "contracts/Equipos.sol",
  "abi": [
    {
      "anonymous": false,
      "inputs": [
        {
          "indexed": false,
          "internalType": "uint256",
          "name": "equipoId",
          "type": "uint256"
        },
        {
          "indexed": false,
          "internalType": "string",
          "name": "nombre",
          "type": "string"
        },
        {
          "indexed": false,
          "internalType": "string",
          "name": "logoIPFS",
          "type": "string"
        }
      ],
      "name": "EquipoCreado",
      "type": "event"
    },
    {
      "anonymous": false,
      "inputs": [
        {
          "indexed": false,
          "internalType": "uint256",
          "name": "equipoId",
          "type": "uint256"
        },
        {
          "indexed": false,
          "internalType": "address",
          "name": "jugador",
          "type": "address"
        }
      ],
      "name": "JugadorAgregado",
      "type": "event"
    },
    {
      "anonymous": false,
      "inputs": [
        {
          "indexed": false,
          "internalType": "uint256",
          "name": "equipoId",
          "type": "uint256"
        },
        {
          "indexed": false,
          "internalType": "address",
          "name": "jugador",
          "type": "address"
        }
      ],
      "name": "JugadorEliminado",
      "type": "event"
    },
    {
      "inputs": [
        {
          "internalType": "uint256",
          "name": "_equipoId",
          "type": "uint256"
        },
        {
          "internalType": "address",
          "name": "_jugador",
          "type": "address"
        }
      ],
      "name": "agregarJugador",
      "outputs": [],
      "stateMutability": "nonpayable",
      "type": "function"
    },
    {
      "inputs": [
        {
          "internalType": "string",
          "name": "_nombre",
          "type": "string"
        },
        {
          "internalType": "string",
          "name": "_logoIPFS",
          "type": "string"
        }
      ],
      "name": "crearEquipo",
      "outputs": [],
      "stateMutability": "nonpayable",
      "type": "function"
    },
    {
      "inputs": [
        {
          "internalType": "uint256",
          "name": "_equipoId",
          "type": "uint256"
        },
        {
          "internalType": "address",
          "name": "_jugador",
          "type": "address"
        }
      ],
      "name": "eliminarJugador",
      "outputs": [],
      "stateMutability": "nonpayable",
      "type": "function"
    },
    {
      "inputs": [
        {
          "internalType": "uint256",
          "name": "",
          "type": "uint256"
        }
      ],
      "name": "equipos",
      "outputs": [
        {
          "internalType": "string",
          "name": "nombre",
          "type": "string"
        },
        {
          "internalType": "string",
          "name": "logoIPFS",
          "type": "string"
        }
      ],
      "stateMutability": "view",
      "type": "function"
    },
    {
      "inputs": [
        {
          "internalType": "uint256",
          "name": "_equipoId",
          "type": "uint256"
        }
      ],
      "name": "obtenerEquipo",
      "outputs": [
        {
          "internalType": "string",
          "name": "",
          "type": "string"
        },
        {
          "internalType": "string",
          "name": "",
          "type": "string"
        },
        {
          "internalType": "address[]",
          "name": "",
          "type": "address[]"
        }
      ],
      "stateMutability": "view",
      "type": "function"
    },
    {
      "inputs": [],
      "name": "totalEquipos",
      "outputs": [
        {
          "internalType": "uint256",
          "name": "",
          "type": "uint256"
        }
      ],
      "stateMutability": "view",
      "type": "function"
    }
  ],
  "bytecode": "0x6080604052348015600f57600080fd5b506115798061001f6000396000f3fe608060405234801561001057600080fd5b50600436106100625760003560e01c806319cc8f6b146100675780631e21d757146100835780631f98025f146100b457806360879521146100d0578063da132235146100ec578063f99633591461011e575b600080fd5b610081600480360381019061007c9190610b60565b61013c565b005b61009d60048036038101906100989190610ba0565b610307565b6040516100ab929190610c5d565b60405180910390f35b6100ce60048036038101906100c99190610b60565b61043b565b005b6100ea60048036038101906100e59190610dc9565b6106b5565b005b61010660048036038101906101019190610ba0565b6107d2565b60405161011593929190610eff565b60405180910390f35b610126610a0b565b6040516101339190610f5a565b60405180910390f35b6001548210610180576040517f08c379a000000000000000000000000000000000000000000000000000000000815260040161017790610fc1565b60405180910390fd5b6000806000848152602001908152602001600020905060005b8160020180549050811015610263578273ffffffffffffffffffffffffffffffffffffffff168260020182815481106101d5576101d4610fe1565b5b9060005260206000200160009054906101000a900473ffffffffffffffffffffffffffffffffffffffff1673ffffffffffffffffffffffffffffffffffffffff1603610256576040517f08c379a000000000000000000000000000000000000000000000000000000000815260040161024d9061105c565b60405180910390fd5b8080600101915050610199565b5080600201829080600181540180825580915050600190039060005260206000200160009091909190916101000a81548173ffffffffffffffffffffffffffffffffffffffff021916908373ffffffffffffffffffffffffffffffffffffffff1602179055507fe947abe4caf259beb0fe006a2050b400cd488f930ce26d37d51656cc27c98b0383836040516102fa92919061108b565b60405180910390a1505050565b600060205280600052604060002060009150905080600001805461032a906110e3565b80601f0160208091040260200160405190810160405280929190818152602001828054610356906110e3565b80156103a35780601f10610378576101008083540402835291602001916103a3565b820191906000526020600020905b81548152906001019060200180831161038657829003601f168201915b5050505050908060010180546103b8906110e3565b80601f01602080910402602001604051908101604052809291908181526020018280546103e4906110e3565b80156104315780601f1061040657610100808354040283529160200191610431565b820191906000526020600020905b81548152906001019060200180831161041457829003601f168201915b5050505050905082565b600154821061047f576040517f08c379a000000000000000000000000000000000000000000000000000000000815260040161047690610fc1565b60405180910390fd5b6000806000848152602001908152602001600020905060008080600090505b8360020180549050811015610539578473ffffffffffffffffffffffffffffffffffffffff168460020182815481106104da576104d9610fe1565b5b9060005260206000200160009054906101000a900473ffffffffffffffffffffffffffffffffffffffff1673ffffffffffffffffffffffffffffffffffffffff160361052c5760019250809150610539565b808060010191505061049e565b508161057a576040517f08c379a000000000000000000000000000000000000000000000000000000000815260040161057190611186565b60405180910390fd5b826002016001846002018054905061059291906111d5565b815481106105a3576105a2610fe1565b5b9060005260206000200160009054906101000a900473ffffffffffffffffffffffffffffffffffffffff168360020182815481106105e4576105e3610fe1565b5b9060005260206000200160006101000a81548173ffffffffffffffffffffffffffffffffffffffff021916908373ffffffffffffffffffffffffffffffffffffffff160217905550826002018054806106405761063f611209565b5b6001900381819060005260206000200160006101000a81549073ffffffffffffffffffffffffffffffffffffffff021916905590557f96f960d2570a885f87ac90cdddab4c8ebdd66d96592385bc750330db71f9508c85856040516106a692919061108b565b60405180910390a15050505050565b6040518060600160405280838152602001828152602001600067ffffffffffffffff8111156106e7576106e6610c9e565b5b6040519080825280602002602001820160405280156107155781602001602082028036833780820191505090505b508152506000806001548152602001908152602001600020600082015181600001908161074291906113e4565b50602082015181600101908161075891906113e4565b506040820151816002019080519060200190610775929190610a11565b509050507f8bba2ecfdfee24dd77e016f9058d35cdfffde085d8ee5790bd4038e31c4313db60015483836040516107ae939291906114b6565b60405180910390a1600160008154809291906107c9906114fb565b91905055505050565b6060806060600154841061081b576040517f08c379a000000000000000000000000000000000000000000000000000000000815260040161081290610fc1565b60405180910390fd5b600080600086815260200190815260200160002060405180606001604052908160008201805461084a906110e3565b80601f0160208091040260200160405190810160405280929190818152602001828054610876906110e3565b80156108c35780601f10610898576101008083540402835291602001916108c3565b820191906000526020600020905b8154815290600101906020018083116108a657829003601f168201915b505050505081526020016001820180546108dc906110e3565b80601f0160208091040260200160405190810160405280929190818152602001828054610908906110e3565b80156109555780601f1061092a57610100808354040283529160200191610955565b820191906000526020600020905b81548152906001019060200180831161093857829003601f168201915b50505050508152602001600282018054806020026020016040519081016040528092919081815260200182805480156109e357602002820191906000526020600020905b8160009054906101000a900473ffffffffffffffffffffffffffffffffffffffff1673ffffffffffffffffffffffffffffffffffffffff1681526020019060010190808311610999575b5050505050815250509050806000015181602001518260400151935093509350509193909250565b60015481565b828054828255906000526020600020908101928215610a8a579160200282015b82811115610a895782518260006101000a81548173ffffffffffffffffffffffffffffffffffffffff021916908373ffffffffffffffffffffffffffffffffffffffff16021790555091602001919060010190610a31565b5b509050610a979190610a9b565b5090565b5b80821115610ab4576000816000905550600101610a9c565b5090565b6000604051905090565b600080fd5b600080fd5b6000819050919050565b610adf81610acc565b8114610aea57600080fd5b50565b600081359050610afc81610ad6565b92915050565b600073ffffffffffffffffffffffffffffffffffffffff82169050919050565b6000610b2d82610b02565b9050919050565b610b3d81610b22565b8114610b4857600080fd5b50565b600081359050610b5a81610b34565b92915050565b60008060408385031215610b7757610b76610ac2565b5b6000610b8585828601610aed565b9250506020610b9685828601610b4b565b9150509250929050565b600060208284031215610bb657610bb5610ac2565b5b6000610bc484828501610aed565b91505092915050565b600081519050919050565b600082825260208201905092915050565b60005b83811015610c07578082015181840152602081019050610bec565b60008484015250505050565b6000601f19601f8301169050919050565b6000610c2f82610bcd565b610c398185610bd8565b9350610c49818560208601610be9565b610c5281610c13565b840191505092915050565b60006040820190508181036000830152610c778185610c24565b90508181036020830152610c8b8184610c24565b90509392505050565b600080fd5b600080fd5b7f4e487b7100000000000000000000000000000000000000000000000000000000600052604160045260246000fd5b610cd682610c13565b810181811067ffffffffffffffff82111715610cf557610cf4610c9e565b5b80604052505050565b6000610d08610ab8565b9050610d148282610ccd565b919050565b600067ffffffffffffffff821115610d3457610d33610c9e565b5b610d3d82610c13565b9050602081019050919050565b82818337600083830152505050565b6000610d6c610d6784610d19565b610cfe565b905082815260208101848484011115610d8857610d87610c99565b5b610d93848285610d4a565b509392505050565b600082601f830112610db057610daf610c94565b5b8135610dc0848260208601610d59565b91505092915050565b60008060408385031215610de057610ddf610ac2565b5b600083013567ffffffffffffffff811115610dfe57610dfd610ac7565b5b610e0a85828601610d9b565b925050602083013567ffffffffffffffff811115610e2b57610e2a610ac7565b5b610e3785828601610d9b565b9150509250929050565b600081519050919050565b600082825260208201905092915050565b6000819050602082019050919050565b610e7681610b22565b82525050565b6000610e888383610e6d565b60208301905092915050565b6000602082019050919050565b6000610eac82610e41565b610eb68185610e4c565b9350610ec183610e5d565b8060005b83811015610ef2578151610ed98882610e7c565b9750610ee483610e94565b925050600181019050610ec5565b5085935050505092915050565b60006060820190508181036000830152610f198186610c24565b90508181036020830152610f2d8185610c24565b90508181036040830152610f418184610ea1565b9050949350505050565b610f5481610acc565b82525050565b6000602082019050610f6f6000830184610f4b565b92915050565b7f45717569706f206e6f2065786973746500000000000000000000000000000000600082015250565b6000610fab601083610bd8565b9150610fb682610f75565b602082019050919050565b60006020820190508181036000830152610fda81610f9e565b9050919050565b7f4e487b7100000000000000000000000000000000000000000000000000000000600052603260045260246000fd5b7f4a756761646f72207961206573746120656e20656c2065717569706f00000000600082015250565b6000611046601c83610bd8565b915061105182611010565b602082019050919050565b6000602082019050818103600083015261107581611039565b9050919050565b61108581610b22565b82525050565b60006040820190506110a06000830185610f4b565b6110ad602083018461107c565b9392505050565b7f4e487b7100000000000000000000000000000000000000000000000000000000600052602260045260246000fd5b600060028204905060018216806110fb57607f821691505b60208210810361110e5761110d6110b4565b5b50919050565b7f4a756761646f72206e6f20656e636f6e747261646f20656e20656c206571756960008201527f706f000000000000000000000000000000000000000000000000000000000000602082015250565b6000611170602283610bd8565b915061117b82611114565b604082019050919050565b6000602082019050818103600083015261119f81611163565b9050919050565b7f4e487b7100000000000000000000000000000000000000000000000000000000600052601160045260246000fd5b60006111e082610acc565b91506111eb83610acc565b9250828203905081811115611203576112026111a6565b5b92915050565b7f4e487b7100000000000000000000000000000000000000000000000000000000600052603160045260246000fd5b60008190508160005260206000209050919050565b60006020601f8301049050919050565b600082821b905092915050565b60006008830261129a7fffffffffffffffffffffffffffffffffffffffffffffffffffffffffffffffff8261125d565b6112a4868361125d565b95508019841693508086168417925050509392505050565b6000819050919050565b60006112e16112dc6112d784610acc565b6112bc565b610acc565b9050919050565b6000819050919050565b6112fb836112c6565b61130f611307826112e8565b84845461126a565b825550505050565b600090565b611324611317565b61132f8184846112f2565b505050565b5b818110156113535761134860008261131c565b600181019050611335565b5050565b601f8211156113985761136981611238565b6113728461124d565b81016020851015611381578190505b61139561138d8561124d565b830182611334565b50505b505050565b600082821c905092915050565b60006113bb6000198460080261139d565b1980831691505092915050565b60006113d483836113aa565b9150826002028217905092915050565b6113ed82610bcd565b67ffffffffffffffff81111561140657611405610c9e565b5b61141082546110e3565b61141b828285611357565b600060209050601f83116001811461144e576000841561143c578287015190505b61144685826113c8565b8655506114ae565b601f19841661145c86611238565b60005b828110156114845784890151825560018201915060208501945060208101905061145f565b868310156114a1578489015161149d601f8916826113aa565b8355505b6001600288020188555050505b505050505050565b60006060820190506114cb6000830186610f4b565b81810360208301526114dd8185610c24565b905081810360408301526114f18184610c24565b9050949350505050565b600061150682610acc565b91507fffffffffffffffffffffffffffffffffffffffffffffffffffffffffffffffff8203611538576115376111a6565b5b60018201905091905056fea264697066735822122022abfaf6c7ab868bb27f5b307e99c588065fdee4117e748e498590504d77b80c64736f6c634300081b0033",
  "linkReferences": {},
  "deployedLinkReferences": {}
}