{
  "_format": "hh-sol-artifact-1",
  "contractName": "Equipos",
  "sourceName": "contracts/Equipos.sol",
  "abi": [
    {
      "inputs": [
        {
          "internalType": "address",
          "name": "_nftContractAddress",
          "type": "address"
        }
      ],
      "stateMutability": "nonpayable",
      "type": "constructor"
    },
    {
      "anonymous": false,
      "inputs": [
        {
          "indexed": false,
          "internalType": "uint256",
          "name": "equipoId",
          "type": "uint256"
        },
        {
          "indexed": false,
          "internalType": "uint256",
          "name": "tokenId",
          "type": "uint256"
        }
      ],
      "name": "ColeccionableAsociado",
      "type": "event"
    },
    {
      "anonymous": false,
      "inputs": [
        {
          "indexed": false,
          "internalType": "uint256",
          "name": "equipoId",
          "type": "uint256"
        },
        {
          "indexed": false,
          "internalType": "string",
          "name": "nombre",
          "type": "string"
        },
        {
          "indexed": false,
          "internalType": "string",
          "name": "logoIPFS",
          "type": "string"
        }
      ],
      "name": "EquipoCreado",
      "type": "event"
    },
    {
      "anonymous": false,
      "inputs": [
        {
          "indexed": false,
          "internalType": "uint256",
          "name": "equipoId",
          "type": "uint256"
        },
        {
          "indexed": false,
          "internalType": "address",
          "name": "jugador",
          "type": "address"
        }
      ],
      "name": "JugadorAgregado",
      "type": "event"
    },
    {
      "anonymous": false,
      "inputs": [
        {
          "indexed": false,
          "internalType": "uint256",
          "name": "equipoId",
          "type": "uint256"
        },
        {
          "indexed": false,
          "internalType": "address",
          "name": "jugador",
          "type": "address"
        }
      ],
      "name": "JugadorEliminado",
      "type": "event"
    },
    {
      "inputs": [
        {
          "internalType": "uint256",
          "name": "_equipoId",
          "type": "uint256"
        },
        {
          "internalType": "address",
          "name": "_jugador",
          "type": "address"
        }
      ],
      "name": "agregarJugador",
      "outputs": [],
      "stateMutability": "nonpayable",
      "type": "function"
    },
    {
      "inputs": [
        {
          "internalType": "uint256",
          "name": "_equipoId",
          "type": "uint256"
        },
        {
          "internalType": "uint256",
          "name": "_tokenId",
          "type": "uint256"
        }
      ],
      "name": "asociarColeccionable",
      "outputs": [],
      "stateMutability": "nonpayable",
      "type": "function"
    },
    {
      "inputs": [
        {
          "internalType": "string",
          "name": "_nombre",
          "type": "string"
        },
        {
          "internalType": "string",
          "name": "_logoIPFS",
          "type": "string"
        }
      ],
      "name": "crearEquipo",
      "outputs": [],
      "stateMutability": "nonpayable",
      "type": "function"
    },
    {
      "inputs": [
        {
          "internalType": "uint256",
          "name": "_equipoId",
          "type": "uint256"
        },
        {
          "internalType": "address",
          "name": "_jugador",
          "type": "address"
        }
      ],
      "name": "eliminarJugador",
      "outputs": [],
      "stateMutability": "nonpayable",
      "type": "function"
    },
    {
      "inputs": [
        {
          "internalType": "uint256",
          "name": "",
          "type": "uint256"
        }
      ],
      "name": "equipos",
      "outputs": [
        {
          "internalType": "string",
          "name": "nombre",
          "type": "string"
        },
        {
          "internalType": "string",
          "name": "logoIPFS",
          "type": "string"
        }
      ],
      "stateMutability": "view",
      "type": "function"
    },
    {
      "inputs": [],
      "name": "nftContractAddress",
      "outputs": [
        {
          "internalType": "address",
          "name": "",
          "type": "address"
        }
      ],
      "stateMutability": "view",
      "type": "function"
    },
    {
      "inputs": [
        {
          "internalType": "uint256",
          "name": "_equipoId",
          "type": "uint256"
        }
      ],
      "name": "obtenerEquipo",
      "outputs": [
        {
          "internalType": "string",
          "name": "",
          "type": "string"
        },
        {
          "internalType": "string",
          "name": "",
          "type": "string"
        },
        {
          "internalType": "address[]",
          "name": "",
          "type": "address[]"
        },
        {
          "internalType": "uint256[]",
          "name": "",
          "type": "uint256[]"
        }
      ],
      "stateMutability": "view",
      "type": "function"
    },
    {
      "inputs": [],
      "name": "totalEquipos",
      "outputs": [
        {
          "internalType": "uint256",
          "name": "",
          "type": "uint256"
        }
      ],
      "stateMutability": "view",
      "type": "function"
    }
  ],
  "bytecode": "0x608060405234801561001057600080fd5b50604051611db4380380611db4833981810160405281019061003291906100dc565b80600260006101000a81548173ffffffffffffffffffffffffffffffffffffffff021916908373ffffffffffffffffffffffffffffffffffffffff16021790555050610109565b600080fd5b600073ffffffffffffffffffffffffffffffffffffffff82169050919050565b60006100a98261007e565b9050919050565b6100b98161009e565b81146100c457600080fd5b50565b6000815190506100d6816100b0565b92915050565b6000602082840312156100f2576100f1610079565b5b6000610100848285016100c7565b91505092915050565b611c9c806101186000396000f3fe608060405234801561001057600080fd5b50600436106100885760003560e01c8063755649a61161005b578063755649a614610112578063aae282e11461012e578063da1322351461014c578063f99633591461017f57610088565b806319cc8f6b1461008d5780631e21d757146100a95780631f98025f146100da57806360879521146100f6575b600080fd5b6100a760048036038101906100a29190610efe565b61019d565b005b6100c360048036038101906100be9190610f3e565b610368565b6040516100d1929190610ffb565b60405180910390f35b6100f460048036038101906100ef9190610efe565b61049c565b005b610110600480360381019061010b9190611167565b610716565b005b61012c600480360381019061012791906111df565b61089f565b005b610136610a9d565b604051610143919061122e565b60405180910390f35b61016660048036038101906101619190610f3e565b610ac3565b60405161017694939291906113c5565b60405180910390f35b610187610d5c565b6040516101949190611435565b60405180910390f35b60015482106101e1576040517f08c379a00000000000000000000000000000000000000000000000000000000081526004016101d89061149c565b60405180910390fd5b6000806000848152602001908152602001600020905060005b81600201805490508110156102c4578273ffffffffffffffffffffffffffffffffffffffff16826002018281548110610236576102356114bc565b5b9060005260206000200160009054906101000a900473ffffffffffffffffffffffffffffffffffffffff1673ffffffffffffffffffffffffffffffffffffffff16036102b7576040517f08c379a00000000000000000000000000000000000000000000000000000000081526004016102ae90611537565b60405180910390fd5b80806001019150506101fa565b5080600201829080600181540180825580915050600190039060005260206000200160009091909190916101000a81548173ffffffffffffffffffffffffffffffffffffffff021916908373ffffffffffffffffffffffffffffffffffffffff1602179055507fe947abe4caf259beb0fe006a2050b400cd488f930ce26d37d51656cc27c98b03838360405161035b929190611557565b60405180910390a1505050565b600060205280600052604060002060009150905080600001805461038b906115af565b80601f01602080910402602001604051908101604052809291908181526020018280546103b7906115af565b80156104045780601f106103d957610100808354040283529160200191610404565b820191906000526020600020905b8154815290600101906020018083116103e757829003601f168201915b505050505090806001018054610419906115af565b80601f0160208091040260200160405190810160405280929190818152602001828054610445906115af565b80156104925780601f1061046757610100808354040283529160200191610492565b820191906000526020600020905b81548152906001019060200180831161047557829003601f168201915b5050505050905082565b60015482106104e0576040517f08c379a00000000000000000000000000000000000000000000000000000000081526004016104d79061149c565b60405180910390fd5b6000806000848152602001908152602001600020905060008080600090505b836002018054905081101561059a578473ffffffffffffffffffffffffffffffffffffffff1684600201828154811061053b5761053a6114bc565b5b9060005260206000200160009054906101000a900473ffffffffffffffffffffffffffffffffffffffff1673ffffffffffffffffffffffffffffffffffffffff160361058d576001925080915061059a565b80806001019150506104ff565b50816105db576040517f08c379a00000000000000000000000000000000000000000000000000000000081526004016105d290611652565b60405180910390fd5b82600201600184600201805490506105f391906116a1565b81548110610604576106036114bc565b5b9060005260206000200160009054906101000a900473ffffffffffffffffffffffffffffffffffffffff16836002018281548110610645576106446114bc565b5b9060005260206000200160006101000a81548173ffffffffffffffffffffffffffffffffffffffff021916908373ffffffffffffffffffffffffffffffffffffffff160217905550826002018054806106a1576106a06116d5565b5b6001900381819060005260206000200160006101000a81549073ffffffffffffffffffffffffffffffffffffffff021916905590557f96f960d2570a885f87ac90cdddab4c8ebdd66d96592385bc750330db71f9508c8585604051610707929190611557565b60405180910390a15050505050565b6040518060800160405280838152602001828152602001600067ffffffffffffffff8111156107485761074761103c565b5b6040519080825280602002602001820160405280156107765781602001602082028036833780820191505090505b508152602001600067ffffffffffffffff8111156107975761079661103c565b5b6040519080825280602002602001820160405280156107c55781602001602082028036833780820191505090505b50815250600080600154815260200190815260200160002060008201518160000190816107f291906118b0565b50602082015181600101908161080891906118b0565b506040820151816002019080519060200190610825929190610d62565b506060820151816003019080519060200190610842929190610dec565b509050507f8bba2ecfdfee24dd77e016f9058d35cdfffde085d8ee5790bd4038e31c4313db600154838360405161087b93929190611982565b60405180910390a160016000815480929190610896906119c7565b91905055505050565b60015482106108e3576040517f08c379a00000000000000000000000000000000000000000000000000000000081526004016108da9061149c565b60405180910390fd5b6000600260009054906101000a900473ffffffffffffffffffffffffffffffffffffffff1690506000808273ffffffffffffffffffffffffffffffffffffffff166382260f35856040518263ffffffff1660e01b81526004016109469190611435565b600060405180830381865afa158015610963573d6000803e3d6000fd5b505050506040513d6000823e3d601f19601f8201168201806040525081019061098c9190611ae2565b93505050915060008260ff16146109d8576040517f08c379a00000000000000000000000000000000000000000000000000000000081526004016109cf90611bb1565b60405180910390fd5b60008114610a1b576040517f08c379a0000000000000000000000000000000000000000000000000000000008152600401610a1290611c1d565b60405180910390fd5b60008060008781526020019081526020016000209050806003018590806001815401808255809150506001900390600052602060002001600090919091909150557ff1a55e42fe4e957b444c6f33d6babe7b29edadc6e240e39d7a966cd2906f87048686604051610a8d929190611c3d565b60405180910390a1505050505050565b600260009054906101000a900473ffffffffffffffffffffffffffffffffffffffff1681565b6060806060806001548510610b0d576040517f08c379a0000000000000000000000000000000000000000000000000000000008152600401610b049061149c565b60405180910390fd5b6000806000878152602001908152602001600020604051806080016040529081600082018054610b3c906115af565b80601f0160208091040260200160405190810160405280929190818152602001828054610b68906115af565b8015610bb55780601f10610b8a57610100808354040283529160200191610bb5565b820191906000526020600020905b815481529060010190602001808311610b9857829003601f168201915b50505050508152602001600182018054610bce906115af565b80601f0160208091040260200160405190810160405280929190818152602001828054610bfa906115af565b8015610c475780601f10610c1c57610100808354040283529160200191610c47565b820191906000526020600020905b815481529060010190602001808311610c2a57829003601f168201915b5050505050815260200160028201805480602002602001604051908101604052809291908181526020018280548015610cd557602002820191906000526020600020905b8160009054906101000a900473ffffffffffffffffffffffffffffffffffffffff1673ffffffffffffffffffffffffffffffffffffffff1681526020019060010190808311610c8b575b5050505050815260200160038201805480602002602001604051908101604052809291908181526020018280548015610d2d57602002820191906000526020600020905b815481526020019060010190808311610d19575b505050505081525050905080600001518160200151826040015183606001519450945094509450509193509193565b60015481565b828054828255906000526020600020908101928215610ddb579160200282015b82811115610dda5782518260006101000a81548173ffffffffffffffffffffffffffffffffffffffff021916908373ffffffffffffffffffffffffffffffffffffffff16021790555091602001919060010190610d82565b5b509050610de89190610e39565b5090565b828054828255906000526020600020908101928215610e28579160200282015b82811115610e27578251825591602001919060010190610e0c565b5b509050610e359190610e39565b5090565b5b80821115610e52576000816000905550600101610e3a565b5090565b6000604051905090565b600080fd5b600080fd5b6000819050919050565b610e7d81610e6a565b8114610e8857600080fd5b50565b600081359050610e9a81610e74565b92915050565b600073ffffffffffffffffffffffffffffffffffffffff82169050919050565b6000610ecb82610ea0565b9050919050565b610edb81610ec0565b8114610ee657600080fd5b50565b600081359050610ef881610ed2565b92915050565b60008060408385031215610f1557610f14610e60565b5b6000610f2385828601610e8b565b9250506020610f3485828601610ee9565b9150509250929050565b600060208284031215610f5457610f53610e60565b5b6000610f6284828501610e8b565b91505092915050565b600081519050919050565b600082825260208201905092915050565b60005b83811015610fa5578082015181840152602081019050610f8a565b60008484015250505050565b6000601f19601f8301169050919050565b6000610fcd82610f6b565b610fd78185610f76565b9350610fe7818560208601610f87565b610ff081610fb1565b840191505092915050565b600060408201905081810360008301526110158185610fc2565b905081810360208301526110298184610fc2565b90509392505050565b600080fd5b600080fd5b7f4e487b7100000000000000000000000000000000000000000000000000000000600052604160045260246000fd5b61107482610fb1565b810181811067ffffffffffffffff821117156110935761109261103c565b5b80604052505050565b60006110a6610e56565b90506110b2828261106b565b919050565b600067ffffffffffffffff8211156110d2576110d161103c565b5b6110db82610fb1565b9050602081019050919050565b82818337600083830152505050565b600061110a611105846110b7565b61109c565b90508281526020810184848401111561112657611125611037565b5b6111318482856110e8565b509392505050565b600082601f83011261114e5761114d611032565b5b813561115e8482602086016110f7565b91505092915050565b6000806040838503121561117e5761117d610e60565b5b600083013567ffffffffffffffff81111561119c5761119b610e65565b5b6111a885828601611139565b925050602083013567ffffffffffffffff8111156111c9576111c8610e65565b5b6111d585828601611139565b9150509250929050565b600080604083850312156111f6576111f5610e60565b5b600061120485828601610e8b565b925050602061121585828601610e8b565b9150509250929050565b61122881610ec0565b82525050565b6000602082019050611243600083018461121f565b92915050565b600081519050919050565b600082825260208201905092915050565b6000819050602082019050919050565b61127e81610ec0565b82525050565b60006112908383611275565b60208301905092915050565b6000602082019050919050565b60006112b482611249565b6112be8185611254565b93506112c983611265565b8060005b838110156112fa5781516112e18882611284565b97506112ec8361129c565b9250506001810190506112cd565b5085935050505092915050565b600081519050919050565b600082825260208201905092915050565b6000819050602082019050919050565b61133c81610e6a565b82525050565b600061134e8383611333565b60208301905092915050565b6000602082019050919050565b600061137282611307565b61137c8185611312565b935061138783611323565b8060005b838110156113b857815161139f8882611342565b97506113aa8361135a565b92505060018101905061138b565b5085935050505092915050565b600060808201905081810360008301526113df8187610fc2565b905081810360208301526113f38186610fc2565b9050818103604083015261140781856112a9565b9050818103606083015261141b8184611367565b905095945050505050565b61142f81610e6a565b82525050565b600060208201905061144a6000830184611426565b92915050565b7f45717569706f206e6f2065786973746500000000000000000000000000000000600082015250565b6000611486601083610f76565b915061149182611450565b602082019050919050565b600060208201905081810360008301526114b581611479565b9050919050565b7f4e487b7100000000000000000000000000000000000000000000000000000000600052603260045260246000fd5b7f4a756761646f72207961206573746120656e20656c2065717569706f00000000600082015250565b6000611521601c83610f76565b915061152c826114eb565b602082019050919050565b6000602082019050818103600083015261155081611514565b9050919050565b600060408201905061156c6000830185611426565b611579602083018461121f565b9392505050565b7f4e487b7100000000000000000000000000000000000000000000000000000000600052602260045260246000fd5b600060028204905060018216806115c757607f821691505b6020821081036115da576115d9611580565b5b50919050565b7f4a756761646f72206e6f20656e636f6e747261646f20656e20656c206571756960008201527f706f000000000000000000000000000000000000000000000000000000000000602082015250565b600061163c602283610f76565b9150611647826115e0565b604082019050919050565b6000602082019050818103600083015261166b8161162f565b9050919050565b7f4e487b7100000000000000000000000000000000000000000000000000000000600052601160045260246000fd5b60006116ac82610e6a565b91506116b783610e6a565b92508282039050818111156116cf576116ce611672565b5b92915050565b7f4e487b7100000000000000000000000000000000000000000000000000000000600052603160045260246000fd5b60008190508160005260206000209050919050565b60006020601f8301049050919050565b600082821b905092915050565b6000600883026117667fffffffffffffffffffffffffffffffffffffffffffffffffffffffffffffffff82611729565b6117708683611729565b95508019841693508086168417925050509392505050565b6000819050919050565b60006117ad6117a86117a384610e6a565b611788565b610e6a565b9050919050565b6000819050919050565b6117c783611792565b6117db6117d3826117b4565b848454611736565b825550505050565b600090565b6117f06117e3565b6117fb8184846117be565b505050565b5b8181101561181f576118146000826117e8565b600181019050611801565b5050565b601f8211156118645761183581611704565b61183e84611719565b8101602085101561184d578190505b61186161185985611719565b830182611800565b50505b505050565b600082821c905092915050565b600061188760001984600802611869565b1980831691505092915050565b60006118a08383611876565b9150826002028217905092915050565b6118b982610f6b565b67ffffffffffffffff8111156118d2576118d161103c565b5b6118dc82546115af565b6118e7828285611823565b600060209050601f83116001811461191a5760008415611908578287015190505b6119128582611894565b86555061197a565b601f19841661192886611704565b60005b828110156119505784890151825560018201915060208501945060208101905061192b565b8683101561196d5784890151611969601f891682611876565b8355505b6001600288020188555050505b505050505050565b60006060820190506119976000830186611426565b81810360208301526119a98185610fc2565b905081810360408301526119bd8184610fc2565b9050949350505050565b60006119d282610e6a565b91507fffffffffffffffffffffffffffffffffffffffffffffffffffffffffffffffff8203611a0457611a03611672565b5b600182019050919050565b600060ff82169050919050565b611a2581611a0f565b8114611a3057600080fd5b50565b600081519050611a4281611a1c565b92915050565b6000611a5b611a56846110b7565b61109c565b905082815260208101848484011115611a7757611a76611037565b5b611a82848285610f87565b509392505050565b600082601f830112611a9f57611a9e611032565b5b8151611aaf848260208601611a48565b91505092915050565b600081519050611ac781610ed2565b92915050565b600081519050611adc81610e74565b92915050565b60008060008060808587031215611afc57611afb610e60565b5b6000611b0a87828801611a33565b945050602085015167ffffffffffffffff811115611b2b57611b2a610e65565b5b611b3787828801611a8a565b9350506040611b4887828801611ab8565b9250506060611b5987828801611acd565b91505092959194509250565b7f4e4654206e6f20657320756e20636f6c656363696f6e61626c65000000000000600082015250565b6000611b9b601a83610f76565b9150611ba682611b65565b602082019050919050565b60006020820190508181036000830152611bca81611b8e565b9050919050565b7f4e46542079612061736f636961646f2061206f74726f2065717569706f000000600082015250565b6000611c07601d83610f76565b9150611c1282611bd1565b602082019050919050565b60006020820190508181036000830152611c3681611bfa565b9050919050565b6000604082019050611c526000830185611426565b611c5f6020830184611426565b939250505056fea26469706673582212205b223a229c6c098a725aedad5d8fff282cee524be74cae96d25a388255ba5c7064736f6c634300081b0033",
  "linkReferences": {},
  "deployedLinkReferences": {}
}