{
  "_format": "hh-sol-artifact-1",
  "contractName": "Equipos",
  "sourceName": "contracts/Equipos.sol",
  "abi": [
    {
      "inputs": [
        {
          "internalType": "address",
          "name": "_nftContractAddress",
          "type": "address"
        },
        {
          "internalType": "address",
          "name": "_jugadoresContractAddress",
          "type": "address"
        }
      ],
      "stateMutability": "nonpayable",
      "type": "constructor"
    },
    {
      "anonymous": false,
      "inputs": [
        {
          "indexed": false,
          "internalType": "uint256",
          "name": "idEquipo",
          "type": "uint256"
        },
        {
          "indexed": false,
          "internalType": "string",
          "name": "nombre",
          "type": "string"
        },
        {
          "indexed": false,
          "internalType": "string",
          "name": "logoIPFS",
          "type": "string"
        }
      ],
      "name": "EquipoCreado",
      "type": "event"
    },
    {
      "anonymous": false,
      "inputs": [
        {
          "indexed": false,
          "internalType": "uint256",
          "name": "idEquipo",
          "type": "uint256"
        }
      ],
      "name": "EquipoEliminado",
      "type": "event"
    },
    {
      "anonymous": false,
      "inputs": [
        {
          "indexed": false,
          "internalType": "uint256",
          "name": "equipoId",
          "type": "uint256"
        },
        {
          "indexed": false,
          "internalType": "uint256",
          "name": "jugador",
          "type": "uint256"
        }
      ],
      "name": "JugadorAgregado",
      "type": "event"
    },
    {
      "inputs": [
        {
          "internalType": "uint256",
          "name": "_equipoId",
          "type": "uint256"
        },
        {
          "internalType": "uint256",
          "name": "_jugadorId",
          "type": "uint256"
        }
      ],
      "name": "agregarJugador",
      "outputs": [],
      "stateMutability": "nonpayable",
      "type": "function"
    },
    {
      "inputs": [
        {
          "internalType": "uint256",
          "name": "_equipoId",
          "type": "uint256"
        }
      ],
      "name": "consultarEquipo",
      "outputs": [
        {
          "internalType": "uint256",
          "name": "",
          "type": "uint256"
        },
        {
          "internalType": "string",
          "name": "",
          "type": "string"
        },
        {
          "internalType": "string",
          "name": "",
          "type": "string"
        },
        {
          "internalType": "address[]",
          "name": "",
          "type": "address[]"
        },
        {
          "internalType": "uint256",
          "name": "",
          "type": "uint256"
        }
      ],
      "stateMutability": "view",
      "type": "function"
    },
    {
      "inputs": [
        {
          "internalType": "uint256",
          "name": "_idEquipo",
          "type": "uint256"
        },
        {
          "internalType": "string",
          "name": "_nombre",
          "type": "string"
        },
        {
          "internalType": "string",
          "name": "_logoIPFS",
          "type": "string"
        },
        {
          "internalType": "uint256",
          "name": "_idNFT",
          "type": "uint256"
        }
      ],
      "name": "crearEquipo",
      "outputs": [],
      "stateMutability": "nonpayable",
      "type": "function"
    },
    {
      "inputs": [
        {
          "internalType": "uint256",
          "name": "_equipoId",
          "type": "uint256"
        }
      ],
      "name": "eliminarEquipo",
      "outputs": [],
      "stateMutability": "nonpayable",
      "type": "function"
    },
    {
      "inputs": [
        {
          "internalType": "uint256",
          "name": "",
          "type": "uint256"
        }
      ],
      "name": "equipos",
      "outputs": [
        {
          "internalType": "uint256",
          "name": "idEquipo",
          "type": "uint256"
        },
        {
          "internalType": "string",
          "name": "nombre",
          "type": "string"
        },
        {
          "internalType": "string",
          "name": "logoIPFS",
          "type": "string"
        },
        {
          "internalType": "uint256",
          "name": "nftId",
          "type": "uint256"
        },
        {
          "internalType": "bool",
          "name": "existe",
          "type": "bool"
        }
      ],
      "stateMutability": "view",
      "type": "function"
    },
    {
      "inputs": [],
      "name": "jugadoresContractAddress",
      "outputs": [
        {
          "internalType": "address",
          "name": "",
          "type": "address"
        }
      ],
      "stateMutability": "view",
      "type": "function"
    },
    {
      "inputs": [],
      "name": "nftContractAddress",
      "outputs": [
        {
          "internalType": "address",
          "name": "",
          "type": "address"
        }
      ],
      "stateMutability": "view",
      "type": "function"
    },
    {
      "inputs": [],
      "name": "totalEquipos",
      "outputs": [
        {
          "internalType": "uint256",
          "name": "",
          "type": "uint256"
        }
      ],
      "stateMutability": "view",
      "type": "function"
    }
  ],
  "bytecode": "0x608060405234801561001057600080fd5b506040516118c43803806118c48339818101604052810190610032919061011e565b81600260006101000a81548173ffffffffffffffffffffffffffffffffffffffff021916908373ffffffffffffffffffffffffffffffffffffffff16021790555080600360006101000a81548173ffffffffffffffffffffffffffffffffffffffff021916908373ffffffffffffffffffffffffffffffffffffffff160217905550505061015e565b600080fd5b600073ffffffffffffffffffffffffffffffffffffffff82169050919050565b60006100eb826100c0565b9050919050565b6100fb816100e0565b811461010657600080fd5b50565b600081519050610118816100f2565b92915050565b60008060408385031215610135576101346100bb565b5b600061014385828601610109565b925050602061015485828601610109565b9150509250929050565b6117578061016d6000396000f3fe608060405234801561001057600080fd5b50600436106100885760003560e01c8063b39e8f7b1161005b578063b39e8f7b1461012f578063c30590e41461014b578063f1e1ce7414610167578063f99633591461018557610088565b8063175930c21461008d5780631e21d757146100a9578063375b486d146100dd578063aae282e114610111575b600080fd5b6100a760048036038101906100a29190610d35565b6101a3565b005b6100c360048036038101906100be9190610d35565b6104c8565b6040516100d4959493929190610e1c565b60405180910390f35b6100f760048036038101906100f29190610d35565b61061b565b604051610108959493929190610f6d565b60405180910390f35b6101196108b5565b6040516101269190610fe4565b60405180910390f35b61014960048036038101906101449190611134565b6108db565b005b610165600480360381019061016091906111d3565b610aa2565b005b61016f610bb7565b60405161017c9190610fe4565b60405180910390f35b61018d610bdd565b60405161019a9190611213565b60405180910390f35b60008082815260200190815260200160002060050160009054906101000a900460ff16610205576040517f08c379a00000000000000000000000000000000000000000000000000000000081526004016101fc9061127a565b60405180910390fd5b600080600083815260200190815260200160002060030180548060200260200160405190810160405280929190818152602001828054801561029c57602002820191906000526020600020905b8160009054906101000a900473ffffffffffffffffffffffffffffffffffffffff1673ffffffffffffffffffffffffffffffffffffffff1681526020019060010190808311610252575b5050505050905060005b81518110156103695760008282815181106102c4576102c361129a565b5b60200260200101519050600360009054906101000a900473ffffffffffffffffffffffffffffffffffffffff1673ffffffffffffffffffffffffffffffffffffffff16639594c203826040518263ffffffff1660e01b81526004016103299190610fe4565b600060405180830381600087803b15801561034357600080fd5b505af1158015610357573d6000803e3d6000fd5b505050505080806001019150506102a6565b50600260009054906101000a900473ffffffffffffffffffffffffffffffffffffffff1673ffffffffffffffffffffffffffffffffffffffff1663f687ed57600080858152602001908152602001600020600401546040518263ffffffff1660e01b81526004016103da9190611213565b600060405180830381600087803b1580156103f457600080fd5b505af1158015610408573d6000803e3d6000fd5b505050506000808381526020019081526020016000206000808201600090556001820160006104379190610be3565b6002820160006104479190610be3565b6003820160006104579190610c23565b60048201600090556005820160006101000a81549060ff0219169055505060016000815480929190610488906112f8565b91905055507ffde4a94047cb150c477d3c31fb8eafd929805b4e9bcd8315051ad8a6af0c4bd7826040516104bc9190611213565b60405180910390a15050565b60006020528060005260406000206000915090508060000154908060010180546104f190611350565b80601f016020809104026020016040519081016040528092919081815260200182805461051d90611350565b801561056a5780601f1061053f5761010080835404028352916020019161056a565b820191906000526020600020905b81548152906001019060200180831161054d57829003601f168201915b50505050509080600201805461057f90611350565b80601f01602080910402602001604051908101604052809291908181526020018280546105ab90611350565b80156105f85780601f106105cd576101008083540402835291602001916105f8565b820191906000526020600020905b8154815290600101906020018083116105db57829003601f168201915b5050505050908060040154908060050160009054906101000a900460ff16905085565b60006060806060600080600087815260200190815260200160002060050160009054906101000a900460ff16610686576040517f08c379a000000000000000000000000000000000000000000000000000000000815260040161067d9061127a565b60405180910390fd5b60008060008881526020019081526020016000206040518060c0016040529081600082015481526020016001820180546106bf90611350565b80601f01602080910402602001604051908101604052809291908181526020018280546106eb90611350565b80156107385780601f1061070d57610100808354040283529160200191610738565b820191906000526020600020905b81548152906001019060200180831161071b57829003601f168201915b5050505050815260200160028201805461075190611350565b80601f016020809104026020016040519081016040528092919081815260200182805461077d90611350565b80156107ca5780601f1061079f576101008083540402835291602001916107ca565b820191906000526020600020905b8154815290600101906020018083116107ad57829003601f168201915b505050505081526020016003820180548060200260200160405190810160405280929190818152602001828054801561085857602002820191906000526020600020905b8160009054906101000a900473ffffffffffffffffffffffffffffffffffffffff1673ffffffffffffffffffffffffffffffffffffffff168152602001906001019080831161080e575b50505050508152602001600482015481526020016005820160009054906101000a900460ff161515151581525050905080600001518160200151826040015183606001518460800151955095509550955095505091939590929450565b600260009054906101000a900473ffffffffffffffffffffffffffffffffffffffff1681565b60008085815260200190815260200160002060050160009054906101000a900460ff161561093e576040517f08c379a0000000000000000000000000000000000000000000000000000000008152600401610935906113cd565b60405180910390fd5b6040518060c00160405280858152602001848152602001838152602001600067ffffffffffffffff81111561097657610975611009565b5b6040519080825280602002602001820160405280156109a45781602001602082028036833780820191505090505b508152602001828152602001600115158152506000808681526020019081526020016000206000820151816000015560208201518160010190816109e89190611599565b5060408201518160020190816109fe9190611599565b506060820151816003019080519060200190610a1b929190610c44565b506080820151816004015560a08201518160050160006101000a81548160ff0219169083151502179055509050507f8bba2ecfdfee24dd77e016f9058d35cdfffde085d8ee5790bd4038e31c4313db848484604051610a7c9392919061166b565b60405180910390a160016000815480929190610a97906116b0565b919050555050505050565b60008083815260200190815260200160002060050160009054906101000a900460ff16610b04576040517f08c379a0000000000000000000000000000000000000000000000000000000008152600401610afb9061127a565b60405180910390fd5b600080838152602001908152602001600020600301819080600181540180825580915050600190039060005260206000200160009091909190916101000a81548173ffffffffffffffffffffffffffffffffffffffff021916908373ffffffffffffffffffffffffffffffffffffffff1602179055507fad1af50ffdbdd8113972dcc904addc809ce1b3ee2a89da60f804dfd286a1bfb98282604051610bab9291906116f8565b60405180910390a15050565b600360009054906101000a900473ffffffffffffffffffffffffffffffffffffffff1681565b60015481565b508054610bef90611350565b6000825580601f10610c015750610c20565b601f016020900490600052602060002090810190610c1f9190610cce565b5b50565b5080546000825590600052602060002090810190610c419190610cce565b50565b828054828255906000526020600020908101928215610cbd579160200282015b82811115610cbc5782518260006101000a81548173ffffffffffffffffffffffffffffffffffffffff021916908373ffffffffffffffffffffffffffffffffffffffff16021790555091602001919060010190610c64565b5b509050610cca9190610cce565b5090565b5b80821115610ce7576000816000905550600101610ccf565b5090565b6000604051905090565b600080fd5b600080fd5b6000819050919050565b610d1281610cff565b8114610d1d57600080fd5b50565b600081359050610d2f81610d09565b92915050565b600060208284031215610d4b57610d4a610cf5565b5b6000610d5984828501610d20565b91505092915050565b610d6b81610cff565b82525050565b600081519050919050565b600082825260208201905092915050565b60005b83811015610dab578082015181840152602081019050610d90565b60008484015250505050565b6000601f19601f8301169050919050565b6000610dd382610d71565b610ddd8185610d7c565b9350610ded818560208601610d8d565b610df681610db7565b840191505092915050565b60008115159050919050565b610e1681610e01565b82525050565b600060a082019050610e316000830188610d62565b8181036020830152610e438187610dc8565b90508181036040830152610e578186610dc8565b9050610e666060830185610d62565b610e736080830184610e0d565b9695505050505050565b600081519050919050565b600082825260208201905092915050565b6000819050602082019050919050565b600073ffffffffffffffffffffffffffffffffffffffff82169050919050565b6000610ed482610ea9565b9050919050565b610ee481610ec9565b82525050565b6000610ef68383610edb565b60208301905092915050565b6000602082019050919050565b6000610f1a82610e7d565b610f248185610e88565b9350610f2f83610e99565b8060005b83811015610f60578151610f478882610eea565b9750610f5283610f02565b925050600181019050610f33565b5085935050505092915050565b600060a082019050610f826000830188610d62565b8181036020830152610f948187610dc8565b90508181036040830152610fa88186610dc8565b90508181036060830152610fbc8185610f0f565b9050610fcb6080830184610d62565b9695505050505050565b610fde81610ec9565b82525050565b6000602082019050610ff96000830184610fd5565b92915050565b600080fd5b600080fd5b7f4e487b7100000000000000000000000000000000000000000000000000000000600052604160045260246000fd5b61104182610db7565b810181811067ffffffffffffffff821117156110605761105f611009565b5b80604052505050565b6000611073610ceb565b905061107f8282611038565b919050565b600067ffffffffffffffff82111561109f5761109e611009565b5b6110a882610db7565b9050602081019050919050565b82818337600083830152505050565b60006110d76110d284611084565b611069565b9050828152602081018484840111156110f3576110f2611004565b5b6110fe8482856110b5565b509392505050565b600082601f83011261111b5761111a610fff565b5b813561112b8482602086016110c4565b91505092915050565b6000806000806080858703121561114e5761114d610cf5565b5b600061115c87828801610d20565b945050602085013567ffffffffffffffff81111561117d5761117c610cfa565b5b61118987828801611106565b935050604085013567ffffffffffffffff8111156111aa576111a9610cfa565b5b6111b687828801611106565b92505060606111c787828801610d20565b91505092959194509250565b600080604083850312156111ea576111e9610cf5565b5b60006111f885828601610d20565b925050602061120985828601610d20565b9150509250929050565b60006020820190506112286000830184610d62565b92915050565b7f45717569706f206e6f2065786973746500000000000000000000000000000000600082015250565b6000611264601083610d7c565b915061126f8261122e565b602082019050919050565b6000602082019050818103600083015261129381611257565b9050919050565b7f4e487b7100000000000000000000000000000000000000000000000000000000600052603260045260246000fd5b7f4e487b7100000000000000000000000000000000000000000000000000000000600052601160045260246000fd5b600061130382610cff565b915060008203611316576113156112c9565b5b600182039050919050565b7f4e487b7100000000000000000000000000000000000000000000000000000000600052602260045260246000fd5b6000600282049050600182168061136857607f821691505b60208210810361137b5761137a611321565b5b50919050565b7f457374652065717569706f207961206578697374650000000000000000000000600082015250565b60006113b7601583610d7c565b91506113c282611381565b602082019050919050565b600060208201905081810360008301526113e6816113aa565b9050919050565b60008190508160005260206000209050919050565b60006020601f8301049050919050565b600082821b905092915050565b60006008830261144f7fffffffffffffffffffffffffffffffffffffffffffffffffffffffffffffffff82611412565b6114598683611412565b95508019841693508086168417925050509392505050565b6000819050919050565b600061149661149161148c84610cff565b611471565b610cff565b9050919050565b6000819050919050565b6114b08361147b565b6114c46114bc8261149d565b84845461141f565b825550505050565b600090565b6114d96114cc565b6114e48184846114a7565b505050565b5b81811015611508576114fd6000826114d1565b6001810190506114ea565b5050565b601f82111561154d5761151e816113ed565b61152784611402565b81016020851015611536578190505b61154a61154285611402565b8301826114e9565b50505b505050565b600082821c905092915050565b600061157060001984600802611552565b1980831691505092915050565b6000611589838361155f565b9150826002028217905092915050565b6115a282610d71565b67ffffffffffffffff8111156115bb576115ba611009565b5b6115c58254611350565b6115d082828561150c565b600060209050601f83116001811461160357600084156115f1578287015190505b6115fb858261157d565b865550611663565b601f198416611611866113ed565b60005b8281101561163957848901518255600182019150602085019450602081019050611614565b868310156116565784890151611652601f89168261155f565b8355505b6001600288020188555050505b505050505050565b60006060820190506116806000830186610d62565b81810360208301526116928185610dc8565b905081810360408301526116a68184610dc8565b9050949350505050565b60006116bb82610cff565b91507fffffffffffffffffffffffffffffffffffffffffffffffffffffffffffffffff82036116ed576116ec6112c9565b5b600182019050919050565b600060408201905061170d6000830185610d62565b61171a6020830184610d62565b939250505056fea2646970667358221220a28864ddc051a83dc7c1894f5524474ee436ed3a0f2fa956d342b4c4da25b92964736f6c634300081b0033",
  "linkReferences": {},
  "deployedLinkReferences": {}
}