{
  "_format": "hh-sol-artifact-1",
  "contractName": "Usuarios",
  "sourceName": "contracts/Usuarios.sol",
  "abi": [
    {
      "inputs": [],
      "stateMutability": "nonpayable",
      "type": "constructor"
    },
    {
      "inputs": [
        {
          "internalType": "address",
          "name": "_wallet",
          "type": "address"
        }
      ],
      "name": "consultarUsuario",
      "outputs": [
        {
          "internalType": "enum Usuarios.TipoUsuario",
          "name": "",
          "type": "uint8"
        },
        {
          "internalType": "string",
          "name": "",
          "type": "string"
        }
      ],
      "stateMutability": "view",
      "type": "function"
    },
    {
      "inputs": [
        {
          "internalType": "address",
          "name": "_wallet",
          "type": "address"
        }
      ],
      "name": "eliminarUsuario",
      "outputs": [],
      "stateMutability": "nonpayable",
      "type": "function"
    },
    {
      "inputs": [],
      "name": "owner",
      "outputs": [
        {
          "internalType": "address",
          "name": "",
          "type": "address"
        }
      ],
      "stateMutability": "view",
      "type": "function"
    },
    {
      "inputs": [
        {
          "internalType": "address",
          "name": "_wallet",
          "type": "address"
        },
        {
          "internalType": "enum Usuarios.TipoUsuario",
          "name": "_tipo",
          "type": "uint8"
        },
        {
          "internalType": "string",
          "name": "_nombre",
          "type": "string"
        }
      ],
      "name": "registrarUsuario",
      "outputs": [],
      "stateMutability": "nonpayable",
      "type": "function"
    },
    {
      "inputs": [
        {
          "internalType": "address",
          "name": "",
          "type": "address"
        }
      ],
      "name": "usuarios",
      "outputs": [
        {
          "internalType": "enum Usuarios.TipoUsuario",
          "name": "tipo",
          "type": "uint8"
        },
        {
          "internalType": "string",
          "name": "nombre",
          "type": "string"
        },
        {
          "internalType": "address",
          "name": "wallet",
          "type": "address"
        }
      ],
      "stateMutability": "view",
      "type": "function"
    }
  ],
  "bytecode": "0x6080604052348015600f57600080fd5b5033600160006101000a81548173ffffffffffffffffffffffffffffffffffffffff021916908373ffffffffffffffffffffffffffffffffffffffff160217905550611028806100606000396000f3fe608060405234801561001057600080fd5b50600436106100575760003560e01c8063057defbc1461005c5780638da5cb5b14610078578063cd4205bd14610096578063e90538e3146100c7578063f6b91ea9146100e3575b600080fd5b610076600480360381019061007191906109e2565b610115565b005b6100806102bb565b60405161008d9190610a60565b60405180910390f35b6100b060048036038101906100ab9190610a7b565b6102e1565b6040516100be929190610b9e565b60405180910390f35b6100e160048036038101906100dc9190610a7b565b6104da565b005b6100fd60048036038101906100f89190610a7b565b6106c9565b60405161010c93929190610bce565b60405180910390f35b600160009054906101000a900473ffffffffffffffffffffffffffffffffffffffff1673ffffffffffffffffffffffffffffffffffffffff163373ffffffffffffffffffffffffffffffffffffffff16146101a5576040517f08c379a000000000000000000000000000000000000000000000000000000000815260040161019c90610c7e565b60405180910390fd5b60405180606001604052808360018111156101c3576101c2610aa8565b5b81526020018281526020018473ffffffffffffffffffffffffffffffffffffffff168152506000808573ffffffffffffffffffffffffffffffffffffffff1673ffffffffffffffffffffffffffffffffffffffff16815260200190815260200160002060008201518160000160006101000a81548160ff0219169083600181111561025157610250610aa8565b5b0217905550602082015181600101908161026b9190610eb4565b5060408201518160020160006101000a81548173ffffffffffffffffffffffffffffffffffffffff021916908373ffffffffffffffffffffffffffffffffffffffff160217905550905050505050565b600160009054906101000a900473ffffffffffffffffffffffffffffffffffffffff1681565b60006060600073ffffffffffffffffffffffffffffffffffffffff166000808573ffffffffffffffffffffffffffffffffffffffff1673ffffffffffffffffffffffffffffffffffffffff16815260200190815260200160002060020160009054906101000a900473ffffffffffffffffffffffffffffffffffffffff1673ffffffffffffffffffffffffffffffffffffffff16036103b5576040517f08c379a00000000000000000000000000000000000000000000000000000000081526004016103ac90610fd2565b60405180910390fd5b6000808473ffffffffffffffffffffffffffffffffffffffff1673ffffffffffffffffffffffffffffffffffffffff16815260200190815260200160002060000160009054906101000a900460ff166000808573ffffffffffffffffffffffffffffffffffffffff1673ffffffffffffffffffffffffffffffffffffffff16815260200190815260200160002060010180805461045190610ccd565b80601f016020809104026020016040519081016040528092919081815260200182805461047d90610ccd565b80156104ca5780601f1061049f576101008083540402835291602001916104ca565b820191906000526020600020905b8154815290600101906020018083116104ad57829003601f168201915b5050505050905091509150915091565b600160009054906101000a900473ffffffffffffffffffffffffffffffffffffffff1673ffffffffffffffffffffffffffffffffffffffff163373ffffffffffffffffffffffffffffffffffffffff161461056a576040517f08c379a000000000000000000000000000000000000000000000000000000000815260040161056190610c7e565b60405180910390fd5b600073ffffffffffffffffffffffffffffffffffffffff166000808373ffffffffffffffffffffffffffffffffffffffff1673ffffffffffffffffffffffffffffffffffffffff16815260200190815260200160002060020160009054906101000a900473ffffffffffffffffffffffffffffffffffffffff1673ffffffffffffffffffffffffffffffffffffffff160361063a576040517f08c379a000000000000000000000000000000000000000000000000000000000815260040161063190610fd2565b60405180910390fd5b6000808273ffffffffffffffffffffffffffffffffffffffff1673ffffffffffffffffffffffffffffffffffffffff168152602001908152602001600020600080820160006101000a81549060ff021916905560018201600061069d91906107a8565b6002820160006101000a81549073ffffffffffffffffffffffffffffffffffffffff0219169055505050565b60006020528060005260406000206000915090508060000160009054906101000a900460ff16908060010180546106ff90610ccd565b80601f016020809104026020016040519081016040528092919081815260200182805461072b90610ccd565b80156107785780601f1061074d57610100808354040283529160200191610778565b820191906000526020600020905b81548152906001019060200180831161075b57829003601f168201915b5050505050908060020160009054906101000a900473ffffffffffffffffffffffffffffffffffffffff16905083565b5080546107b490610ccd565b6000825580601f106107c657506107e5565b601f0160209004906000526020600020908101906107e491906107e8565b5b50565b5b808211156108015760008160009055506001016107e9565b5090565b6000604051905090565b600080fd5b600080fd5b600073ffffffffffffffffffffffffffffffffffffffff82169050919050565b600061084482610819565b9050919050565b61085481610839565b811461085f57600080fd5b50565b6000813590506108718161084b565b92915050565b6002811061088457600080fd5b50565b60008135905061089681610877565b92915050565b600080fd5b600080fd5b6000601f19601f8301169050919050565b7f4e487b7100000000000000000000000000000000000000000000000000000000600052604160045260246000fd5b6108ef826108a6565b810181811067ffffffffffffffff8211171561090e5761090d6108b7565b5b80604052505050565b6000610921610805565b905061092d82826108e6565b919050565b600067ffffffffffffffff82111561094d5761094c6108b7565b5b610956826108a6565b9050602081019050919050565b82818337600083830152505050565b600061098561098084610932565b610917565b9050828152602081018484840111156109a1576109a06108a1565b5b6109ac848285610963565b509392505050565b600082601f8301126109c9576109c861089c565b5b81356109d9848260208601610972565b91505092915050565b6000806000606084860312156109fb576109fa61080f565b5b6000610a0986828701610862565b9350506020610a1a86828701610887565b925050604084013567ffffffffffffffff811115610a3b57610a3a610814565b5b610a47868287016109b4565b9150509250925092565b610a5a81610839565b82525050565b6000602082019050610a756000830184610a51565b92915050565b600060208284031215610a9157610a9061080f565b5b6000610a9f84828501610862565b91505092915050565b7f4e487b7100000000000000000000000000000000000000000000000000000000600052602160045260246000fd5b60028110610ae857610ae7610aa8565b5b50565b6000819050610af982610ad7565b919050565b6000610b0982610aeb565b9050919050565b610b1981610afe565b82525050565b600081519050919050565b600082825260208201905092915050565b60005b83811015610b59578082015181840152602081019050610b3e565b60008484015250505050565b6000610b7082610b1f565b610b7a8185610b2a565b9350610b8a818560208601610b3b565b610b93816108a6565b840191505092915050565b6000604082019050610bb36000830185610b10565b8181036020830152610bc58184610b65565b90509392505050565b6000606082019050610be36000830186610b10565b8181036020830152610bf58185610b65565b9050610c046040830184610a51565b949350505050565b7f536f6c6f20656c2070726f706965746172696f20707565646520656a6563757460008201527f617220657374612066756e63696f6e0000000000000000000000000000000000602082015250565b6000610c68602f83610b2a565b9150610c7382610c0c565b604082019050919050565b60006020820190508181036000830152610c9781610c5b565b9050919050565b7f4e487b7100000000000000000000000000000000000000000000000000000000600052602260045260246000fd5b60006002820490506001821680610ce557607f821691505b602082108103610cf857610cf7610c9e565b5b50919050565b60008190508160005260206000209050919050565b60006020601f8301049050919050565b600082821b905092915050565b600060088302610d607fffffffffffffffffffffffffffffffffffffffffffffffffffffffffffffffff82610d23565b610d6a8683610d23565b95508019841693508086168417925050509392505050565b6000819050919050565b6000819050919050565b6000610db1610dac610da784610d82565b610d8c565b610d82565b9050919050565b6000819050919050565b610dcb83610d96565b610ddf610dd782610db8565b848454610d30565b825550505050565b600090565b610df4610de7565b610dff818484610dc2565b505050565b5b81811015610e2357610e18600082610dec565b600181019050610e05565b5050565b601f821115610e6857610e3981610cfe565b610e4284610d13565b81016020851015610e51578190505b610e65610e5d85610d13565b830182610e04565b50505b505050565b600082821c905092915050565b6000610e8b60001984600802610e6d565b1980831691505092915050565b6000610ea48383610e7a565b9150826002028217905092915050565b610ebd82610b1f565b67ffffffffffffffff811115610ed657610ed56108b7565b5b610ee08254610ccd565b610eeb828285610e27565b600060209050601f831160018114610f1e5760008415610f0c578287015190505b610f168582610e98565b865550610f7e565b601f198416610f2c86610cfe565b60005b82811015610f5457848901518255600182019150602085019450602081019050610f2f565b86831015610f715784890151610f6d601f891682610e7a565b8355505b6001600288020188555050505b505050505050565b7f5573756172696f206e6f207265676973747261646f0000000000000000000000600082015250565b6000610fbc601583610b2a565b9150610fc782610f86565b602082019050919050565b60006020820190508181036000830152610feb81610faf565b905091905056fea2646970667358221220a380c9794930dbff6ed6b5987a7accc9cbd30df6683c7d8da7c9fcf6eb637ccc64736f6c634300081b0033",
  "linkReferences": {},
  "deployedLinkReferences": {}
}