{
	"contracts/ControlUsuarios.sol": {
		"DonacionesDeJuguetes": {
			"abi": [
				{
					"inputs": [],
					"stateMutability": "nonpayable",
					"type": "constructor"
				},
				{
					"inputs": [
						{
							"internalType": "string",
							"name": "_nombre",
							"type": "string"
						},
						{
							"internalType": "string",
							"name": "_apellido",
							"type": "string"
						},
						{
							"internalType": "string",
							"name": "_direccion",
							"type": "string"
						},
						{
							"internalType": "string",
							"name": "_tipoUsuario",
							"type": "string"
						},
						{
							"internalType": "address",
							"name": "_clavePublica",
							"type": "address"
						},
						{
							"internalType": "string",
							"name": "_password",
							"type": "string"
						}
					],
					"name": "agregarUsuario",
					"outputs": [],
					"stateMutability": "nonpayable",
					"type": "function"
				},
				{
					"inputs": [
						{
							"internalType": "address",
							"name": "_clavePublica",
							"type": "address"
						}
					],
					"name": "buscarUsuario",
					"outputs": [
						{
							"internalType": "string",
							"name": "nombre",
							"type": "string"
						},
						{
							"internalType": "string",
							"name": "apellido",
							"type": "string"
						},
						{
							"internalType": "string",
							"name": "direccion",
							"type": "string"
						},
						{
							"internalType": "uint256",
							"name": "usuarioId",
							"type": "uint256"
						},
						{
							"internalType": "string",
							"name": "tipoUsuario",
							"type": "string"
						}
					],
					"stateMutability": "view",
					"type": "function"
				},
				{
					"inputs": [
						{
							"internalType": "address",
							"name": "_clavePublica",
							"type": "address"
						}
					],
					"name": "eliminarUsuario",
					"outputs": [],
					"stateMutability": "nonpayable",
					"type": "function"
				},
				{
					"inputs": [
						{
							"internalType": "address",
							"name": "_clavePublica",
							"type": "address"
						},
						{
							"internalType": "string",
							"name": "_password",
							"type": "string"
						}
					],
					"name": "login",
					"outputs": [
						{
							"internalType": "bool",
							"name": "",
							"type": "bool"
						}
					],
					"stateMutability": "view",
					"type": "function"
				},
				{
					"inputs": [
						{
							"internalType": "address",
							"name": "_clavePublica",
							"type": "address"
						},
						{
							"internalType": "string",
							"name": "_nombre",
							"type": "string"
						},
						{
							"internalType": "string",
							"name": "_apellido",
							"type": "string"
						},
						{
							"internalType": "string",
							"name": "_direccion",
							"type": "string"
						},
						{
							"internalType": "string",
							"name": "_tipoUsuario",
							"type": "string"
						}
					],
					"name": "modificarUsuario",
					"outputs": [],
					"stateMutability": "nonpayable",
					"type": "function"
				},
				{
					"inputs": [],
					"name": "traerTodosLosUsuarios",
					"outputs": [
						{
							"components": [
								{
									"internalType": "string",
									"name": "nombre",
									"type": "string"
								},
								{
									"internalType": "string",
									"name": "apellido",
									"type": "string"
								},
								{
									"internalType": "string",
									"name": "direccion",
									"type": "string"
								},
								{
									"internalType": "uint256",
									"name": "usuarioId",
									"type": "uint256"
								},
								{
									"internalType": "string",
									"name": "tipoUsuario",
									"type": "string"
								},
								{
									"internalType": "address",
									"name": "clavePublica",
									"type": "address"
								},
								{
									"internalType": "bytes32",
									"name": "passwordHash",
									"type": "bytes32"
								}
							],
							"internalType": "struct DonacionesDeJuguetes.Usuario[]",
							"name": "",
							"type": "tuple[]"
						}
					],
					"stateMutability": "view",
					"type": "function"
				}
			],
			"devdoc": {
				"kind": "dev",
				"methods": {},
				"version": 1
			},
			"evm": {
				"assembly": "    /* \"contracts/ControlUsuarios.sol\":121:3955  contract DonacionesDeJuguetes {... */\n  mstore(0x40, 0x80)\n    /* \"contracts/ControlUsuarios.sol\":711:790  constructor() {... */\n  callvalue\n  dup1\n  iszero\n  tag_1\n  jumpi\n  0x00\n  dup1\n  revert\ntag_1:\n  pop\n    /* \"contracts/ControlUsuarios.sol\":743:753  msg.sender */\n  caller\n    /* \"contracts/ControlUsuarios.sol\":735:740  owner */\n  0x00\n  dup1\n    /* \"contracts/ControlUsuarios.sol\":735:753  owner = msg.sender */\n  0x0100\n  exp\n  dup2\n  sload\n  dup2\n  0xffffffffffffffffffffffffffffffffffffffff\n  mul\n  not\n  and\n  swap1\n  dup4\n  0xffffffffffffffffffffffffffffffffffffffff\n  and\n  mul\n  or\n  swap1\n  sstore\n  pop\n    /* \"contracts/ControlUsuarios.sol\":782:783  1 */\n  0x01\n    /* \"contracts/ControlUsuarios.sol\":763:779  usuarioIdCounter */\n  dup1\n    /* \"contracts/ControlUsuarios.sol\":763:783  usuarioIdCounter = 1 */\n  dup2\n  swap1\n  sstore\n  pop\n    /* \"contracts/ControlUsuarios.sol\":121:3955  contract DonacionesDeJuguetes {... */\n  dataSize(sub_0)\n  dup1\n  dataOffset(sub_0)\n  0x00\n  codecopy\n  0x00\n  return\nstop\n\nsub_0: assembly {\n        /* \"contracts/ControlUsuarios.sol\":121:3955  contract DonacionesDeJuguetes {... */\n      mstore(0x40, 0x80)\n      callvalue\n      dup1\n      iszero\n      tag_1\n      jumpi\n      0x00\n      dup1\n      revert\n    tag_1:\n      pop\n      jumpi(tag_2, lt(calldatasize, 0x04))\n      shr(0xe0, calldataload(0x00))\n      dup1\n      0x2f19d50b\n      eq\n      tag_3\n      jumpi\n      dup1\n      0x41c9908c\n      eq\n      tag_4\n      jumpi\n      dup1\n      0x4ec1b895\n      eq\n      tag_5\n      jumpi\n      dup1\n      0x8e0f1884\n      eq\n      tag_6\n      jumpi\n      dup1\n      0xa202d772\n      eq\n      tag_7\n      jumpi\n      dup1\n      0xe90538e3\n      eq\n      tag_8\n      jumpi\n    tag_2:\n      0x00\n      dup1\n      revert\n        /* \"contracts/ControlUsuarios.sol\":3561:3953  function login(address _clavePublica, string memory _password) public view returns (bool) {... */\n    tag_3:\n      tag_9\n      0x04\n      dup1\n      calldatasize\n      sub\n      dup2\n      add\n      swap1\n      tag_10\n      swap2\n      swap1\n      tag_11\n      jump\t// in\n    tag_10:\n      tag_12\n      jump\t// in\n    tag_9:\n      mload(0x40)\n      tag_13\n      swap2\n      swap1\n      tag_14\n      jump\t// in\n    tag_13:\n      mload(0x40)\n      dup1\n      swap2\n      sub\n      swap1\n      return\n        /* \"contracts/ControlUsuarios.sol\":2693:2989  function traerTodosLosUsuarios() public view returns (Usuario[] memory) {... */\n    tag_4:\n      tag_15\n      tag_16\n      jump\t// in\n    tag_15:\n      mload(0x40)\n      tag_17\n      swap2\n      swap1\n      tag_18\n      jump\t// in\n    tag_17:\n      mload(0x40)\n      dup1\n      swap2\n      sub\n      swap1\n      return\n        /* \"contracts/ControlUsuarios.sol\":1624:2171  function buscarUsuario(address _clavePublica)... */\n    tag_5:\n      tag_19\n      0x04\n      dup1\n      calldatasize\n      sub\n      dup2\n      add\n      swap1\n      tag_20\n      swap2\n      swap1\n      tag_21\n      jump\t// in\n    tag_20:\n      tag_22\n      jump\t// in\n    tag_19:\n      mload(0x40)\n      tag_23\n      swap6\n      swap5\n      swap4\n      swap3\n      swap2\n      swap1\n      tag_24\n      jump\t// in\n    tag_23:\n      mload(0x40)\n      dup1\n      swap2\n      sub\n      swap1\n      return\n        /* \"contracts/ControlUsuarios.sol\":796:1618  function agregarUsuario(... */\n    tag_6:\n      tag_25\n      0x04\n      dup1\n      calldatasize\n      sub\n      dup2\n      add\n      swap1\n      tag_26\n      swap2\n      swap1\n      tag_27\n      jump\t// in\n    tag_26:\n      tag_28\n      jump\t// in\n    tag_25:\n      stop\n        /* \"contracts/ControlUsuarios.sol\":2995:3555  function modificarUsuario(... */\n    tag_7:\n      tag_29\n      0x04\n      dup1\n      calldatasize\n      sub\n      dup2\n      add\n      swap1\n      tag_30\n      swap2\n      swap1\n      tag_31\n      jump\t// in\n    tag_30:\n      tag_32\n      jump\t// in\n    tag_29:\n      stop\n        /* \"contracts/ControlUsuarios.sol\":2177:2687  function eliminarUsuario(address _clavePublica) public soloOwner {... */\n    tag_8:\n      tag_33\n      0x04\n      dup1\n      calldatasize\n      sub\n      dup2\n      add\n      swap1\n      tag_34\n      swap2\n      swap1\n      tag_21\n      jump\t// in\n    tag_34:\n      tag_35\n      jump\t// in\n    tag_33:\n      stop\n        /* \"contracts/ControlUsuarios.sol\":3561:3953  function login(address _clavePublica, string memory _password) public view returns (bool) {... */\n    tag_12:\n        /* \"contracts/ControlUsuarios.sol\":3645:3649  bool */\n      0x00\n        /* \"contracts/ControlUsuarios.sol\":3717:3718  0 */\n      dup1\n        /* \"contracts/ControlUsuarios.sol\":3669:3719  usuarios[_clavePublica].clavePublica != address(0) */\n      0xffffffffffffffffffffffffffffffffffffffff\n      and\n        /* \"contracts/ControlUsuarios.sol\":3669:3677  usuarios */\n      0x02\n        /* \"contracts/ControlUsuarios.sol\":3669:3692  usuarios[_clavePublica] */\n      0x00\n        /* \"contracts/ControlUsuarios.sol\":3678:3691  _clavePublica */\n      dup6\n        /* \"contracts/ControlUsuarios.sol\":3669:3692  usuarios[_clavePublica] */\n      0xffffffffffffffffffffffffffffffffffffffff\n      and\n      0xffffffffffffffffffffffffffffffffffffffff\n      and\n      dup2\n      mstore\n      0x20\n      add\n      swap1\n      dup2\n      mstore\n      0x20\n      add\n      0x00\n      keccak256\n        /* \"contracts/ControlUsuarios.sol\":3669:3705  usuarios[_clavePublica].clavePublica */\n      0x05\n      add\n      0x00\n      swap1\n      sload\n      swap1\n      0x0100\n      exp\n      swap1\n      div\n      0xffffffffffffffffffffffffffffffffffffffff\n      and\n        /* \"contracts/ControlUsuarios.sol\":3669:3719  usuarios[_clavePublica].clavePublica != address(0) */\n      0xffffffffffffffffffffffffffffffffffffffff\n      and\n      sub\n        /* \"contracts/ControlUsuarios.sol\":3661:3741  require(usuarios[_clavePublica].clavePublica != address(0), \"Usuario no existe\") */\n      tag_37\n      jumpi\n      mload(0x40)\n      0x08c379a000000000000000000000000000000000000000000000000000000000\n      dup2\n      mstore\n      0x04\n      add\n      tag_38\n      swap1\n      tag_39\n      jump\t// in\n    tag_38:\n      mload(0x40)\n      dup1\n      swap2\n      sub\n      swap1\n      revert\n    tag_37:\n        /* \"contracts/ControlUsuarios.sol\":3752:3772  bytes32 passwordHash */\n      0x00\n        /* \"contracts/ControlUsuarios.sol\":3802:3811  _password */\n      dup3\n        /* \"contracts/ControlUsuarios.sol\":3785:3812  abi.encodePacked(_password) */\n      add(0x20, mload(0x40))\n      tag_40\n      swap2\n      swap1\n      tag_41\n      jump\t// in\n    tag_40:\n      mload(0x40)\n      0x20\n      dup2\n      dup4\n      sub\n      sub\n      dup2\n      mstore\n      swap1\n      0x40\n      mstore\n        /* \"contracts/ControlUsuarios.sol\":3775:3813  keccak256(abi.encodePacked(_password)) */\n      dup1\n      mload\n      swap1\n      0x20\n      add\n      keccak256\n        /* \"contracts/ControlUsuarios.sol\":3752:3813  bytes32 passwordHash = keccak256(abi.encodePacked(_password)) */\n      swap1\n      pop\n        /* \"contracts/ControlUsuarios.sol\":3847:3855  usuarios */\n      0x02\n        /* \"contracts/ControlUsuarios.sol\":3847:3870  usuarios[_clavePublica] */\n      0x00\n        /* \"contracts/ControlUsuarios.sol\":3856:3869  _clavePublica */\n      dup6\n        /* \"contracts/ControlUsuarios.sol\":3847:3870  usuarios[_clavePublica] */\n      0xffffffffffffffffffffffffffffffffffffffff\n      and\n      0xffffffffffffffffffffffffffffffffffffffff\n      and\n      dup2\n      mstore\n      0x20\n      add\n      swap1\n      dup2\n      mstore\n      0x20\n      add\n      0x00\n      keccak256\n        /* \"contracts/ControlUsuarios.sol\":3847:3883  usuarios[_clavePublica].passwordHash */\n      0x06\n      add\n      sload\n        /* \"contracts/ControlUsuarios.sol\":3831:3843  passwordHash */\n      dup2\n        /* \"contracts/ControlUsuarios.sol\":3831:3883  passwordHash == usuarios[_clavePublica].passwordHash */\n      eq\n        /* \"contracts/ControlUsuarios.sol\":3823:3907  require(passwordHash == usuarios[_clavePublica].passwordHash, \"Password incorrecto\") */\n      tag_42\n      jumpi\n      mload(0x40)\n      0x08c379a000000000000000000000000000000000000000000000000000000000\n      dup2\n      mstore\n      0x04\n      add\n      tag_43\n      swap1\n      tag_44\n      jump\t// in\n    tag_43:\n      mload(0x40)\n      dup1\n      swap2\n      sub\n      swap1\n      revert\n    tag_42:\n        /* \"contracts/ControlUsuarios.sol\":3925:3929  true */\n      0x01\n        /* \"contracts/ControlUsuarios.sol\":3918:3929  return true */\n      swap2\n      pop\n      pop\n        /* \"contracts/ControlUsuarios.sol\":3561:3953  function login(address _clavePublica, string memory _password) public view returns (bool) {... */\n      swap3\n      swap2\n      pop\n      pop\n      jump\t// out\n        /* \"contracts/ControlUsuarios.sol\":2693:2989  function traerTodosLosUsuarios() public view returns (Usuario[] memory) {... */\n    tag_16:\n        /* \"contracts/ControlUsuarios.sol\":2747:2763  Usuario[] memory */\n      0x60\n        /* \"contracts/ControlUsuarios.sol\":2775:2798  Usuario[] memory result */\n      0x00\n        /* \"contracts/ControlUsuarios.sol\":2815:2828  listaUsuarios */\n      0x03\n        /* \"contracts/ControlUsuarios.sol\":2815:2835  listaUsuarios.length */\n      dup1\n      sload\n      swap1\n      pop\n        /* \"contracts/ControlUsuarios.sol\":2801:2836  new Usuario[](listaUsuarios.length) */\n      0xffffffffffffffff\n      dup2\n      gt\n      iszero\n      tag_46\n      jumpi\n      tag_47\n      tag_48\n      jump\t// in\n    tag_47:\n    tag_46:\n      mload(0x40)\n      swap1\n      dup1\n      dup3\n      mstore\n      dup1\n      0x20\n      mul\n      0x20\n      add\n      dup3\n      add\n      0x40\n      mstore\n      dup1\n      iszero\n      tag_49\n      jumpi\n      dup2\n      0x20\n      add\n    tag_50:\n      tag_51\n      tag_52\n      jump\t// in\n    tag_51:\n      dup2\n      mstore\n      0x20\n      add\n      swap1\n      0x01\n      swap1\n      sub\n      swap1\n      dup2\n      tag_50\n      jumpi\n      swap1\n      pop\n    tag_49:\n      pop\n        /* \"contracts/ControlUsuarios.sol\":2775:2836  Usuario[] memory result = new Usuario[](listaUsuarios.length) */\n      swap1\n      pop\n        /* \"contracts/ControlUsuarios.sol\":2851:2860  uint256 i */\n      0x00\n        /* \"contracts/ControlUsuarios.sol\":2846:2960  for (uint256 i = 0; i < listaUsuarios.length; i++) {... */\n    tag_53:\n        /* \"contracts/ControlUsuarios.sol\":2870:2883  listaUsuarios */\n      0x03\n        /* \"contracts/ControlUsuarios.sol\":2870:2890  listaUsuarios.length */\n      dup1\n      sload\n      swap1\n      pop\n        /* \"contracts/ControlUsuarios.sol\":2866:2867  i */\n      dup2\n        /* \"contracts/ControlUsuarios.sol\":2866:2890  i < listaUsuarios.length */\n      lt\n        /* \"contracts/ControlUsuarios.sol\":2846:2960  for (uint256 i = 0; i < listaUsuarios.length; i++) {... */\n      iszero\n      tag_54\n      jumpi\n        /* \"contracts/ControlUsuarios.sol\":2923:2931  usuarios */\n      0x02\n        /* \"contracts/ControlUsuarios.sol\":2923:2949  usuarios[listaUsuarios[i]] */\n      0x00\n        /* \"contracts/ControlUsuarios.sol\":2932:2945  listaUsuarios */\n      0x03\n        /* \"contracts/ControlUsuarios.sol\":2946:2947  i */\n      dup4\n        /* \"contracts/ControlUsuarios.sol\":2932:2948  listaUsuarios[i] */\n      dup2\n      sload\n      dup2\n      lt\n      tag_56\n      jumpi\n      tag_57\n      tag_58\n      jump\t// in\n    tag_57:\n    tag_56:\n      swap1\n      0x00\n      mstore\n      keccak256(0x00, 0x20)\n      add\n      0x00\n      swap1\n      sload\n      swap1\n      0x0100\n      exp\n      swap1\n      div\n      0xffffffffffffffffffffffffffffffffffffffff\n      and\n        /* \"contracts/ControlUsuarios.sol\":2923:2949  usuarios[listaUsuarios[i]] */\n      0xffffffffffffffffffffffffffffffffffffffff\n      and\n      0xffffffffffffffffffffffffffffffffffffffff\n      and\n      dup2\n      mstore\n      0x20\n      add\n      swap1\n      dup2\n      mstore\n      0x20\n      add\n      0x00\n      keccak256\n        /* \"contracts/ControlUsuarios.sol\":2911:2949  result[i] = usuarios[listaUsuarios[i]] */\n      mload(0x40)\n      dup1\n      0xe0\n      add\n      0x40\n      mstore\n      swap1\n      dup2\n      0x00\n      dup3\n      add\n      dup1\n      sload\n      tag_60\n      swap1\n      tag_61\n      jump\t// in\n    tag_60:\n      dup1\n      0x1f\n      add\n      0x20\n      dup1\n      swap2\n      div\n      mul\n      0x20\n      add\n      mload(0x40)\n      swap1\n      dup2\n      add\n      0x40\n      mstore\n      dup1\n      swap3\n      swap2\n      swap1\n      dup2\n      dup2\n      mstore\n      0x20\n      add\n      dup3\n      dup1\n      sload\n      tag_62\n      swap1\n      tag_61\n      jump\t// in\n    tag_62:\n      dup1\n      iszero\n      tag_63\n      jumpi\n      dup1\n      0x1f\n      lt\n      tag_64\n      jumpi\n      0x0100\n      dup1\n      dup4\n      sload\n      div\n      mul\n      dup4\n      mstore\n      swap2\n      0x20\n      add\n      swap2\n      jump(tag_63)\n    tag_64:\n      dup3\n      add\n      swap2\n      swap1\n      0x00\n      mstore\n      keccak256(0x00, 0x20)\n      swap1\n    tag_65:\n      dup2\n      sload\n      dup2\n      mstore\n      swap1\n      0x01\n      add\n      swap1\n      0x20\n      add\n      dup1\n      dup4\n      gt\n      tag_65\n      jumpi\n      dup3\n      swap1\n      sub\n      0x1f\n      and\n      dup3\n      add\n      swap2\n    tag_63:\n      pop\n      pop\n      pop\n      pop\n      pop\n      dup2\n      mstore\n      0x20\n      add\n      0x01\n      dup3\n      add\n      dup1\n      sload\n      tag_66\n      swap1\n      tag_61\n      jump\t// in\n    tag_66:\n      dup1\n      0x1f\n      add\n      0x20\n      dup1\n      swap2\n      div\n      mul\n      0x20\n      add\n      mload(0x40)\n      swap1\n      dup2\n      add\n      0x40\n      mstore\n      dup1\n      swap3\n      swap2\n      swap1\n      dup2\n      dup2\n      mstore\n      0x20\n      add\n      dup3\n      dup1\n      sload\n      tag_67\n      swap1\n      tag_61\n      jump\t// in\n    tag_67:\n      dup1\n      iszero\n      tag_68\n      jumpi\n      dup1\n      0x1f\n      lt\n      tag_69\n      jumpi\n      0x0100\n      dup1\n      dup4\n      sload\n      div\n      mul\n      dup4\n      mstore\n      swap2\n      0x20\n      add\n      swap2\n      jump(tag_68)\n    tag_69:\n      dup3\n      add\n      swap2\n      swap1\n      0x00\n      mstore\n      keccak256(0x00, 0x20)\n      swap1\n    tag_70:\n      dup2\n      sload\n      dup2\n      mstore\n      swap1\n      0x01\n      add\n      swap1\n      0x20\n      add\n      dup1\n      dup4\n      gt\n      tag_70\n      jumpi\n      dup3\n      swap1\n      sub\n      0x1f\n      and\n      dup3\n      add\n      swap2\n    tag_68:\n      pop\n      pop\n      pop\n      pop\n      pop\n      dup2\n      mstore\n      0x20\n      add\n      0x02\n      dup3\n      add\n      dup1\n      sload\n      tag_71\n      swap1\n      tag_61\n      jump\t// in\n    tag_71:\n      dup1\n      0x1f\n      add\n      0x20\n      dup1\n      swap2\n      div\n      mul\n      0x20\n      add\n      mload(0x40)\n      swap1\n      dup2\n      add\n      0x40\n      mstore\n      dup1\n      swap3\n      swap2\n      swap1\n      dup2\n      dup2\n      mstore\n      0x20\n      add\n      dup3\n      dup1\n      sload\n      tag_72\n      swap1\n      tag_61\n      jump\t// in\n    tag_72:\n      dup1\n      iszero\n      tag_73\n      jumpi\n      dup1\n      0x1f\n      lt\n      tag_74\n      jumpi\n      0x0100\n      dup1\n      dup4\n      sload\n      div\n      mul\n      dup4\n      mstore\n      swap2\n      0x20\n      add\n      swap2\n      jump(tag_73)\n    tag_74:\n      dup3\n      add\n      swap2\n      swap1\n      0x00\n      mstore\n      keccak256(0x00, 0x20)\n      swap1\n    tag_75:\n      dup2\n      sload\n      dup2\n      mstore\n      swap1\n      0x01\n      add\n      swap1\n      0x20\n      add\n      dup1\n      dup4\n      gt\n      tag_75\n      jumpi\n      dup3\n      swap1\n      sub\n      0x1f\n      and\n      dup3\n      add\n      swap2\n    tag_73:\n      pop\n      pop\n      pop\n      pop\n      pop\n      dup2\n      mstore\n      0x20\n      add\n      0x03\n      dup3\n      add\n      sload\n      dup2\n      mstore\n      0x20\n      add\n      0x04\n      dup3\n      add\n      dup1\n      sload\n      tag_76\n      swap1\n      tag_61\n      jump\t// in\n    tag_76:\n      dup1\n      0x1f\n      add\n      0x20\n      dup1\n      swap2\n      div\n      mul\n      0x20\n      add\n      mload(0x40)\n      swap1\n      dup2\n      add\n      0x40\n      mstore\n      dup1\n      swap3\n      swap2\n      swap1\n      dup2\n      dup2\n      mstore\n      0x20\n      add\n      dup3\n      dup1\n      sload\n      tag_77\n      swap1\n      tag_61\n      jump\t// in\n    tag_77:\n      dup1\n      iszero\n      tag_78\n      jumpi\n      dup1\n      0x1f\n      lt\n      tag_79\n      jumpi\n      0x0100\n      dup1\n      dup4\n      sload\n      div\n      mul\n      dup4\n      mstore\n      swap2\n      0x20\n      add\n      swap2\n      jump(tag_78)\n    tag_79:\n      dup3\n      add\n      swap2\n      swap1\n      0x00\n      mstore\n      keccak256(0x00, 0x20)\n      swap1\n    tag_80:\n      dup2\n      sload\n      dup2\n      mstore\n      swap1\n      0x01\n      add\n      swap1\n      0x20\n      add\n      dup1\n      dup4\n      gt\n      tag_80\n      jumpi\n      dup3\n      swap1\n      sub\n      0x1f\n      and\n      dup3\n      add\n      swap2\n    tag_78:\n      pop\n      pop\n      pop\n      pop\n      pop\n      dup2\n      mstore\n      0x20\n      add\n      0x05\n      dup3\n      add\n      0x00\n      swap1\n      sload\n      swap1\n      0x0100\n      exp\n      swap1\n      div\n      0xffffffffffffffffffffffffffffffffffffffff\n      and\n      0xffffffffffffffffffffffffffffffffffffffff\n      and\n      0xffffffffffffffffffffffffffffffffffffffff\n      and\n      dup2\n      mstore\n      0x20\n      add\n      0x06\n      dup3\n      add\n      sload\n      dup2\n      mstore\n      pop\n      pop\n        /* \"contracts/ControlUsuarios.sol\":2911:2917  result */\n      dup3\n        /* \"contracts/ControlUsuarios.sol\":2918:2919  i */\n      dup3\n        /* \"contracts/ControlUsuarios.sol\":2911:2920  result[i] */\n      dup2\n      mload\n      dup2\n      lt\n      tag_81\n      jumpi\n      tag_82\n      tag_58\n      jump\t// in\n    tag_82:\n    tag_81:\n      0x20\n      mul\n      0x20\n      add\n      add\n        /* \"contracts/ControlUsuarios.sol\":2911:2949  result[i] = usuarios[listaUsuarios[i]] */\n      dup2\n      swap1\n      mstore\n      pop\n        /* \"contracts/ControlUsuarios.sol\":2892:2895  i++ */\n      dup1\n      dup1\n      0x01\n      add\n      swap2\n      pop\n      pop\n        /* \"contracts/ControlUsuarios.sol\":2846:2960  for (uint256 i = 0; i < listaUsuarios.length; i++) {... */\n      jump(tag_53)\n    tag_54:\n      pop\n        /* \"contracts/ControlUsuarios.sol\":2976:2982  result */\n      dup1\n        /* \"contracts/ControlUsuarios.sol\":2969:2982  return result */\n      swap2\n      pop\n      pop\n        /* \"contracts/ControlUsuarios.sol\":2693:2989  function traerTodosLosUsuarios() public view returns (Usuario[] memory) {... */\n      swap1\n      jump\t// out\n        /* \"contracts/ControlUsuarios.sol\":1624:2171  function buscarUsuario(address _clavePublica)... */\n    tag_22:\n        /* \"contracts/ControlUsuarios.sol\":1728:1748  string memory nombre */\n      0x60\n        /* \"contracts/ControlUsuarios.sol\":1762:1784  string memory apellido */\n      dup1\n        /* \"contracts/ControlUsuarios.sol\":1798:1821  string memory direccion */\n      0x60\n        /* \"contracts/ControlUsuarios.sol\":1835:1852  uint256 usuarioId */\n      0x00\n        /* \"contracts/ControlUsuarios.sol\":1866:1891  string memory tipoUsuario */\n      0x60\n        /* \"contracts/ControlUsuarios.sol\":1972:1973  0 */\n      0x00\n        /* \"contracts/ControlUsuarios.sol\":1924:1974  usuarios[_clavePublica].clavePublica != address(0) */\n      0xffffffffffffffffffffffffffffffffffffffff\n      and\n        /* \"contracts/ControlUsuarios.sol\":1924:1932  usuarios */\n      0x02\n        /* \"contracts/ControlUsuarios.sol\":1924:1947  usuarios[_clavePublica] */\n      0x00\n        /* \"contracts/ControlUsuarios.sol\":1933:1946  _clavePublica */\n      dup9\n        /* \"contracts/ControlUsuarios.sol\":1924:1947  usuarios[_clavePublica] */\n      0xffffffffffffffffffffffffffffffffffffffff\n      and\n      0xffffffffffffffffffffffffffffffffffffffff\n      and\n      dup2\n      mstore\n      0x20\n      add\n      swap1\n      dup2\n      mstore\n      0x20\n      add\n      0x00\n      keccak256\n        /* \"contracts/ControlUsuarios.sol\":1924:1960  usuarios[_clavePublica].clavePublica */\n      0x05\n      add\n      0x00\n      swap1\n      sload\n      swap1\n      0x0100\n      exp\n      swap1\n      div\n      0xffffffffffffffffffffffffffffffffffffffff\n      and\n        /* \"contracts/ControlUsuarios.sol\":1924:1974  usuarios[_clavePublica].clavePublica != address(0) */\n      0xffffffffffffffffffffffffffffffffffffffff\n      and\n      sub\n        /* \"contracts/ControlUsuarios.sol\":1916:1996  require(usuarios[_clavePublica].clavePublica != address(0), \"Usuario no existe\") */\n      tag_84\n      jumpi\n      mload(0x40)\n      0x08c379a000000000000000000000000000000000000000000000000000000000\n      dup2\n      mstore\n      0x04\n      add\n      tag_85\n      swap1\n      tag_39\n      jump\t// in\n    tag_85:\n      mload(0x40)\n      dup1\n      swap2\n      sub\n      swap1\n      revert\n    tag_84:\n        /* \"contracts/ControlUsuarios.sol\":2006:2028  Usuario memory usuario */\n      0x00\n        /* \"contracts/ControlUsuarios.sol\":2031:2039  usuarios */\n      0x02\n        /* \"contracts/ControlUsuarios.sol\":2031:2054  usuarios[_clavePublica] */\n      0x00\n        /* \"contracts/ControlUsuarios.sol\":2040:2053  _clavePublica */\n      dup9\n        /* \"contracts/ControlUsuarios.sol\":2031:2054  usuarios[_clavePublica] */\n      0xffffffffffffffffffffffffffffffffffffffff\n      and\n      0xffffffffffffffffffffffffffffffffffffffff\n      and\n      dup2\n      mstore\n      0x20\n      add\n      swap1\n      dup2\n      mstore\n      0x20\n      add\n      0x00\n      keccak256\n        /* \"contracts/ControlUsuarios.sol\":2006:2054  Usuario memory usuario = usuarios[_clavePublica] */\n      mload(0x40)\n      dup1\n      0xe0\n      add\n      0x40\n      mstore\n      swap1\n      dup2\n      0x00\n      dup3\n      add\n      dup1\n      sload\n      tag_86\n      swap1\n      tag_61\n      jump\t// in\n    tag_86:\n      dup1\n      0x1f\n      add\n      0x20\n      dup1\n      swap2\n      div\n      mul\n      0x20\n      add\n      mload(0x40)\n      swap1\n      dup2\n      add\n      0x40\n      mstore\n      dup1\n      swap3\n      swap2\n      swap1\n      dup2\n      dup2\n      mstore\n      0x20\n      add\n      dup3\n      dup1\n      sload\n      tag_87\n      swap1\n      tag_61\n      jump\t// in\n    tag_87:\n      dup1\n      iszero\n      tag_88\n      jumpi\n      dup1\n      0x1f\n      lt\n      tag_89\n      jumpi\n      0x0100\n      dup1\n      dup4\n      sload\n      div\n      mul\n      dup4\n      mstore\n      swap2\n      0x20\n      add\n      swap2\n      jump(tag_88)\n    tag_89:\n      dup3\n      add\n      swap2\n      swap1\n      0x00\n      mstore\n      keccak256(0x00, 0x20)\n      swap1\n    tag_90:\n      dup2\n      sload\n      dup2\n      mstore\n      swap1\n      0x01\n      add\n      swap1\n      0x20\n      add\n      dup1\n      dup4\n      gt\n      tag_90\n      jumpi\n      dup3\n      swap1\n      sub\n      0x1f\n      and\n      dup3\n      add\n      swap2\n    tag_88:\n      pop\n      pop\n      pop\n      pop\n      pop\n      dup2\n      mstore\n      0x20\n      add\n      0x01\n      dup3\n      add\n      dup1\n      sload\n      tag_91\n      swap1\n      tag_61\n      jump\t// in\n    tag_91:\n      dup1\n      0x1f\n      add\n      0x20\n      dup1\n      swap2\n      div\n      mul\n      0x20\n      add\n      mload(0x40)\n      swap1\n      dup2\n      add\n      0x40\n      mstore\n      dup1\n      swap3\n      swap2\n      swap1\n      dup2\n      dup2\n      mstore\n      0x20\n      add\n      dup3\n      dup1\n      sload\n      tag_92\n      swap1\n      tag_61\n      jump\t// in\n    tag_92:\n      dup1\n      iszero\n      tag_93\n      jumpi\n      dup1\n      0x1f\n      lt\n      tag_94\n      jumpi\n      0x0100\n      dup1\n      dup4\n      sload\n      div\n      mul\n      dup4\n      mstore\n      swap2\n      0x20\n      add\n      swap2\n      jump(tag_93)\n    tag_94:\n      dup3\n      add\n      swap2\n      swap1\n      0x00\n      mstore\n      keccak256(0x00, 0x20)\n      swap1\n    tag_95:\n      dup2\n      sload\n      dup2\n      mstore\n      swap1\n      0x01\n      add\n      swap1\n      0x20\n      add\n      dup1\n      dup4\n      gt\n      tag_95\n      jumpi\n      dup3\n      swap1\n      sub\n      0x1f\n      and\n      dup3\n      add\n      swap2\n    tag_93:\n      pop\n      pop\n      pop\n      pop\n      pop\n      dup2\n      mstore\n      0x20\n      add\n      0x02\n      dup3\n      add\n      dup1\n      sload\n      tag_96\n      swap1\n      tag_61\n      jump\t// in\n    tag_96:\n      dup1\n      0x1f\n      add\n      0x20\n      dup1\n      swap2\n      div\n      mul\n      0x20\n      add\n      mload(0x40)\n      swap1\n      dup2\n      add\n      0x40\n      mstore\n      dup1\n      swap3\n      swap2\n      swap1\n      dup2\n      dup2\n      mstore\n      0x20\n      add\n      dup3\n      dup1\n      sload\n      tag_97\n      swap1\n      tag_61\n      jump\t// in\n    tag_97:\n      dup1\n      iszero\n      tag_98\n      jumpi\n      dup1\n      0x1f\n      lt\n      tag_99\n      jumpi\n      0x0100\n      dup1\n      dup4\n      sload\n      div\n      mul\n      dup4\n      mstore\n      swap2\n      0x20\n      add\n      swap2\n      jump(tag_98)\n    tag_99:\n      dup3\n      add\n      swap2\n      swap1\n      0x00\n      mstore\n      keccak256(0x00, 0x20)\n      swap1\n    tag_100:\n      dup2\n      sload\n      dup2\n      mstore\n      swap1\n      0x01\n      add\n      swap1\n      0x20\n      add\n      dup1\n      dup4\n      gt\n      tag_100\n      jumpi\n      dup3\n      swap1\n      sub\n      0x1f\n      and\n      dup3\n      add\n      swap2\n    tag_98:\n      pop\n      pop\n      pop\n      pop\n      pop\n      dup2\n      mstore\n      0x20\n      add\n      0x03\n      dup3\n      add\n      sload\n      dup2\n      mstore\n      0x20\n      add\n      0x04\n      dup3\n      add\n      dup1\n      sload\n      tag_101\n      swap1\n      tag_61\n      jump\t// in\n    tag_101:\n      dup1\n      0x1f\n      add\n      0x20\n      dup1\n      swap2\n      div\n      mul\n      0x20\n      add\n      mload(0x40)\n      swap1\n      dup2\n      add\n      0x40\n      mstore\n      dup1\n      swap3\n      swap2\n      swap1\n      dup2\n      dup2\n      mstore\n      0x20\n      add\n      dup3\n      dup1\n      sload\n      tag_102\n      swap1\n      tag_61\n      jump\t// in\n    tag_102:\n      dup1\n      iszero\n      tag_103\n      jumpi\n      dup1\n      0x1f\n      lt\n      tag_104\n      jumpi\n      0x0100\n      dup1\n      dup4\n      sload\n      div\n      mul\n      dup4\n      mstore\n      swap2\n      0x20\n      add\n      swap2\n      jump(tag_103)\n    tag_104:\n      dup3\n      add\n      swap2\n      swap1\n      0x00\n      mstore\n      keccak256(0x00, 0x20)\n      swap1\n    tag_105:\n      dup2\n      sload\n      dup2\n      mstore\n      swap1\n      0x01\n      add\n      swap1\n      0x20\n      add\n      dup1\n      dup4\n      gt\n      tag_105\n      jumpi\n      dup3\n      swap1\n      sub\n      0x1f\n      and\n      dup3\n      add\n      swap2\n    tag_103:\n      pop\n      pop\n      pop\n      pop\n      pop\n      dup2\n      mstore\n      0x20\n      add\n      0x05\n      dup3\n      add\n      0x00\n      swap1\n      sload\n      swap1\n      0x0100\n      exp\n      swap1\n      div\n      0xffffffffffffffffffffffffffffffffffffffff\n      and\n      0xffffffffffffffffffffffffffffffffffffffff\n      and\n      0xffffffffffffffffffffffffffffffffffffffff\n      and\n      dup2\n      mstore\n      0x20\n      add\n      0x06\n      dup3\n      add\n      sload\n      dup2\n      mstore\n      pop\n      pop\n      swap1\n      pop\n        /* \"contracts/ControlUsuarios.sol\":2072:2079  usuario */\n      dup1\n        /* \"contracts/ControlUsuarios.sol\":2072:2086  usuario.nombre */\n      0x00\n      add\n      mload\n        /* \"contracts/ControlUsuarios.sol\":2088:2095  usuario */\n      dup2\n        /* \"contracts/ControlUsuarios.sol\":2088:2104  usuario.apellido */\n      0x20\n      add\n      mload\n        /* \"contracts/ControlUsuarios.sol\":2106:2113  usuario */\n      dup3\n        /* \"contracts/ControlUsuarios.sol\":2106:2123  usuario.direccion */\n      0x40\n      add\n      mload\n        /* \"contracts/ControlUsuarios.sol\":2125:2132  usuario */\n      dup4\n        /* \"contracts/ControlUsuarios.sol\":2125:2142  usuario.usuarioId */\n      0x60\n      add\n      mload\n        /* \"contracts/ControlUsuarios.sol\":2144:2151  usuario */\n      dup5\n        /* \"contracts/ControlUsuarios.sol\":2144:2163  usuario.tipoUsuario */\n      0x80\n      add\n      mload\n        /* \"contracts/ControlUsuarios.sol\":2064:2164  return (usuario.nombre, usuario.apellido, usuario.direccion, usuario.usuarioId, usuario.tipoUsuario) */\n      swap6\n      pop\n      swap6\n      pop\n      swap6\n      pop\n      swap6\n      pop\n      swap6\n      pop\n      pop\n        /* \"contracts/ControlUsuarios.sol\":1624:2171  function buscarUsuario(address _clavePublica)... */\n      swap2\n      swap4\n      swap6\n      swap1\n      swap3\n      swap5\n      pop\n      jump\t// out\n        /* \"contracts/ControlUsuarios.sol\":796:1618  function agregarUsuario(... */\n    tag_28:\n        /* \"contracts/ControlUsuarios.sol\":637:642  owner */\n      0x00\n      dup1\n      sload\n      swap1\n      0x0100\n      exp\n      swap1\n      div\n      0xffffffffffffffffffffffffffffffffffffffff\n      and\n        /* \"contracts/ControlUsuarios.sol\":623:642  msg.sender == owner */\n      0xffffffffffffffffffffffffffffffffffffffff\n      and\n        /* \"contracts/ControlUsuarios.sol\":623:633  msg.sender */\n      caller\n        /* \"contracts/ControlUsuarios.sol\":623:642  msg.sender == owner */\n      0xffffffffffffffffffffffffffffffffffffffff\n      and\n      eq\n        /* \"contracts/ControlUsuarios.sol\":615:687  require(msg.sender == owner, \"Solo el owner puede realizar esta accion\") */\n      tag_107\n      jumpi\n      mload(0x40)\n      0x08c379a000000000000000000000000000000000000000000000000000000000\n      dup2\n      mstore\n      0x04\n      add\n      tag_108\n      swap1\n      tag_109\n      jump\t// in\n    tag_108:\n      mload(0x40)\n      dup1\n      swap2\n      sub\n      swap1\n      revert\n    tag_107:\n        /* \"contracts/ControlUsuarios.sol\":1129:1130  0 */\n      0x00\n        /* \"contracts/ControlUsuarios.sol\":1081:1131  usuarios[_clavePublica].clavePublica == address(0) */\n      0xffffffffffffffffffffffffffffffffffffffff\n      and\n        /* \"contracts/ControlUsuarios.sol\":1081:1089  usuarios */\n      0x02\n        /* \"contracts/ControlUsuarios.sol\":1081:1104  usuarios[_clavePublica] */\n      0x00\n        /* \"contracts/ControlUsuarios.sol\":1090:1103  _clavePublica */\n      dup5\n        /* \"contracts/ControlUsuarios.sol\":1081:1104  usuarios[_clavePublica] */\n      0xffffffffffffffffffffffffffffffffffffffff\n      and\n      0xffffffffffffffffffffffffffffffffffffffff\n      and\n      dup2\n      mstore\n      0x20\n      add\n      swap1\n      dup2\n      mstore\n      0x20\n      add\n      0x00\n      keccak256\n        /* \"contracts/ControlUsuarios.sol\":1081:1117  usuarios[_clavePublica].clavePublica */\n      0x05\n      add\n      0x00\n      swap1\n      sload\n      swap1\n      0x0100\n      exp\n      swap1\n      div\n      0xffffffffffffffffffffffffffffffffffffffff\n      and\n        /* \"contracts/ControlUsuarios.sol\":1081:1131  usuarios[_clavePublica].clavePublica == address(0) */\n      0xffffffffffffffffffffffffffffffffffffffff\n      and\n      eq\n        /* \"contracts/ControlUsuarios.sol\":1073:1153  require(usuarios[_clavePublica].clavePublica == address(0), \"Usuario ya existe\") */\n      tag_111\n      jumpi\n      mload(0x40)\n      0x08c379a000000000000000000000000000000000000000000000000000000000\n      dup2\n      mstore\n      0x04\n      add\n      tag_112\n      swap1\n      tag_113\n      jump\t// in\n    tag_112:\n      mload(0x40)\n      dup1\n      swap2\n      sub\n      swap1\n      revert\n    tag_111:\n        /* \"contracts/ControlUsuarios.sol\":1164:1184  bytes32 passwordHash */\n      0x00\n        /* \"contracts/ControlUsuarios.sol\":1214:1223  _password */\n      dup2\n        /* \"contracts/ControlUsuarios.sol\":1197:1224  abi.encodePacked(_password) */\n      add(0x20, mload(0x40))\n      tag_114\n      swap2\n      swap1\n      tag_41\n      jump\t// in\n    tag_114:\n      mload(0x40)\n      0x20\n      dup2\n      dup4\n      sub\n      sub\n      dup2\n      mstore\n      swap1\n      0x40\n      mstore\n        /* \"contracts/ControlUsuarios.sol\":1187:1225  keccak256(abi.encodePacked(_password)) */\n      dup1\n      mload\n      swap1\n      0x20\n      add\n      keccak256\n        /* \"contracts/ControlUsuarios.sol\":1164:1225  bytes32 passwordHash = keccak256(abi.encodePacked(_password)) */\n      swap1\n      pop\n        /* \"contracts/ControlUsuarios.sol\":1262:1539  Usuario({... */\n      mload(0x40)\n      dup1\n      0xe0\n      add\n      0x40\n      mstore\n      dup1\n        /* \"contracts/ControlUsuarios.sol\":1292:1299  _nombre */\n      dup9\n        /* \"contracts/ControlUsuarios.sol\":1262:1539  Usuario({... */\n      dup2\n      mstore\n      0x20\n      add\n        /* \"contracts/ControlUsuarios.sol\":1323:1332  _apellido */\n      dup8\n        /* \"contracts/ControlUsuarios.sol\":1262:1539  Usuario({... */\n      dup2\n      mstore\n      0x20\n      add\n        /* \"contracts/ControlUsuarios.sol\":1357:1367  _direccion */\n      dup7\n        /* \"contracts/ControlUsuarios.sol\":1262:1539  Usuario({... */\n      dup2\n      mstore\n      0x20\n      add\n        /* \"contracts/ControlUsuarios.sol\":1392:1408  usuarioIdCounter */\n      sload(0x01)\n        /* \"contracts/ControlUsuarios.sol\":1262:1539  Usuario({... */\n      dup2\n      mstore\n      0x20\n      add\n        /* \"contracts/ControlUsuarios.sol\":1435:1447  _tipoUsuario */\n      dup6\n        /* \"contracts/ControlUsuarios.sol\":1262:1539  Usuario({... */\n      dup2\n      mstore\n      0x20\n      add\n        /* \"contracts/ControlUsuarios.sol\":1475:1488  _clavePublica */\n      dup5\n        /* \"contracts/ControlUsuarios.sol\":1262:1539  Usuario({... */\n      0xffffffffffffffffffffffffffffffffffffffff\n      and\n      dup2\n      mstore\n      0x20\n      add\n        /* \"contracts/ControlUsuarios.sol\":1516:1528  passwordHash */\n      dup3\n        /* \"contracts/ControlUsuarios.sol\":1262:1539  Usuario({... */\n      dup2\n      mstore\n      pop\n        /* \"contracts/ControlUsuarios.sol\":1236:1244  usuarios */\n      0x02\n        /* \"contracts/ControlUsuarios.sol\":1236:1259  usuarios[_clavePublica] */\n      0x00\n        /* \"contracts/ControlUsuarios.sol\":1245:1258  _clavePublica */\n      dup6\n        /* \"contracts/ControlUsuarios.sol\":1236:1259  usuarios[_clavePublica] */\n      0xffffffffffffffffffffffffffffffffffffffff\n      and\n      0xffffffffffffffffffffffffffffffffffffffff\n      and\n      dup2\n      mstore\n      0x20\n      add\n      swap1\n      dup2\n      mstore\n      0x20\n      add\n      0x00\n      keccak256\n        /* \"contracts/ControlUsuarios.sol\":1236:1539  usuarios[_clavePublica] = Usuario({... */\n      0x00\n      dup3\n      add\n      mload\n      dup2\n      0x00\n      add\n      swap1\n      dup2\n      tag_115\n      swap2\n      swap1\n      tag_116\n      jump\t// in\n    tag_115:\n      pop\n      0x20\n      dup3\n      add\n      mload\n      dup2\n      0x01\n      add\n      swap1\n      dup2\n      tag_117\n      swap2\n      swap1\n      tag_116\n      jump\t// in\n    tag_117:\n      pop\n      0x40\n      dup3\n      add\n      mload\n      dup2\n      0x02\n      add\n      swap1\n      dup2\n      tag_118\n      swap2\n      swap1\n      tag_116\n      jump\t// in\n    tag_118:\n      pop\n      0x60\n      dup3\n      add\n      mload\n      dup2\n      0x03\n      add\n      sstore\n      0x80\n      dup3\n      add\n      mload\n      dup2\n      0x04\n      add\n      swap1\n      dup2\n      tag_119\n      swap2\n      swap1\n      tag_116\n      jump\t// in\n    tag_119:\n      pop\n      0xa0\n      dup3\n      add\n      mload\n      dup2\n      0x05\n      add\n      exp(0x0100, 0x00)\n      dup2\n      sload\n      dup2\n      0xffffffffffffffffffffffffffffffffffffffff\n      mul\n      not\n      and\n      swap1\n      dup4\n      0xffffffffffffffffffffffffffffffffffffffff\n      and\n      mul\n      or\n      swap1\n      sstore\n      pop\n      0xc0\n      dup3\n      add\n      mload\n      dup2\n      0x06\n      add\n      sstore\n      swap1\n      pop\n      pop\n        /* \"contracts/ControlUsuarios.sol\":1550:1563  listaUsuarios */\n      0x03\n        /* \"contracts/ControlUsuarios.sol\":1569:1582  _clavePublica */\n      dup4\n        /* \"contracts/ControlUsuarios.sol\":1550:1583  listaUsuarios.push(_clavePublica) */\n      swap1\n      dup1\n      0x01\n      dup2\n      sload\n      add\n      dup1\n      dup3\n      sstore\n      dup1\n      swap2\n      pop\n      pop\n      0x01\n      swap1\n      sub\n      swap1\n      0x00\n      mstore\n      keccak256(0x00, 0x20)\n      add\n      0x00\n      swap1\n      swap2\n      swap1\n      swap2\n      swap1\n      swap2\n      0x0100\n      exp\n      dup2\n      sload\n      dup2\n      0xffffffffffffffffffffffffffffffffffffffff\n      mul\n      not\n      and\n      swap1\n      dup4\n      0xffffffffffffffffffffffffffffffffffffffff\n      and\n      mul\n      or\n      swap1\n      sstore\n      pop\n        /* \"contracts/ControlUsuarios.sol\":1593:1609  usuarioIdCounter */\n      0x01\n      0x00\n        /* \"contracts/ControlUsuarios.sol\":1593:1611  usuarioIdCounter++ */\n      dup2\n      sload\n      dup1\n      swap3\n      swap2\n      swap1\n      tag_121\n      swap1\n      tag_122\n      jump\t// in\n    tag_121:\n      swap2\n      swap1\n      pop\n      sstore\n      pop\n        /* \"contracts/ControlUsuarios.sol\":1063:1618  {... */\n      pop\n        /* \"contracts/ControlUsuarios.sol\":796:1618  function agregarUsuario(... */\n      pop\n      pop\n      pop\n      pop\n      pop\n      pop\n      jump\t// out\n        /* \"contracts/ControlUsuarios.sol\":2995:3555  function modificarUsuario(... */\n    tag_32:\n        /* \"contracts/ControlUsuarios.sol\":637:642  owner */\n      0x00\n      dup1\n      sload\n      swap1\n      0x0100\n      exp\n      swap1\n      div\n      0xffffffffffffffffffffffffffffffffffffffff\n      and\n        /* \"contracts/ControlUsuarios.sol\":623:642  msg.sender == owner */\n      0xffffffffffffffffffffffffffffffffffffffff\n      and\n        /* \"contracts/ControlUsuarios.sol\":623:633  msg.sender */\n      caller\n        /* \"contracts/ControlUsuarios.sol\":623:642  msg.sender == owner */\n      0xffffffffffffffffffffffffffffffffffffffff\n      and\n      eq\n        /* \"contracts/ControlUsuarios.sol\":615:687  require(msg.sender == owner, \"Solo el owner puede realizar esta accion\") */\n      tag_124\n      jumpi\n      mload(0x40)\n      0x08c379a000000000000000000000000000000000000000000000000000000000\n      dup2\n      mstore\n      0x04\n      add\n      tag_125\n      swap1\n      tag_109\n      jump\t// in\n    tag_125:\n      mload(0x40)\n      dup1\n      swap2\n      sub\n      swap1\n      revert\n    tag_124:\n        /* \"contracts/ControlUsuarios.sol\":3275:3276  0 */\n      0x00\n        /* \"contracts/ControlUsuarios.sol\":3227:3277  usuarios[_clavePublica].clavePublica != address(0) */\n      0xffffffffffffffffffffffffffffffffffffffff\n      and\n        /* \"contracts/ControlUsuarios.sol\":3227:3235  usuarios */\n      0x02\n        /* \"contracts/ControlUsuarios.sol\":3227:3250  usuarios[_clavePublica] */\n      0x00\n        /* \"contracts/ControlUsuarios.sol\":3236:3249  _clavePublica */\n      dup8\n        /* \"contracts/ControlUsuarios.sol\":3227:3250  usuarios[_clavePublica] */\n      0xffffffffffffffffffffffffffffffffffffffff\n      and\n      0xffffffffffffffffffffffffffffffffffffffff\n      and\n      dup2\n      mstore\n      0x20\n      add\n      swap1\n      dup2\n      mstore\n      0x20\n      add\n      0x00\n      keccak256\n        /* \"contracts/ControlUsuarios.sol\":3227:3263  usuarios[_clavePublica].clavePublica */\n      0x05\n      add\n      0x00\n      swap1\n      sload\n      swap1\n      0x0100\n      exp\n      swap1\n      div\n      0xffffffffffffffffffffffffffffffffffffffff\n      and\n        /* \"contracts/ControlUsuarios.sol\":3227:3277  usuarios[_clavePublica].clavePublica != address(0) */\n      0xffffffffffffffffffffffffffffffffffffffff\n      and\n      sub\n        /* \"contracts/ControlUsuarios.sol\":3219:3332  require(usuarios[_clavePublica].clavePublica != address(0), \"Usuario no existe, no se realizara la modificacion\") */\n      tag_127\n      jumpi\n      mload(0x40)\n      0x08c379a000000000000000000000000000000000000000000000000000000000\n      dup2\n      mstore\n      0x04\n      add\n      tag_128\n      swap1\n      tag_129\n      jump\t// in\n    tag_128:\n      mload(0x40)\n      dup1\n      swap2\n      sub\n      swap1\n      revert\n    tag_127:\n        /* \"contracts/ControlUsuarios.sol\":3343:3366  Usuario storage usuario */\n      0x00\n        /* \"contracts/ControlUsuarios.sol\":3369:3377  usuarios */\n      0x02\n        /* \"contracts/ControlUsuarios.sol\":3369:3392  usuarios[_clavePublica] */\n      0x00\n        /* \"contracts/ControlUsuarios.sol\":3378:3391  _clavePublica */\n      dup8\n        /* \"contracts/ControlUsuarios.sol\":3369:3392  usuarios[_clavePublica] */\n      0xffffffffffffffffffffffffffffffffffffffff\n      and\n      0xffffffffffffffffffffffffffffffffffffffff\n      and\n      dup2\n      mstore\n      0x20\n      add\n      swap1\n      dup2\n      mstore\n      0x20\n      add\n      0x00\n      keccak256\n        /* \"contracts/ControlUsuarios.sol\":3343:3392  Usuario storage usuario = usuarios[_clavePublica] */\n      swap1\n      pop\n        /* \"contracts/ControlUsuarios.sol\":3419:3426  _nombre */\n      dup5\n        /* \"contracts/ControlUsuarios.sol\":3402:3409  usuario */\n      dup2\n        /* \"contracts/ControlUsuarios.sol\":3402:3416  usuario.nombre */\n      0x00\n      add\n        /* \"contracts/ControlUsuarios.sol\":3402:3426  usuario.nombre = _nombre */\n      swap1\n      dup2\n      tag_130\n      swap2\n      swap1\n      tag_116\n      jump\t// in\n    tag_130:\n      pop\n        /* \"contracts/ControlUsuarios.sol\":3455:3464  _apellido */\n      dup4\n        /* \"contracts/ControlUsuarios.sol\":3436:3443  usuario */\n      dup2\n        /* \"contracts/ControlUsuarios.sol\":3436:3452  usuario.apellido */\n      0x01\n      add\n        /* \"contracts/ControlUsuarios.sol\":3436:3464  usuario.apellido = _apellido */\n      swap1\n      dup2\n      tag_131\n      swap2\n      swap1\n      tag_116\n      jump\t// in\n    tag_131:\n      pop\n        /* \"contracts/ControlUsuarios.sol\":3494:3504  _direccion */\n      dup3\n        /* \"contracts/ControlUsuarios.sol\":3474:3481  usuario */\n      dup2\n        /* \"contracts/ControlUsuarios.sol\":3474:3491  usuario.direccion */\n      0x02\n      add\n        /* \"contracts/ControlUsuarios.sol\":3474:3504  usuario.direccion = _direccion */\n      swap1\n      dup2\n      tag_132\n      swap2\n      swap1\n      tag_116\n      jump\t// in\n    tag_132:\n      pop\n        /* \"contracts/ControlUsuarios.sol\":3536:3548  _tipoUsuario */\n      dup2\n        /* \"contracts/ControlUsuarios.sol\":3514:3521  usuario */\n      dup2\n        /* \"contracts/ControlUsuarios.sol\":3514:3533  usuario.tipoUsuario */\n      0x04\n      add\n        /* \"contracts/ControlUsuarios.sol\":3514:3548  usuario.tipoUsuario = _tipoUsuario */\n      swap1\n      dup2\n      tag_133\n      swap2\n      swap1\n      tag_116\n      jump\t// in\n    tag_133:\n      pop\n        /* \"contracts/ControlUsuarios.sol\":3209:3555  {... */\n      pop\n        /* \"contracts/ControlUsuarios.sol\":2995:3555  function modificarUsuario(... */\n      pop\n      pop\n      pop\n      pop\n      pop\n      jump\t// out\n        /* \"contracts/ControlUsuarios.sol\":2177:2687  function eliminarUsuario(address _clavePublica) public soloOwner {... */\n    tag_35:\n        /* \"contracts/ControlUsuarios.sol\":637:642  owner */\n      0x00\n      dup1\n      sload\n      swap1\n      0x0100\n      exp\n      swap1\n      div\n      0xffffffffffffffffffffffffffffffffffffffff\n      and\n        /* \"contracts/ControlUsuarios.sol\":623:642  msg.sender == owner */\n      0xffffffffffffffffffffffffffffffffffffffff\n      and\n        /* \"contracts/ControlUsuarios.sol\":623:633  msg.sender */\n      caller\n        /* \"contracts/ControlUsuarios.sol\":623:642  msg.sender == owner */\n      0xffffffffffffffffffffffffffffffffffffffff\n      and\n      eq\n        /* \"contracts/ControlUsuarios.sol\":615:687  require(msg.sender == owner, \"Solo el owner puede realizar esta accion\") */\n      tag_135\n      jumpi\n      mload(0x40)\n      0x08c379a000000000000000000000000000000000000000000000000000000000\n      dup2\n      mstore\n      0x04\n      add\n      tag_136\n      swap1\n      tag_109\n      jump\t// in\n    tag_136:\n      mload(0x40)\n      dup1\n      swap2\n      sub\n      swap1\n      revert\n    tag_135:\n        /* \"contracts/ControlUsuarios.sol\":2308:2309  0 */\n      0x00\n        /* \"contracts/ControlUsuarios.sol\":2260:2310  usuarios[_clavePublica].clavePublica != address(0) */\n      0xffffffffffffffffffffffffffffffffffffffff\n      and\n        /* \"contracts/ControlUsuarios.sol\":2260:2268  usuarios */\n      0x02\n        /* \"contracts/ControlUsuarios.sol\":2260:2283  usuarios[_clavePublica] */\n      0x00\n        /* \"contracts/ControlUsuarios.sol\":2269:2282  _clavePublica */\n      dup4\n        /* \"contracts/ControlUsuarios.sol\":2260:2283  usuarios[_clavePublica] */\n      0xffffffffffffffffffffffffffffffffffffffff\n      and\n      0xffffffffffffffffffffffffffffffffffffffff\n      and\n      dup2\n      mstore\n      0x20\n      add\n      swap1\n      dup2\n      mstore\n      0x20\n      add\n      0x00\n      keccak256\n        /* \"contracts/ControlUsuarios.sol\":2260:2296  usuarios[_clavePublica].clavePublica */\n      0x05\n      add\n      0x00\n      swap1\n      sload\n      swap1\n      0x0100\n      exp\n      swap1\n      div\n      0xffffffffffffffffffffffffffffffffffffffff\n      and\n        /* \"contracts/ControlUsuarios.sol\":2260:2310  usuarios[_clavePublica].clavePublica != address(0) */\n      0xffffffffffffffffffffffffffffffffffffffff\n      and\n      sub\n        /* \"contracts/ControlUsuarios.sol\":2252:2364  require(usuarios[_clavePublica].clavePublica != address(0), \"Usuario no existe, no se realizara la eliminacion\") */\n      tag_138\n      jumpi\n      mload(0x40)\n      0x08c379a000000000000000000000000000000000000000000000000000000000\n      dup2\n      mstore\n      0x04\n      add\n      tag_139\n      swap1\n      tag_140\n      jump\t// in\n    tag_139:\n      mload(0x40)\n      dup1\n      swap2\n      sub\n      swap1\n      revert\n    tag_138:\n        /* \"contracts/ControlUsuarios.sol\":2382:2390  usuarios */\n      0x02\n        /* \"contracts/ControlUsuarios.sol\":2382:2405  usuarios[_clavePublica] */\n      0x00\n        /* \"contracts/ControlUsuarios.sol\":2391:2404  _clavePublica */\n      dup3\n        /* \"contracts/ControlUsuarios.sol\":2382:2405  usuarios[_clavePublica] */\n      0xffffffffffffffffffffffffffffffffffffffff\n      and\n      0xffffffffffffffffffffffffffffffffffffffff\n      and\n      dup2\n      mstore\n      0x20\n      add\n      swap1\n      dup2\n      mstore\n      0x20\n      add\n      0x00\n      keccak256\n      0x00\n        /* \"contracts/ControlUsuarios.sol\":2375:2405  delete usuarios[_clavePublica] */\n      dup1\n      dup3\n      add\n      0x00\n      tag_141\n      swap2\n      swap1\n      tag_142\n      jump\t// in\n    tag_141:\n      0x01\n      dup3\n      add\n      0x00\n      tag_143\n      swap2\n      swap1\n      tag_142\n      jump\t// in\n    tag_143:\n      0x02\n      dup3\n      add\n      0x00\n      tag_144\n      swap2\n      swap1\n      tag_142\n      jump\t// in\n    tag_144:\n      0x03\n      dup3\n      add\n      0x00\n      swap1\n      sstore\n      0x04\n      dup3\n      add\n      0x00\n      tag_145\n      swap2\n      swap1\n      tag_142\n      jump\t// in\n    tag_145:\n      0x05\n      dup3\n      add\n      exp(0x0100, 0x00)\n      dup2\n      sload\n      swap1\n      0xffffffffffffffffffffffffffffffffffffffff\n      mul\n      not\n      and\n      swap1\n      sstore\n      0x06\n      dup3\n      add\n      0x00\n      swap1\n      sstore\n      pop\n      pop\n        /* \"contracts/ControlUsuarios.sol\":2421:2430  uint256 i */\n      0x00\n        /* \"contracts/ControlUsuarios.sol\":2416:2681  for (uint256 i = 0; i < listaUsuarios.length; i++) {... */\n    tag_146:\n        /* \"contracts/ControlUsuarios.sol\":2440:2453  listaUsuarios */\n      0x03\n        /* \"contracts/ControlUsuarios.sol\":2440:2460  listaUsuarios.length */\n      dup1\n      sload\n      swap1\n      pop\n        /* \"contracts/ControlUsuarios.sol\":2436:2437  i */\n      dup2\n        /* \"contracts/ControlUsuarios.sol\":2436:2460  i < listaUsuarios.length */\n      lt\n        /* \"contracts/ControlUsuarios.sol\":2416:2681  for (uint256 i = 0; i < listaUsuarios.length; i++) {... */\n      iszero\n      tag_147\n      jumpi\n        /* \"contracts/ControlUsuarios.sol\":2505:2518  _clavePublica */\n      dup2\n        /* \"contracts/ControlUsuarios.sol\":2485:2518  listaUsuarios[i] == _clavePublica */\n      0xffffffffffffffffffffffffffffffffffffffff\n      and\n        /* \"contracts/ControlUsuarios.sol\":2485:2498  listaUsuarios */\n      0x03\n        /* \"contracts/ControlUsuarios.sol\":2499:2500  i */\n      dup3\n        /* \"contracts/ControlUsuarios.sol\":2485:2501  listaUsuarios[i] */\n      dup2\n      sload\n      dup2\n      lt\n      tag_149\n      jumpi\n      tag_150\n      tag_58\n      jump\t// in\n    tag_150:\n    tag_149:\n      swap1\n      0x00\n      mstore\n      keccak256(0x00, 0x20)\n      add\n      0x00\n      swap1\n      sload\n      swap1\n      0x0100\n      exp\n      swap1\n      div\n      0xffffffffffffffffffffffffffffffffffffffff\n      and\n        /* \"contracts/ControlUsuarios.sol\":2485:2518  listaUsuarios[i] == _clavePublica */\n      0xffffffffffffffffffffffffffffffffffffffff\n      and\n      sub\n        /* \"contracts/ControlUsuarios.sol\":2481:2671  if (listaUsuarios[i] == _clavePublica) {... */\n      tag_152\n      jumpi\n        /* \"contracts/ControlUsuarios.sol\":2557:2570  listaUsuarios */\n      0x03\n        /* \"contracts/ControlUsuarios.sol\":2594:2595  1 */\n      0x01\n        /* \"contracts/ControlUsuarios.sol\":2571:2584  listaUsuarios */\n      0x03\n        /* \"contracts/ControlUsuarios.sol\":2571:2591  listaUsuarios.length */\n      dup1\n      sload\n      swap1\n      pop\n        /* \"contracts/ControlUsuarios.sol\":2571:2595  listaUsuarios.length - 1 */\n      tag_153\n      swap2\n      swap1\n      tag_154\n      jump\t// in\n    tag_153:\n        /* \"contracts/ControlUsuarios.sol\":2557:2596  listaUsuarios[listaUsuarios.length - 1] */\n      dup2\n      sload\n      dup2\n      lt\n      tag_155\n      jumpi\n      tag_156\n      tag_58\n      jump\t// in\n    tag_156:\n    tag_155:\n      swap1\n      0x00\n      mstore\n      keccak256(0x00, 0x20)\n      add\n      0x00\n      swap1\n      sload\n      swap1\n      0x0100\n      exp\n      swap1\n      div\n      0xffffffffffffffffffffffffffffffffffffffff\n      and\n        /* \"contracts/ControlUsuarios.sol\":2538:2551  listaUsuarios */\n      0x03\n        /* \"contracts/ControlUsuarios.sol\":2552:2553  i */\n      dup3\n        /* \"contracts/ControlUsuarios.sol\":2538:2554  listaUsuarios[i] */\n      dup2\n      sload\n      dup2\n      lt\n      tag_158\n      jumpi\n      tag_159\n      tag_58\n      jump\t// in\n    tag_159:\n    tag_158:\n      swap1\n      0x00\n      mstore\n      keccak256(0x00, 0x20)\n      add\n      0x00\n        /* \"contracts/ControlUsuarios.sol\":2538:2596  listaUsuarios[i] = listaUsuarios[listaUsuarios.length - 1] */\n      0x0100\n      exp\n      dup2\n      sload\n      dup2\n      0xffffffffffffffffffffffffffffffffffffffff\n      mul\n      not\n      and\n      swap1\n      dup4\n      0xffffffffffffffffffffffffffffffffffffffff\n      and\n      mul\n      or\n      swap1\n      sstore\n      pop\n        /* \"contracts/ControlUsuarios.sol\":2614:2627  listaUsuarios */\n      0x03\n        /* \"contracts/ControlUsuarios.sol\":2614:2633  listaUsuarios.pop() */\n      dup1\n      sload\n      dup1\n      tag_161\n      jumpi\n      tag_162\n      tag_163\n      jump\t// in\n    tag_162:\n    tag_161:\n      0x01\n      swap1\n      sub\n      dup2\n      dup2\n      swap1\n      0x00\n      mstore\n      keccak256(0x00, 0x20)\n      add\n      exp(0x0100, 0x00)\n      dup2\n      sload\n      swap1\n      0xffffffffffffffffffffffffffffffffffffffff\n      mul\n      not\n      and\n      swap1\n      sstore\n      swap1\n      sstore\n        /* \"contracts/ControlUsuarios.sol\":2651:2656  break */\n      jump(tag_147)\n        /* \"contracts/ControlUsuarios.sol\":2481:2671  if (listaUsuarios[i] == _clavePublica) {... */\n    tag_152:\n        /* \"contracts/ControlUsuarios.sol\":2462:2465  i++ */\n      dup1\n      dup1\n      0x01\n      add\n      swap2\n      pop\n      pop\n        /* \"contracts/ControlUsuarios.sol\":2416:2681  for (uint256 i = 0; i < listaUsuarios.length; i++) {... */\n      jump(tag_146)\n    tag_147:\n      pop\n        /* \"contracts/ControlUsuarios.sol\":2177:2687  function eliminarUsuario(address _clavePublica) public soloOwner {... */\n      pop\n      jump\t// out\n    tag_52:\n      mload(0x40)\n      dup1\n      0xe0\n      add\n      0x40\n      mstore\n      dup1\n      0x60\n      dup2\n      mstore\n      0x20\n      add\n      0x60\n      dup2\n      mstore\n      0x20\n      add\n      0x60\n      dup2\n      mstore\n      0x20\n      add\n      0x00\n      dup2\n      mstore\n      0x20\n      add\n      0x60\n      dup2\n      mstore\n      0x20\n      add\n      and(0xffffffffffffffffffffffffffffffffffffffff, 0x00)\n      dup2\n      mstore\n      0x20\n      add\n      0x00\n      dup1\n      not\n      and\n      dup2\n      mstore\n      pop\n      swap1\n      jump\t// out\n    tag_142:\n      pop\n      dup1\n      sload\n      tag_165\n      swap1\n      tag_61\n      jump\t// in\n    tag_165:\n      0x00\n      dup3\n      sstore\n      dup1\n      0x1f\n      lt\n      tag_167\n      jumpi\n      pop\n      jump(tag_166)\n    tag_167:\n      0x1f\n      add\n      0x20\n      swap1\n      div\n      swap1\n      0x00\n      mstore\n      keccak256(0x00, 0x20)\n      swap1\n      dup2\n      add\n      swap1\n      tag_168\n      swap2\n      swap1\n      tag_169\n      jump\t// in\n    tag_168:\n    tag_166:\n      pop\n      jump\t// out\n    tag_169:\n    tag_170:\n      dup1\n      dup3\n      gt\n      iszero\n      tag_171\n      jumpi\n      0x00\n      dup2\n      0x00\n      swap1\n      sstore\n      pop\n      0x01\n      add\n      jump(tag_170)\n    tag_171:\n      pop\n      swap1\n      jump\t// out\n        /* \"#utility.yul\":7:82   */\n    tag_172:\n        /* \"#utility.yul\":40:46   */\n      0x00\n        /* \"#utility.yul\":73:75   */\n      0x40\n        /* \"#utility.yul\":67:76   */\n      mload\n        /* \"#utility.yul\":57:76   */\n      swap1\n      pop\n        /* \"#utility.yul\":7:82   */\n      swap1\n      jump\t// out\n        /* \"#utility.yul\":88:205   */\n    tag_173:\n        /* \"#utility.yul\":197:198   */\n      0x00\n        /* \"#utility.yul\":194:195   */\n      dup1\n        /* \"#utility.yul\":187:199   */\n      revert\n        /* \"#utility.yul\":211:328   */\n    tag_174:\n        /* \"#utility.yul\":320:321   */\n      0x00\n        /* \"#utility.yul\":317:318   */\n      dup1\n        /* \"#utility.yul\":310:322   */\n      revert\n        /* \"#utility.yul\":334:460   */\n    tag_175:\n        /* \"#utility.yul\":371:378   */\n      0x00\n        /* \"#utility.yul\":411:453   */\n      0xffffffffffffffffffffffffffffffffffffffff\n        /* \"#utility.yul\":404:409   */\n      dup3\n        /* \"#utility.yul\":400:454   */\n      and\n        /* \"#utility.yul\":389:454   */\n      swap1\n      pop\n        /* \"#utility.yul\":334:460   */\n      swap2\n      swap1\n      pop\n      jump\t// out\n        /* \"#utility.yul\":466:562   */\n    tag_176:\n        /* \"#utility.yul\":503:510   */\n      0x00\n        /* \"#utility.yul\":532:556   */\n      tag_246\n        /* \"#utility.yul\":550:555   */\n      dup3\n        /* \"#utility.yul\":532:556   */\n      tag_175\n      jump\t// in\n    tag_246:\n        /* \"#utility.yul\":521:556   */\n      swap1\n      pop\n        /* \"#utility.yul\":466:562   */\n      swap2\n      swap1\n      pop\n      jump\t// out\n        /* \"#utility.yul\":568:690   */\n    tag_177:\n        /* \"#utility.yul\":641:665   */\n      tag_248\n        /* \"#utility.yul\":659:664   */\n      dup2\n        /* \"#utility.yul\":641:665   */\n      tag_176\n      jump\t// in\n    tag_248:\n        /* \"#utility.yul\":634:639   */\n      dup2\n        /* \"#utility.yul\":631:666   */\n      eq\n        /* \"#utility.yul\":621:684   */\n      tag_249\n      jumpi\n        /* \"#utility.yul\":680:681   */\n      0x00\n        /* \"#utility.yul\":677:678   */\n      dup1\n        /* \"#utility.yul\":670:682   */\n      revert\n        /* \"#utility.yul\":621:684   */\n    tag_249:\n        /* \"#utility.yul\":568:690   */\n      pop\n      jump\t// out\n        /* \"#utility.yul\":696:835   */\n    tag_178:\n        /* \"#utility.yul\":742:747   */\n      0x00\n        /* \"#utility.yul\":780:786   */\n      dup2\n        /* \"#utility.yul\":767:787   */\n      calldataload\n        /* \"#utility.yul\":758:787   */\n      swap1\n      pop\n        /* \"#utility.yul\":796:829   */\n      tag_251\n        /* \"#utility.yul\":823:828   */\n      dup2\n        /* \"#utility.yul\":796:829   */\n      tag_177\n      jump\t// in\n    tag_251:\n        /* \"#utility.yul\":696:835   */\n      swap3\n      swap2\n      pop\n      pop\n      jump\t// out\n        /* \"#utility.yul\":841:958   */\n    tag_179:\n        /* \"#utility.yul\":950:951   */\n      0x00\n        /* \"#utility.yul\":947:948   */\n      dup1\n        /* \"#utility.yul\":940:952   */\n      revert\n        /* \"#utility.yul\":964:1081   */\n    tag_180:\n        /* \"#utility.yul\":1073:1074   */\n      0x00\n        /* \"#utility.yul\":1070:1071   */\n      dup1\n        /* \"#utility.yul\":1063:1075   */\n      revert\n        /* \"#utility.yul\":1087:1189   */\n    tag_181:\n        /* \"#utility.yul\":1128:1134   */\n      0x00\n        /* \"#utility.yul\":1179:1181   */\n      0x1f\n        /* \"#utility.yul\":1175:1182   */\n      not\n        /* \"#utility.yul\":1170:1172   */\n      0x1f\n        /* \"#utility.yul\":1163:1168   */\n      dup4\n        /* \"#utility.yul\":1159:1173   */\n      add\n        /* \"#utility.yul\":1155:1183   */\n      and\n        /* \"#utility.yul\":1145:1183   */\n      swap1\n      pop\n        /* \"#utility.yul\":1087:1189   */\n      swap2\n      swap1\n      pop\n      jump\t// out\n        /* \"#utility.yul\":1195:1375   */\n    tag_48:\n        /* \"#utility.yul\":1243:1320   */\n      0x4e487b7100000000000000000000000000000000000000000000000000000000\n        /* \"#utility.yul\":1240:1241   */\n      0x00\n        /* \"#utility.yul\":1233:1321   */\n      mstore\n        /* \"#utility.yul\":1340:1344   */\n      0x41\n        /* \"#utility.yul\":1337:1338   */\n      0x04\n        /* \"#utility.yul\":1330:1345   */\n      mstore\n        /* \"#utility.yul\":1364:1368   */\n      0x24\n        /* \"#utility.yul\":1361:1362   */\n      0x00\n        /* \"#utility.yul\":1354:1369   */\n      revert\n        /* \"#utility.yul\":1381:1662   */\n    tag_182:\n        /* \"#utility.yul\":1464:1491   */\n      tag_257\n        /* \"#utility.yul\":1486:1490   */\n      dup3\n        /* \"#utility.yul\":1464:1491   */\n      tag_181\n      jump\t// in\n    tag_257:\n        /* \"#utility.yul\":1456:1462   */\n      dup2\n        /* \"#utility.yul\":1452:1492   */\n      add\n        /* \"#utility.yul\":1594:1600   */\n      dup2\n        /* \"#utility.yul\":1582:1592   */\n      dup2\n        /* \"#utility.yul\":1579:1601   */\n      lt\n        /* \"#utility.yul\":1558:1576   */\n      0xffffffffffffffff\n        /* \"#utility.yul\":1546:1556   */\n      dup3\n        /* \"#utility.yul\":1543:1577   */\n      gt\n        /* \"#utility.yul\":1540:1602   */\n      or\n        /* \"#utility.yul\":1537:1625   */\n      iszero\n      tag_258\n      jumpi\n        /* \"#utility.yul\":1605:1623   */\n      tag_259\n      tag_48\n      jump\t// in\n    tag_259:\n        /* \"#utility.yul\":1537:1625   */\n    tag_258:\n        /* \"#utility.yul\":1645:1655   */\n      dup1\n        /* \"#utility.yul\":1641:1643   */\n      0x40\n        /* \"#utility.yul\":1634:1656   */\n      mstore\n        /* \"#utility.yul\":1424:1662   */\n      pop\n        /* \"#utility.yul\":1381:1662   */\n      pop\n      pop\n      jump\t// out\n        /* \"#utility.yul\":1668:1797   */\n    tag_183:\n        /* \"#utility.yul\":1702:1708   */\n      0x00\n        /* \"#utility.yul\":1729:1749   */\n      tag_261\n      tag_172\n      jump\t// in\n    tag_261:\n        /* \"#utility.yul\":1719:1749   */\n      swap1\n      pop\n        /* \"#utility.yul\":1758:1791   */\n      tag_262\n        /* \"#utility.yul\":1786:1790   */\n      dup3\n        /* \"#utility.yul\":1778:1784   */\n      dup3\n        /* \"#utility.yul\":1758:1791   */\n      tag_182\n      jump\t// in\n    tag_262:\n        /* \"#utility.yul\":1668:1797   */\n      swap2\n      swap1\n      pop\n      jump\t// out\n        /* \"#utility.yul\":1803:2111   */\n    tag_184:\n        /* \"#utility.yul\":1865:1869   */\n      0x00\n        /* \"#utility.yul\":1955:1973   */\n      0xffffffffffffffff\n        /* \"#utility.yul\":1947:1953   */\n      dup3\n        /* \"#utility.yul\":1944:1974   */\n      gt\n        /* \"#utility.yul\":1941:1997   */\n      iszero\n      tag_264\n      jumpi\n        /* \"#utility.yul\":1977:1995   */\n      tag_265\n      tag_48\n      jump\t// in\n    tag_265:\n        /* \"#utility.yul\":1941:1997   */\n    tag_264:\n        /* \"#utility.yul\":2015:2044   */\n      tag_266\n        /* \"#utility.yul\":2037:2043   */\n      dup3\n        /* \"#utility.yul\":2015:2044   */\n      tag_181\n      jump\t// in\n    tag_266:\n        /* \"#utility.yul\":2007:2044   */\n      swap1\n      pop\n        /* \"#utility.yul\":2099:2103   */\n      0x20\n        /* \"#utility.yul\":2093:2097   */\n      dup2\n        /* \"#utility.yul\":2089:2104   */\n      add\n        /* \"#utility.yul\":2081:2104   */\n      swap1\n      pop\n        /* \"#utility.yul\":1803:2111   */\n      swap2\n      swap1\n      pop\n      jump\t// out\n        /* \"#utility.yul\":2117:2265   */\n    tag_185:\n        /* \"#utility.yul\":2215:2221   */\n      dup3\n        /* \"#utility.yul\":2210:2213   */\n      dup2\n        /* \"#utility.yul\":2205:2208   */\n      dup4\n        /* \"#utility.yul\":2192:2222   */\n      calldatacopy\n        /* \"#utility.yul\":2256:2257   */\n      0x00\n        /* \"#utility.yul\":2247:2253   */\n      dup4\n        /* \"#utility.yul\":2242:2245   */\n      dup4\n        /* \"#utility.yul\":2238:2254   */\n      add\n        /* \"#utility.yul\":2231:2258   */\n      mstore\n        /* \"#utility.yul\":2117:2265   */\n      pop\n      pop\n      pop\n      jump\t// out\n        /* \"#utility.yul\":2271:2696   */\n    tag_186:\n        /* \"#utility.yul\":2349:2354   */\n      0x00\n        /* \"#utility.yul\":2374:2440   */\n      tag_269\n        /* \"#utility.yul\":2390:2439   */\n      tag_270\n        /* \"#utility.yul\":2432:2438   */\n      dup5\n        /* \"#utility.yul\":2390:2439   */\n      tag_184\n      jump\t// in\n    tag_270:\n        /* \"#utility.yul\":2374:2440   */\n      tag_183\n      jump\t// in\n    tag_269:\n        /* \"#utility.yul\":2365:2440   */\n      swap1\n      pop\n        /* \"#utility.yul\":2463:2469   */\n      dup3\n        /* \"#utility.yul\":2456:2461   */\n      dup2\n        /* \"#utility.yul\":2449:2470   */\n      mstore\n        /* \"#utility.yul\":2501:2505   */\n      0x20\n        /* \"#utility.yul\":2494:2499   */\n      dup2\n        /* \"#utility.yul\":2490:2506   */\n      add\n        /* \"#utility.yul\":2539:2542   */\n      dup5\n        /* \"#utility.yul\":2530:2536   */\n      dup5\n        /* \"#utility.yul\":2525:2528   */\n      dup5\n        /* \"#utility.yul\":2521:2537   */\n      add\n        /* \"#utility.yul\":2518:2543   */\n      gt\n        /* \"#utility.yul\":2515:2627   */\n      iszero\n      tag_271\n      jumpi\n        /* \"#utility.yul\":2546:2625   */\n      tag_272\n      tag_180\n      jump\t// in\n    tag_272:\n        /* \"#utility.yul\":2515:2627   */\n    tag_271:\n        /* \"#utility.yul\":2636:2690   */\n      tag_273\n        /* \"#utility.yul\":2683:2689   */\n      dup5\n        /* \"#utility.yul\":2678:2681   */\n      dup3\n        /* \"#utility.yul\":2673:2676   */\n      dup6\n        /* \"#utility.yul\":2636:2690   */\n      tag_185\n      jump\t// in\n    tag_273:\n        /* \"#utility.yul\":2355:2696   */\n      pop\n        /* \"#utility.yul\":2271:2696   */\n      swap4\n      swap3\n      pop\n      pop\n      pop\n      jump\t// out\n        /* \"#utility.yul\":2716:3056   */\n    tag_187:\n        /* \"#utility.yul\":2772:2777   */\n      0x00\n        /* \"#utility.yul\":2821:2824   */\n      dup3\n        /* \"#utility.yul\":2814:2818   */\n      0x1f\n        /* \"#utility.yul\":2806:2812   */\n      dup4\n        /* \"#utility.yul\":2802:2819   */\n      add\n        /* \"#utility.yul\":2798:2825   */\n      slt\n        /* \"#utility.yul\":2788:2910   */\n      tag_275\n      jumpi\n        /* \"#utility.yul\":2829:2908   */\n      tag_276\n      tag_179\n      jump\t// in\n    tag_276:\n        /* \"#utility.yul\":2788:2910   */\n    tag_275:\n        /* \"#utility.yul\":2946:2952   */\n      dup2\n        /* \"#utility.yul\":2933:2953   */\n      calldataload\n        /* \"#utility.yul\":2971:3050   */\n      tag_277\n        /* \"#utility.yul\":3046:3049   */\n      dup5\n        /* \"#utility.yul\":3038:3044   */\n      dup3\n        /* \"#utility.yul\":3031:3035   */\n      0x20\n        /* \"#utility.yul\":3023:3029   */\n      dup7\n        /* \"#utility.yul\":3019:3036   */\n      add\n        /* \"#utility.yul\":2971:3050   */\n      tag_186\n      jump\t// in\n    tag_277:\n        /* \"#utility.yul\":2962:3050   */\n      swap2\n      pop\n        /* \"#utility.yul\":2778:3056   */\n      pop\n        /* \"#utility.yul\":2716:3056   */\n      swap3\n      swap2\n      pop\n      pop\n      jump\t// out\n        /* \"#utility.yul\":3062:3716   */\n    tag_11:\n        /* \"#utility.yul\":3140:3146   */\n      0x00\n        /* \"#utility.yul\":3148:3154   */\n      dup1\n        /* \"#utility.yul\":3197:3199   */\n      0x40\n        /* \"#utility.yul\":3185:3194   */\n      dup4\n        /* \"#utility.yul\":3176:3183   */\n      dup6\n        /* \"#utility.yul\":3172:3195   */\n      sub\n        /* \"#utility.yul\":3168:3200   */\n      slt\n        /* \"#utility.yul\":3165:3284   */\n      iszero\n      tag_279\n      jumpi\n        /* \"#utility.yul\":3203:3282   */\n      tag_280\n      tag_173\n      jump\t// in\n    tag_280:\n        /* \"#utility.yul\":3165:3284   */\n    tag_279:\n        /* \"#utility.yul\":3323:3324   */\n      0x00\n        /* \"#utility.yul\":3348:3401   */\n      tag_281\n        /* \"#utility.yul\":3393:3400   */\n      dup6\n        /* \"#utility.yul\":3384:3390   */\n      dup3\n        /* \"#utility.yul\":3373:3382   */\n      dup7\n        /* \"#utility.yul\":3369:3391   */\n      add\n        /* \"#utility.yul\":3348:3401   */\n      tag_178\n      jump\t// in\n    tag_281:\n        /* \"#utility.yul\":3338:3401   */\n      swap3\n      pop\n        /* \"#utility.yul\":3294:3411   */\n      pop\n        /* \"#utility.yul\":3478:3480   */\n      0x20\n        /* \"#utility.yul\":3467:3476   */\n      dup4\n        /* \"#utility.yul\":3463:3481   */\n      add\n        /* \"#utility.yul\":3450:3482   */\n      calldataload\n        /* \"#utility.yul\":3509:3527   */\n      0xffffffffffffffff\n        /* \"#utility.yul\":3501:3507   */\n      dup2\n        /* \"#utility.yul\":3498:3528   */\n      gt\n        /* \"#utility.yul\":3495:3612   */\n      iszero\n      tag_282\n      jumpi\n        /* \"#utility.yul\":3531:3610   */\n      tag_283\n      tag_174\n      jump\t// in\n    tag_283:\n        /* \"#utility.yul\":3495:3612   */\n    tag_282:\n        /* \"#utility.yul\":3636:3699   */\n      tag_284\n        /* \"#utility.yul\":3691:3698   */\n      dup6\n        /* \"#utility.yul\":3682:3688   */\n      dup3\n        /* \"#utility.yul\":3671:3680   */\n      dup7\n        /* \"#utility.yul\":3667:3689   */\n      add\n        /* \"#utility.yul\":3636:3699   */\n      tag_187\n      jump\t// in\n    tag_284:\n        /* \"#utility.yul\":3626:3699   */\n      swap2\n      pop\n        /* \"#utility.yul\":3421:3709   */\n      pop\n        /* \"#utility.yul\":3062:3716   */\n      swap3\n      pop\n      swap3\n      swap1\n      pop\n      jump\t// out\n        /* \"#utility.yul\":3722:3812   */\n    tag_188:\n        /* \"#utility.yul\":3756:3763   */\n      0x00\n        /* \"#utility.yul\":3799:3804   */\n      dup2\n        /* \"#utility.yul\":3792:3805   */\n      iszero\n        /* \"#utility.yul\":3785:3806   */\n      iszero\n        /* \"#utility.yul\":3774:3806   */\n      swap1\n      pop\n        /* \"#utility.yul\":3722:3812   */\n      swap2\n      swap1\n      pop\n      jump\t// out\n        /* \"#utility.yul\":3818:3927   */\n    tag_189:\n        /* \"#utility.yul\":3899:3920   */\n      tag_287\n        /* \"#utility.yul\":3914:3919   */\n      dup2\n        /* \"#utility.yul\":3899:3920   */\n      tag_188\n      jump\t// in\n    tag_287:\n        /* \"#utility.yul\":3894:3897   */\n      dup3\n        /* \"#utility.yul\":3887:3921   */\n      mstore\n        /* \"#utility.yul\":3818:3927   */\n      pop\n      pop\n      jump\t// out\n        /* \"#utility.yul\":3933:4143   */\n    tag_14:\n        /* \"#utility.yul\":4020:4024   */\n      0x00\n        /* \"#utility.yul\":4058:4060   */\n      0x20\n        /* \"#utility.yul\":4047:4056   */\n      dup3\n        /* \"#utility.yul\":4043:4061   */\n      add\n        /* \"#utility.yul\":4035:4061   */\n      swap1\n      pop\n        /* \"#utility.yul\":4071:4136   */\n      tag_289\n        /* \"#utility.yul\":4133:4134   */\n      0x00\n        /* \"#utility.yul\":4122:4131   */\n      dup4\n        /* \"#utility.yul\":4118:4135   */\n      add\n        /* \"#utility.yul\":4109:4115   */\n      dup5\n        /* \"#utility.yul\":4071:4136   */\n      tag_189\n      jump\t// in\n    tag_289:\n        /* \"#utility.yul\":3933:4143   */\n      swap3\n      swap2\n      pop\n      pop\n      jump\t// out\n        /* \"#utility.yul\":4149:4288   */\n    tag_190:\n        /* \"#utility.yul\":4241:4247   */\n      0x00\n        /* \"#utility.yul\":4275:4280   */\n      dup2\n        /* \"#utility.yul\":4269:4281   */\n      mload\n        /* \"#utility.yul\":4259:4281   */\n      swap1\n      pop\n        /* \"#utility.yul\":4149:4288   */\n      swap2\n      swap1\n      pop\n      jump\t// out\n        /* \"#utility.yul\":4294:4503   */\n    tag_191:\n        /* \"#utility.yul\":4418:4429   */\n      0x00\n        /* \"#utility.yul\":4452:4458   */\n      dup3\n        /* \"#utility.yul\":4447:4450   */\n      dup3\n        /* \"#utility.yul\":4440:4459   */\n      mstore\n        /* \"#utility.yul\":4492:4496   */\n      0x20\n        /* \"#utility.yul\":4487:4490   */\n      dup3\n        /* \"#utility.yul\":4483:4497   */\n      add\n        /* \"#utility.yul\":4468:4497   */\n      swap1\n      pop\n        /* \"#utility.yul\":4294:4503   */\n      swap3\n      swap2\n      pop\n      pop\n      jump\t// out\n        /* \"#utility.yul\":4509:4666   */\n    tag_192:\n        /* \"#utility.yul\":4601:4605   */\n      0x00\n        /* \"#utility.yul\":4624:4627   */\n      dup2\n        /* \"#utility.yul\":4616:4627   */\n      swap1\n      pop\n        /* \"#utility.yul\":4654:4658   */\n      0x20\n        /* \"#utility.yul\":4649:4652   */\n      dup3\n        /* \"#utility.yul\":4645:4659   */\n      add\n        /* \"#utility.yul\":4637:4659   */\n      swap1\n      pop\n        /* \"#utility.yul\":4509:4666   */\n      swap2\n      swap1\n      pop\n      jump\t// out\n        /* \"#utility.yul\":4672:4771   */\n    tag_193:\n        /* \"#utility.yul\":4724:4730   */\n      0x00\n        /* \"#utility.yul\":4758:4763   */\n      dup2\n        /* \"#utility.yul\":4752:4764   */\n      mload\n        /* \"#utility.yul\":4742:4764   */\n      swap1\n      pop\n        /* \"#utility.yul\":4672:4771   */\n      swap2\n      swap1\n      pop\n      jump\t// out\n        /* \"#utility.yul\":4777:4936   */\n    tag_194:\n        /* \"#utility.yul\":4851:4862   */\n      0x00\n        /* \"#utility.yul\":4885:4891   */\n      dup3\n        /* \"#utility.yul\":4880:4883   */\n      dup3\n        /* \"#utility.yul\":4873:4892   */\n      mstore\n        /* \"#utility.yul\":4925:4929   */\n      0x20\n        /* \"#utility.yul\":4920:4923   */\n      dup3\n        /* \"#utility.yul\":4916:4930   */\n      add\n        /* \"#utility.yul\":4901:4930   */\n      swap1\n      pop\n        /* \"#utility.yul\":4777:4936   */\n      swap3\n      swap2\n      pop\n      pop\n      jump\t// out\n        /* \"#utility.yul\":4942:5081   */\n    tag_195:\n        /* \"#utility.yul\":5031:5037   */\n      dup3\n        /* \"#utility.yul\":5026:5029   */\n      dup2\n        /* \"#utility.yul\":5021:5024   */\n      dup4\n        /* \"#utility.yul\":5015:5038   */\n      mcopy\n        /* \"#utility.yul\":5072:5073   */\n      0x00\n        /* \"#utility.yul\":5063:5069   */\n      dup4\n        /* \"#utility.yul\":5058:5061   */\n      dup4\n        /* \"#utility.yul\":5054:5070   */\n      add\n        /* \"#utility.yul\":5047:5074   */\n      mstore\n        /* \"#utility.yul\":4942:5081   */\n      pop\n      pop\n      pop\n      jump\t// out\n        /* \"#utility.yul\":5087:5444   */\n    tag_196:\n        /* \"#utility.yul\":5165:5168   */\n      0x00\n        /* \"#utility.yul\":5193:5232   */\n      tag_297\n        /* \"#utility.yul\":5226:5231   */\n      dup3\n        /* \"#utility.yul\":5193:5232   */\n      tag_193\n      jump\t// in\n    tag_297:\n        /* \"#utility.yul\":5248:5309   */\n      tag_298\n        /* \"#utility.yul\":5302:5308   */\n      dup2\n        /* \"#utility.yul\":5297:5300   */\n      dup6\n        /* \"#utility.yul\":5248:5309   */\n      tag_194\n      jump\t// in\n    tag_298:\n        /* \"#utility.yul\":5241:5309   */\n      swap4\n      pop\n        /* \"#utility.yul\":5318:5383   */\n      tag_299\n        /* \"#utility.yul\":5376:5382   */\n      dup2\n        /* \"#utility.yul\":5371:5374   */\n      dup6\n        /* \"#utility.yul\":5364:5368   */\n      0x20\n        /* \"#utility.yul\":5357:5362   */\n      dup7\n        /* \"#utility.yul\":5353:5369   */\n      add\n        /* \"#utility.yul\":5318:5383   */\n      tag_195\n      jump\t// in\n    tag_299:\n        /* \"#utility.yul\":5408:5437   */\n      tag_300\n        /* \"#utility.yul\":5430:5436   */\n      dup2\n        /* \"#utility.yul\":5408:5437   */\n      tag_181\n      jump\t// in\n    tag_300:\n        /* \"#utility.yul\":5403:5406   */\n      dup5\n        /* \"#utility.yul\":5399:5438   */\n      add\n        /* \"#utility.yul\":5392:5438   */\n      swap2\n      pop\n        /* \"#utility.yul\":5169:5444   */\n      pop\n        /* \"#utility.yul\":5087:5444   */\n      swap3\n      swap2\n      pop\n      pop\n      jump\t// out\n        /* \"#utility.yul\":5450:5527   */\n    tag_197:\n        /* \"#utility.yul\":5487:5494   */\n      0x00\n        /* \"#utility.yul\":5516:5521   */\n      dup2\n        /* \"#utility.yul\":5505:5521   */\n      swap1\n      pop\n        /* \"#utility.yul\":5450:5527   */\n      swap2\n      swap1\n      pop\n      jump\t// out\n        /* \"#utility.yul\":5533:5641   */\n    tag_198:\n        /* \"#utility.yul\":5610:5634   */\n      tag_303\n        /* \"#utility.yul\":5628:5633   */\n      dup2\n        /* \"#utility.yul\":5610:5634   */\n      tag_197\n      jump\t// in\n    tag_303:\n        /* \"#utility.yul\":5605:5608   */\n      dup3\n        /* \"#utility.yul\":5598:5635   */\n      mstore\n        /* \"#utility.yul\":5533:5641   */\n      pop\n      pop\n      jump\t// out\n        /* \"#utility.yul\":5647:5755   */\n    tag_199:\n        /* \"#utility.yul\":5724:5748   */\n      tag_305\n        /* \"#utility.yul\":5742:5747   */\n      dup2\n        /* \"#utility.yul\":5724:5748   */\n      tag_176\n      jump\t// in\n    tag_305:\n        /* \"#utility.yul\":5719:5722   */\n      dup3\n        /* \"#utility.yul\":5712:5749   */\n      mstore\n        /* \"#utility.yul\":5647:5755   */\n      pop\n      pop\n      jump\t// out\n        /* \"#utility.yul\":5761:5838   */\n    tag_200:\n        /* \"#utility.yul\":5798:5805   */\n      0x00\n        /* \"#utility.yul\":5827:5832   */\n      dup2\n        /* \"#utility.yul\":5816:5832   */\n      swap1\n      pop\n        /* \"#utility.yul\":5761:5838   */\n      swap2\n      swap1\n      pop\n      jump\t// out\n        /* \"#utility.yul\":5844:5952   */\n    tag_201:\n        /* \"#utility.yul\":5921:5945   */\n      tag_308\n        /* \"#utility.yul\":5939:5944   */\n      dup2\n        /* \"#utility.yul\":5921:5945   */\n      tag_200\n      jump\t// in\n    tag_308:\n        /* \"#utility.yul\":5916:5919   */\n      dup3\n        /* \"#utility.yul\":5909:5946   */\n      mstore\n        /* \"#utility.yul\":5844:5952   */\n      pop\n      pop\n      jump\t// out\n        /* \"#utility.yul\":6040:7758   */\n    tag_202:\n        /* \"#utility.yul\":6149:6152   */\n      0x00\n        /* \"#utility.yul\":6185:6189   */\n      0xe0\n        /* \"#utility.yul\":6180:6183   */\n      dup4\n        /* \"#utility.yul\":6176:6190   */\n      add\n        /* \"#utility.yul\":6274:6278   */\n      0x00\n        /* \"#utility.yul\":6267:6272   */\n      dup4\n        /* \"#utility.yul\":6263:6279   */\n      add\n        /* \"#utility.yul\":6257:6280   */\n      mload\n        /* \"#utility.yul\":6327:6330   */\n      dup5\n        /* \"#utility.yul\":6321:6325   */\n      dup3\n        /* \"#utility.yul\":6317:6331   */\n      sub\n        /* \"#utility.yul\":6310:6314   */\n      0x00\n        /* \"#utility.yul\":6305:6308   */\n      dup7\n        /* \"#utility.yul\":6301:6315   */\n      add\n        /* \"#utility.yul\":6294:6332   */\n      mstore\n        /* \"#utility.yul\":6353:6426   */\n      tag_310\n        /* \"#utility.yul\":6421:6425   */\n      dup3\n        /* \"#utility.yul\":6407:6419   */\n      dup3\n        /* \"#utility.yul\":6353:6426   */\n      tag_196\n      jump\t// in\n    tag_310:\n        /* \"#utility.yul\":6345:6426   */\n      swap2\n      pop\n        /* \"#utility.yul\":6200:6437   */\n      pop\n        /* \"#utility.yul\":6523:6527   */\n      0x20\n        /* \"#utility.yul\":6516:6521   */\n      dup4\n        /* \"#utility.yul\":6512:6528   */\n      add\n        /* \"#utility.yul\":6506:6529   */\n      mload\n        /* \"#utility.yul\":6576:6579   */\n      dup5\n        /* \"#utility.yul\":6570:6574   */\n      dup3\n        /* \"#utility.yul\":6566:6580   */\n      sub\n        /* \"#utility.yul\":6559:6563   */\n      0x20\n        /* \"#utility.yul\":6554:6557   */\n      dup7\n        /* \"#utility.yul\":6550:6564   */\n      add\n        /* \"#utility.yul\":6543:6581   */\n      mstore\n        /* \"#utility.yul\":6602:6675   */\n      tag_311\n        /* \"#utility.yul\":6670:6674   */\n      dup3\n        /* \"#utility.yul\":6656:6668   */\n      dup3\n        /* \"#utility.yul\":6602:6675   */\n      tag_196\n      jump\t// in\n    tag_311:\n        /* \"#utility.yul\":6594:6675   */\n      swap2\n      pop\n        /* \"#utility.yul\":6447:6686   */\n      pop\n        /* \"#utility.yul\":6773:6777   */\n      0x40\n        /* \"#utility.yul\":6766:6771   */\n      dup4\n        /* \"#utility.yul\":6762:6778   */\n      add\n        /* \"#utility.yul\":6756:6779   */\n      mload\n        /* \"#utility.yul\":6826:6829   */\n      dup5\n        /* \"#utility.yul\":6820:6824   */\n      dup3\n        /* \"#utility.yul\":6816:6830   */\n      sub\n        /* \"#utility.yul\":6809:6813   */\n      0x40\n        /* \"#utility.yul\":6804:6807   */\n      dup7\n        /* \"#utility.yul\":6800:6814   */\n      add\n        /* \"#utility.yul\":6793:6831   */\n      mstore\n        /* \"#utility.yul\":6852:6925   */\n      tag_312\n        /* \"#utility.yul\":6920:6924   */\n      dup3\n        /* \"#utility.yul\":6906:6918   */\n      dup3\n        /* \"#utility.yul\":6852:6925   */\n      tag_196\n      jump\t// in\n    tag_312:\n        /* \"#utility.yul\":6844:6925   */\n      swap2\n      pop\n        /* \"#utility.yul\":6696:6936   */\n      pop\n        /* \"#utility.yul\":7023:7027   */\n      0x60\n        /* \"#utility.yul\":7016:7021   */\n      dup4\n        /* \"#utility.yul\":7012:7028   */\n      add\n        /* \"#utility.yul\":7006:7029   */\n      mload\n        /* \"#utility.yul\":7042:7105   */\n      tag_313\n        /* \"#utility.yul\":7099:7103   */\n      0x60\n        /* \"#utility.yul\":7094:7097   */\n      dup7\n        /* \"#utility.yul\":7090:7104   */\n      add\n        /* \"#utility.yul\":7076:7088   */\n      dup3\n        /* \"#utility.yul\":7042:7105   */\n      tag_198\n      jump\t// in\n    tag_313:\n        /* \"#utility.yul\":6946:7115   */\n      pop\n        /* \"#utility.yul\":7204:7208   */\n      0x80\n        /* \"#utility.yul\":7197:7202   */\n      dup4\n        /* \"#utility.yul\":7193:7209   */\n      add\n        /* \"#utility.yul\":7187:7210   */\n      mload\n        /* \"#utility.yul\":7257:7260   */\n      dup5\n        /* \"#utility.yul\":7251:7255   */\n      dup3\n        /* \"#utility.yul\":7247:7261   */\n      sub\n        /* \"#utility.yul\":7240:7244   */\n      0x80\n        /* \"#utility.yul\":7235:7238   */\n      dup7\n        /* \"#utility.yul\":7231:7245   */\n      add\n        /* \"#utility.yul\":7224:7262   */\n      mstore\n        /* \"#utility.yul\":7283:7356   */\n      tag_314\n        /* \"#utility.yul\":7351:7355   */\n      dup3\n        /* \"#utility.yul\":7337:7349   */\n      dup3\n        /* \"#utility.yul\":7283:7356   */\n      tag_196\n      jump\t// in\n    tag_314:\n        /* \"#utility.yul\":7275:7356   */\n      swap2\n      pop\n        /* \"#utility.yul\":7125:7367   */\n      pop\n        /* \"#utility.yul\":7457:7461   */\n      0xa0\n        /* \"#utility.yul\":7450:7455   */\n      dup4\n        /* \"#utility.yul\":7446:7462   */\n      add\n        /* \"#utility.yul\":7440:7463   */\n      mload\n        /* \"#utility.yul\":7476:7539   */\n      tag_315\n        /* \"#utility.yul\":7533:7537   */\n      0xa0\n        /* \"#utility.yul\":7528:7531   */\n      dup7\n        /* \"#utility.yul\":7524:7538   */\n      add\n        /* \"#utility.yul\":7510:7522   */\n      dup3\n        /* \"#utility.yul\":7476:7539   */\n      tag_199\n      jump\t// in\n    tag_315:\n        /* \"#utility.yul\":7377:7549   */\n      pop\n        /* \"#utility.yul\":7639:7643   */\n      0xc0\n        /* \"#utility.yul\":7632:7637   */\n      dup4\n        /* \"#utility.yul\":7628:7644   */\n      add\n        /* \"#utility.yul\":7622:7645   */\n      mload\n        /* \"#utility.yul\":7658:7721   */\n      tag_316\n        /* \"#utility.yul\":7715:7719   */\n      0xc0\n        /* \"#utility.yul\":7710:7713   */\n      dup7\n        /* \"#utility.yul\":7706:7720   */\n      add\n        /* \"#utility.yul\":7692:7704   */\n      dup3\n        /* \"#utility.yul\":7658:7721   */\n      tag_201\n      jump\t// in\n    tag_316:\n        /* \"#utility.yul\":7559:7731   */\n      pop\n        /* \"#utility.yul\":7748:7752   */\n      dup1\n        /* \"#utility.yul\":7741:7752   */\n      swap2\n      pop\n        /* \"#utility.yul\":6154:7758   */\n      pop\n        /* \"#utility.yul\":6040:7758   */\n      swap3\n      swap2\n      pop\n      pop\n      jump\t// out\n        /* \"#utility.yul\":7764:8020   */\n    tag_203:\n        /* \"#utility.yul\":7883:7893   */\n      0x00\n        /* \"#utility.yul\":7918:8014   */\n      tag_318\n        /* \"#utility.yul\":8010:8013   */\n      dup4\n        /* \"#utility.yul\":8002:8008   */\n      dup4\n        /* \"#utility.yul\":7918:8014   */\n      tag_202\n      jump\t// in\n    tag_318:\n        /* \"#utility.yul\":7904:8014   */\n      swap1\n      pop\n        /* \"#utility.yul\":7764:8020   */\n      swap3\n      swap2\n      pop\n      pop\n      jump\t// out\n        /* \"#utility.yul\":8026:8164   */\n    tag_204:\n        /* \"#utility.yul\":8121:8125   */\n      0x00\n        /* \"#utility.yul\":8153:8157   */\n      0x20\n        /* \"#utility.yul\":8148:8151   */\n      dup3\n        /* \"#utility.yul\":8144:8158   */\n      add\n        /* \"#utility.yul\":8136:8158   */\n      swap1\n      pop\n        /* \"#utility.yul\":8026:8164   */\n      swap2\n      swap1\n      pop\n      jump\t// out\n        /* \"#utility.yul\":8256:9367   */\n    tag_205:\n        /* \"#utility.yul\":8425:8428   */\n      0x00\n        /* \"#utility.yul\":8454:8533   */\n      tag_321\n        /* \"#utility.yul\":8527:8532   */\n      dup3\n        /* \"#utility.yul\":8454:8533   */\n      tag_190\n      jump\t// in\n    tag_321:\n        /* \"#utility.yul\":8549:8660   */\n      tag_322\n        /* \"#utility.yul\":8653:8659   */\n      dup2\n        /* \"#utility.yul\":8648:8651   */\n      dup6\n        /* \"#utility.yul\":8549:8660   */\n      tag_191\n      jump\t// in\n    tag_322:\n        /* \"#utility.yul\":8542:8660   */\n      swap4\n      pop\n        /* \"#utility.yul\":8686:8689   */\n      dup4\n        /* \"#utility.yul\":8731:8735   */\n      0x20\n        /* \"#utility.yul\":8723:8729   */\n      dup3\n        /* \"#utility.yul\":8719:8736   */\n      mul\n        /* \"#utility.yul\":8714:8717   */\n      dup6\n        /* \"#utility.yul\":8710:8737   */\n      add\n        /* \"#utility.yul\":8761:8842   */\n      tag_323\n        /* \"#utility.yul\":8836:8841   */\n      dup6\n        /* \"#utility.yul\":8761:8842   */\n      tag_192\n      jump\t// in\n    tag_323:\n        /* \"#utility.yul\":8865:8872   */\n      dup1\n        /* \"#utility.yul\":8896:8897   */\n      0x00\n        /* \"#utility.yul\":8881:9322   */\n    tag_324:\n        /* \"#utility.yul\":8906:8912   */\n      dup6\n        /* \"#utility.yul\":8903:8904   */\n      dup2\n        /* \"#utility.yul\":8900:8913   */\n      lt\n        /* \"#utility.yul\":8881:9322   */\n      iszero\n      tag_326\n      jumpi\n        /* \"#utility.yul\":8977:8986   */\n      dup5\n        /* \"#utility.yul\":8971:8975   */\n      dup5\n        /* \"#utility.yul\":8967:8987   */\n      sub\n        /* \"#utility.yul\":8962:8965   */\n      dup10\n        /* \"#utility.yul\":8955:8988   */\n      mstore\n        /* \"#utility.yul\":9028:9034   */\n      dup2\n        /* \"#utility.yul\":9022:9035   */\n      mload\n        /* \"#utility.yul\":9056:9170   */\n      tag_327\n        /* \"#utility.yul\":9165:9169   */\n      dup6\n        /* \"#utility.yul\":9150:9163   */\n      dup3\n        /* \"#utility.yul\":9056:9170   */\n      tag_203\n      jump\t// in\n    tag_327:\n        /* \"#utility.yul\":9048:9170   */\n      swap5\n      pop\n        /* \"#utility.yul\":9193:9278   */\n      tag_328\n        /* \"#utility.yul\":9271:9277   */\n      dup4\n        /* \"#utility.yul\":9193:9278   */\n      tag_204\n      jump\t// in\n    tag_328:\n        /* \"#utility.yul\":9183:9278   */\n      swap3\n      pop\n        /* \"#utility.yul\":9307:9311   */\n      0x20\n        /* \"#utility.yul\":9302:9305   */\n      dup11\n        /* \"#utility.yul\":9298:9312   */\n      add\n        /* \"#utility.yul\":9291:9312   */\n      swap10\n      pop\n        /* \"#utility.yul\":8941:9322   */\n      pop\n        /* \"#utility.yul\":8928:8929   */\n      0x01\n        /* \"#utility.yul\":8925:8926   */\n      dup2\n        /* \"#utility.yul\":8921:8930   */\n      add\n        /* \"#utility.yul\":8916:8930   */\n      swap1\n      pop\n        /* \"#utility.yul\":8881:9322   */\n      jump(tag_324)\n    tag_326:\n        /* \"#utility.yul\":8885:8899   */\n      pop\n        /* \"#utility.yul\":9338:9342   */\n      dup3\n        /* \"#utility.yul\":9331:9342   */\n      swap8\n      pop\n        /* \"#utility.yul\":9358:9361   */\n      dup8\n        /* \"#utility.yul\":9351:9361   */\n      swap6\n      pop\n        /* \"#utility.yul\":8430:9367   */\n      pop\n      pop\n      pop\n      pop\n      pop\n        /* \"#utility.yul\":8256:9367   */\n      swap3\n      swap2\n      pop\n      pop\n      jump\t// out\n        /* \"#utility.yul\":9373:9846   */\n    tag_18:\n        /* \"#utility.yul\":9566:9570   */\n      0x00\n        /* \"#utility.yul\":9604:9606   */\n      0x20\n        /* \"#utility.yul\":9593:9602   */\n      dup3\n        /* \"#utility.yul\":9589:9607   */\n      add\n        /* \"#utility.yul\":9581:9607   */\n      swap1\n      pop\n        /* \"#utility.yul\":9653:9662   */\n      dup2\n        /* \"#utility.yul\":9647:9651   */\n      dup2\n        /* \"#utility.yul\":9643:9663   */\n      sub\n        /* \"#utility.yul\":9639:9640   */\n      0x00\n        /* \"#utility.yul\":9628:9637   */\n      dup4\n        /* \"#utility.yul\":9624:9641   */\n      add\n        /* \"#utility.yul\":9617:9664   */\n      mstore\n        /* \"#utility.yul\":9681:9839   */\n      tag_330\n        /* \"#utility.yul\":9834:9838   */\n      dup2\n        /* \"#utility.yul\":9825:9831   */\n      dup5\n        /* \"#utility.yul\":9681:9839   */\n      tag_205\n      jump\t// in\n    tag_330:\n        /* \"#utility.yul\":9673:9839   */\n      swap1\n      pop\n        /* \"#utility.yul\":9373:9846   */\n      swap3\n      swap2\n      pop\n      pop\n      jump\t// out\n        /* \"#utility.yul\":9852:10181   */\n    tag_21:\n        /* \"#utility.yul\":9911:9917   */\n      0x00\n        /* \"#utility.yul\":9960:9962   */\n      0x20\n        /* \"#utility.yul\":9948:9957   */\n      dup3\n        /* \"#utility.yul\":9939:9946   */\n      dup5\n        /* \"#utility.yul\":9935:9958   */\n      sub\n        /* \"#utility.yul\":9931:9963   */\n      slt\n        /* \"#utility.yul\":9928:10047   */\n      iszero\n      tag_332\n      jumpi\n        /* \"#utility.yul\":9966:10045   */\n      tag_333\n      tag_173\n      jump\t// in\n    tag_333:\n        /* \"#utility.yul\":9928:10047   */\n    tag_332:\n        /* \"#utility.yul\":10086:10087   */\n      0x00\n        /* \"#utility.yul\":10111:10164   */\n      tag_334\n        /* \"#utility.yul\":10156:10163   */\n      dup5\n        /* \"#utility.yul\":10147:10153   */\n      dup3\n        /* \"#utility.yul\":10136:10145   */\n      dup6\n        /* \"#utility.yul\":10132:10154   */\n      add\n        /* \"#utility.yul\":10111:10164   */\n      tag_178\n      jump\t// in\n    tag_334:\n        /* \"#utility.yul\":10101:10164   */\n      swap2\n      pop\n        /* \"#utility.yul\":10057:10174   */\n      pop\n        /* \"#utility.yul\":9852:10181   */\n      swap3\n      swap2\n      pop\n      pop\n      jump\t// out\n        /* \"#utility.yul\":10187:10356   */\n    tag_206:\n        /* \"#utility.yul\":10271:10282   */\n      0x00\n        /* \"#utility.yul\":10305:10311   */\n      dup3\n        /* \"#utility.yul\":10300:10303   */\n      dup3\n        /* \"#utility.yul\":10293:10312   */\n      mstore\n        /* \"#utility.yul\":10345:10349   */\n      0x20\n        /* \"#utility.yul\":10340:10343   */\n      dup3\n        /* \"#utility.yul\":10336:10350   */\n      add\n        /* \"#utility.yul\":10321:10350   */\n      swap1\n      pop\n        /* \"#utility.yul\":10187:10356   */\n      swap3\n      swap2\n      pop\n      pop\n      jump\t// out\n        /* \"#utility.yul\":10362:10739   */\n    tag_207:\n        /* \"#utility.yul\":10450:10453   */\n      0x00\n        /* \"#utility.yul\":10478:10517   */\n      tag_337\n        /* \"#utility.yul\":10511:10516   */\n      dup3\n        /* \"#utility.yul\":10478:10517   */\n      tag_193\n      jump\t// in\n    tag_337:\n        /* \"#utility.yul\":10533:10604   */\n      tag_338\n        /* \"#utility.yul\":10597:10603   */\n      dup2\n        /* \"#utility.yul\":10592:10595   */\n      dup6\n        /* \"#utility.yul\":10533:10604   */\n      tag_206\n      jump\t// in\n    tag_338:\n        /* \"#utility.yul\":10526:10604   */\n      swap4\n      pop\n        /* \"#utility.yul\":10613:10678   */\n      tag_339\n        /* \"#utility.yul\":10671:10677   */\n      dup2\n        /* \"#utility.yul\":10666:10669   */\n      dup6\n        /* \"#utility.yul\":10659:10663   */\n      0x20\n        /* \"#utility.yul\":10652:10657   */\n      dup7\n        /* \"#utility.yul\":10648:10664   */\n      add\n        /* \"#utility.yul\":10613:10678   */\n      tag_195\n      jump\t// in\n    tag_339:\n        /* \"#utility.yul\":10703:10732   */\n      tag_340\n        /* \"#utility.yul\":10725:10731   */\n      dup2\n        /* \"#utility.yul\":10703:10732   */\n      tag_181\n      jump\t// in\n    tag_340:\n        /* \"#utility.yul\":10698:10701   */\n      dup5\n        /* \"#utility.yul\":10694:10733   */\n      add\n        /* \"#utility.yul\":10687:10733   */\n      swap2\n      pop\n        /* \"#utility.yul\":10454:10739   */\n      pop\n        /* \"#utility.yul\":10362:10739   */\n      swap3\n      swap2\n      pop\n      pop\n      jump\t// out\n        /* \"#utility.yul\":10745:10863   */\n    tag_208:\n        /* \"#utility.yul\":10832:10856   */\n      tag_342\n        /* \"#utility.yul\":10850:10855   */\n      dup2\n        /* \"#utility.yul\":10832:10856   */\n      tag_197\n      jump\t// in\n    tag_342:\n        /* \"#utility.yul\":10827:10830   */\n      dup3\n        /* \"#utility.yul\":10820:10857   */\n      mstore\n        /* \"#utility.yul\":10745:10863   */\n      pop\n      pop\n      jump\t// out\n        /* \"#utility.yul\":10869:11897   */\n    tag_24:\n        /* \"#utility.yul\":11154:11158   */\n      0x00\n        /* \"#utility.yul\":11192:11195   */\n      0xa0\n        /* \"#utility.yul\":11181:11190   */\n      dup3\n        /* \"#utility.yul\":11177:11196   */\n      add\n        /* \"#utility.yul\":11169:11196   */\n      swap1\n      pop\n        /* \"#utility.yul\":11242:11251   */\n      dup2\n        /* \"#utility.yul\":11236:11240   */\n      dup2\n        /* \"#utility.yul\":11232:11252   */\n      sub\n        /* \"#utility.yul\":11228:11229   */\n      0x00\n        /* \"#utility.yul\":11217:11226   */\n      dup4\n        /* \"#utility.yul\":11213:11230   */\n      add\n        /* \"#utility.yul\":11206:11253   */\n      mstore\n        /* \"#utility.yul\":11270:11348   */\n      tag_344\n        /* \"#utility.yul\":11343:11347   */\n      dup2\n        /* \"#utility.yul\":11334:11340   */\n      dup9\n        /* \"#utility.yul\":11270:11348   */\n      tag_207\n      jump\t// in\n    tag_344:\n        /* \"#utility.yul\":11262:11348   */\n      swap1\n      pop\n        /* \"#utility.yul\":11395:11404   */\n      dup2\n        /* \"#utility.yul\":11389:11393   */\n      dup2\n        /* \"#utility.yul\":11385:11405   */\n      sub\n        /* \"#utility.yul\":11380:11382   */\n      0x20\n        /* \"#utility.yul\":11369:11378   */\n      dup4\n        /* \"#utility.yul\":11365:11383   */\n      add\n        /* \"#utility.yul\":11358:11406   */\n      mstore\n        /* \"#utility.yul\":11423:11501   */\n      tag_345\n        /* \"#utility.yul\":11496:11500   */\n      dup2\n        /* \"#utility.yul\":11487:11493   */\n      dup8\n        /* \"#utility.yul\":11423:11501   */\n      tag_207\n      jump\t// in\n    tag_345:\n        /* \"#utility.yul\":11415:11501   */\n      swap1\n      pop\n        /* \"#utility.yul\":11548:11557   */\n      dup2\n        /* \"#utility.yul\":11542:11546   */\n      dup2\n        /* \"#utility.yul\":11538:11558   */\n      sub\n        /* \"#utility.yul\":11533:11535   */\n      0x40\n        /* \"#utility.yul\":11522:11531   */\n      dup4\n        /* \"#utility.yul\":11518:11536   */\n      add\n        /* \"#utility.yul\":11511:11559   */\n      mstore\n        /* \"#utility.yul\":11576:11654   */\n      tag_346\n        /* \"#utility.yul\":11649:11653   */\n      dup2\n        /* \"#utility.yul\":11640:11646   */\n      dup7\n        /* \"#utility.yul\":11576:11654   */\n      tag_207\n      jump\t// in\n    tag_346:\n        /* \"#utility.yul\":11568:11654   */\n      swap1\n      pop\n        /* \"#utility.yul\":11664:11736   */\n      tag_347\n        /* \"#utility.yul\":11732:11734   */\n      0x60\n        /* \"#utility.yul\":11721:11730   */\n      dup4\n        /* \"#utility.yul\":11717:11735   */\n      add\n        /* \"#utility.yul\":11708:11714   */\n      dup6\n        /* \"#utility.yul\":11664:11736   */\n      tag_208\n      jump\t// in\n    tag_347:\n        /* \"#utility.yul\":11784:11793   */\n      dup2\n        /* \"#utility.yul\":11778:11782   */\n      dup2\n        /* \"#utility.yul\":11774:11794   */\n      sub\n        /* \"#utility.yul\":11768:11771   */\n      0x80\n        /* \"#utility.yul\":11757:11766   */\n      dup4\n        /* \"#utility.yul\":11753:11772   */\n      add\n        /* \"#utility.yul\":11746:11795   */\n      mstore\n        /* \"#utility.yul\":11812:11890   */\n      tag_348\n        /* \"#utility.yul\":11885:11889   */\n      dup2\n        /* \"#utility.yul\":11876:11882   */\n      dup5\n        /* \"#utility.yul\":11812:11890   */\n      tag_207\n      jump\t// in\n    tag_348:\n        /* \"#utility.yul\":11804:11890   */\n      swap1\n      pop\n        /* \"#utility.yul\":10869:11897   */\n      swap7\n      swap6\n      pop\n      pop\n      pop\n      pop\n      pop\n      pop\n      jump\t// out\n        /* \"#utility.yul\":11903:13860   */\n    tag_27:\n        /* \"#utility.yul\":12057:12063   */\n      0x00\n        /* \"#utility.yul\":12065:12071   */\n      dup1\n        /* \"#utility.yul\":12073:12079   */\n      0x00\n        /* \"#utility.yul\":12081:12087   */\n      dup1\n        /* \"#utility.yul\":12089:12095   */\n      0x00\n        /* \"#utility.yul\":12097:12103   */\n      dup1\n        /* \"#utility.yul\":12146:12149   */\n      0xc0\n        /* \"#utility.yul\":12134:12143   */\n      dup8\n        /* \"#utility.yul\":12125:12132   */\n      dup10\n        /* \"#utility.yul\":12121:12144   */\n      sub\n        /* \"#utility.yul\":12117:12150   */\n      slt\n        /* \"#utility.yul\":12114:12234   */\n      iszero\n      tag_350\n      jumpi\n        /* \"#utility.yul\":12153:12232   */\n      tag_351\n      tag_173\n      jump\t// in\n    tag_351:\n        /* \"#utility.yul\":12114:12234   */\n    tag_350:\n        /* \"#utility.yul\":12301:12302   */\n      0x00\n        /* \"#utility.yul\":12290:12299   */\n      dup8\n        /* \"#utility.yul\":12286:12303   */\n      add\n        /* \"#utility.yul\":12273:12304   */\n      calldataload\n        /* \"#utility.yul\":12331:12349   */\n      0xffffffffffffffff\n        /* \"#utility.yul\":12323:12329   */\n      dup2\n        /* \"#utility.yul\":12320:12350   */\n      gt\n        /* \"#utility.yul\":12317:12434   */\n      iszero\n      tag_352\n      jumpi\n        /* \"#utility.yul\":12353:12432   */\n      tag_353\n      tag_174\n      jump\t// in\n    tag_353:\n        /* \"#utility.yul\":12317:12434   */\n    tag_352:\n        /* \"#utility.yul\":12458:12521   */\n      tag_354\n        /* \"#utility.yul\":12513:12520   */\n      dup10\n        /* \"#utility.yul\":12504:12510   */\n      dup3\n        /* \"#utility.yul\":12493:12502   */\n      dup11\n        /* \"#utility.yul\":12489:12511   */\n      add\n        /* \"#utility.yul\":12458:12521   */\n      tag_187\n      jump\t// in\n    tag_354:\n        /* \"#utility.yul\":12448:12521   */\n      swap7\n      pop\n        /* \"#utility.yul\":12244:12531   */\n      pop\n        /* \"#utility.yul\":12598:12600   */\n      0x20\n        /* \"#utility.yul\":12587:12596   */\n      dup8\n        /* \"#utility.yul\":12583:12601   */\n      add\n        /* \"#utility.yul\":12570:12602   */\n      calldataload\n        /* \"#utility.yul\":12629:12647   */\n      0xffffffffffffffff\n        /* \"#utility.yul\":12621:12627   */\n      dup2\n        /* \"#utility.yul\":12618:12648   */\n      gt\n        /* \"#utility.yul\":12615:12732   */\n      iszero\n      tag_355\n      jumpi\n        /* \"#utility.yul\":12651:12730   */\n      tag_356\n      tag_174\n      jump\t// in\n    tag_356:\n        /* \"#utility.yul\":12615:12732   */\n    tag_355:\n        /* \"#utility.yul\":12756:12819   */\n      tag_357\n        /* \"#utility.yul\":12811:12818   */\n      dup10\n        /* \"#utility.yul\":12802:12808   */\n      dup3\n        /* \"#utility.yul\":12791:12800   */\n      dup11\n        /* \"#utility.yul\":12787:12809   */\n      add\n        /* \"#utility.yul\":12756:12819   */\n      tag_187\n      jump\t// in\n    tag_357:\n        /* \"#utility.yul\":12746:12819   */\n      swap6\n      pop\n        /* \"#utility.yul\":12541:12829   */\n      pop\n        /* \"#utility.yul\":12896:12898   */\n      0x40\n        /* \"#utility.yul\":12885:12894   */\n      dup8\n        /* \"#utility.yul\":12881:12899   */\n      add\n        /* \"#utility.yul\":12868:12900   */\n      calldataload\n        /* \"#utility.yul\":12927:12945   */\n      0xffffffffffffffff\n        /* \"#utility.yul\":12919:12925   */\n      dup2\n        /* \"#utility.yul\":12916:12946   */\n      gt\n        /* \"#utility.yul\":12913:13030   */\n      iszero\n      tag_358\n      jumpi\n        /* \"#utility.yul\":12949:13028   */\n      tag_359\n      tag_174\n      jump\t// in\n    tag_359:\n        /* \"#utility.yul\":12913:13030   */\n    tag_358:\n        /* \"#utility.yul\":13054:13117   */\n      tag_360\n        /* \"#utility.yul\":13109:13116   */\n      dup10\n        /* \"#utility.yul\":13100:13106   */\n      dup3\n        /* \"#utility.yul\":13089:13098   */\n      dup11\n        /* \"#utility.yul\":13085:13107   */\n      add\n        /* \"#utility.yul\":13054:13117   */\n      tag_187\n      jump\t// in\n    tag_360:\n        /* \"#utility.yul\":13044:13117   */\n      swap5\n      pop\n        /* \"#utility.yul\":12839:13127   */\n      pop\n        /* \"#utility.yul\":13194:13196   */\n      0x60\n        /* \"#utility.yul\":13183:13192   */\n      dup8\n        /* \"#utility.yul\":13179:13197   */\n      add\n        /* \"#utility.yul\":13166:13198   */\n      calldataload\n        /* \"#utility.yul\":13225:13243   */\n      0xffffffffffffffff\n        /* \"#utility.yul\":13217:13223   */\n      dup2\n        /* \"#utility.yul\":13214:13244   */\n      gt\n        /* \"#utility.yul\":13211:13328   */\n      iszero\n      tag_361\n      jumpi\n        /* \"#utility.yul\":13247:13326   */\n      tag_362\n      tag_174\n      jump\t// in\n    tag_362:\n        /* \"#utility.yul\":13211:13328   */\n    tag_361:\n        /* \"#utility.yul\":13352:13415   */\n      tag_363\n        /* \"#utility.yul\":13407:13414   */\n      dup10\n        /* \"#utility.yul\":13398:13404   */\n      dup3\n        /* \"#utility.yul\":13387:13396   */\n      dup11\n        /* \"#utility.yul\":13383:13405   */\n      add\n        /* \"#utility.yul\":13352:13415   */\n      tag_187\n      jump\t// in\n    tag_363:\n        /* \"#utility.yul\":13342:13415   */\n      swap4\n      pop\n        /* \"#utility.yul\":13137:13425   */\n      pop\n        /* \"#utility.yul\":13464:13467   */\n      0x80\n        /* \"#utility.yul\":13491:13544   */\n      tag_364\n        /* \"#utility.yul\":13536:13543   */\n      dup10\n        /* \"#utility.yul\":13527:13533   */\n      dup3\n        /* \"#utility.yul\":13516:13525   */\n      dup11\n        /* \"#utility.yul\":13512:13534   */\n      add\n        /* \"#utility.yul\":13491:13544   */\n      tag_178\n      jump\t// in\n    tag_364:\n        /* \"#utility.yul\":13481:13544   */\n      swap3\n      pop\n        /* \"#utility.yul\":13435:13554   */\n      pop\n        /* \"#utility.yul\":13621:13624   */\n      0xa0\n        /* \"#utility.yul\":13610:13619   */\n      dup8\n        /* \"#utility.yul\":13606:13625   */\n      add\n        /* \"#utility.yul\":13593:13626   */\n      calldataload\n        /* \"#utility.yul\":13653:13671   */\n      0xffffffffffffffff\n        /* \"#utility.yul\":13645:13651   */\n      dup2\n        /* \"#utility.yul\":13642:13672   */\n      gt\n        /* \"#utility.yul\":13639:13756   */\n      iszero\n      tag_365\n      jumpi\n        /* \"#utility.yul\":13675:13754   */\n      tag_366\n      tag_174\n      jump\t// in\n    tag_366:\n        /* \"#utility.yul\":13639:13756   */\n    tag_365:\n        /* \"#utility.yul\":13780:13843   */\n      tag_367\n        /* \"#utility.yul\":13835:13842   */\n      dup10\n        /* \"#utility.yul\":13826:13832   */\n      dup3\n        /* \"#utility.yul\":13815:13824   */\n      dup11\n        /* \"#utility.yul\":13811:13833   */\n      add\n        /* \"#utility.yul\":13780:13843   */\n      tag_187\n      jump\t// in\n    tag_367:\n        /* \"#utility.yul\":13770:13843   */\n      swap2\n      pop\n        /* \"#utility.yul\":13564:13853   */\n      pop\n        /* \"#utility.yul\":11903:13860   */\n      swap3\n      swap6\n      pop\n      swap3\n      swap6\n      pop\n      swap3\n      swap6\n      jump\t// out\n        /* \"#utility.yul\":13866:15497   */\n    tag_31:\n        /* \"#utility.yul\":14001:14007   */\n      0x00\n        /* \"#utility.yul\":14009:14015   */\n      dup1\n        /* \"#utility.yul\":14017:14023   */\n      0x00\n        /* \"#utility.yul\":14025:14031   */\n      dup1\n        /* \"#utility.yul\":14033:14039   */\n      0x00\n        /* \"#utility.yul\":14082:14085   */\n      0xa0\n        /* \"#utility.yul\":14070:14079   */\n      dup7\n        /* \"#utility.yul\":14061:14068   */\n      dup9\n        /* \"#utility.yul\":14057:14080   */\n      sub\n        /* \"#utility.yul\":14053:14086   */\n      slt\n        /* \"#utility.yul\":14050:14170   */\n      iszero\n      tag_369\n      jumpi\n        /* \"#utility.yul\":14089:14168   */\n      tag_370\n      tag_173\n      jump\t// in\n    tag_370:\n        /* \"#utility.yul\":14050:14170   */\n    tag_369:\n        /* \"#utility.yul\":14209:14210   */\n      0x00\n        /* \"#utility.yul\":14234:14287   */\n      tag_371\n        /* \"#utility.yul\":14279:14286   */\n      dup9\n        /* \"#utility.yul\":14270:14276   */\n      dup3\n        /* \"#utility.yul\":14259:14268   */\n      dup10\n        /* \"#utility.yul\":14255:14277   */\n      add\n        /* \"#utility.yul\":14234:14287   */\n      tag_178\n      jump\t// in\n    tag_371:\n        /* \"#utility.yul\":14224:14287   */\n      swap6\n      pop\n        /* \"#utility.yul\":14180:14297   */\n      pop\n        /* \"#utility.yul\":14364:14366   */\n      0x20\n        /* \"#utility.yul\":14353:14362   */\n      dup7\n        /* \"#utility.yul\":14349:14367   */\n      add\n        /* \"#utility.yul\":14336:14368   */\n      calldataload\n        /* \"#utility.yul\":14395:14413   */\n      0xffffffffffffffff\n        /* \"#utility.yul\":14387:14393   */\n      dup2\n        /* \"#utility.yul\":14384:14414   */\n      gt\n        /* \"#utility.yul\":14381:14498   */\n      iszero\n      tag_372\n      jumpi\n        /* \"#utility.yul\":14417:14496   */\n      tag_373\n      tag_174\n      jump\t// in\n    tag_373:\n        /* \"#utility.yul\":14381:14498   */\n    tag_372:\n        /* \"#utility.yul\":14522:14585   */\n      tag_374\n        /* \"#utility.yul\":14577:14584   */\n      dup9\n        /* \"#utility.yul\":14568:14574   */\n      dup3\n        /* \"#utility.yul\":14557:14566   */\n      dup10\n        /* \"#utility.yul\":14553:14575   */\n      add\n        /* \"#utility.yul\":14522:14585   */\n      tag_187\n      jump\t// in\n    tag_374:\n        /* \"#utility.yul\":14512:14585   */\n      swap5\n      pop\n        /* \"#utility.yul\":14307:14595   */\n      pop\n        /* \"#utility.yul\":14662:14664   */\n      0x40\n        /* \"#utility.yul\":14651:14660   */\n      dup7\n        /* \"#utility.yul\":14647:14665   */\n      add\n        /* \"#utility.yul\":14634:14666   */\n      calldataload\n        /* \"#utility.yul\":14693:14711   */\n      0xffffffffffffffff\n        /* \"#utility.yul\":14685:14691   */\n      dup2\n        /* \"#utility.yul\":14682:14712   */\n      gt\n        /* \"#utility.yul\":14679:14796   */\n      iszero\n      tag_375\n      jumpi\n        /* \"#utility.yul\":14715:14794   */\n      tag_376\n      tag_174\n      jump\t// in\n    tag_376:\n        /* \"#utility.yul\":14679:14796   */\n    tag_375:\n        /* \"#utility.yul\":14820:14883   */\n      tag_377\n        /* \"#utility.yul\":14875:14882   */\n      dup9\n        /* \"#utility.yul\":14866:14872   */\n      dup3\n        /* \"#utility.yul\":14855:14864   */\n      dup10\n        /* \"#utility.yul\":14851:14873   */\n      add\n        /* \"#utility.yul\":14820:14883   */\n      tag_187\n      jump\t// in\n    tag_377:\n        /* \"#utility.yul\":14810:14883   */\n      swap4\n      pop\n        /* \"#utility.yul\":14605:14893   */\n      pop\n        /* \"#utility.yul\":14960:14962   */\n      0x60\n        /* \"#utility.yul\":14949:14958   */\n      dup7\n        /* \"#utility.yul\":14945:14963   */\n      add\n        /* \"#utility.yul\":14932:14964   */\n      calldataload\n        /* \"#utility.yul\":14991:15009   */\n      0xffffffffffffffff\n        /* \"#utility.yul\":14983:14989   */\n      dup2\n        /* \"#utility.yul\":14980:15010   */\n      gt\n        /* \"#utility.yul\":14977:15094   */\n      iszero\n      tag_378\n      jumpi\n        /* \"#utility.yul\":15013:15092   */\n      tag_379\n      tag_174\n      jump\t// in\n    tag_379:\n        /* \"#utility.yul\":14977:15094   */\n    tag_378:\n        /* \"#utility.yul\":15118:15181   */\n      tag_380\n        /* \"#utility.yul\":15173:15180   */\n      dup9\n        /* \"#utility.yul\":15164:15170   */\n      dup3\n        /* \"#utility.yul\":15153:15162   */\n      dup10\n        /* \"#utility.yul\":15149:15171   */\n      add\n        /* \"#utility.yul\":15118:15181   */\n      tag_187\n      jump\t// in\n    tag_380:\n        /* \"#utility.yul\":15108:15181   */\n      swap3\n      pop\n        /* \"#utility.yul\":14903:15191   */\n      pop\n        /* \"#utility.yul\":15258:15261   */\n      0x80\n        /* \"#utility.yul\":15247:15256   */\n      dup7\n        /* \"#utility.yul\":15243:15262   */\n      add\n        /* \"#utility.yul\":15230:15263   */\n      calldataload\n        /* \"#utility.yul\":15290:15308   */\n      0xffffffffffffffff\n        /* \"#utility.yul\":15282:15288   */\n      dup2\n        /* \"#utility.yul\":15279:15309   */\n      gt\n        /* \"#utility.yul\":15276:15393   */\n      iszero\n      tag_381\n      jumpi\n        /* \"#utility.yul\":15312:15391   */\n      tag_382\n      tag_174\n      jump\t// in\n    tag_382:\n        /* \"#utility.yul\":15276:15393   */\n    tag_381:\n        /* \"#utility.yul\":15417:15480   */\n      tag_383\n        /* \"#utility.yul\":15472:15479   */\n      dup9\n        /* \"#utility.yul\":15463:15469   */\n      dup3\n        /* \"#utility.yul\":15452:15461   */\n      dup10\n        /* \"#utility.yul\":15448:15470   */\n      add\n        /* \"#utility.yul\":15417:15480   */\n      tag_187\n      jump\t// in\n    tag_383:\n        /* \"#utility.yul\":15407:15480   */\n      swap2\n      pop\n        /* \"#utility.yul\":15201:15490   */\n      pop\n        /* \"#utility.yul\":13866:15497   */\n      swap3\n      swap6\n      pop\n      swap3\n      swap6\n      swap1\n      swap4\n      pop\n      jump\t// out\n        /* \"#utility.yul\":15503:15670   */\n    tag_209:\n        /* \"#utility.yul\":15643:15662   */\n      0x5573756172696f206e6f20657869737465000000000000000000000000000000\n        /* \"#utility.yul\":15639:15640   */\n      0x00\n        /* \"#utility.yul\":15631:15637   */\n      dup3\n        /* \"#utility.yul\":15627:15641   */\n      add\n        /* \"#utility.yul\":15620:15663   */\n      mstore\n        /* \"#utility.yul\":15503:15670   */\n      pop\n      jump\t// out\n        /* \"#utility.yul\":15676:16042   */\n    tag_210:\n        /* \"#utility.yul\":15818:15821   */\n      0x00\n        /* \"#utility.yul\":15839:15906   */\n      tag_386\n        /* \"#utility.yul\":15903:15905   */\n      0x11\n        /* \"#utility.yul\":15898:15901   */\n      dup4\n        /* \"#utility.yul\":15839:15906   */\n      tag_206\n      jump\t// in\n    tag_386:\n        /* \"#utility.yul\":15832:15906   */\n      swap2\n      pop\n        /* \"#utility.yul\":15915:16008   */\n      tag_387\n        /* \"#utility.yul\":16004:16007   */\n      dup3\n        /* \"#utility.yul\":15915:16008   */\n      tag_209\n      jump\t// in\n    tag_387:\n        /* \"#utility.yul\":16033:16035   */\n      0x20\n        /* \"#utility.yul\":16028:16031   */\n      dup3\n        /* \"#utility.yul\":16024:16036   */\n      add\n        /* \"#utility.yul\":16017:16036   */\n      swap1\n      pop\n        /* \"#utility.yul\":15676:16042   */\n      swap2\n      swap1\n      pop\n      jump\t// out\n        /* \"#utility.yul\":16048:16467   */\n    tag_39:\n        /* \"#utility.yul\":16214:16218   */\n      0x00\n        /* \"#utility.yul\":16252:16254   */\n      0x20\n        /* \"#utility.yul\":16241:16250   */\n      dup3\n        /* \"#utility.yul\":16237:16255   */\n      add\n        /* \"#utility.yul\":16229:16255   */\n      swap1\n      pop\n        /* \"#utility.yul\":16301:16310   */\n      dup2\n        /* \"#utility.yul\":16295:16299   */\n      dup2\n        /* \"#utility.yul\":16291:16311   */\n      sub\n        /* \"#utility.yul\":16287:16288   */\n      0x00\n        /* \"#utility.yul\":16276:16285   */\n      dup4\n        /* \"#utility.yul\":16272:16289   */\n      add\n        /* \"#utility.yul\":16265:16312   */\n      mstore\n        /* \"#utility.yul\":16329:16460   */\n      tag_389\n        /* \"#utility.yul\":16455:16459   */\n      dup2\n        /* \"#utility.yul\":16329:16460   */\n      tag_210\n      jump\t// in\n    tag_389:\n        /* \"#utility.yul\":16321:16460   */\n      swap1\n      pop\n        /* \"#utility.yul\":16048:16467   */\n      swap2\n      swap1\n      pop\n      jump\t// out\n        /* \"#utility.yul\":16473:16621   */\n    tag_211:\n        /* \"#utility.yul\":16575:16586   */\n      0x00\n        /* \"#utility.yul\":16612:16615   */\n      dup2\n        /* \"#utility.yul\":16597:16615   */\n      swap1\n      pop\n        /* \"#utility.yul\":16473:16621   */\n      swap3\n      swap2\n      pop\n      pop\n      jump\t// out\n        /* \"#utility.yul\":16627:17017   */\n    tag_212:\n        /* \"#utility.yul\":16733:16736   */\n      0x00\n        /* \"#utility.yul\":16761:16800   */\n      tag_392\n        /* \"#utility.yul\":16794:16799   */\n      dup3\n        /* \"#utility.yul\":16761:16800   */\n      tag_193\n      jump\t// in\n    tag_392:\n        /* \"#utility.yul\":16816:16905   */\n      tag_393\n        /* \"#utility.yul\":16898:16904   */\n      dup2\n        /* \"#utility.yul\":16893:16896   */\n      dup6\n        /* \"#utility.yul\":16816:16905   */\n      tag_211\n      jump\t// in\n    tag_393:\n        /* \"#utility.yul\":16809:16905   */\n      swap4\n      pop\n        /* \"#utility.yul\":16914:16979   */\n      tag_394\n        /* \"#utility.yul\":16972:16978   */\n      dup2\n        /* \"#utility.yul\":16967:16970   */\n      dup6\n        /* \"#utility.yul\":16960:16964   */\n      0x20\n        /* \"#utility.yul\":16953:16958   */\n      dup7\n        /* \"#utility.yul\":16949:16965   */\n      add\n        /* \"#utility.yul\":16914:16979   */\n      tag_195\n      jump\t// in\n    tag_394:\n        /* \"#utility.yul\":17004:17010   */\n      dup1\n        /* \"#utility.yul\":16999:17002   */\n      dup5\n        /* \"#utility.yul\":16995:17011   */\n      add\n        /* \"#utility.yul\":16988:17011   */\n      swap2\n      pop\n        /* \"#utility.yul\":16737:17017   */\n      pop\n        /* \"#utility.yul\":16627:17017   */\n      swap3\n      swap2\n      pop\n      pop\n      jump\t// out\n        /* \"#utility.yul\":17023:17298   */\n    tag_41:\n        /* \"#utility.yul\":17155:17158   */\n      0x00\n        /* \"#utility.yul\":17177:17272   */\n      tag_396\n        /* \"#utility.yul\":17268:17271   */\n      dup3\n        /* \"#utility.yul\":17259:17265   */\n      dup5\n        /* \"#utility.yul\":17177:17272   */\n      tag_212\n      jump\t// in\n    tag_396:\n        /* \"#utility.yul\":17170:17272   */\n      swap2\n      pop\n        /* \"#utility.yul\":17289:17292   */\n      dup2\n        /* \"#utility.yul\":17282:17292   */\n      swap1\n      pop\n        /* \"#utility.yul\":17023:17298   */\n      swap3\n      swap2\n      pop\n      pop\n      jump\t// out\n        /* \"#utility.yul\":17304:17473   */\n    tag_213:\n        /* \"#utility.yul\":17444:17465   */\n      0x50617373776f726420696e636f72726563746f00000000000000000000000000\n        /* \"#utility.yul\":17440:17441   */\n      0x00\n        /* \"#utility.yul\":17432:17438   */\n      dup3\n        /* \"#utility.yul\":17428:17442   */\n      add\n        /* \"#utility.yul\":17421:17466   */\n      mstore\n        /* \"#utility.yul\":17304:17473   */\n      pop\n      jump\t// out\n        /* \"#utility.yul\":17479:17845   */\n    tag_214:\n        /* \"#utility.yul\":17621:17624   */\n      0x00\n        /* \"#utility.yul\":17642:17709   */\n      tag_399\n        /* \"#utility.yul\":17706:17708   */\n      0x13\n        /* \"#utility.yul\":17701:17704   */\n      dup4\n        /* \"#utility.yul\":17642:17709   */\n      tag_206\n      jump\t// in\n    tag_399:\n        /* \"#utility.yul\":17635:17709   */\n      swap2\n      pop\n        /* \"#utility.yul\":17718:17811   */\n      tag_400\n        /* \"#utility.yul\":17807:17810   */\n      dup3\n        /* \"#utility.yul\":17718:17811   */\n      tag_213\n      jump\t// in\n    tag_400:\n        /* \"#utility.yul\":17836:17838   */\n      0x20\n        /* \"#utility.yul\":17831:17834   */\n      dup3\n        /* \"#utility.yul\":17827:17839   */\n      add\n        /* \"#utility.yul\":17820:17839   */\n      swap1\n      pop\n        /* \"#utility.yul\":17479:17845   */\n      swap2\n      swap1\n      pop\n      jump\t// out\n        /* \"#utility.yul\":17851:18270   */\n    tag_44:\n        /* \"#utility.yul\":18017:18021   */\n      0x00\n        /* \"#utility.yul\":18055:18057   */\n      0x20\n        /* \"#utility.yul\":18044:18053   */\n      dup3\n        /* \"#utility.yul\":18040:18058   */\n      add\n        /* \"#utility.yul\":18032:18058   */\n      swap1\n      pop\n        /* \"#utility.yul\":18104:18113   */\n      dup2\n        /* \"#utility.yul\":18098:18102   */\n      dup2\n        /* \"#utility.yul\":18094:18114   */\n      sub\n        /* \"#utility.yul\":18090:18091   */\n      0x00\n        /* \"#utility.yul\":18079:18088   */\n      dup4\n        /* \"#utility.yul\":18075:18092   */\n      add\n        /* \"#utility.yul\":18068:18115   */\n      mstore\n        /* \"#utility.yul\":18132:18263   */\n      tag_402\n        /* \"#utility.yul\":18258:18262   */\n      dup2\n        /* \"#utility.yul\":18132:18263   */\n      tag_214\n      jump\t// in\n    tag_402:\n        /* \"#utility.yul\":18124:18263   */\n      swap1\n      pop\n        /* \"#utility.yul\":17851:18270   */\n      swap2\n      swap1\n      pop\n      jump\t// out\n        /* \"#utility.yul\":18276:18456   */\n    tag_58:\n        /* \"#utility.yul\":18324:18401   */\n      0x4e487b7100000000000000000000000000000000000000000000000000000000\n        /* \"#utility.yul\":18321:18322   */\n      0x00\n        /* \"#utility.yul\":18314:18402   */\n      mstore\n        /* \"#utility.yul\":18421:18425   */\n      0x32\n        /* \"#utility.yul\":18418:18419   */\n      0x04\n        /* \"#utility.yul\":18411:18426   */\n      mstore\n        /* \"#utility.yul\":18445:18449   */\n      0x24\n        /* \"#utility.yul\":18442:18443   */\n      0x00\n        /* \"#utility.yul\":18435:18450   */\n      revert\n        /* \"#utility.yul\":18462:18642   */\n    tag_215:\n        /* \"#utility.yul\":18510:18587   */\n      0x4e487b7100000000000000000000000000000000000000000000000000000000\n        /* \"#utility.yul\":18507:18508   */\n      0x00\n        /* \"#utility.yul\":18500:18588   */\n      mstore\n        /* \"#utility.yul\":18607:18611   */\n      0x22\n        /* \"#utility.yul\":18604:18605   */\n      0x04\n        /* \"#utility.yul\":18597:18612   */\n      mstore\n        /* \"#utility.yul\":18631:18635   */\n      0x24\n        /* \"#utility.yul\":18628:18629   */\n      0x00\n        /* \"#utility.yul\":18621:18636   */\n      revert\n        /* \"#utility.yul\":18648:18968   */\n    tag_61:\n        /* \"#utility.yul\":18692:18698   */\n      0x00\n        /* \"#utility.yul\":18729:18730   */\n      0x02\n        /* \"#utility.yul\":18723:18727   */\n      dup3\n        /* \"#utility.yul\":18719:18731   */\n      div\n        /* \"#utility.yul\":18709:18731   */\n      swap1\n      pop\n        /* \"#utility.yul\":18776:18777   */\n      0x01\n        /* \"#utility.yul\":18770:18774   */\n      dup3\n        /* \"#utility.yul\":18766:18778   */\n      and\n        /* \"#utility.yul\":18797:18815   */\n      dup1\n        /* \"#utility.yul\":18787:18868   */\n      tag_406\n      jumpi\n        /* \"#utility.yul\":18853:18857   */\n      0x7f\n        /* \"#utility.yul\":18845:18851   */\n      dup3\n        /* \"#utility.yul\":18841:18858   */\n      and\n        /* \"#utility.yul\":18831:18858   */\n      swap2\n      pop\n        /* \"#utility.yul\":18787:18868   */\n    tag_406:\n        /* \"#utility.yul\":18915:18917   */\n      0x20\n        /* \"#utility.yul\":18907:18913   */\n      dup3\n        /* \"#utility.yul\":18904:18918   */\n      lt\n        /* \"#utility.yul\":18884:18902   */\n      dup2\n        /* \"#utility.yul\":18881:18919   */\n      sub\n        /* \"#utility.yul\":18878:18962   */\n      tag_407\n      jumpi\n        /* \"#utility.yul\":18934:18952   */\n      tag_408\n      tag_215\n      jump\t// in\n    tag_408:\n        /* \"#utility.yul\":18878:18962   */\n    tag_407:\n        /* \"#utility.yul\":18699:18968   */\n      pop\n        /* \"#utility.yul\":18648:18968   */\n      swap2\n      swap1\n      pop\n      jump\t// out\n        /* \"#utility.yul\":18974:19201   */\n    tag_216:\n        /* \"#utility.yul\":19114:19148   */\n      0x536f6c6f20656c206f776e6572207075656465207265616c697a617220657374\n        /* \"#utility.yul\":19110:19111   */\n      0x00\n        /* \"#utility.yul\":19102:19108   */\n      dup3\n        /* \"#utility.yul\":19098:19112   */\n      add\n        /* \"#utility.yul\":19091:19149   */\n      mstore\n        /* \"#utility.yul\":19183:19193   */\n      0x6120616363696f6e000000000000000000000000000000000000000000000000\n        /* \"#utility.yul\":19178:19180   */\n      0x20\n        /* \"#utility.yul\":19170:19176   */\n      dup3\n        /* \"#utility.yul\":19166:19181   */\n      add\n        /* \"#utility.yul\":19159:19194   */\n      mstore\n        /* \"#utility.yul\":18974:19201   */\n      pop\n      jump\t// out\n        /* \"#utility.yul\":19207:19573   */\n    tag_217:\n        /* \"#utility.yul\":19349:19352   */\n      0x00\n        /* \"#utility.yul\":19370:19437   */\n      tag_411\n        /* \"#utility.yul\":19434:19436   */\n      0x28\n        /* \"#utility.yul\":19429:19432   */\n      dup4\n        /* \"#utility.yul\":19370:19437   */\n      tag_206\n      jump\t// in\n    tag_411:\n        /* \"#utility.yul\":19363:19437   */\n      swap2\n      pop\n        /* \"#utility.yul\":19446:19539   */\n      tag_412\n        /* \"#utility.yul\":19535:19538   */\n      dup3\n        /* \"#utility.yul\":19446:19539   */\n      tag_216\n      jump\t// in\n    tag_412:\n        /* \"#utility.yul\":19564:19566   */\n      0x40\n        /* \"#utility.yul\":19559:19562   */\n      dup3\n        /* \"#utility.yul\":19555:19567   */\n      add\n        /* \"#utility.yul\":19548:19567   */\n      swap1\n      pop\n        /* \"#utility.yul\":19207:19573   */\n      swap2\n      swap1\n      pop\n      jump\t// out\n        /* \"#utility.yul\":19579:19998   */\n    tag_109:\n        /* \"#utility.yul\":19745:19749   */\n      0x00\n        /* \"#utility.yul\":19783:19785   */\n      0x20\n        /* \"#utility.yul\":19772:19781   */\n      dup3\n        /* \"#utility.yul\":19768:19786   */\n      add\n        /* \"#utility.yul\":19760:19786   */\n      swap1\n      pop\n        /* \"#utility.yul\":19832:19841   */\n      dup2\n        /* \"#utility.yul\":19826:19830   */\n      dup2\n        /* \"#utility.yul\":19822:19842   */\n      sub\n        /* \"#utility.yul\":19818:19819   */\n      0x00\n        /* \"#utility.yul\":19807:19816   */\n      dup4\n        /* \"#utility.yul\":19803:19820   */\n      add\n        /* \"#utility.yul\":19796:19843   */\n      mstore\n        /* \"#utility.yul\":19860:19991   */\n      tag_414\n        /* \"#utility.yul\":19986:19990   */\n      dup2\n        /* \"#utility.yul\":19860:19991   */\n      tag_217\n      jump\t// in\n    tag_414:\n        /* \"#utility.yul\":19852:19991   */\n      swap1\n      pop\n        /* \"#utility.yul\":19579:19998   */\n      swap2\n      swap1\n      pop\n      jump\t// out\n        /* \"#utility.yul\":20004:20171   */\n    tag_218:\n        /* \"#utility.yul\":20144:20163   */\n      0x5573756172696f20796120657869737465000000000000000000000000000000\n        /* \"#utility.yul\":20140:20141   */\n      0x00\n        /* \"#utility.yul\":20132:20138   */\n      dup3\n        /* \"#utility.yul\":20128:20142   */\n      add\n        /* \"#utility.yul\":20121:20164   */\n      mstore\n        /* \"#utility.yul\":20004:20171   */\n      pop\n      jump\t// out\n        /* \"#utility.yul\":20177:20543   */\n    tag_219:\n        /* \"#utility.yul\":20319:20322   */\n      0x00\n        /* \"#utility.yul\":20340:20407   */\n      tag_417\n        /* \"#utility.yul\":20404:20406   */\n      0x11\n        /* \"#utility.yul\":20399:20402   */\n      dup4\n        /* \"#utility.yul\":20340:20407   */\n      tag_206\n      jump\t// in\n    tag_417:\n        /* \"#utility.yul\":20333:20407   */\n      swap2\n      pop\n        /* \"#utility.yul\":20416:20509   */\n      tag_418\n        /* \"#utility.yul\":20505:20508   */\n      dup3\n        /* \"#utility.yul\":20416:20509   */\n      tag_218\n      jump\t// in\n    tag_418:\n        /* \"#utility.yul\":20534:20536   */\n      0x20\n        /* \"#utility.yul\":20529:20532   */\n      dup3\n        /* \"#utility.yul\":20525:20537   */\n      add\n        /* \"#utility.yul\":20518:20537   */\n      swap1\n      pop\n        /* \"#utility.yul\":20177:20543   */\n      swap2\n      swap1\n      pop\n      jump\t// out\n        /* \"#utility.yul\":20549:20968   */\n    tag_113:\n        /* \"#utility.yul\":20715:20719   */\n      0x00\n        /* \"#utility.yul\":20753:20755   */\n      0x20\n        /* \"#utility.yul\":20742:20751   */\n      dup3\n        /* \"#utility.yul\":20738:20756   */\n      add\n        /* \"#utility.yul\":20730:20756   */\n      swap1\n      pop\n        /* \"#utility.yul\":20802:20811   */\n      dup2\n        /* \"#utility.yul\":20796:20800   */\n      dup2\n        /* \"#utility.yul\":20792:20812   */\n      sub\n        /* \"#utility.yul\":20788:20789   */\n      0x00\n        /* \"#utility.yul\":20777:20786   */\n      dup4\n        /* \"#utility.yul\":20773:20790   */\n      add\n        /* \"#utility.yul\":20766:20813   */\n      mstore\n        /* \"#utility.yul\":20830:20961   */\n      tag_420\n        /* \"#utility.yul\":20956:20960   */\n      dup2\n        /* \"#utility.yul\":20830:20961   */\n      tag_219\n      jump\t// in\n    tag_420:\n        /* \"#utility.yul\":20822:20961   */\n      swap1\n      pop\n        /* \"#utility.yul\":20549:20968   */\n      swap2\n      swap1\n      pop\n      jump\t// out\n        /* \"#utility.yul\":20974:21115   */\n    tag_220:\n        /* \"#utility.yul\":21023:21027   */\n      0x00\n        /* \"#utility.yul\":21046:21049   */\n      dup2\n        /* \"#utility.yul\":21038:21049   */\n      swap1\n      pop\n        /* \"#utility.yul\":21069:21072   */\n      dup2\n        /* \"#utility.yul\":21066:21067   */\n      0x00\n        /* \"#utility.yul\":21059:21073   */\n      mstore\n        /* \"#utility.yul\":21103:21107   */\n      0x20\n        /* \"#utility.yul\":21100:21101   */\n      0x00\n        /* \"#utility.yul\":21090:21108   */\n      keccak256\n        /* \"#utility.yul\":21082:21108   */\n      swap1\n      pop\n        /* \"#utility.yul\":20974:21115   */\n      swap2\n      swap1\n      pop\n      jump\t// out\n        /* \"#utility.yul\":21121:21214   */\n    tag_221:\n        /* \"#utility.yul\":21158:21164   */\n      0x00\n        /* \"#utility.yul\":21205:21207   */\n      0x20\n        /* \"#utility.yul\":21200:21202   */\n      0x1f\n        /* \"#utility.yul\":21193:21198   */\n      dup4\n        /* \"#utility.yul\":21189:21203   */\n      add\n        /* \"#utility.yul\":21185:21208   */\n      div\n        /* \"#utility.yul\":21175:21208   */\n      swap1\n      pop\n        /* \"#utility.yul\":21121:21214   */\n      swap2\n      swap1\n      pop\n      jump\t// out\n        /* \"#utility.yul\":21220:21327   */\n    tag_222:\n        /* \"#utility.yul\":21264:21272   */\n      0x00\n        /* \"#utility.yul\":21314:21319   */\n      dup3\n        /* \"#utility.yul\":21308:21312   */\n      dup3\n        /* \"#utility.yul\":21304:21320   */\n      shl\n        /* \"#utility.yul\":21283:21320   */\n      swap1\n      pop\n        /* \"#utility.yul\":21220:21327   */\n      swap3\n      swap2\n      pop\n      pop\n      jump\t// out\n        /* \"#utility.yul\":21333:21726   */\n    tag_223:\n        /* \"#utility.yul\":21402:21408   */\n      0x00\n        /* \"#utility.yul\":21452:21453   */\n      0x08\n        /* \"#utility.yul\":21440:21450   */\n      dup4\n        /* \"#utility.yul\":21436:21454   */\n      mul\n        /* \"#utility.yul\":21475:21572   */\n      tag_425\n        /* \"#utility.yul\":21505:21571   */\n      0xffffffffffffffffffffffffffffffffffffffffffffffffffffffffffffffff\n        /* \"#utility.yul\":21494:21503   */\n      dup3\n        /* \"#utility.yul\":21475:21572   */\n      tag_222\n      jump\t// in\n    tag_425:\n        /* \"#utility.yul\":21593:21632   */\n      tag_426\n        /* \"#utility.yul\":21623:21631   */\n      dup7\n        /* \"#utility.yul\":21612:21621   */\n      dup4\n        /* \"#utility.yul\":21593:21632   */\n      tag_222\n      jump\t// in\n    tag_426:\n        /* \"#utility.yul\":21581:21632   */\n      swap6\n      pop\n        /* \"#utility.yul\":21665:21669   */\n      dup1\n        /* \"#utility.yul\":21661:21670   */\n      not\n        /* \"#utility.yul\":21654:21659   */\n      dup5\n        /* \"#utility.yul\":21650:21671   */\n      and\n        /* \"#utility.yul\":21641:21671   */\n      swap4\n      pop\n        /* \"#utility.yul\":21714:21718   */\n      dup1\n        /* \"#utility.yul\":21704:21712   */\n      dup7\n        /* \"#utility.yul\":21700:21719   */\n      and\n        /* \"#utility.yul\":21693:21698   */\n      dup5\n        /* \"#utility.yul\":21690:21720   */\n      or\n        /* \"#utility.yul\":21680:21720   */\n      swap3\n      pop\n        /* \"#utility.yul\":21409:21726   */\n      pop\n      pop\n        /* \"#utility.yul\":21333:21726   */\n      swap4\n      swap3\n      pop\n      pop\n      pop\n      jump\t// out\n        /* \"#utility.yul\":21732:21792   */\n    tag_224:\n        /* \"#utility.yul\":21760:21763   */\n      0x00\n        /* \"#utility.yul\":21781:21786   */\n      dup2\n        /* \"#utility.yul\":21774:21786   */\n      swap1\n      pop\n        /* \"#utility.yul\":21732:21792   */\n      swap2\n      swap1\n      pop\n      jump\t// out\n        /* \"#utility.yul\":21798:21940   */\n    tag_225:\n        /* \"#utility.yul\":21848:21857   */\n      0x00\n        /* \"#utility.yul\":21881:21934   */\n      tag_429\n        /* \"#utility.yul\":21899:21933   */\n      tag_430\n        /* \"#utility.yul\":21908:21932   */\n      tag_431\n        /* \"#utility.yul\":21926:21931   */\n      dup5\n        /* \"#utility.yul\":21908:21932   */\n      tag_197\n      jump\t// in\n    tag_431:\n        /* \"#utility.yul\":21899:21933   */\n      tag_224\n      jump\t// in\n    tag_430:\n        /* \"#utility.yul\":21881:21934   */\n      tag_197\n      jump\t// in\n    tag_429:\n        /* \"#utility.yul\":21868:21934   */\n      swap1\n      pop\n        /* \"#utility.yul\":21798:21940   */\n      swap2\n      swap1\n      pop\n      jump\t// out\n        /* \"#utility.yul\":21946:22021   */\n    tag_226:\n        /* \"#utility.yul\":21989:21992   */\n      0x00\n        /* \"#utility.yul\":22010:22015   */\n      dup2\n        /* \"#utility.yul\":22003:22015   */\n      swap1\n      pop\n        /* \"#utility.yul\":21946:22021   */\n      swap2\n      swap1\n      pop\n      jump\t// out\n        /* \"#utility.yul\":22027:22296   */\n    tag_227:\n        /* \"#utility.yul\":22137:22176   */\n      tag_434\n        /* \"#utility.yul\":22168:22175   */\n      dup4\n        /* \"#utility.yul\":22137:22176   */\n      tag_225\n      jump\t// in\n    tag_434:\n        /* \"#utility.yul\":22198:22289   */\n      tag_435\n        /* \"#utility.yul\":22247:22288   */\n      tag_436\n        /* \"#utility.yul\":22271:22287   */\n      dup3\n        /* \"#utility.yul\":22247:22288   */\n      tag_226\n      jump\t// in\n    tag_436:\n        /* \"#utility.yul\":22239:22245   */\n      dup5\n        /* \"#utility.yul\":22232:22236   */\n      dup5\n        /* \"#utility.yul\":22226:22237   */\n      sload\n        /* \"#utility.yul\":22198:22289   */\n      tag_223\n      jump\t// in\n    tag_435:\n        /* \"#utility.yul\":22192:22196   */\n      dup3\n        /* \"#utility.yul\":22185:22290   */\n      sstore\n        /* \"#utility.yul\":22103:22296   */\n      pop\n        /* \"#utility.yul\":22027:22296   */\n      pop\n      pop\n      pop\n      jump\t// out\n        /* \"#utility.yul\":22302:22375   */\n    tag_228:\n        /* \"#utility.yul\":22347:22350   */\n      0x00\n        /* \"#utility.yul\":22302:22375   */\n      swap1\n      jump\t// out\n        /* \"#utility.yul\":22381:22570   */\n    tag_229:\n        /* \"#utility.yul\":22458:22490   */\n      tag_439\n      tag_228\n      jump\t// in\n    tag_439:\n        /* \"#utility.yul\":22499:22564   */\n      tag_440\n        /* \"#utility.yul\":22557:22563   */\n      dup2\n        /* \"#utility.yul\":22549:22555   */\n      dup5\n        /* \"#utility.yul\":22543:22547   */\n      dup5\n        /* \"#utility.yul\":22499:22564   */\n      tag_227\n      jump\t// in\n    tag_440:\n        /* \"#utility.yul\":22434:22570   */\n      pop\n        /* \"#utility.yul\":22381:22570   */\n      pop\n      pop\n      jump\t// out\n        /* \"#utility.yul\":22576:22762   */\n    tag_230:\n        /* \"#utility.yul\":22636:22756   */\n    tag_442:\n        /* \"#utility.yul\":22653:22656   */\n      dup2\n        /* \"#utility.yul\":22646:22651   */\n      dup2\n        /* \"#utility.yul\":22643:22657   */\n      lt\n        /* \"#utility.yul\":22636:22756   */\n      iszero\n      tag_444\n      jumpi\n        /* \"#utility.yul\":22707:22746   */\n      tag_445\n        /* \"#utility.yul\":22744:22745   */\n      0x00\n        /* \"#utility.yul\":22737:22742   */\n      dup3\n        /* \"#utility.yul\":22707:22746   */\n      tag_229\n      jump\t// in\n    tag_445:\n        /* \"#utility.yul\":22680:22681   */\n      0x01\n        /* \"#utility.yul\":22673:22678   */\n      dup2\n        /* \"#utility.yul\":22669:22682   */\n      add\n        /* \"#utility.yul\":22660:22682   */\n      swap1\n      pop\n        /* \"#utility.yul\":22636:22756   */\n      jump(tag_442)\n    tag_444:\n        /* \"#utility.yul\":22576:22762   */\n      pop\n      pop\n      jump\t// out\n        /* \"#utility.yul\":22768:23311   */\n    tag_231:\n        /* \"#utility.yul\":22869:22871   */\n      0x1f\n        /* \"#utility.yul\":22864:22867   */\n      dup3\n        /* \"#utility.yul\":22861:22872   */\n      gt\n        /* \"#utility.yul\":22858:23304   */\n      iszero\n      tag_447\n      jumpi\n        /* \"#utility.yul\":22903:22941   */\n      tag_448\n        /* \"#utility.yul\":22935:22940   */\n      dup2\n        /* \"#utility.yul\":22903:22941   */\n      tag_220\n      jump\t// in\n    tag_448:\n        /* \"#utility.yul\":22987:23016   */\n      tag_449\n        /* \"#utility.yul\":23005:23015   */\n      dup5\n        /* \"#utility.yul\":22987:23016   */\n      tag_221\n      jump\t// in\n    tag_449:\n        /* \"#utility.yul\":22977:22985   */\n      dup2\n        /* \"#utility.yul\":22973:23017   */\n      add\n        /* \"#utility.yul\":23170:23172   */\n      0x20\n        /* \"#utility.yul\":23158:23168   */\n      dup6\n        /* \"#utility.yul\":23155:23173   */\n      lt\n        /* \"#utility.yul\":23152:23201   */\n      iszero\n      tag_450\n      jumpi\n        /* \"#utility.yul\":23191:23199   */\n      dup2\n        /* \"#utility.yul\":23176:23199   */\n      swap1\n      pop\n        /* \"#utility.yul\":23152:23201   */\n    tag_450:\n        /* \"#utility.yul\":23214:23294   */\n      tag_451\n        /* \"#utility.yul\":23270:23292   */\n      tag_452\n        /* \"#utility.yul\":23288:23291   */\n      dup6\n        /* \"#utility.yul\":23270:23292   */\n      tag_221\n      jump\t// in\n    tag_452:\n        /* \"#utility.yul\":23260:23268   */\n      dup4\n        /* \"#utility.yul\":23256:23293   */\n      add\n        /* \"#utility.yul\":23243:23254   */\n      dup3\n        /* \"#utility.yul\":23214:23294   */\n      tag_230\n      jump\t// in\n    tag_451:\n        /* \"#utility.yul\":22873:23304   */\n      pop\n      pop\n        /* \"#utility.yul\":22858:23304   */\n    tag_447:\n        /* \"#utility.yul\":22768:23311   */\n      pop\n      pop\n      pop\n      jump\t// out\n        /* \"#utility.yul\":23317:23434   */\n    tag_232:\n        /* \"#utility.yul\":23371:23379   */\n      0x00\n        /* \"#utility.yul\":23421:23426   */\n      dup3\n        /* \"#utility.yul\":23415:23419   */\n      dup3\n        /* \"#utility.yul\":23411:23427   */\n      shr\n        /* \"#utility.yul\":23390:23427   */\n      swap1\n      pop\n        /* \"#utility.yul\":23317:23434   */\n      swap3\n      swap2\n      pop\n      pop\n      jump\t// out\n        /* \"#utility.yul\":23440:23609   */\n    tag_233:\n        /* \"#utility.yul\":23484:23490   */\n      0x00\n        /* \"#utility.yul\":23517:23568   */\n      tag_455\n        /* \"#utility.yul\":23565:23566   */\n      0x00\n        /* \"#utility.yul\":23561:23567   */\n      not\n        /* \"#utility.yul\":23553:23558   */\n      dup5\n        /* \"#utility.yul\":23550:23551   */\n      0x08\n        /* \"#utility.yul\":23546:23559   */\n      mul\n        /* \"#utility.yul\":23517:23568   */\n      tag_232\n      jump\t// in\n    tag_455:\n        /* \"#utility.yul\":23513:23569   */\n      not\n        /* \"#utility.yul\":23598:23602   */\n      dup1\n        /* \"#utility.yul\":23592:23596   */\n      dup4\n        /* \"#utility.yul\":23588:23603   */\n      and\n        /* \"#utility.yul\":23578:23603   */\n      swap2\n      pop\n        /* \"#utility.yul\":23491:23609   */\n      pop\n        /* \"#utility.yul\":23440:23609   */\n      swap3\n      swap2\n      pop\n      pop\n      jump\t// out\n        /* \"#utility.yul\":23614:23909   */\n    tag_234:\n        /* \"#utility.yul\":23690:23694   */\n      0x00\n        /* \"#utility.yul\":23836:23865   */\n      tag_457\n        /* \"#utility.yul\":23861:23864   */\n      dup4\n        /* \"#utility.yul\":23855:23859   */\n      dup4\n        /* \"#utility.yul\":23836:23865   */\n      tag_233\n      jump\t// in\n    tag_457:\n        /* \"#utility.yul\":23828:23865   */\n      swap2\n      pop\n        /* \"#utility.yul\":23898:23901   */\n      dup3\n        /* \"#utility.yul\":23895:23896   */\n      0x02\n        /* \"#utility.yul\":23891:23902   */\n      mul\n        /* \"#utility.yul\":23885:23889   */\n      dup3\n        /* \"#utility.yul\":23882:23903   */\n      or\n        /* \"#utility.yul\":23874:23903   */\n      swap1\n      pop\n        /* \"#utility.yul\":23614:23909   */\n      swap3\n      swap2\n      pop\n      pop\n      jump\t// out\n        /* \"#utility.yul\":23914:25309   */\n    tag_116:\n        /* \"#utility.yul\":24031:24068   */\n      tag_459\n        /* \"#utility.yul\":24064:24067   */\n      dup3\n        /* \"#utility.yul\":24031:24068   */\n      tag_193\n      jump\t// in\n    tag_459:\n        /* \"#utility.yul\":24133:24151   */\n      0xffffffffffffffff\n        /* \"#utility.yul\":24125:24131   */\n      dup2\n        /* \"#utility.yul\":24122:24152   */\n      gt\n        /* \"#utility.yul\":24119:24175   */\n      iszero\n      tag_460\n      jumpi\n        /* \"#utility.yul\":24155:24173   */\n      tag_461\n      tag_48\n      jump\t// in\n    tag_461:\n        /* \"#utility.yul\":24119:24175   */\n    tag_460:\n        /* \"#utility.yul\":24199:24237   */\n      tag_462\n        /* \"#utility.yul\":24231:24235   */\n      dup3\n        /* \"#utility.yul\":24225:24236   */\n      sload\n        /* \"#utility.yul\":24199:24237   */\n      tag_61\n      jump\t// in\n    tag_462:\n        /* \"#utility.yul\":24284:24351   */\n      tag_463\n        /* \"#utility.yul\":24344:24350   */\n      dup3\n        /* \"#utility.yul\":24336:24342   */\n      dup3\n        /* \"#utility.yul\":24330:24334   */\n      dup6\n        /* \"#utility.yul\":24284:24351   */\n      tag_231\n      jump\t// in\n    tag_463:\n        /* \"#utility.yul\":24378:24379   */\n      0x00\n        /* \"#utility.yul\":24402:24406   */\n      0x20\n        /* \"#utility.yul\":24389:24406   */\n      swap1\n      pop\n        /* \"#utility.yul\":24434:24436   */\n      0x1f\n        /* \"#utility.yul\":24426:24432   */\n      dup4\n        /* \"#utility.yul\":24423:24437   */\n      gt\n        /* \"#utility.yul\":24451:24452   */\n      0x01\n        /* \"#utility.yul\":24446:25064   */\n      dup2\n      eq\n      tag_465\n      jumpi\n        /* \"#utility.yul\":25108:25109   */\n      0x00\n        /* \"#utility.yul\":25125:25131   */\n      dup5\n        /* \"#utility.yul\":25122:25199   */\n      iszero\n      tag_466\n      jumpi\n        /* \"#utility.yul\":25174:25183   */\n      dup3\n        /* \"#utility.yul\":25169:25172   */\n      dup8\n        /* \"#utility.yul\":25165:25184   */\n      add\n        /* \"#utility.yul\":25159:25185   */\n      mload\n        /* \"#utility.yul\":25150:25185   */\n      swap1\n      pop\n        /* \"#utility.yul\":25122:25199   */\n    tag_466:\n        /* \"#utility.yul\":25225:25292   */\n      tag_467\n        /* \"#utility.yul\":25285:25291   */\n      dup6\n        /* \"#utility.yul\":25278:25283   */\n      dup3\n        /* \"#utility.yul\":25225:25292   */\n      tag_234\n      jump\t// in\n    tag_467:\n        /* \"#utility.yul\":25219:25223   */\n      dup7\n        /* \"#utility.yul\":25212:25293   */\n      sstore\n        /* \"#utility.yul\":25081:25303   */\n      pop\n        /* \"#utility.yul\":24416:25303   */\n      jump(tag_464)\n        /* \"#utility.yul\":24446:25064   */\n    tag_465:\n        /* \"#utility.yul\":24498:24502   */\n      0x1f\n        /* \"#utility.yul\":24494:24503   */\n      not\n        /* \"#utility.yul\":24486:24492   */\n      dup5\n        /* \"#utility.yul\":24482:24504   */\n      and\n        /* \"#utility.yul\":24532:24569   */\n      tag_468\n        /* \"#utility.yul\":24564:24568   */\n      dup7\n        /* \"#utility.yul\":24532:24569   */\n      tag_220\n      jump\t// in\n    tag_468:\n        /* \"#utility.yul\":24591:24592   */\n      0x00\n        /* \"#utility.yul\":24605:24813   */\n    tag_469:\n        /* \"#utility.yul\":24619:24626   */\n      dup3\n        /* \"#utility.yul\":24616:24617   */\n      dup2\n        /* \"#utility.yul\":24613:24627   */\n      lt\n        /* \"#utility.yul\":24605:24813   */\n      iszero\n      tag_471\n      jumpi\n        /* \"#utility.yul\":24698:24707   */\n      dup5\n        /* \"#utility.yul\":24693:24696   */\n      dup10\n        /* \"#utility.yul\":24689:24708   */\n      add\n        /* \"#utility.yul\":24683:24709   */\n      mload\n        /* \"#utility.yul\":24675:24681   */\n      dup3\n        /* \"#utility.yul\":24668:24710   */\n      sstore\n        /* \"#utility.yul\":24749:24750   */\n      0x01\n        /* \"#utility.yul\":24741:24747   */\n      dup3\n        /* \"#utility.yul\":24737:24751   */\n      add\n        /* \"#utility.yul\":24727:24751   */\n      swap2\n      pop\n        /* \"#utility.yul\":24796:24798   */\n      0x20\n        /* \"#utility.yul\":24785:24794   */\n      dup6\n        /* \"#utility.yul\":24781:24799   */\n      add\n        /* \"#utility.yul\":24768:24799   */\n      swap5\n      pop\n        /* \"#utility.yul\":24642:24646   */\n      0x20\n        /* \"#utility.yul\":24639:24640   */\n      dup2\n        /* \"#utility.yul\":24635:24647   */\n      add\n        /* \"#utility.yul\":24630:24647   */\n      swap1\n      pop\n        /* \"#utility.yul\":24605:24813   */\n      jump(tag_469)\n    tag_471:\n        /* \"#utility.yul\":24841:24847   */\n      dup7\n        /* \"#utility.yul\":24832:24839   */\n      dup4\n        /* \"#utility.yul\":24829:24848   */\n      lt\n        /* \"#utility.yul\":24826:25005   */\n      iszero\n      tag_472\n      jumpi\n        /* \"#utility.yul\":24899:24908   */\n      dup5\n        /* \"#utility.yul\":24894:24897   */\n      dup10\n        /* \"#utility.yul\":24890:24909   */\n      add\n        /* \"#utility.yul\":24884:24910   */\n      mload\n        /* \"#utility.yul\":24942:24990   */\n      tag_473\n        /* \"#utility.yul\":24984:24988   */\n      0x1f\n        /* \"#utility.yul\":24976:24982   */\n      dup10\n        /* \"#utility.yul\":24972:24989   */\n      and\n        /* \"#utility.yul\":24961:24970   */\n      dup3\n        /* \"#utility.yul\":24942:24990   */\n      tag_233\n      jump\t// in\n    tag_473:\n        /* \"#utility.yul\":24934:24940   */\n      dup4\n        /* \"#utility.yul\":24927:24991   */\n      sstore\n        /* \"#utility.yul\":24849:25005   */\n      pop\n        /* \"#utility.yul\":24826:25005   */\n    tag_472:\n        /* \"#utility.yul\":25051:25052   */\n      0x01\n        /* \"#utility.yul\":25047:25048   */\n      0x02\n        /* \"#utility.yul\":25039:25045   */\n      dup9\n        /* \"#utility.yul\":25035:25049   */\n      mul\n        /* \"#utility.yul\":25031:25053   */\n      add\n        /* \"#utility.yul\":25025:25029   */\n      dup9\n        /* \"#utility.yul\":25018:25054   */\n      sstore\n        /* \"#utility.yul\":24453:25064   */\n      pop\n      pop\n      pop\n        /* \"#utility.yul\":24416:25303   */\n    tag_464:\n      pop\n        /* \"#utility.yul\":24006:25309   */\n      pop\n      pop\n      pop\n        /* \"#utility.yul\":23914:25309   */\n      pop\n      pop\n      jump\t// out\n        /* \"#utility.yul\":25315:25495   */\n    tag_235:\n        /* \"#utility.yul\":25363:25440   */\n      0x4e487b7100000000000000000000000000000000000000000000000000000000\n        /* \"#utility.yul\":25360:25361   */\n      0x00\n        /* \"#utility.yul\":25353:25441   */\n      mstore\n        /* \"#utility.yul\":25460:25464   */\n      0x11\n        /* \"#utility.yul\":25457:25458   */\n      0x04\n        /* \"#utility.yul\":25450:25465   */\n      mstore\n        /* \"#utility.yul\":25484:25488   */\n      0x24\n        /* \"#utility.yul\":25481:25482   */\n      0x00\n        /* \"#utility.yul\":25474:25489   */\n      revert\n        /* \"#utility.yul\":25501:25734   */\n    tag_122:\n        /* \"#utility.yul\":25540:25543   */\n      0x00\n        /* \"#utility.yul\":25563:25587   */\n      tag_476\n        /* \"#utility.yul\":25581:25586   */\n      dup3\n        /* \"#utility.yul\":25563:25587   */\n      tag_197\n      jump\t// in\n    tag_476:\n        /* \"#utility.yul\":25554:25587   */\n      swap2\n      pop\n        /* \"#utility.yul\":25609:25675   */\n      0xffffffffffffffffffffffffffffffffffffffffffffffffffffffffffffffff\n        /* \"#utility.yul\":25602:25607   */\n      dup3\n        /* \"#utility.yul\":25599:25676   */\n      sub\n        /* \"#utility.yul\":25596:25699   */\n      tag_477\n      jumpi\n        /* \"#utility.yul\":25679:25697   */\n      tag_478\n      tag_235\n      jump\t// in\n    tag_478:\n        /* \"#utility.yul\":25596:25699   */\n    tag_477:\n        /* \"#utility.yul\":25726:25727   */\n      0x01\n        /* \"#utility.yul\":25719:25724   */\n      dup3\n        /* \"#utility.yul\":25715:25728   */\n      add\n        /* \"#utility.yul\":25708:25728   */\n      swap1\n      pop\n        /* \"#utility.yul\":25501:25734   */\n      swap2\n      swap1\n      pop\n      jump\t// out\n        /* \"#utility.yul\":25740:25977   */\n    tag_236:\n        /* \"#utility.yul\":25880:25914   */\n      0x5573756172696f206e6f206578697374652c206e6f207365207265616c697a61\n        /* \"#utility.yul\":25876:25877   */\n      0x00\n        /* \"#utility.yul\":25868:25874   */\n      dup3\n        /* \"#utility.yul\":25864:25878   */\n      add\n        /* \"#utility.yul\":25857:25915   */\n      mstore\n        /* \"#utility.yul\":25949:25969   */\n      0x7261206c61206d6f64696669636163696f6e0000000000000000000000000000\n        /* \"#utility.yul\":25944:25946   */\n      0x20\n        /* \"#utility.yul\":25936:25942   */\n      dup3\n        /* \"#utility.yul\":25932:25947   */\n      add\n        /* \"#utility.yul\":25925:25970   */\n      mstore\n        /* \"#utility.yul\":25740:25977   */\n      pop\n      jump\t// out\n        /* \"#utility.yul\":25983:26349   */\n    tag_237:\n        /* \"#utility.yul\":26125:26128   */\n      0x00\n        /* \"#utility.yul\":26146:26213   */\n      tag_481\n        /* \"#utility.yul\":26210:26212   */\n      0x32\n        /* \"#utility.yul\":26205:26208   */\n      dup4\n        /* \"#utility.yul\":26146:26213   */\n      tag_206\n      jump\t// in\n    tag_481:\n        /* \"#utility.yul\":26139:26213   */\n      swap2\n      pop\n        /* \"#utility.yul\":26222:26315   */\n      tag_482\n        /* \"#utility.yul\":26311:26314   */\n      dup3\n        /* \"#utility.yul\":26222:26315   */\n      tag_236\n      jump\t// in\n    tag_482:\n        /* \"#utility.yul\":26340:26342   */\n      0x40\n        /* \"#utility.yul\":26335:26338   */\n      dup3\n        /* \"#utility.yul\":26331:26343   */\n      add\n        /* \"#utility.yul\":26324:26343   */\n      swap1\n      pop\n        /* \"#utility.yul\":25983:26349   */\n      swap2\n      swap1\n      pop\n      jump\t// out\n        /* \"#utility.yul\":26355:26774   */\n    tag_129:\n        /* \"#utility.yul\":26521:26525   */\n      0x00\n        /* \"#utility.yul\":26559:26561   */\n      0x20\n        /* \"#utility.yul\":26548:26557   */\n      dup3\n        /* \"#utility.yul\":26544:26562   */\n      add\n        /* \"#utility.yul\":26536:26562   */\n      swap1\n      pop\n        /* \"#utility.yul\":26608:26617   */\n      dup2\n        /* \"#utility.yul\":26602:26606   */\n      dup2\n        /* \"#utility.yul\":26598:26618   */\n      sub\n        /* \"#utility.yul\":26594:26595   */\n      0x00\n        /* \"#utility.yul\":26583:26592   */\n      dup4\n        /* \"#utility.yul\":26579:26596   */\n      add\n        /* \"#utility.yul\":26572:26619   */\n      mstore\n        /* \"#utility.yul\":26636:26767   */\n      tag_484\n        /* \"#utility.yul\":26762:26766   */\n      dup2\n        /* \"#utility.yul\":26636:26767   */\n      tag_237\n      jump\t// in\n    tag_484:\n        /* \"#utility.yul\":26628:26767   */\n      swap1\n      pop\n        /* \"#utility.yul\":26355:26774   */\n      swap2\n      swap1\n      pop\n      jump\t// out\n        /* \"#utility.yul\":26780:27016   */\n    tag_238:\n        /* \"#utility.yul\":26920:26954   */\n      0x5573756172696f206e6f206578697374652c206e6f207365207265616c697a61\n        /* \"#utility.yul\":26916:26917   */\n      0x00\n        /* \"#utility.yul\":26908:26914   */\n      dup3\n        /* \"#utility.yul\":26904:26918   */\n      add\n        /* \"#utility.yul\":26897:26955   */\n      mstore\n        /* \"#utility.yul\":26989:27008   */\n      0x7261206c6120656c696d696e6163696f6e000000000000000000000000000000\n        /* \"#utility.yul\":26984:26986   */\n      0x20\n        /* \"#utility.yul\":26976:26982   */\n      dup3\n        /* \"#utility.yul\":26972:26987   */\n      add\n        /* \"#utility.yul\":26965:27009   */\n      mstore\n        /* \"#utility.yul\":26780:27016   */\n      pop\n      jump\t// out\n        /* \"#utility.yul\":27022:27388   */\n    tag_239:\n        /* \"#utility.yul\":27164:27167   */\n      0x00\n        /* \"#utility.yul\":27185:27252   */\n      tag_487\n        /* \"#utility.yul\":27249:27251   */\n      0x31\n        /* \"#utility.yul\":27244:27247   */\n      dup4\n        /* \"#utility.yul\":27185:27252   */\n      tag_206\n      jump\t// in\n    tag_487:\n        /* \"#utility.yul\":27178:27252   */\n      swap2\n      pop\n        /* \"#utility.yul\":27261:27354   */\n      tag_488\n        /* \"#utility.yul\":27350:27353   */\n      dup3\n        /* \"#utility.yul\":27261:27354   */\n      tag_238\n      jump\t// in\n    tag_488:\n        /* \"#utility.yul\":27379:27381   */\n      0x40\n        /* \"#utility.yul\":27374:27377   */\n      dup3\n        /* \"#utility.yul\":27370:27382   */\n      add\n        /* \"#utility.yul\":27363:27382   */\n      swap1\n      pop\n        /* \"#utility.yul\":27022:27388   */\n      swap2\n      swap1\n      pop\n      jump\t// out\n        /* \"#utility.yul\":27394:27813   */\n    tag_140:\n        /* \"#utility.yul\":27560:27564   */\n      0x00\n        /* \"#utility.yul\":27598:27600   */\n      0x20\n        /* \"#utility.yul\":27587:27596   */\n      dup3\n        /* \"#utility.yul\":27583:27601   */\n      add\n        /* \"#utility.yul\":27575:27601   */\n      swap1\n      pop\n        /* \"#utility.yul\":27647:27656   */\n      dup2\n        /* \"#utility.yul\":27641:27645   */\n      dup2\n        /* \"#utility.yul\":27637:27657   */\n      sub\n        /* \"#utility.yul\":27633:27634   */\n      0x00\n        /* \"#utility.yul\":27622:27631   */\n      dup4\n        /* \"#utility.yul\":27618:27635   */\n      add\n        /* \"#utility.yul\":27611:27658   */\n      mstore\n        /* \"#utility.yul\":27675:27806   */\n      tag_490\n        /* \"#utility.yul\":27801:27805   */\n      dup2\n        /* \"#utility.yul\":27675:27806   */\n      tag_239\n      jump\t// in\n    tag_490:\n        /* \"#utility.yul\":27667:27806   */\n      swap1\n      pop\n        /* \"#utility.yul\":27394:27813   */\n      swap2\n      swap1\n      pop\n      jump\t// out\n        /* \"#utility.yul\":27819:28013   */\n    tag_154:\n        /* \"#utility.yul\":27859:27863   */\n      0x00\n        /* \"#utility.yul\":27879:27899   */\n      tag_492\n        /* \"#utility.yul\":27897:27898   */\n      dup3\n        /* \"#utility.yul\":27879:27899   */\n      tag_197\n      jump\t// in\n    tag_492:\n        /* \"#utility.yul\":27874:27899   */\n      swap2\n      pop\n        /* \"#utility.yul\":27913:27933   */\n      tag_493\n        /* \"#utility.yul\":27931:27932   */\n      dup4\n        /* \"#utility.yul\":27913:27933   */\n      tag_197\n      jump\t// in\n    tag_493:\n        /* \"#utility.yul\":27908:27933   */\n      swap3\n      pop\n        /* \"#utility.yul\":27957:27958   */\n      dup3\n        /* \"#utility.yul\":27954:27955   */\n      dup3\n        /* \"#utility.yul\":27950:27959   */\n      sub\n        /* \"#utility.yul\":27942:27959   */\n      swap1\n      pop\n        /* \"#utility.yul\":27981:27982   */\n      dup2\n        /* \"#utility.yul\":27975:27979   */\n      dup2\n        /* \"#utility.yul\":27972:27983   */\n      gt\n        /* \"#utility.yul\":27969:28006   */\n      iszero\n      tag_494\n      jumpi\n        /* \"#utility.yul\":27986:28004   */\n      tag_495\n      tag_235\n      jump\t// in\n    tag_495:\n        /* \"#utility.yul\":27969:28006   */\n    tag_494:\n        /* \"#utility.yul\":27819:28013   */\n      swap3\n      swap2\n      pop\n      pop\n      jump\t// out\n        /* \"#utility.yul\":28019:28199   */\n    tag_163:\n        /* \"#utility.yul\":28067:28144   */\n      0x4e487b7100000000000000000000000000000000000000000000000000000000\n        /* \"#utility.yul\":28064:28065   */\n      0x00\n        /* \"#utility.yul\":28057:28145   */\n      mstore\n        /* \"#utility.yul\":28164:28168   */\n      0x31\n        /* \"#utility.yul\":28161:28162   */\n      0x04\n        /* \"#utility.yul\":28154:28169   */\n      mstore\n        /* \"#utility.yul\":28188:28192   */\n      0x24\n        /* \"#utility.yul\":28185:28186   */\n      0x00\n        /* \"#utility.yul\":28178:28193   */\n      revert\n\n    auxdata: 0xa2646970667358221220559fd7f4a066f3ab4bee56e596129577ddf17c6b4ce5c8c0c340dd45a5a36ec164736f6c634300081a0033\n}\n",
				"bytecode": {
					"linkReferences": {},
					"object": "6080604052348015600e575f80fd5b50335f806101000a81548173ffffffffffffffffffffffffffffffffffffffff021916908373ffffffffffffffffffffffffffffffffffffffff16021790555060018081905550612250806100625f395ff3fe608060405234801561000f575f80fd5b5060043610610060575f3560e01c80632f19d50b1461006457806341c9908c146100945780634ec1b895146100b25780638e0f1884146100e6578063a202d77214610102578063e90538e31461011e575b5f80fd5b61007e6004803603810190610079919061157e565b61013a565b60405161008b91906115f2565b60405180910390f35b61009c6102bf565b6040516100a99190611813565b60405180910390f35b6100cc60048036038101906100c79190611833565b61068a565b6040516100dd9594939291906118b5565b60405180910390f35b61010060048036038101906100fb9190611922565b610a7e565b005b61011c60048036038101906101179190611a37565b610dbd565b005b61013860048036038101906101339190611833565b610fa6565b005b5f8073ffffffffffffffffffffffffffffffffffffffff1660025f8573ffffffffffffffffffffffffffffffffffffffff1673ffffffffffffffffffffffffffffffffffffffff1681526020019081526020015f206005015f9054906101000a900473ffffffffffffffffffffffffffffffffffffffff1673ffffffffffffffffffffffffffffffffffffffff1603610208576040517f08c379a00000000000000000000000000000000000000000000000000000000081526004016101ff90611b68565b60405180910390fd5b5f8260405160200161021a9190611bc0565b60405160208183030381529060405280519060200120905060025f8573ffffffffffffffffffffffffffffffffffffffff1673ffffffffffffffffffffffffffffffffffffffff1681526020019081526020015f206006015481146102b4576040517f08c379a00000000000000000000000000000000000000000000000000000000081526004016102ab90611c20565b60405180910390fd5b600191505092915050565b60605f60038054905067ffffffffffffffff8111156102e1576102e061145a565b5b60405190808252806020026020018201604052801561031a57816020015b61030761132c565b8152602001906001900390816102ff5790505b5090505f5b6003805490508110156106825760025f6003838154811061034357610342611c3e565b5b905f5260205f20015f9054906101000a900473ffffffffffffffffffffffffffffffffffffffff1673ffffffffffffffffffffffffffffffffffffffff1673ffffffffffffffffffffffffffffffffffffffff1681526020019081526020015f206040518060e00160405290815f820180546103be90611c98565b80601f01602080910402602001604051908101604052809291908181526020018280546103ea90611c98565b80156104355780601f1061040c57610100808354040283529160200191610435565b820191905f5260205f20905b81548152906001019060200180831161041857829003601f168201915b5050505050815260200160018201805461044e90611c98565b80601f016020809104026020016040519081016040528092919081815260200182805461047a90611c98565b80156104c55780601f1061049c576101008083540402835291602001916104c5565b820191905f5260205f20905b8154815290600101906020018083116104a857829003601f168201915b505050505081526020016002820180546104de90611c98565b80601f016020809104026020016040519081016040528092919081815260200182805461050a90611c98565b80156105555780601f1061052c57610100808354040283529160200191610555565b820191905f5260205f20905b81548152906001019060200180831161053857829003601f168201915b505050505081526020016003820154815260200160048201805461057890611c98565b80601f01602080910402602001604051908101604052809291908181526020018280546105a490611c98565b80156105ef5780601f106105c6576101008083540402835291602001916105ef565b820191905f5260205f20905b8154815290600101906020018083116105d257829003601f168201915b50505050508152602001600582015f9054906101000a900473ffffffffffffffffffffffffffffffffffffffff1673ffffffffffffffffffffffffffffffffffffffff1673ffffffffffffffffffffffffffffffffffffffff16815260200160068201548152505082828151811061066a57610669611c3e565b5b6020026020010181905250808060010191505061031f565b508091505090565b60608060605f60605f73ffffffffffffffffffffffffffffffffffffffff1660025f8873ffffffffffffffffffffffffffffffffffffffff1673ffffffffffffffffffffffffffffffffffffffff1681526020019081526020015f206005015f9054906101000a900473ffffffffffffffffffffffffffffffffffffffff1673ffffffffffffffffffffffffffffffffffffffff160361075f576040517f08c379a000000000000000000000000000000000000000000000000000000000815260040161075690611b68565b60405180910390fd5b5f60025f8873ffffffffffffffffffffffffffffffffffffffff1673ffffffffffffffffffffffffffffffffffffffff1681526020019081526020015f206040518060e00160405290815f820180546107b790611c98565b80601f01602080910402602001604051908101604052809291908181526020018280546107e390611c98565b801561082e5780601f106108055761010080835404028352916020019161082e565b820191905f5260205f20905b81548152906001019060200180831161081157829003601f168201915b5050505050815260200160018201805461084790611c98565b80601f016020809104026020016040519081016040528092919081815260200182805461087390611c98565b80156108be5780601f10610895576101008083540402835291602001916108be565b820191905f5260205f20905b8154815290600101906020018083116108a157829003601f168201915b505050505081526020016002820180546108d790611c98565b80601f016020809104026020016040519081016040528092919081815260200182805461090390611c98565b801561094e5780601f106109255761010080835404028352916020019161094e565b820191905f5260205f20905b81548152906001019060200180831161093157829003601f168201915b505050505081526020016003820154815260200160048201805461097190611c98565b80601f016020809104026020016040519081016040528092919081815260200182805461099d90611c98565b80156109e85780601f106109bf576101008083540402835291602001916109e8565b820191905f5260205f20905b8154815290600101906020018083116109cb57829003601f168201915b50505050508152602001600582015f9054906101000a900473ffffffffffffffffffffffffffffffffffffffff1673ffffffffffffffffffffffffffffffffffffffff1673ffffffffffffffffffffffffffffffffffffffff1681526020016006820154815250509050805f01518160200151826040015183606001518460800151955095509550955095505091939590929450565b5f8054906101000a900473ffffffffffffffffffffffffffffffffffffffff1673ffffffffffffffffffffffffffffffffffffffff163373ffffffffffffffffffffffffffffffffffffffff1614610b0b576040517f08c379a0000000000000000000000000000000000000000000000000000000008152600401610b0290611d38565b60405180910390fd5b5f73ffffffffffffffffffffffffffffffffffffffff1660025f8473ffffffffffffffffffffffffffffffffffffffff1673ffffffffffffffffffffffffffffffffffffffff1681526020019081526020015f206005015f9054906101000a900473ffffffffffffffffffffffffffffffffffffffff1673ffffffffffffffffffffffffffffffffffffffff1614610bd8576040517f08c379a0000000000000000000000000000000000000000000000000000000008152600401610bcf90611da0565b60405180910390fd5b5f81604051602001610bea9190611bc0565b6040516020818303038152906040528051906020012090506040518060e0016040528088815260200187815260200186815260200160015481526020018581526020018473ffffffffffffffffffffffffffffffffffffffff1681526020018281525060025f8573ffffffffffffffffffffffffffffffffffffffff1673ffffffffffffffffffffffffffffffffffffffff1681526020019081526020015f205f820151815f019081610c9d9190611f5b565b506020820151816001019081610cb39190611f5b565b506040820151816002019081610cc99190611f5b565b50606082015181600301556080820151816004019081610ce99190611f5b565b5060a0820151816005015f6101000a81548173ffffffffffffffffffffffffffffffffffffffff021916908373ffffffffffffffffffffffffffffffffffffffff16021790555060c08201518160060155905050600383908060018154018082558091505060019003905f5260205f20015f9091909190916101000a81548173ffffffffffffffffffffffffffffffffffffffff021916908373ffffffffffffffffffffffffffffffffffffffff16021790555060015f815480929190610daf90612057565b919050555050505050505050565b5f8054906101000a900473ffffffffffffffffffffffffffffffffffffffff1673ffffffffffffffffffffffffffffffffffffffff163373ffffffffffffffffffffffffffffffffffffffff1614610e4a576040517f08c379a0000000000000000000000000000000000000000000000000000000008152600401610e4190611d38565b60405180910390fd5b5f73ffffffffffffffffffffffffffffffffffffffff1660025f8773ffffffffffffffffffffffffffffffffffffffff1673ffffffffffffffffffffffffffffffffffffffff1681526020019081526020015f206005015f9054906101000a900473ffffffffffffffffffffffffffffffffffffffff1673ffffffffffffffffffffffffffffffffffffffff1603610f17576040517f08c379a0000000000000000000000000000000000000000000000000000000008152600401610f0e9061210e565b60405180910390fd5b5f60025f8773ffffffffffffffffffffffffffffffffffffffff1673ffffffffffffffffffffffffffffffffffffffff1681526020019081526020015f20905084815f019081610f679190611f5b565b5083816001019081610f799190611f5b565b5082816002019081610f8b9190611f5b565b5081816004019081610f9d9190611f5b565b50505050505050565b5f8054906101000a900473ffffffffffffffffffffffffffffffffffffffff1673ffffffffffffffffffffffffffffffffffffffff163373ffffffffffffffffffffffffffffffffffffffff1614611033576040517f08c379a000000000000000000000000000000000000000000000000000000000815260040161102a90611d38565b60405180910390fd5b5f73ffffffffffffffffffffffffffffffffffffffff1660025f8373ffffffffffffffffffffffffffffffffffffffff1673ffffffffffffffffffffffffffffffffffffffff1681526020019081526020015f206005015f9054906101000a900473ffffffffffffffffffffffffffffffffffffffff1673ffffffffffffffffffffffffffffffffffffffff1603611100576040517f08c379a00000000000000000000000000000000000000000000000000000000081526004016110f79061219c565b60405180910390fd5b60025f8273ffffffffffffffffffffffffffffffffffffffff1673ffffffffffffffffffffffffffffffffffffffff1681526020019081526020015f205f8082015f61114c919061137f565b600182015f61115b919061137f565b600282015f61116a919061137f565b600382015f9055600482015f611180919061137f565b600582015f6101000a81549073ffffffffffffffffffffffffffffffffffffffff0219169055600682015f905550505f5b600380549050811015611328578173ffffffffffffffffffffffffffffffffffffffff16600382815481106111e9576111e8611c3e565b5b905f5260205f20015f9054906101000a900473ffffffffffffffffffffffffffffffffffffffff1673ffffffffffffffffffffffffffffffffffffffff160361131b576003600160038054905061124091906121ba565b8154811061125157611250611c3e565b5b905f5260205f20015f9054906101000a900473ffffffffffffffffffffffffffffffffffffffff166003828154811061128d5761128c611c3e565b5b905f5260205f20015f6101000a81548173ffffffffffffffffffffffffffffffffffffffff021916908373ffffffffffffffffffffffffffffffffffffffff16021790555060038054806112e4576112e36121ed565b5b600190038181905f5260205f20015f6101000a81549073ffffffffffffffffffffffffffffffffffffffff02191690559055611328565b80806001019150506111b1565b5050565b6040518060e001604052806060815260200160608152602001606081526020015f8152602001606081526020015f73ffffffffffffffffffffffffffffffffffffffff1681526020015f80191681525090565b50805461138b90611c98565b5f825580601f1061139c57506113b9565b601f0160209004905f5260205f20908101906113b891906113bc565b5b50565b5b808211156113d3575f815f9055506001016113bd565b5090565b5f604051905090565b5f80fd5b5f80fd5b5f73ffffffffffffffffffffffffffffffffffffffff82169050919050565b5f611411826113e8565b9050919050565b61142181611407565b811461142b575f80fd5b50565b5f8135905061143c81611418565b92915050565b5f80fd5b5f80fd5b5f601f19601f8301169050919050565b7f4e487b71000000000000000000000000000000000000000000000000000000005f52604160045260245ffd5b6114908261144a565b810181811067ffffffffffffffff821117156114af576114ae61145a565b5b80604052505050565b5f6114c16113d7565b90506114cd8282611487565b919050565b5f67ffffffffffffffff8211156114ec576114eb61145a565b5b6114f58261144a565b9050602081019050919050565b828183375f83830152505050565b5f61152261151d846114d2565b6114b8565b90508281526020810184848401111561153e5761153d611446565b5b611549848285611502565b509392505050565b5f82601f83011261156557611564611442565b5b8135611575848260208601611510565b91505092915050565b5f8060408385031215611594576115936113e0565b5b5f6115a18582860161142e565b925050602083013567ffffffffffffffff8111156115c2576115c16113e4565b5b6115ce85828601611551565b9150509250929050565b5f8115159050919050565b6115ec816115d8565b82525050565b5f6020820190506116055f8301846115e3565b92915050565b5f81519050919050565b5f82825260208201905092915050565b5f819050602082019050919050565b5f81519050919050565b5f82825260208201905092915050565b8281835e5f83830152505050565b5f61166682611634565b611670818561163e565b935061168081856020860161164e565b6116898161144a565b840191505092915050565b5f819050919050565b6116a681611694565b82525050565b6116b581611407565b82525050565b5f819050919050565b6116cd816116bb565b82525050565b5f60e083015f8301518482035f8601526116ed828261165c565b91505060208301518482036020860152611707828261165c565b91505060408301518482036040860152611721828261165c565b9150506060830151611736606086018261169d565b506080830151848203608086015261174e828261165c565b91505060a083015161176360a08601826116ac565b5060c083015161177660c08601826116c4565b508091505092915050565b5f61178c83836116d3565b905092915050565b5f602082019050919050565b5f6117aa8261160b565b6117b48185611615565b9350836020820285016117c685611625565b805f5b8581101561180157848403895281516117e28582611781565b94506117ed83611794565b925060208a019950506001810190506117c9565b50829750879550505050505092915050565b5f6020820190508181035f83015261182b81846117a0565b905092915050565b5f60208284031215611848576118476113e0565b5b5f6118558482850161142e565b91505092915050565b5f82825260208201905092915050565b5f61187882611634565b611882818561185e565b935061189281856020860161164e565b61189b8161144a565b840191505092915050565b6118af81611694565b82525050565b5f60a0820190508181035f8301526118cd818861186e565b905081810360208301526118e1818761186e565b905081810360408301526118f5818661186e565b905061190460608301856118a6565b8181036080830152611916818461186e565b90509695505050505050565b5f805f805f8060c0878903121561193c5761193b6113e0565b5b5f87013567ffffffffffffffff811115611959576119586113e4565b5b61196589828a01611551565b965050602087013567ffffffffffffffff811115611986576119856113e4565b5b61199289828a01611551565b955050604087013567ffffffffffffffff8111156119b3576119b26113e4565b5b6119bf89828a01611551565b945050606087013567ffffffffffffffff8111156119e0576119df6113e4565b5b6119ec89828a01611551565b93505060806119fd89828a0161142e565b92505060a087013567ffffffffffffffff811115611a1e57611a1d6113e4565b5b611a2a89828a01611551565b9150509295509295509295565b5f805f805f60a08688031215611a5057611a4f6113e0565b5b5f611a5d8882890161142e565b955050602086013567ffffffffffffffff811115611a7e57611a7d6113e4565b5b611a8a88828901611551565b945050604086013567ffffffffffffffff811115611aab57611aaa6113e4565b5b611ab788828901611551565b935050606086013567ffffffffffffffff811115611ad857611ad76113e4565b5b611ae488828901611551565b925050608086013567ffffffffffffffff811115611b0557611b046113e4565b5b611b1188828901611551565b9150509295509295909350565b7f5573756172696f206e6f206578697374650000000000000000000000000000005f82015250565b5f611b5260118361185e565b9150611b5d82611b1e565b602082019050919050565b5f6020820190508181035f830152611b7f81611b46565b9050919050565b5f81905092915050565b5f611b9a82611634565b611ba48185611b86565b9350611bb481856020860161164e565b80840191505092915050565b5f611bcb8284611b90565b915081905092915050565b7f50617373776f726420696e636f72726563746f000000000000000000000000005f82015250565b5f611c0a60138361185e565b9150611c1582611bd6565b602082019050919050565b5f6020820190508181035f830152611c3781611bfe565b9050919050565b7f4e487b71000000000000000000000000000000000000000000000000000000005f52603260045260245ffd5b7f4e487b71000000000000000000000000000000000000000000000000000000005f52602260045260245ffd5b5f6002820490506001821680611caf57607f821691505b602082108103611cc257611cc1611c6b565b5b50919050565b7f536f6c6f20656c206f776e6572207075656465207265616c697a6172206573745f8201527f6120616363696f6e000000000000000000000000000000000000000000000000602082015250565b5f611d2260288361185e565b9150611d2d82611cc8565b604082019050919050565b5f6020820190508181035f830152611d4f81611d16565b9050919050565b7f5573756172696f207961206578697374650000000000000000000000000000005f82015250565b5f611d8a60118361185e565b9150611d9582611d56565b602082019050919050565b5f6020820190508181035f830152611db781611d7e565b9050919050565b5f819050815f5260205f209050919050565b5f6020601f8301049050919050565b5f82821b905092915050565b5f60088302611e1a7fffffffffffffffffffffffffffffffffffffffffffffffffffffffffffffffff82611ddf565b611e248683611ddf565b95508019841693508086168417925050509392505050565b5f819050919050565b5f611e5f611e5a611e5584611694565b611e3c565b611694565b9050919050565b5f819050919050565b611e7883611e45565b611e8c611e8482611e66565b848454611deb565b825550505050565b5f90565b611ea0611e94565b611eab818484611e6f565b505050565b5b81811015611ece57611ec35f82611e98565b600181019050611eb1565b5050565b601f821115611f1357611ee481611dbe565b611eed84611dd0565b81016020851015611efc578190505b611f10611f0885611dd0565b830182611eb0565b50505b505050565b5f82821c905092915050565b5f611f335f1984600802611f18565b1980831691505092915050565b5f611f4b8383611f24565b9150826002028217905092915050565b611f6482611634565b67ffffffffffffffff811115611f7d57611f7c61145a565b5b611f878254611c98565b611f92828285611ed2565b5f60209050601f831160018114611fc3575f8415611fb1578287015190505b611fbb8582611f40565b865550612022565b601f198416611fd186611dbe565b5f5b82811015611ff857848901518255600182019150602085019450602081019050611fd3565b868310156120155784890151612011601f891682611f24565b8355505b6001600288020188555050505b505050505050565b7f4e487b71000000000000000000000000000000000000000000000000000000005f52601160045260245ffd5b5f61206182611694565b91507fffffffffffffffffffffffffffffffffffffffffffffffffffffffffffffffff82036120935761209261202a565b5b600182019050919050565b7f5573756172696f206e6f206578697374652c206e6f207365207265616c697a615f8201527f7261206c61206d6f64696669636163696f6e0000000000000000000000000000602082015250565b5f6120f860328361185e565b91506121038261209e565b604082019050919050565b5f6020820190508181035f830152612125816120ec565b9050919050565b7f5573756172696f206e6f206578697374652c206e6f207365207265616c697a615f8201527f7261206c6120656c696d696e6163696f6e000000000000000000000000000000602082015250565b5f61218660318361185e565b91506121918261212c565b604082019050919050565b5f6020820190508181035f8301526121b38161217a565b9050919050565b5f6121c482611694565b91506121cf83611694565b92508282039050818111156121e7576121e661202a565b5b92915050565b7f4e487b71000000000000000000000000000000000000000000000000000000005f52603160045260245ffdfea2646970667358221220559fd7f4a066f3ab4bee56e596129577ddf17c6b4ce5c8c0c340dd45a5a36ec164736f6c634300081a0033",
					"opcodes": "PUSH1 0x80 PUSH1 0x40 MSTORE CALLVALUE DUP1 ISZERO PUSH1 0xE JUMPI PUSH0 DUP1 REVERT JUMPDEST POP CALLER PUSH0 DUP1 PUSH2 0x100 EXP DUP2 SLOAD DUP2 PUSH20 0xFFFFFFFFFFFFFFFFFFFFFFFFFFFFFFFFFFFFFFFF MUL NOT AND SWAP1 DUP4 PUSH20 0xFFFFFFFFFFFFFFFFFFFFFFFFFFFFFFFFFFFFFFFF AND MUL OR SWAP1 SSTORE POP PUSH1 0x1 DUP1 DUP2 SWAP1 SSTORE POP PUSH2 0x2250 DUP1 PUSH2 0x62 PUSH0 CODECOPY PUSH0 RETURN INVALID PUSH1 0x80 PUSH1 0x40 MSTORE CALLVALUE DUP1 ISZERO PUSH2 0xF JUMPI PUSH0 DUP1 REVERT JUMPDEST POP PUSH1 0x4 CALLDATASIZE LT PUSH2 0x60 JUMPI PUSH0 CALLDATALOAD PUSH1 0xE0 SHR DUP1 PUSH4 0x2F19D50B EQ PUSH2 0x64 JUMPI DUP1 PUSH4 0x41C9908C EQ PUSH2 0x94 JUMPI DUP1 PUSH4 0x4EC1B895 EQ PUSH2 0xB2 JUMPI DUP1 PUSH4 0x8E0F1884 EQ PUSH2 0xE6 JUMPI DUP1 PUSH4 0xA202D772 EQ PUSH2 0x102 JUMPI DUP1 PUSH4 0xE90538E3 EQ PUSH2 0x11E JUMPI JUMPDEST PUSH0 DUP1 REVERT JUMPDEST PUSH2 0x7E PUSH1 0x4 DUP1 CALLDATASIZE SUB DUP2 ADD SWAP1 PUSH2 0x79 SWAP2 SWAP1 PUSH2 0x157E JUMP JUMPDEST PUSH2 0x13A JUMP JUMPDEST PUSH1 0x40 MLOAD PUSH2 0x8B SWAP2 SWAP1 PUSH2 0x15F2 JUMP JUMPDEST PUSH1 0x40 MLOAD DUP1 SWAP2 SUB SWAP1 RETURN JUMPDEST PUSH2 0x9C PUSH2 0x2BF JUMP JUMPDEST PUSH1 0x40 MLOAD PUSH2 0xA9 SWAP2 SWAP1 PUSH2 0x1813 JUMP JUMPDEST PUSH1 0x40 MLOAD DUP1 SWAP2 SUB SWAP1 RETURN JUMPDEST PUSH2 0xCC PUSH1 0x4 DUP1 CALLDATASIZE SUB DUP2 ADD SWAP1 PUSH2 0xC7 SWAP2 SWAP1 PUSH2 0x1833 JUMP JUMPDEST PUSH2 0x68A JUMP JUMPDEST PUSH1 0x40 MLOAD PUSH2 0xDD SWAP6 SWAP5 SWAP4 SWAP3 SWAP2 SWAP1 PUSH2 0x18B5 JUMP JUMPDEST PUSH1 0x40 MLOAD DUP1 SWAP2 SUB SWAP1 RETURN JUMPDEST PUSH2 0x100 PUSH1 0x4 DUP1 CALLDATASIZE SUB DUP2 ADD SWAP1 PUSH2 0xFB SWAP2 SWAP1 PUSH2 0x1922 JUMP JUMPDEST PUSH2 0xA7E JUMP JUMPDEST STOP JUMPDEST PUSH2 0x11C PUSH1 0x4 DUP1 CALLDATASIZE SUB DUP2 ADD SWAP1 PUSH2 0x117 SWAP2 SWAP1 PUSH2 0x1A37 JUMP JUMPDEST PUSH2 0xDBD JUMP JUMPDEST STOP JUMPDEST PUSH2 0x138 PUSH1 0x4 DUP1 CALLDATASIZE SUB DUP2 ADD SWAP1 PUSH2 0x133 SWAP2 SWAP1 PUSH2 0x1833 JUMP JUMPDEST PUSH2 0xFA6 JUMP JUMPDEST STOP JUMPDEST PUSH0 DUP1 PUSH20 0xFFFFFFFFFFFFFFFFFFFFFFFFFFFFFFFFFFFFFFFF AND PUSH1 0x2 PUSH0 DUP6 PUSH20 0xFFFFFFFFFFFFFFFFFFFFFFFFFFFFFFFFFFFFFFFF AND PUSH20 0xFFFFFFFFFFFFFFFFFFFFFFFFFFFFFFFFFFFFFFFF AND DUP2 MSTORE PUSH1 0x20 ADD SWAP1 DUP2 MSTORE PUSH1 0x20 ADD PUSH0 KECCAK256 PUSH1 0x5 ADD PUSH0 SWAP1 SLOAD SWAP1 PUSH2 0x100 EXP SWAP1 DIV PUSH20 0xFFFFFFFFFFFFFFFFFFFFFFFFFFFFFFFFFFFFFFFF AND PUSH20 0xFFFFFFFFFFFFFFFFFFFFFFFFFFFFFFFFFFFFFFFF AND SUB PUSH2 0x208 JUMPI PUSH1 0x40 MLOAD PUSH32 0x8C379A000000000000000000000000000000000000000000000000000000000 DUP2 MSTORE PUSH1 0x4 ADD PUSH2 0x1FF SWAP1 PUSH2 0x1B68 JUMP JUMPDEST PUSH1 0x40 MLOAD DUP1 SWAP2 SUB SWAP1 REVERT JUMPDEST PUSH0 DUP3 PUSH1 0x40 MLOAD PUSH1 0x20 ADD PUSH2 0x21A SWAP2 SWAP1 PUSH2 0x1BC0 JUMP JUMPDEST PUSH1 0x40 MLOAD PUSH1 0x20 DUP2 DUP4 SUB SUB DUP2 MSTORE SWAP1 PUSH1 0x40 MSTORE DUP1 MLOAD SWAP1 PUSH1 0x20 ADD KECCAK256 SWAP1 POP PUSH1 0x2 PUSH0 DUP6 PUSH20 0xFFFFFFFFFFFFFFFFFFFFFFFFFFFFFFFFFFFFFFFF AND PUSH20 0xFFFFFFFFFFFFFFFFFFFFFFFFFFFFFFFFFFFFFFFF AND DUP2 MSTORE PUSH1 0x20 ADD SWAP1 DUP2 MSTORE PUSH1 0x20 ADD PUSH0 KECCAK256 PUSH1 0x6 ADD SLOAD DUP2 EQ PUSH2 0x2B4 JUMPI PUSH1 0x40 MLOAD PUSH32 0x8C379A000000000000000000000000000000000000000000000000000000000 DUP2 MSTORE PUSH1 0x4 ADD PUSH2 0x2AB SWAP1 PUSH2 0x1C20 JUMP JUMPDEST PUSH1 0x40 MLOAD DUP1 SWAP2 SUB SWAP1 REVERT JUMPDEST PUSH1 0x1 SWAP2 POP POP SWAP3 SWAP2 POP POP JUMP JUMPDEST PUSH1 0x60 PUSH0 PUSH1 0x3 DUP1 SLOAD SWAP1 POP PUSH8 0xFFFFFFFFFFFFFFFF DUP2 GT ISZERO PUSH2 0x2E1 JUMPI PUSH2 0x2E0 PUSH2 0x145A JUMP JUMPDEST JUMPDEST PUSH1 0x40 MLOAD SWAP1 DUP1 DUP3 MSTORE DUP1 PUSH1 0x20 MUL PUSH1 0x20 ADD DUP3 ADD PUSH1 0x40 MSTORE DUP1 ISZERO PUSH2 0x31A JUMPI DUP2 PUSH1 0x20 ADD JUMPDEST PUSH2 0x307 PUSH2 0x132C JUMP JUMPDEST DUP2 MSTORE PUSH1 0x20 ADD SWAP1 PUSH1 0x1 SWAP1 SUB SWAP1 DUP2 PUSH2 0x2FF JUMPI SWAP1 POP JUMPDEST POP SWAP1 POP PUSH0 JUMPDEST PUSH1 0x3 DUP1 SLOAD SWAP1 POP DUP2 LT ISZERO PUSH2 0x682 JUMPI PUSH1 0x2 PUSH0 PUSH1 0x3 DUP4 DUP2 SLOAD DUP2 LT PUSH2 0x343 JUMPI PUSH2 0x342 PUSH2 0x1C3E JUMP JUMPDEST JUMPDEST SWAP1 PUSH0 MSTORE PUSH1 0x20 PUSH0 KECCAK256 ADD PUSH0 SWAP1 SLOAD SWAP1 PUSH2 0x100 EXP SWAP1 DIV PUSH20 0xFFFFFFFFFFFFFFFFFFFFFFFFFFFFFFFFFFFFFFFF AND PUSH20 0xFFFFFFFFFFFFFFFFFFFFFFFFFFFFFFFFFFFFFFFF AND PUSH20 0xFFFFFFFFFFFFFFFFFFFFFFFFFFFFFFFFFFFFFFFF AND DUP2 MSTORE PUSH1 0x20 ADD SWAP1 DUP2 MSTORE PUSH1 0x20 ADD PUSH0 KECCAK256 PUSH1 0x40 MLOAD DUP1 PUSH1 0xE0 ADD PUSH1 0x40 MSTORE SWAP1 DUP2 PUSH0 DUP3 ADD DUP1 SLOAD PUSH2 0x3BE SWAP1 PUSH2 0x1C98 JUMP JUMPDEST DUP1 PUSH1 0x1F ADD PUSH1 0x20 DUP1 SWAP2 DIV MUL PUSH1 0x20 ADD PUSH1 0x40 MLOAD SWAP1 DUP2 ADD PUSH1 0x40 MSTORE DUP1 SWAP3 SWAP2 SWAP1 DUP2 DUP2 MSTORE PUSH1 0x20 ADD DUP3 DUP1 SLOAD PUSH2 0x3EA SWAP1 PUSH2 0x1C98 JUMP JUMPDEST DUP1 ISZERO PUSH2 0x435 JUMPI DUP1 PUSH1 0x1F LT PUSH2 0x40C JUMPI PUSH2 0x100 DUP1 DUP4 SLOAD DIV MUL DUP4 MSTORE SWAP2 PUSH1 0x20 ADD SWAP2 PUSH2 0x435 JUMP JUMPDEST DUP3 ADD SWAP2 SWAP1 PUSH0 MSTORE PUSH1 0x20 PUSH0 KECCAK256 SWAP1 JUMPDEST DUP2 SLOAD DUP2 MSTORE SWAP1 PUSH1 0x1 ADD SWAP1 PUSH1 0x20 ADD DUP1 DUP4 GT PUSH2 0x418 JUMPI DUP3 SWAP1 SUB PUSH1 0x1F AND DUP3 ADD SWAP2 JUMPDEST POP POP POP POP POP DUP2 MSTORE PUSH1 0x20 ADD PUSH1 0x1 DUP3 ADD DUP1 SLOAD PUSH2 0x44E SWAP1 PUSH2 0x1C98 JUMP JUMPDEST DUP1 PUSH1 0x1F ADD PUSH1 0x20 DUP1 SWAP2 DIV MUL PUSH1 0x20 ADD PUSH1 0x40 MLOAD SWAP1 DUP2 ADD PUSH1 0x40 MSTORE DUP1 SWAP3 SWAP2 SWAP1 DUP2 DUP2 MSTORE PUSH1 0x20 ADD DUP3 DUP1 SLOAD PUSH2 0x47A SWAP1 PUSH2 0x1C98 JUMP JUMPDEST DUP1 ISZERO PUSH2 0x4C5 JUMPI DUP1 PUSH1 0x1F LT PUSH2 0x49C JUMPI PUSH2 0x100 DUP1 DUP4 SLOAD DIV MUL DUP4 MSTORE SWAP2 PUSH1 0x20 ADD SWAP2 PUSH2 0x4C5 JUMP JUMPDEST DUP3 ADD SWAP2 SWAP1 PUSH0 MSTORE PUSH1 0x20 PUSH0 KECCAK256 SWAP1 JUMPDEST DUP2 SLOAD DUP2 MSTORE SWAP1 PUSH1 0x1 ADD SWAP1 PUSH1 0x20 ADD DUP1 DUP4 GT PUSH2 0x4A8 JUMPI DUP3 SWAP1 SUB PUSH1 0x1F AND DUP3 ADD SWAP2 JUMPDEST POP POP POP POP POP DUP2 MSTORE PUSH1 0x20 ADD PUSH1 0x2 DUP3 ADD DUP1 SLOAD PUSH2 0x4DE SWAP1 PUSH2 0x1C98 JUMP JUMPDEST DUP1 PUSH1 0x1F ADD PUSH1 0x20 DUP1 SWAP2 DIV MUL PUSH1 0x20 ADD PUSH1 0x40 MLOAD SWAP1 DUP2 ADD PUSH1 0x40 MSTORE DUP1 SWAP3 SWAP2 SWAP1 DUP2 DUP2 MSTORE PUSH1 0x20 ADD DUP3 DUP1 SLOAD PUSH2 0x50A SWAP1 PUSH2 0x1C98 JUMP JUMPDEST DUP1 ISZERO PUSH2 0x555 JUMPI DUP1 PUSH1 0x1F LT PUSH2 0x52C JUMPI PUSH2 0x100 DUP1 DUP4 SLOAD DIV MUL DUP4 MSTORE SWAP2 PUSH1 0x20 ADD SWAP2 PUSH2 0x555 JUMP JUMPDEST DUP3 ADD SWAP2 SWAP1 PUSH0 MSTORE PUSH1 0x20 PUSH0 KECCAK256 SWAP1 JUMPDEST DUP2 SLOAD DUP2 MSTORE SWAP1 PUSH1 0x1 ADD SWAP1 PUSH1 0x20 ADD DUP1 DUP4 GT PUSH2 0x538 JUMPI DUP3 SWAP1 SUB PUSH1 0x1F AND DUP3 ADD SWAP2 JUMPDEST POP POP POP POP POP DUP2 MSTORE PUSH1 0x20 ADD PUSH1 0x3 DUP3 ADD SLOAD DUP2 MSTORE PUSH1 0x20 ADD PUSH1 0x4 DUP3 ADD DUP1 SLOAD PUSH2 0x578 SWAP1 PUSH2 0x1C98 JUMP JUMPDEST DUP1 PUSH1 0x1F ADD PUSH1 0x20 DUP1 SWAP2 DIV MUL PUSH1 0x20 ADD PUSH1 0x40 MLOAD SWAP1 DUP2 ADD PUSH1 0x40 MSTORE DUP1 SWAP3 SWAP2 SWAP1 DUP2 DUP2 MSTORE PUSH1 0x20 ADD DUP3 DUP1 SLOAD PUSH2 0x5A4 SWAP1 PUSH2 0x1C98 JUMP JUMPDEST DUP1 ISZERO PUSH2 0x5EF JUMPI DUP1 PUSH1 0x1F LT PUSH2 0x5C6 JUMPI PUSH2 0x100 DUP1 DUP4 SLOAD DIV MUL DUP4 MSTORE SWAP2 PUSH1 0x20 ADD SWAP2 PUSH2 0x5EF JUMP JUMPDEST DUP3 ADD SWAP2 SWAP1 PUSH0 MSTORE PUSH1 0x20 PUSH0 KECCAK256 SWAP1 JUMPDEST DUP2 SLOAD DUP2 MSTORE SWAP1 PUSH1 0x1 ADD SWAP1 PUSH1 0x20 ADD DUP1 DUP4 GT PUSH2 0x5D2 JUMPI DUP3 SWAP1 SUB PUSH1 0x1F AND DUP3 ADD SWAP2 JUMPDEST POP POP POP POP POP DUP2 MSTORE PUSH1 0x20 ADD PUSH1 0x5 DUP3 ADD PUSH0 SWAP1 SLOAD SWAP1 PUSH2 0x100 EXP SWAP1 DIV PUSH20 0xFFFFFFFFFFFFFFFFFFFFFFFFFFFFFFFFFFFFFFFF AND PUSH20 0xFFFFFFFFFFFFFFFFFFFFFFFFFFFFFFFFFFFFFFFF AND PUSH20 0xFFFFFFFFFFFFFFFFFFFFFFFFFFFFFFFFFFFFFFFF AND DUP2 MSTORE PUSH1 0x20 ADD PUSH1 0x6 DUP3 ADD SLOAD DUP2 MSTORE POP POP DUP3 DUP3 DUP2 MLOAD DUP2 LT PUSH2 0x66A JUMPI PUSH2 0x669 PUSH2 0x1C3E JUMP JUMPDEST JUMPDEST PUSH1 0x20 MUL PUSH1 0x20 ADD ADD DUP2 SWAP1 MSTORE POP DUP1 DUP1 PUSH1 0x1 ADD SWAP2 POP POP PUSH2 0x31F JUMP JUMPDEST POP DUP1 SWAP2 POP POP SWAP1 JUMP JUMPDEST PUSH1 0x60 DUP1 PUSH1 0x60 PUSH0 PUSH1 0x60 PUSH0 PUSH20 0xFFFFFFFFFFFFFFFFFFFFFFFFFFFFFFFFFFFFFFFF AND PUSH1 0x2 PUSH0 DUP9 PUSH20 0xFFFFFFFFFFFFFFFFFFFFFFFFFFFFFFFFFFFFFFFF AND PUSH20 0xFFFFFFFFFFFFFFFFFFFFFFFFFFFFFFFFFFFFFFFF AND DUP2 MSTORE PUSH1 0x20 ADD SWAP1 DUP2 MSTORE PUSH1 0x20 ADD PUSH0 KECCAK256 PUSH1 0x5 ADD PUSH0 SWAP1 SLOAD SWAP1 PUSH2 0x100 EXP SWAP1 DIV PUSH20 0xFFFFFFFFFFFFFFFFFFFFFFFFFFFFFFFFFFFFFFFF AND PUSH20 0xFFFFFFFFFFFFFFFFFFFFFFFFFFFFFFFFFFFFFFFF AND SUB PUSH2 0x75F JUMPI PUSH1 0x40 MLOAD PUSH32 0x8C379A000000000000000000000000000000000000000000000000000000000 DUP2 MSTORE PUSH1 0x4 ADD PUSH2 0x756 SWAP1 PUSH2 0x1B68 JUMP JUMPDEST PUSH1 0x40 MLOAD DUP1 SWAP2 SUB SWAP1 REVERT JUMPDEST PUSH0 PUSH1 0x2 PUSH0 DUP9 PUSH20 0xFFFFFFFFFFFFFFFFFFFFFFFFFFFFFFFFFFFFFFFF AND PUSH20 0xFFFFFFFFFFFFFFFFFFFFFFFFFFFFFFFFFFFFFFFF AND DUP2 MSTORE PUSH1 0x20 ADD SWAP1 DUP2 MSTORE PUSH1 0x20 ADD PUSH0 KECCAK256 PUSH1 0x40 MLOAD DUP1 PUSH1 0xE0 ADD PUSH1 0x40 MSTORE SWAP1 DUP2 PUSH0 DUP3 ADD DUP1 SLOAD PUSH2 0x7B7 SWAP1 PUSH2 0x1C98 JUMP JUMPDEST DUP1 PUSH1 0x1F ADD PUSH1 0x20 DUP1 SWAP2 DIV MUL PUSH1 0x20 ADD PUSH1 0x40 MLOAD SWAP1 DUP2 ADD PUSH1 0x40 MSTORE DUP1 SWAP3 SWAP2 SWAP1 DUP2 DUP2 MSTORE PUSH1 0x20 ADD DUP3 DUP1 SLOAD PUSH2 0x7E3 SWAP1 PUSH2 0x1C98 JUMP JUMPDEST DUP1 ISZERO PUSH2 0x82E JUMPI DUP1 PUSH1 0x1F LT PUSH2 0x805 JUMPI PUSH2 0x100 DUP1 DUP4 SLOAD DIV MUL DUP4 MSTORE SWAP2 PUSH1 0x20 ADD SWAP2 PUSH2 0x82E JUMP JUMPDEST DUP3 ADD SWAP2 SWAP1 PUSH0 MSTORE PUSH1 0x20 PUSH0 KECCAK256 SWAP1 JUMPDEST DUP2 SLOAD DUP2 MSTORE SWAP1 PUSH1 0x1 ADD SWAP1 PUSH1 0x20 ADD DUP1 DUP4 GT PUSH2 0x811 JUMPI DUP3 SWAP1 SUB PUSH1 0x1F AND DUP3 ADD SWAP2 JUMPDEST POP POP POP POP POP DUP2 MSTORE PUSH1 0x20 ADD PUSH1 0x1 DUP3 ADD DUP1 SLOAD PUSH2 0x847 SWAP1 PUSH2 0x1C98 JUMP JUMPDEST DUP1 PUSH1 0x1F ADD PUSH1 0x20 DUP1 SWAP2 DIV MUL PUSH1 0x20 ADD PUSH1 0x40 MLOAD SWAP1 DUP2 ADD PUSH1 0x40 MSTORE DUP1 SWAP3 SWAP2 SWAP1 DUP2 DUP2 MSTORE PUSH1 0x20 ADD DUP3 DUP1 SLOAD PUSH2 0x873 SWAP1 PUSH2 0x1C98 JUMP JUMPDEST DUP1 ISZERO PUSH2 0x8BE JUMPI DUP1 PUSH1 0x1F LT PUSH2 0x895 JUMPI PUSH2 0x100 DUP1 DUP4 SLOAD DIV MUL DUP4 MSTORE SWAP2 PUSH1 0x20 ADD SWAP2 PUSH2 0x8BE JUMP JUMPDEST DUP3 ADD SWAP2 SWAP1 PUSH0 MSTORE PUSH1 0x20 PUSH0 KECCAK256 SWAP1 JUMPDEST DUP2 SLOAD DUP2 MSTORE SWAP1 PUSH1 0x1 ADD SWAP1 PUSH1 0x20 ADD DUP1 DUP4 GT PUSH2 0x8A1 JUMPI DUP3 SWAP1 SUB PUSH1 0x1F AND DUP3 ADD SWAP2 JUMPDEST POP POP POP POP POP DUP2 MSTORE PUSH1 0x20 ADD PUSH1 0x2 DUP3 ADD DUP1 SLOAD PUSH2 0x8D7 SWAP1 PUSH2 0x1C98 JUMP JUMPDEST DUP1 PUSH1 0x1F ADD PUSH1 0x20 DUP1 SWAP2 DIV MUL PUSH1 0x20 ADD PUSH1 0x40 MLOAD SWAP1 DUP2 ADD PUSH1 0x40 MSTORE DUP1 SWAP3 SWAP2 SWAP1 DUP2 DUP2 MSTORE PUSH1 0x20 ADD DUP3 DUP1 SLOAD PUSH2 0x903 SWAP1 PUSH2 0x1C98 JUMP JUMPDEST DUP1 ISZERO PUSH2 0x94E JUMPI DUP1 PUSH1 0x1F LT PUSH2 0x925 JUMPI PUSH2 0x100 DUP1 DUP4 SLOAD DIV MUL DUP4 MSTORE SWAP2 PUSH1 0x20 ADD SWAP2 PUSH2 0x94E JUMP JUMPDEST DUP3 ADD SWAP2 SWAP1 PUSH0 MSTORE PUSH1 0x20 PUSH0 KECCAK256 SWAP1 JUMPDEST DUP2 SLOAD DUP2 MSTORE SWAP1 PUSH1 0x1 ADD SWAP1 PUSH1 0x20 ADD DUP1 DUP4 GT PUSH2 0x931 JUMPI DUP3 SWAP1 SUB PUSH1 0x1F AND DUP3 ADD SWAP2 JUMPDEST POP POP POP POP POP DUP2 MSTORE PUSH1 0x20 ADD PUSH1 0x3 DUP3 ADD SLOAD DUP2 MSTORE PUSH1 0x20 ADD PUSH1 0x4 DUP3 ADD DUP1 SLOAD PUSH2 0x971 SWAP1 PUSH2 0x1C98 JUMP JUMPDEST DUP1 PUSH1 0x1F ADD PUSH1 0x20 DUP1 SWAP2 DIV MUL PUSH1 0x20 ADD PUSH1 0x40 MLOAD SWAP1 DUP2 ADD PUSH1 0x40 MSTORE DUP1 SWAP3 SWAP2 SWAP1 DUP2 DUP2 MSTORE PUSH1 0x20 ADD DUP3 DUP1 SLOAD PUSH2 0x99D SWAP1 PUSH2 0x1C98 JUMP JUMPDEST DUP1 ISZERO PUSH2 0x9E8 JUMPI DUP1 PUSH1 0x1F LT PUSH2 0x9BF JUMPI PUSH2 0x100 DUP1 DUP4 SLOAD DIV MUL DUP4 MSTORE SWAP2 PUSH1 0x20 ADD SWAP2 PUSH2 0x9E8 JUMP JUMPDEST DUP3 ADD SWAP2 SWAP1 PUSH0 MSTORE PUSH1 0x20 PUSH0 KECCAK256 SWAP1 JUMPDEST DUP2 SLOAD DUP2 MSTORE SWAP1 PUSH1 0x1 ADD SWAP1 PUSH1 0x20 ADD DUP1 DUP4 GT PUSH2 0x9CB JUMPI DUP3 SWAP1 SUB PUSH1 0x1F AND DUP3 ADD SWAP2 JUMPDEST POP POP POP POP POP DUP2 MSTORE PUSH1 0x20 ADD PUSH1 0x5 DUP3 ADD PUSH0 SWAP1 SLOAD SWAP1 PUSH2 0x100 EXP SWAP1 DIV PUSH20 0xFFFFFFFFFFFFFFFFFFFFFFFFFFFFFFFFFFFFFFFF AND PUSH20 0xFFFFFFFFFFFFFFFFFFFFFFFFFFFFFFFFFFFFFFFF AND PUSH20 0xFFFFFFFFFFFFFFFFFFFFFFFFFFFFFFFFFFFFFFFF AND DUP2 MSTORE PUSH1 0x20 ADD PUSH1 0x6 DUP3 ADD SLOAD DUP2 MSTORE POP POP SWAP1 POP DUP1 PUSH0 ADD MLOAD DUP2 PUSH1 0x20 ADD MLOAD DUP3 PUSH1 0x40 ADD MLOAD DUP4 PUSH1 0x60 ADD MLOAD DUP5 PUSH1 0x80 ADD MLOAD SWAP6 POP SWAP6 POP SWAP6 POP SWAP6 POP SWAP6 POP POP SWAP2 SWAP4 SWAP6 SWAP1 SWAP3 SWAP5 POP JUMP JUMPDEST PUSH0 DUP1 SLOAD SWAP1 PUSH2 0x100 EXP SWAP1 DIV PUSH20 0xFFFFFFFFFFFFFFFFFFFFFFFFFFFFFFFFFFFFFFFF AND PUSH20 0xFFFFFFFFFFFFFFFFFFFFFFFFFFFFFFFFFFFFFFFF AND CALLER PUSH20 0xFFFFFFFFFFFFFFFFFFFFFFFFFFFFFFFFFFFFFFFF AND EQ PUSH2 0xB0B JUMPI PUSH1 0x40 MLOAD PUSH32 0x8C379A000000000000000000000000000000000000000000000000000000000 DUP2 MSTORE PUSH1 0x4 ADD PUSH2 0xB02 SWAP1 PUSH2 0x1D38 JUMP JUMPDEST PUSH1 0x40 MLOAD DUP1 SWAP2 SUB SWAP1 REVERT JUMPDEST PUSH0 PUSH20 0xFFFFFFFFFFFFFFFFFFFFFFFFFFFFFFFFFFFFFFFF AND PUSH1 0x2 PUSH0 DUP5 PUSH20 0xFFFFFFFFFFFFFFFFFFFFFFFFFFFFFFFFFFFFFFFF AND PUSH20 0xFFFFFFFFFFFFFFFFFFFFFFFFFFFFFFFFFFFFFFFF AND DUP2 MSTORE PUSH1 0x20 ADD SWAP1 DUP2 MSTORE PUSH1 0x20 ADD PUSH0 KECCAK256 PUSH1 0x5 ADD PUSH0 SWAP1 SLOAD SWAP1 PUSH2 0x100 EXP SWAP1 DIV PUSH20 0xFFFFFFFFFFFFFFFFFFFFFFFFFFFFFFFFFFFFFFFF AND PUSH20 0xFFFFFFFFFFFFFFFFFFFFFFFFFFFFFFFFFFFFFFFF AND EQ PUSH2 0xBD8 JUMPI PUSH1 0x40 MLOAD PUSH32 0x8C379A000000000000000000000000000000000000000000000000000000000 DUP2 MSTORE PUSH1 0x4 ADD PUSH2 0xBCF SWAP1 PUSH2 0x1DA0 JUMP JUMPDEST PUSH1 0x40 MLOAD DUP1 SWAP2 SUB SWAP1 REVERT JUMPDEST PUSH0 DUP2 PUSH1 0x40 MLOAD PUSH1 0x20 ADD PUSH2 0xBEA SWAP2 SWAP1 PUSH2 0x1BC0 JUMP JUMPDEST PUSH1 0x40 MLOAD PUSH1 0x20 DUP2 DUP4 SUB SUB DUP2 MSTORE SWAP1 PUSH1 0x40 MSTORE DUP1 MLOAD SWAP1 PUSH1 0x20 ADD KECCAK256 SWAP1 POP PUSH1 0x40 MLOAD DUP1 PUSH1 0xE0 ADD PUSH1 0x40 MSTORE DUP1 DUP9 DUP2 MSTORE PUSH1 0x20 ADD DUP8 DUP2 MSTORE PUSH1 0x20 ADD DUP7 DUP2 MSTORE PUSH1 0x20 ADD PUSH1 0x1 SLOAD DUP2 MSTORE PUSH1 0x20 ADD DUP6 DUP2 MSTORE PUSH1 0x20 ADD DUP5 PUSH20 0xFFFFFFFFFFFFFFFFFFFFFFFFFFFFFFFFFFFFFFFF AND DUP2 MSTORE PUSH1 0x20 ADD DUP3 DUP2 MSTORE POP PUSH1 0x2 PUSH0 DUP6 PUSH20 0xFFFFFFFFFFFFFFFFFFFFFFFFFFFFFFFFFFFFFFFF AND PUSH20 0xFFFFFFFFFFFFFFFFFFFFFFFFFFFFFFFFFFFFFFFF AND DUP2 MSTORE PUSH1 0x20 ADD SWAP1 DUP2 MSTORE PUSH1 0x20 ADD PUSH0 KECCAK256 PUSH0 DUP3 ADD MLOAD DUP2 PUSH0 ADD SWAP1 DUP2 PUSH2 0xC9D SWAP2 SWAP1 PUSH2 0x1F5B JUMP JUMPDEST POP PUSH1 0x20 DUP3 ADD MLOAD DUP2 PUSH1 0x1 ADD SWAP1 DUP2 PUSH2 0xCB3 SWAP2 SWAP1 PUSH2 0x1F5B JUMP JUMPDEST POP PUSH1 0x40 DUP3 ADD MLOAD DUP2 PUSH1 0x2 ADD SWAP1 DUP2 PUSH2 0xCC9 SWAP2 SWAP1 PUSH2 0x1F5B JUMP JUMPDEST POP PUSH1 0x60 DUP3 ADD MLOAD DUP2 PUSH1 0x3 ADD SSTORE PUSH1 0x80 DUP3 ADD MLOAD DUP2 PUSH1 0x4 ADD SWAP1 DUP2 PUSH2 0xCE9 SWAP2 SWAP1 PUSH2 0x1F5B JUMP JUMPDEST POP PUSH1 0xA0 DUP3 ADD MLOAD DUP2 PUSH1 0x5 ADD PUSH0 PUSH2 0x100 EXP DUP2 SLOAD DUP2 PUSH20 0xFFFFFFFFFFFFFFFFFFFFFFFFFFFFFFFFFFFFFFFF MUL NOT AND SWAP1 DUP4 PUSH20 0xFFFFFFFFFFFFFFFFFFFFFFFFFFFFFFFFFFFFFFFF AND MUL OR SWAP1 SSTORE POP PUSH1 0xC0 DUP3 ADD MLOAD DUP2 PUSH1 0x6 ADD SSTORE SWAP1 POP POP PUSH1 0x3 DUP4 SWAP1 DUP1 PUSH1 0x1 DUP2 SLOAD ADD DUP1 DUP3 SSTORE DUP1 SWAP2 POP POP PUSH1 0x1 SWAP1 SUB SWAP1 PUSH0 MSTORE PUSH1 0x20 PUSH0 KECCAK256 ADD PUSH0 SWAP1 SWAP2 SWAP1 SWAP2 SWAP1 SWAP2 PUSH2 0x100 EXP DUP2 SLOAD DUP2 PUSH20 0xFFFFFFFFFFFFFFFFFFFFFFFFFFFFFFFFFFFFFFFF MUL NOT AND SWAP1 DUP4 PUSH20 0xFFFFFFFFFFFFFFFFFFFFFFFFFFFFFFFFFFFFFFFF AND MUL OR SWAP1 SSTORE POP PUSH1 0x1 PUSH0 DUP2 SLOAD DUP1 SWAP3 SWAP2 SWAP1 PUSH2 0xDAF SWAP1 PUSH2 0x2057 JUMP JUMPDEST SWAP2 SWAP1 POP SSTORE POP POP POP POP POP POP POP POP JUMP JUMPDEST PUSH0 DUP1 SLOAD SWAP1 PUSH2 0x100 EXP SWAP1 DIV PUSH20 0xFFFFFFFFFFFFFFFFFFFFFFFFFFFFFFFFFFFFFFFF AND PUSH20 0xFFFFFFFFFFFFFFFFFFFFFFFFFFFFFFFFFFFFFFFF AND CALLER PUSH20 0xFFFFFFFFFFFFFFFFFFFFFFFFFFFFFFFFFFFFFFFF AND EQ PUSH2 0xE4A JUMPI PUSH1 0x40 MLOAD PUSH32 0x8C379A000000000000000000000000000000000000000000000000000000000 DUP2 MSTORE PUSH1 0x4 ADD PUSH2 0xE41 SWAP1 PUSH2 0x1D38 JUMP JUMPDEST PUSH1 0x40 MLOAD DUP1 SWAP2 SUB SWAP1 REVERT JUMPDEST PUSH0 PUSH20 0xFFFFFFFFFFFFFFFFFFFFFFFFFFFFFFFFFFFFFFFF AND PUSH1 0x2 PUSH0 DUP8 PUSH20 0xFFFFFFFFFFFFFFFFFFFFFFFFFFFFFFFFFFFFFFFF AND PUSH20 0xFFFFFFFFFFFFFFFFFFFFFFFFFFFFFFFFFFFFFFFF AND DUP2 MSTORE PUSH1 0x20 ADD SWAP1 DUP2 MSTORE PUSH1 0x20 ADD PUSH0 KECCAK256 PUSH1 0x5 ADD PUSH0 SWAP1 SLOAD SWAP1 PUSH2 0x100 EXP SWAP1 DIV PUSH20 0xFFFFFFFFFFFFFFFFFFFFFFFFFFFFFFFFFFFFFFFF AND PUSH20 0xFFFFFFFFFFFFFFFFFFFFFFFFFFFFFFFFFFFFFFFF AND SUB PUSH2 0xF17 JUMPI PUSH1 0x40 MLOAD PUSH32 0x8C379A000000000000000000000000000000000000000000000000000000000 DUP2 MSTORE PUSH1 0x4 ADD PUSH2 0xF0E SWAP1 PUSH2 0x210E JUMP JUMPDEST PUSH1 0x40 MLOAD DUP1 SWAP2 SUB SWAP1 REVERT JUMPDEST PUSH0 PUSH1 0x2 PUSH0 DUP8 PUSH20 0xFFFFFFFFFFFFFFFFFFFFFFFFFFFFFFFFFFFFFFFF AND PUSH20 0xFFFFFFFFFFFFFFFFFFFFFFFFFFFFFFFFFFFFFFFF AND DUP2 MSTORE PUSH1 0x20 ADD SWAP1 DUP2 MSTORE PUSH1 0x20 ADD PUSH0 KECCAK256 SWAP1 POP DUP5 DUP2 PUSH0 ADD SWAP1 DUP2 PUSH2 0xF67 SWAP2 SWAP1 PUSH2 0x1F5B JUMP JUMPDEST POP DUP4 DUP2 PUSH1 0x1 ADD SWAP1 DUP2 PUSH2 0xF79 SWAP2 SWAP1 PUSH2 0x1F5B JUMP JUMPDEST POP DUP3 DUP2 PUSH1 0x2 ADD SWAP1 DUP2 PUSH2 0xF8B SWAP2 SWAP1 PUSH2 0x1F5B JUMP JUMPDEST POP DUP2 DUP2 PUSH1 0x4 ADD SWAP1 DUP2 PUSH2 0xF9D SWAP2 SWAP1 PUSH2 0x1F5B JUMP JUMPDEST POP POP POP POP POP POP POP JUMP JUMPDEST PUSH0 DUP1 SLOAD SWAP1 PUSH2 0x100 EXP SWAP1 DIV PUSH20 0xFFFFFFFFFFFFFFFFFFFFFFFFFFFFFFFFFFFFFFFF AND PUSH20 0xFFFFFFFFFFFFFFFFFFFFFFFFFFFFFFFFFFFFFFFF AND CALLER PUSH20 0xFFFFFFFFFFFFFFFFFFFFFFFFFFFFFFFFFFFFFFFF AND EQ PUSH2 0x1033 JUMPI PUSH1 0x40 MLOAD PUSH32 0x8C379A000000000000000000000000000000000000000000000000000000000 DUP2 MSTORE PUSH1 0x4 ADD PUSH2 0x102A SWAP1 PUSH2 0x1D38 JUMP JUMPDEST PUSH1 0x40 MLOAD DUP1 SWAP2 SUB SWAP1 REVERT JUMPDEST PUSH0 PUSH20 0xFFFFFFFFFFFFFFFFFFFFFFFFFFFFFFFFFFFFFFFF AND PUSH1 0x2 PUSH0 DUP4 PUSH20 0xFFFFFFFFFFFFFFFFFFFFFFFFFFFFFFFFFFFFFFFF AND PUSH20 0xFFFFFFFFFFFFFFFFFFFFFFFFFFFFFFFFFFFFFFFF AND DUP2 MSTORE PUSH1 0x20 ADD SWAP1 DUP2 MSTORE PUSH1 0x20 ADD PUSH0 KECCAK256 PUSH1 0x5 ADD PUSH0 SWAP1 SLOAD SWAP1 PUSH2 0x100 EXP SWAP1 DIV PUSH20 0xFFFFFFFFFFFFFFFFFFFFFFFFFFFFFFFFFFFFFFFF AND PUSH20 0xFFFFFFFFFFFFFFFFFFFFFFFFFFFFFFFFFFFFFFFF AND SUB PUSH2 0x1100 JUMPI PUSH1 0x40 MLOAD PUSH32 0x8C379A000000000000000000000000000000000000000000000000000000000 DUP2 MSTORE PUSH1 0x4 ADD PUSH2 0x10F7 SWAP1 PUSH2 0x219C JUMP JUMPDEST PUSH1 0x40 MLOAD DUP1 SWAP2 SUB SWAP1 REVERT JUMPDEST PUSH1 0x2 PUSH0 DUP3 PUSH20 0xFFFFFFFFFFFFFFFFFFFFFFFFFFFFFFFFFFFFFFFF AND PUSH20 0xFFFFFFFFFFFFFFFFFFFFFFFFFFFFFFFFFFFFFFFF AND DUP2 MSTORE PUSH1 0x20 ADD SWAP1 DUP2 MSTORE PUSH1 0x20 ADD PUSH0 KECCAK256 PUSH0 DUP1 DUP3 ADD PUSH0 PUSH2 0x114C SWAP2 SWAP1 PUSH2 0x137F JUMP JUMPDEST PUSH1 0x1 DUP3 ADD PUSH0 PUSH2 0x115B SWAP2 SWAP1 PUSH2 0x137F JUMP JUMPDEST PUSH1 0x2 DUP3 ADD PUSH0 PUSH2 0x116A SWAP2 SWAP1 PUSH2 0x137F JUMP JUMPDEST PUSH1 0x3 DUP3 ADD PUSH0 SWAP1 SSTORE PUSH1 0x4 DUP3 ADD PUSH0 PUSH2 0x1180 SWAP2 SWAP1 PUSH2 0x137F JUMP JUMPDEST PUSH1 0x5 DUP3 ADD PUSH0 PUSH2 0x100 EXP DUP2 SLOAD SWAP1 PUSH20 0xFFFFFFFFFFFFFFFFFFFFFFFFFFFFFFFFFFFFFFFF MUL NOT AND SWAP1 SSTORE PUSH1 0x6 DUP3 ADD PUSH0 SWAP1 SSTORE POP POP PUSH0 JUMPDEST PUSH1 0x3 DUP1 SLOAD SWAP1 POP DUP2 LT ISZERO PUSH2 0x1328 JUMPI DUP2 PUSH20 0xFFFFFFFFFFFFFFFFFFFFFFFFFFFFFFFFFFFFFFFF AND PUSH1 0x3 DUP3 DUP2 SLOAD DUP2 LT PUSH2 0x11E9 JUMPI PUSH2 0x11E8 PUSH2 0x1C3E JUMP JUMPDEST JUMPDEST SWAP1 PUSH0 MSTORE PUSH1 0x20 PUSH0 KECCAK256 ADD PUSH0 SWAP1 SLOAD SWAP1 PUSH2 0x100 EXP SWAP1 DIV PUSH20 0xFFFFFFFFFFFFFFFFFFFFFFFFFFFFFFFFFFFFFFFF AND PUSH20 0xFFFFFFFFFFFFFFFFFFFFFFFFFFFFFFFFFFFFFFFF AND SUB PUSH2 0x131B JUMPI PUSH1 0x3 PUSH1 0x1 PUSH1 0x3 DUP1 SLOAD SWAP1 POP PUSH2 0x1240 SWAP2 SWAP1 PUSH2 0x21BA JUMP JUMPDEST DUP2 SLOAD DUP2 LT PUSH2 0x1251 JUMPI PUSH2 0x1250 PUSH2 0x1C3E JUMP JUMPDEST JUMPDEST SWAP1 PUSH0 MSTORE PUSH1 0x20 PUSH0 KECCAK256 ADD PUSH0 SWAP1 SLOAD SWAP1 PUSH2 0x100 EXP SWAP1 DIV PUSH20 0xFFFFFFFFFFFFFFFFFFFFFFFFFFFFFFFFFFFFFFFF AND PUSH1 0x3 DUP3 DUP2 SLOAD DUP2 LT PUSH2 0x128D JUMPI PUSH2 0x128C PUSH2 0x1C3E JUMP JUMPDEST JUMPDEST SWAP1 PUSH0 MSTORE PUSH1 0x20 PUSH0 KECCAK256 ADD PUSH0 PUSH2 0x100 EXP DUP2 SLOAD DUP2 PUSH20 0xFFFFFFFFFFFFFFFFFFFFFFFFFFFFFFFFFFFFFFFF MUL NOT AND SWAP1 DUP4 PUSH20 0xFFFFFFFFFFFFFFFFFFFFFFFFFFFFFFFFFFFFFFFF AND MUL OR SWAP1 SSTORE POP PUSH1 0x3 DUP1 SLOAD DUP1 PUSH2 0x12E4 JUMPI PUSH2 0x12E3 PUSH2 0x21ED JUMP JUMPDEST JUMPDEST PUSH1 0x1 SWAP1 SUB DUP2 DUP2 SWAP1 PUSH0 MSTORE PUSH1 0x20 PUSH0 KECCAK256 ADD PUSH0 PUSH2 0x100 EXP DUP2 SLOAD SWAP1 PUSH20 0xFFFFFFFFFFFFFFFFFFFFFFFFFFFFFFFFFFFFFFFF MUL NOT AND SWAP1 SSTORE SWAP1 SSTORE PUSH2 0x1328 JUMP JUMPDEST DUP1 DUP1 PUSH1 0x1 ADD SWAP2 POP POP PUSH2 0x11B1 JUMP JUMPDEST POP POP JUMP JUMPDEST PUSH1 0x40 MLOAD DUP1 PUSH1 0xE0 ADD PUSH1 0x40 MSTORE DUP1 PUSH1 0x60 DUP2 MSTORE PUSH1 0x20 ADD PUSH1 0x60 DUP2 MSTORE PUSH1 0x20 ADD PUSH1 0x60 DUP2 MSTORE PUSH1 0x20 ADD PUSH0 DUP2 MSTORE PUSH1 0x20 ADD PUSH1 0x60 DUP2 MSTORE PUSH1 0x20 ADD PUSH0 PUSH20 0xFFFFFFFFFFFFFFFFFFFFFFFFFFFFFFFFFFFFFFFF AND DUP2 MSTORE PUSH1 0x20 ADD PUSH0 DUP1 NOT AND DUP2 MSTORE POP SWAP1 JUMP JUMPDEST POP DUP1 SLOAD PUSH2 0x138B SWAP1 PUSH2 0x1C98 JUMP JUMPDEST PUSH0 DUP3 SSTORE DUP1 PUSH1 0x1F LT PUSH2 0x139C JUMPI POP PUSH2 0x13B9 JUMP JUMPDEST PUSH1 0x1F ADD PUSH1 0x20 SWAP1 DIV SWAP1 PUSH0 MSTORE PUSH1 0x20 PUSH0 KECCAK256 SWAP1 DUP2 ADD SWAP1 PUSH2 0x13B8 SWAP2 SWAP1 PUSH2 0x13BC JUMP JUMPDEST JUMPDEST POP JUMP JUMPDEST JUMPDEST DUP1 DUP3 GT ISZERO PUSH2 0x13D3 JUMPI PUSH0 DUP2 PUSH0 SWAP1 SSTORE POP PUSH1 0x1 ADD PUSH2 0x13BD JUMP JUMPDEST POP SWAP1 JUMP JUMPDEST PUSH0 PUSH1 0x40 MLOAD SWAP1 POP SWAP1 JUMP JUMPDEST PUSH0 DUP1 REVERT JUMPDEST PUSH0 DUP1 REVERT JUMPDEST PUSH0 PUSH20 0xFFFFFFFFFFFFFFFFFFFFFFFFFFFFFFFFFFFFFFFF DUP3 AND SWAP1 POP SWAP2 SWAP1 POP JUMP JUMPDEST PUSH0 PUSH2 0x1411 DUP3 PUSH2 0x13E8 JUMP JUMPDEST SWAP1 POP SWAP2 SWAP1 POP JUMP JUMPDEST PUSH2 0x1421 DUP2 PUSH2 0x1407 JUMP JUMPDEST DUP2 EQ PUSH2 0x142B JUMPI PUSH0 DUP1 REVERT JUMPDEST POP JUMP JUMPDEST PUSH0 DUP2 CALLDATALOAD SWAP1 POP PUSH2 0x143C DUP2 PUSH2 0x1418 JUMP JUMPDEST SWAP3 SWAP2 POP POP JUMP JUMPDEST PUSH0 DUP1 REVERT JUMPDEST PUSH0 DUP1 REVERT JUMPDEST PUSH0 PUSH1 0x1F NOT PUSH1 0x1F DUP4 ADD AND SWAP1 POP SWAP2 SWAP1 POP JUMP JUMPDEST PUSH32 0x4E487B7100000000000000000000000000000000000000000000000000000000 PUSH0 MSTORE PUSH1 0x41 PUSH1 0x4 MSTORE PUSH1 0x24 PUSH0 REVERT JUMPDEST PUSH2 0x1490 DUP3 PUSH2 0x144A JUMP JUMPDEST DUP2 ADD DUP2 DUP2 LT PUSH8 0xFFFFFFFFFFFFFFFF DUP3 GT OR ISZERO PUSH2 0x14AF JUMPI PUSH2 0x14AE PUSH2 0x145A JUMP JUMPDEST JUMPDEST DUP1 PUSH1 0x40 MSTORE POP POP POP JUMP JUMPDEST PUSH0 PUSH2 0x14C1 PUSH2 0x13D7 JUMP JUMPDEST SWAP1 POP PUSH2 0x14CD DUP3 DUP3 PUSH2 0x1487 JUMP JUMPDEST SWAP2 SWAP1 POP JUMP JUMPDEST PUSH0 PUSH8 0xFFFFFFFFFFFFFFFF DUP3 GT ISZERO PUSH2 0x14EC JUMPI PUSH2 0x14EB PUSH2 0x145A JUMP JUMPDEST JUMPDEST PUSH2 0x14F5 DUP3 PUSH2 0x144A JUMP JUMPDEST SWAP1 POP PUSH1 0x20 DUP2 ADD SWAP1 POP SWAP2 SWAP1 POP JUMP JUMPDEST DUP3 DUP2 DUP4 CALLDATACOPY PUSH0 DUP4 DUP4 ADD MSTORE POP POP POP JUMP JUMPDEST PUSH0 PUSH2 0x1522 PUSH2 0x151D DUP5 PUSH2 0x14D2 JUMP JUMPDEST PUSH2 0x14B8 JUMP JUMPDEST SWAP1 POP DUP3 DUP2 MSTORE PUSH1 0x20 DUP2 ADD DUP5 DUP5 DUP5 ADD GT ISZERO PUSH2 0x153E JUMPI PUSH2 0x153D PUSH2 0x1446 JUMP JUMPDEST JUMPDEST PUSH2 0x1549 DUP5 DUP3 DUP6 PUSH2 0x1502 JUMP JUMPDEST POP SWAP4 SWAP3 POP POP POP JUMP JUMPDEST PUSH0 DUP3 PUSH1 0x1F DUP4 ADD SLT PUSH2 0x1565 JUMPI PUSH2 0x1564 PUSH2 0x1442 JUMP JUMPDEST JUMPDEST DUP2 CALLDATALOAD PUSH2 0x1575 DUP5 DUP3 PUSH1 0x20 DUP7 ADD PUSH2 0x1510 JUMP JUMPDEST SWAP2 POP POP SWAP3 SWAP2 POP POP JUMP JUMPDEST PUSH0 DUP1 PUSH1 0x40 DUP4 DUP6 SUB SLT ISZERO PUSH2 0x1594 JUMPI PUSH2 0x1593 PUSH2 0x13E0 JUMP JUMPDEST JUMPDEST PUSH0 PUSH2 0x15A1 DUP6 DUP3 DUP7 ADD PUSH2 0x142E JUMP JUMPDEST SWAP3 POP POP PUSH1 0x20 DUP4 ADD CALLDATALOAD PUSH8 0xFFFFFFFFFFFFFFFF DUP2 GT ISZERO PUSH2 0x15C2 JUMPI PUSH2 0x15C1 PUSH2 0x13E4 JUMP JUMPDEST JUMPDEST PUSH2 0x15CE DUP6 DUP3 DUP7 ADD PUSH2 0x1551 JUMP JUMPDEST SWAP2 POP POP SWAP3 POP SWAP3 SWAP1 POP JUMP JUMPDEST PUSH0 DUP2 ISZERO ISZERO SWAP1 POP SWAP2 SWAP1 POP JUMP JUMPDEST PUSH2 0x15EC DUP2 PUSH2 0x15D8 JUMP JUMPDEST DUP3 MSTORE POP POP JUMP JUMPDEST PUSH0 PUSH1 0x20 DUP3 ADD SWAP1 POP PUSH2 0x1605 PUSH0 DUP4 ADD DUP5 PUSH2 0x15E3 JUMP JUMPDEST SWAP3 SWAP2 POP POP JUMP JUMPDEST PUSH0 DUP2 MLOAD SWAP1 POP SWAP2 SWAP1 POP JUMP JUMPDEST PUSH0 DUP3 DUP3 MSTORE PUSH1 0x20 DUP3 ADD SWAP1 POP SWAP3 SWAP2 POP POP JUMP JUMPDEST PUSH0 DUP2 SWAP1 POP PUSH1 0x20 DUP3 ADD SWAP1 POP SWAP2 SWAP1 POP JUMP JUMPDEST PUSH0 DUP2 MLOAD SWAP1 POP SWAP2 SWAP1 POP JUMP JUMPDEST PUSH0 DUP3 DUP3 MSTORE PUSH1 0x20 DUP3 ADD SWAP1 POP SWAP3 SWAP2 POP POP JUMP JUMPDEST DUP3 DUP2 DUP4 MCOPY PUSH0 DUP4 DUP4 ADD MSTORE POP POP POP JUMP JUMPDEST PUSH0 PUSH2 0x1666 DUP3 PUSH2 0x1634 JUMP JUMPDEST PUSH2 0x1670 DUP2 DUP6 PUSH2 0x163E JUMP JUMPDEST SWAP4 POP PUSH2 0x1680 DUP2 DUP6 PUSH1 0x20 DUP7 ADD PUSH2 0x164E JUMP JUMPDEST PUSH2 0x1689 DUP2 PUSH2 0x144A JUMP JUMPDEST DUP5 ADD SWAP2 POP POP SWAP3 SWAP2 POP POP JUMP JUMPDEST PUSH0 DUP2 SWAP1 POP SWAP2 SWAP1 POP JUMP JUMPDEST PUSH2 0x16A6 DUP2 PUSH2 0x1694 JUMP JUMPDEST DUP3 MSTORE POP POP JUMP JUMPDEST PUSH2 0x16B5 DUP2 PUSH2 0x1407 JUMP JUMPDEST DUP3 MSTORE POP POP JUMP JUMPDEST PUSH0 DUP2 SWAP1 POP SWAP2 SWAP1 POP JUMP JUMPDEST PUSH2 0x16CD DUP2 PUSH2 0x16BB JUMP JUMPDEST DUP3 MSTORE POP POP JUMP JUMPDEST PUSH0 PUSH1 0xE0 DUP4 ADD PUSH0 DUP4 ADD MLOAD DUP5 DUP3 SUB PUSH0 DUP7 ADD MSTORE PUSH2 0x16ED DUP3 DUP3 PUSH2 0x165C JUMP JUMPDEST SWAP2 POP POP PUSH1 0x20 DUP4 ADD MLOAD DUP5 DUP3 SUB PUSH1 0x20 DUP7 ADD MSTORE PUSH2 0x1707 DUP3 DUP3 PUSH2 0x165C JUMP JUMPDEST SWAP2 POP POP PUSH1 0x40 DUP4 ADD MLOAD DUP5 DUP3 SUB PUSH1 0x40 DUP7 ADD MSTORE PUSH2 0x1721 DUP3 DUP3 PUSH2 0x165C JUMP JUMPDEST SWAP2 POP POP PUSH1 0x60 DUP4 ADD MLOAD PUSH2 0x1736 PUSH1 0x60 DUP7 ADD DUP3 PUSH2 0x169D JUMP JUMPDEST POP PUSH1 0x80 DUP4 ADD MLOAD DUP5 DUP3 SUB PUSH1 0x80 DUP7 ADD MSTORE PUSH2 0x174E DUP3 DUP3 PUSH2 0x165C JUMP JUMPDEST SWAP2 POP POP PUSH1 0xA0 DUP4 ADD MLOAD PUSH2 0x1763 PUSH1 0xA0 DUP7 ADD DUP3 PUSH2 0x16AC JUMP JUMPDEST POP PUSH1 0xC0 DUP4 ADD MLOAD PUSH2 0x1776 PUSH1 0xC0 DUP7 ADD DUP3 PUSH2 0x16C4 JUMP JUMPDEST POP DUP1 SWAP2 POP POP SWAP3 SWAP2 POP POP JUMP JUMPDEST PUSH0 PUSH2 0x178C DUP4 DUP4 PUSH2 0x16D3 JUMP JUMPDEST SWAP1 POP SWAP3 SWAP2 POP POP JUMP JUMPDEST PUSH0 PUSH1 0x20 DUP3 ADD SWAP1 POP SWAP2 SWAP1 POP JUMP JUMPDEST PUSH0 PUSH2 0x17AA DUP3 PUSH2 0x160B JUMP JUMPDEST PUSH2 0x17B4 DUP2 DUP6 PUSH2 0x1615 JUMP JUMPDEST SWAP4 POP DUP4 PUSH1 0x20 DUP3 MUL DUP6 ADD PUSH2 0x17C6 DUP6 PUSH2 0x1625 JUMP JUMPDEST DUP1 PUSH0 JUMPDEST DUP6 DUP2 LT ISZERO PUSH2 0x1801 JUMPI DUP5 DUP5 SUB DUP10 MSTORE DUP2 MLOAD PUSH2 0x17E2 DUP6 DUP3 PUSH2 0x1781 JUMP JUMPDEST SWAP5 POP PUSH2 0x17ED DUP4 PUSH2 0x1794 JUMP JUMPDEST SWAP3 POP PUSH1 0x20 DUP11 ADD SWAP10 POP POP PUSH1 0x1 DUP2 ADD SWAP1 POP PUSH2 0x17C9 JUMP JUMPDEST POP DUP3 SWAP8 POP DUP8 SWAP6 POP POP POP POP POP POP SWAP3 SWAP2 POP POP JUMP JUMPDEST PUSH0 PUSH1 0x20 DUP3 ADD SWAP1 POP DUP2 DUP2 SUB PUSH0 DUP4 ADD MSTORE PUSH2 0x182B DUP2 DUP5 PUSH2 0x17A0 JUMP JUMPDEST SWAP1 POP SWAP3 SWAP2 POP POP JUMP JUMPDEST PUSH0 PUSH1 0x20 DUP3 DUP5 SUB SLT ISZERO PUSH2 0x1848 JUMPI PUSH2 0x1847 PUSH2 0x13E0 JUMP JUMPDEST JUMPDEST PUSH0 PUSH2 0x1855 DUP5 DUP3 DUP6 ADD PUSH2 0x142E JUMP JUMPDEST SWAP2 POP POP SWAP3 SWAP2 POP POP JUMP JUMPDEST PUSH0 DUP3 DUP3 MSTORE PUSH1 0x20 DUP3 ADD SWAP1 POP SWAP3 SWAP2 POP POP JUMP JUMPDEST PUSH0 PUSH2 0x1878 DUP3 PUSH2 0x1634 JUMP JUMPDEST PUSH2 0x1882 DUP2 DUP6 PUSH2 0x185E JUMP JUMPDEST SWAP4 POP PUSH2 0x1892 DUP2 DUP6 PUSH1 0x20 DUP7 ADD PUSH2 0x164E JUMP JUMPDEST PUSH2 0x189B DUP2 PUSH2 0x144A JUMP JUMPDEST DUP5 ADD SWAP2 POP POP SWAP3 SWAP2 POP POP JUMP JUMPDEST PUSH2 0x18AF DUP2 PUSH2 0x1694 JUMP JUMPDEST DUP3 MSTORE POP POP JUMP JUMPDEST PUSH0 PUSH1 0xA0 DUP3 ADD SWAP1 POP DUP2 DUP2 SUB PUSH0 DUP4 ADD MSTORE PUSH2 0x18CD DUP2 DUP9 PUSH2 0x186E JUMP JUMPDEST SWAP1 POP DUP2 DUP2 SUB PUSH1 0x20 DUP4 ADD MSTORE PUSH2 0x18E1 DUP2 DUP8 PUSH2 0x186E JUMP JUMPDEST SWAP1 POP DUP2 DUP2 SUB PUSH1 0x40 DUP4 ADD MSTORE PUSH2 0x18F5 DUP2 DUP7 PUSH2 0x186E JUMP JUMPDEST SWAP1 POP PUSH2 0x1904 PUSH1 0x60 DUP4 ADD DUP6 PUSH2 0x18A6 JUMP JUMPDEST DUP2 DUP2 SUB PUSH1 0x80 DUP4 ADD MSTORE PUSH2 0x1916 DUP2 DUP5 PUSH2 0x186E JUMP JUMPDEST SWAP1 POP SWAP7 SWAP6 POP POP POP POP POP POP JUMP JUMPDEST PUSH0 DUP1 PUSH0 DUP1 PUSH0 DUP1 PUSH1 0xC0 DUP8 DUP10 SUB SLT ISZERO PUSH2 0x193C JUMPI PUSH2 0x193B PUSH2 0x13E0 JUMP JUMPDEST JUMPDEST PUSH0 DUP8 ADD CALLDATALOAD PUSH8 0xFFFFFFFFFFFFFFFF DUP2 GT ISZERO PUSH2 0x1959 JUMPI PUSH2 0x1958 PUSH2 0x13E4 JUMP JUMPDEST JUMPDEST PUSH2 0x1965 DUP10 DUP3 DUP11 ADD PUSH2 0x1551 JUMP JUMPDEST SWAP7 POP POP PUSH1 0x20 DUP8 ADD CALLDATALOAD PUSH8 0xFFFFFFFFFFFFFFFF DUP2 GT ISZERO PUSH2 0x1986 JUMPI PUSH2 0x1985 PUSH2 0x13E4 JUMP JUMPDEST JUMPDEST PUSH2 0x1992 DUP10 DUP3 DUP11 ADD PUSH2 0x1551 JUMP JUMPDEST SWAP6 POP POP PUSH1 0x40 DUP8 ADD CALLDATALOAD PUSH8 0xFFFFFFFFFFFFFFFF DUP2 GT ISZERO PUSH2 0x19B3 JUMPI PUSH2 0x19B2 PUSH2 0x13E4 JUMP JUMPDEST JUMPDEST PUSH2 0x19BF DUP10 DUP3 DUP11 ADD PUSH2 0x1551 JUMP JUMPDEST SWAP5 POP POP PUSH1 0x60 DUP8 ADD CALLDATALOAD PUSH8 0xFFFFFFFFFFFFFFFF DUP2 GT ISZERO PUSH2 0x19E0 JUMPI PUSH2 0x19DF PUSH2 0x13E4 JUMP JUMPDEST JUMPDEST PUSH2 0x19EC DUP10 DUP3 DUP11 ADD PUSH2 0x1551 JUMP JUMPDEST SWAP4 POP POP PUSH1 0x80 PUSH2 0x19FD DUP10 DUP3 DUP11 ADD PUSH2 0x142E JUMP JUMPDEST SWAP3 POP POP PUSH1 0xA0 DUP8 ADD CALLDATALOAD PUSH8 0xFFFFFFFFFFFFFFFF DUP2 GT ISZERO PUSH2 0x1A1E JUMPI PUSH2 0x1A1D PUSH2 0x13E4 JUMP JUMPDEST JUMPDEST PUSH2 0x1A2A DUP10 DUP3 DUP11 ADD PUSH2 0x1551 JUMP JUMPDEST SWAP2 POP POP SWAP3 SWAP6 POP SWAP3 SWAP6 POP SWAP3 SWAP6 JUMP JUMPDEST PUSH0 DUP1 PUSH0 DUP1 PUSH0 PUSH1 0xA0 DUP7 DUP9 SUB SLT ISZERO PUSH2 0x1A50 JUMPI PUSH2 0x1A4F PUSH2 0x13E0 JUMP JUMPDEST JUMPDEST PUSH0 PUSH2 0x1A5D DUP9 DUP3 DUP10 ADD PUSH2 0x142E JUMP JUMPDEST SWAP6 POP POP PUSH1 0x20 DUP7 ADD CALLDATALOAD PUSH8 0xFFFFFFFFFFFFFFFF DUP2 GT ISZERO PUSH2 0x1A7E JUMPI PUSH2 0x1A7D PUSH2 0x13E4 JUMP JUMPDEST JUMPDEST PUSH2 0x1A8A DUP9 DUP3 DUP10 ADD PUSH2 0x1551 JUMP JUMPDEST SWAP5 POP POP PUSH1 0x40 DUP7 ADD CALLDATALOAD PUSH8 0xFFFFFFFFFFFFFFFF DUP2 GT ISZERO PUSH2 0x1AAB JUMPI PUSH2 0x1AAA PUSH2 0x13E4 JUMP JUMPDEST JUMPDEST PUSH2 0x1AB7 DUP9 DUP3 DUP10 ADD PUSH2 0x1551 JUMP JUMPDEST SWAP4 POP POP PUSH1 0x60 DUP7 ADD CALLDATALOAD PUSH8 0xFFFFFFFFFFFFFFFF DUP2 GT ISZERO PUSH2 0x1AD8 JUMPI PUSH2 0x1AD7 PUSH2 0x13E4 JUMP JUMPDEST JUMPDEST PUSH2 0x1AE4 DUP9 DUP3 DUP10 ADD PUSH2 0x1551 JUMP JUMPDEST SWAP3 POP POP PUSH1 0x80 DUP7 ADD CALLDATALOAD PUSH8 0xFFFFFFFFFFFFFFFF DUP2 GT ISZERO PUSH2 0x1B05 JUMPI PUSH2 0x1B04 PUSH2 0x13E4 JUMP JUMPDEST JUMPDEST PUSH2 0x1B11 DUP9 DUP3 DUP10 ADD PUSH2 0x1551 JUMP JUMPDEST SWAP2 POP POP SWAP3 SWAP6 POP SWAP3 SWAP6 SWAP1 SWAP4 POP JUMP JUMPDEST PUSH32 0x5573756172696F206E6F20657869737465000000000000000000000000000000 PUSH0 DUP3 ADD MSTORE POP JUMP JUMPDEST PUSH0 PUSH2 0x1B52 PUSH1 0x11 DUP4 PUSH2 0x185E JUMP JUMPDEST SWAP2 POP PUSH2 0x1B5D DUP3 PUSH2 0x1B1E JUMP JUMPDEST PUSH1 0x20 DUP3 ADD SWAP1 POP SWAP2 SWAP1 POP JUMP JUMPDEST PUSH0 PUSH1 0x20 DUP3 ADD SWAP1 POP DUP2 DUP2 SUB PUSH0 DUP4 ADD MSTORE PUSH2 0x1B7F DUP2 PUSH2 0x1B46 JUMP JUMPDEST SWAP1 POP SWAP2 SWAP1 POP JUMP JUMPDEST PUSH0 DUP2 SWAP1 POP SWAP3 SWAP2 POP POP JUMP JUMPDEST PUSH0 PUSH2 0x1B9A DUP3 PUSH2 0x1634 JUMP JUMPDEST PUSH2 0x1BA4 DUP2 DUP6 PUSH2 0x1B86 JUMP JUMPDEST SWAP4 POP PUSH2 0x1BB4 DUP2 DUP6 PUSH1 0x20 DUP7 ADD PUSH2 0x164E JUMP JUMPDEST DUP1 DUP5 ADD SWAP2 POP POP SWAP3 SWAP2 POP POP JUMP JUMPDEST PUSH0 PUSH2 0x1BCB DUP3 DUP5 PUSH2 0x1B90 JUMP JUMPDEST SWAP2 POP DUP2 SWAP1 POP SWAP3 SWAP2 POP POP JUMP JUMPDEST PUSH32 0x50617373776F726420696E636F72726563746F00000000000000000000000000 PUSH0 DUP3 ADD MSTORE POP JUMP JUMPDEST PUSH0 PUSH2 0x1C0A PUSH1 0x13 DUP4 PUSH2 0x185E JUMP JUMPDEST SWAP2 POP PUSH2 0x1C15 DUP3 PUSH2 0x1BD6 JUMP JUMPDEST PUSH1 0x20 DUP3 ADD SWAP1 POP SWAP2 SWAP1 POP JUMP JUMPDEST PUSH0 PUSH1 0x20 DUP3 ADD SWAP1 POP DUP2 DUP2 SUB PUSH0 DUP4 ADD MSTORE PUSH2 0x1C37 DUP2 PUSH2 0x1BFE JUMP JUMPDEST SWAP1 POP SWAP2 SWAP1 POP JUMP JUMPDEST PUSH32 0x4E487B7100000000000000000000000000000000000000000000000000000000 PUSH0 MSTORE PUSH1 0x32 PUSH1 0x4 MSTORE PUSH1 0x24 PUSH0 REVERT JUMPDEST PUSH32 0x4E487B7100000000000000000000000000000000000000000000000000000000 PUSH0 MSTORE PUSH1 0x22 PUSH1 0x4 MSTORE PUSH1 0x24 PUSH0 REVERT JUMPDEST PUSH0 PUSH1 0x2 DUP3 DIV SWAP1 POP PUSH1 0x1 DUP3 AND DUP1 PUSH2 0x1CAF JUMPI PUSH1 0x7F DUP3 AND SWAP2 POP JUMPDEST PUSH1 0x20 DUP3 LT DUP2 SUB PUSH2 0x1CC2 JUMPI PUSH2 0x1CC1 PUSH2 0x1C6B JUMP JUMPDEST JUMPDEST POP SWAP2 SWAP1 POP JUMP JUMPDEST PUSH32 0x536F6C6F20656C206F776E6572207075656465207265616C697A617220657374 PUSH0 DUP3 ADD MSTORE PUSH32 0x6120616363696F6E000000000000000000000000000000000000000000000000 PUSH1 0x20 DUP3 ADD MSTORE POP JUMP JUMPDEST PUSH0 PUSH2 0x1D22 PUSH1 0x28 DUP4 PUSH2 0x185E JUMP JUMPDEST SWAP2 POP PUSH2 0x1D2D DUP3 PUSH2 0x1CC8 JUMP JUMPDEST PUSH1 0x40 DUP3 ADD SWAP1 POP SWAP2 SWAP1 POP JUMP JUMPDEST PUSH0 PUSH1 0x20 DUP3 ADD SWAP1 POP DUP2 DUP2 SUB PUSH0 DUP4 ADD MSTORE PUSH2 0x1D4F DUP2 PUSH2 0x1D16 JUMP JUMPDEST SWAP1 POP SWAP2 SWAP1 POP JUMP JUMPDEST PUSH32 0x5573756172696F20796120657869737465000000000000000000000000000000 PUSH0 DUP3 ADD MSTORE POP JUMP JUMPDEST PUSH0 PUSH2 0x1D8A PUSH1 0x11 DUP4 PUSH2 0x185E JUMP JUMPDEST SWAP2 POP PUSH2 0x1D95 DUP3 PUSH2 0x1D56 JUMP JUMPDEST PUSH1 0x20 DUP3 ADD SWAP1 POP SWAP2 SWAP1 POP JUMP JUMPDEST PUSH0 PUSH1 0x20 DUP3 ADD SWAP1 POP DUP2 DUP2 SUB PUSH0 DUP4 ADD MSTORE PUSH2 0x1DB7 DUP2 PUSH2 0x1D7E JUMP JUMPDEST SWAP1 POP SWAP2 SWAP1 POP JUMP JUMPDEST PUSH0 DUP2 SWAP1 POP DUP2 PUSH0 MSTORE PUSH1 0x20 PUSH0 KECCAK256 SWAP1 POP SWAP2 SWAP1 POP JUMP JUMPDEST PUSH0 PUSH1 0x20 PUSH1 0x1F DUP4 ADD DIV SWAP1 POP SWAP2 SWAP1 POP JUMP JUMPDEST PUSH0 DUP3 DUP3 SHL SWAP1 POP SWAP3 SWAP2 POP POP JUMP JUMPDEST PUSH0 PUSH1 0x8 DUP4 MUL PUSH2 0x1E1A PUSH32 0xFFFFFFFFFFFFFFFFFFFFFFFFFFFFFFFFFFFFFFFFFFFFFFFFFFFFFFFFFFFFFFFF DUP3 PUSH2 0x1DDF JUMP JUMPDEST PUSH2 0x1E24 DUP7 DUP4 PUSH2 0x1DDF JUMP JUMPDEST SWAP6 POP DUP1 NOT DUP5 AND SWAP4 POP DUP1 DUP7 AND DUP5 OR SWAP3 POP POP POP SWAP4 SWAP3 POP POP POP JUMP JUMPDEST PUSH0 DUP2 SWAP1 POP SWAP2 SWAP1 POP JUMP JUMPDEST PUSH0 PUSH2 0x1E5F PUSH2 0x1E5A PUSH2 0x1E55 DUP5 PUSH2 0x1694 JUMP JUMPDEST PUSH2 0x1E3C JUMP JUMPDEST PUSH2 0x1694 JUMP JUMPDEST SWAP1 POP SWAP2 SWAP1 POP JUMP JUMPDEST PUSH0 DUP2 SWAP1 POP SWAP2 SWAP1 POP JUMP JUMPDEST PUSH2 0x1E78 DUP4 PUSH2 0x1E45 JUMP JUMPDEST PUSH2 0x1E8C PUSH2 0x1E84 DUP3 PUSH2 0x1E66 JUMP JUMPDEST DUP5 DUP5 SLOAD PUSH2 0x1DEB JUMP JUMPDEST DUP3 SSTORE POP POP POP POP JUMP JUMPDEST PUSH0 SWAP1 JUMP JUMPDEST PUSH2 0x1EA0 PUSH2 0x1E94 JUMP JUMPDEST PUSH2 0x1EAB DUP2 DUP5 DUP5 PUSH2 0x1E6F JUMP JUMPDEST POP POP POP JUMP JUMPDEST JUMPDEST DUP2 DUP2 LT ISZERO PUSH2 0x1ECE JUMPI PUSH2 0x1EC3 PUSH0 DUP3 PUSH2 0x1E98 JUMP JUMPDEST PUSH1 0x1 DUP2 ADD SWAP1 POP PUSH2 0x1EB1 JUMP JUMPDEST POP POP JUMP JUMPDEST PUSH1 0x1F DUP3 GT ISZERO PUSH2 0x1F13 JUMPI PUSH2 0x1EE4 DUP2 PUSH2 0x1DBE JUMP JUMPDEST PUSH2 0x1EED DUP5 PUSH2 0x1DD0 JUMP JUMPDEST DUP2 ADD PUSH1 0x20 DUP6 LT ISZERO PUSH2 0x1EFC JUMPI DUP2 SWAP1 POP JUMPDEST PUSH2 0x1F10 PUSH2 0x1F08 DUP6 PUSH2 0x1DD0 JUMP JUMPDEST DUP4 ADD DUP3 PUSH2 0x1EB0 JUMP JUMPDEST POP POP JUMPDEST POP POP POP JUMP JUMPDEST PUSH0 DUP3 DUP3 SHR SWAP1 POP SWAP3 SWAP2 POP POP JUMP JUMPDEST PUSH0 PUSH2 0x1F33 PUSH0 NOT DUP5 PUSH1 0x8 MUL PUSH2 0x1F18 JUMP JUMPDEST NOT DUP1 DUP4 AND SWAP2 POP POP SWAP3 SWAP2 POP POP JUMP JUMPDEST PUSH0 PUSH2 0x1F4B DUP4 DUP4 PUSH2 0x1F24 JUMP JUMPDEST SWAP2 POP DUP3 PUSH1 0x2 MUL DUP3 OR SWAP1 POP SWAP3 SWAP2 POP POP JUMP JUMPDEST PUSH2 0x1F64 DUP3 PUSH2 0x1634 JUMP JUMPDEST PUSH8 0xFFFFFFFFFFFFFFFF DUP2 GT ISZERO PUSH2 0x1F7D JUMPI PUSH2 0x1F7C PUSH2 0x145A JUMP JUMPDEST JUMPDEST PUSH2 0x1F87 DUP3 SLOAD PUSH2 0x1C98 JUMP JUMPDEST PUSH2 0x1F92 DUP3 DUP3 DUP6 PUSH2 0x1ED2 JUMP JUMPDEST PUSH0 PUSH1 0x20 SWAP1 POP PUSH1 0x1F DUP4 GT PUSH1 0x1 DUP2 EQ PUSH2 0x1FC3 JUMPI PUSH0 DUP5 ISZERO PUSH2 0x1FB1 JUMPI DUP3 DUP8 ADD MLOAD SWAP1 POP JUMPDEST PUSH2 0x1FBB DUP6 DUP3 PUSH2 0x1F40 JUMP JUMPDEST DUP7 SSTORE POP PUSH2 0x2022 JUMP JUMPDEST PUSH1 0x1F NOT DUP5 AND PUSH2 0x1FD1 DUP7 PUSH2 0x1DBE JUMP JUMPDEST PUSH0 JUMPDEST DUP3 DUP2 LT ISZERO PUSH2 0x1FF8 JUMPI DUP5 DUP10 ADD MLOAD DUP3 SSTORE PUSH1 0x1 DUP3 ADD SWAP2 POP PUSH1 0x20 DUP6 ADD SWAP5 POP PUSH1 0x20 DUP2 ADD SWAP1 POP PUSH2 0x1FD3 JUMP JUMPDEST DUP7 DUP4 LT ISZERO PUSH2 0x2015 JUMPI DUP5 DUP10 ADD MLOAD PUSH2 0x2011 PUSH1 0x1F DUP10 AND DUP3 PUSH2 0x1F24 JUMP JUMPDEST DUP4 SSTORE POP JUMPDEST PUSH1 0x1 PUSH1 0x2 DUP9 MUL ADD DUP9 SSTORE POP POP POP JUMPDEST POP POP POP POP POP POP JUMP JUMPDEST PUSH32 0x4E487B7100000000000000000000000000000000000000000000000000000000 PUSH0 MSTORE PUSH1 0x11 PUSH1 0x4 MSTORE PUSH1 0x24 PUSH0 REVERT JUMPDEST PUSH0 PUSH2 0x2061 DUP3 PUSH2 0x1694 JUMP JUMPDEST SWAP2 POP PUSH32 0xFFFFFFFFFFFFFFFFFFFFFFFFFFFFFFFFFFFFFFFFFFFFFFFFFFFFFFFFFFFFFFFF DUP3 SUB PUSH2 0x2093 JUMPI PUSH2 0x2092 PUSH2 0x202A JUMP JUMPDEST JUMPDEST PUSH1 0x1 DUP3 ADD SWAP1 POP SWAP2 SWAP1 POP JUMP JUMPDEST PUSH32 0x5573756172696F206E6F206578697374652C206E6F207365207265616C697A61 PUSH0 DUP3 ADD MSTORE PUSH32 0x7261206C61206D6F64696669636163696F6E0000000000000000000000000000 PUSH1 0x20 DUP3 ADD MSTORE POP JUMP JUMPDEST PUSH0 PUSH2 0x20F8 PUSH1 0x32 DUP4 PUSH2 0x185E JUMP JUMPDEST SWAP2 POP PUSH2 0x2103 DUP3 PUSH2 0x209E JUMP JUMPDEST PUSH1 0x40 DUP3 ADD SWAP1 POP SWAP2 SWAP1 POP JUMP JUMPDEST PUSH0 PUSH1 0x20 DUP3 ADD SWAP1 POP DUP2 DUP2 SUB PUSH0 DUP4 ADD MSTORE PUSH2 0x2125 DUP2 PUSH2 0x20EC JUMP JUMPDEST SWAP1 POP SWAP2 SWAP1 POP JUMP JUMPDEST PUSH32 0x5573756172696F206E6F206578697374652C206E6F207365207265616C697A61 PUSH0 DUP3 ADD MSTORE PUSH32 0x7261206C6120656C696D696E6163696F6E000000000000000000000000000000 PUSH1 0x20 DUP3 ADD MSTORE POP JUMP JUMPDEST PUSH0 PUSH2 0x2186 PUSH1 0x31 DUP4 PUSH2 0x185E JUMP JUMPDEST SWAP2 POP PUSH2 0x2191 DUP3 PUSH2 0x212C JUMP JUMPDEST PUSH1 0x40 DUP3 ADD SWAP1 POP SWAP2 SWAP1 POP JUMP JUMPDEST PUSH0 PUSH1 0x20 DUP3 ADD SWAP1 POP DUP2 DUP2 SUB PUSH0 DUP4 ADD MSTORE PUSH2 0x21B3 DUP2 PUSH2 0x217A JUMP JUMPDEST SWAP1 POP SWAP2 SWAP1 POP JUMP JUMPDEST PUSH0 PUSH2 0x21C4 DUP3 PUSH2 0x1694 JUMP JUMPDEST SWAP2 POP PUSH2 0x21CF DUP4 PUSH2 0x1694 JUMP JUMPDEST SWAP3 POP DUP3 DUP3 SUB SWAP1 POP DUP2 DUP2 GT ISZERO PUSH2 0x21E7 JUMPI PUSH2 0x21E6 PUSH2 0x202A JUMP JUMPDEST JUMPDEST SWAP3 SWAP2 POP POP JUMP JUMPDEST PUSH32 0x4E487B7100000000000000000000000000000000000000000000000000000000 PUSH0 MSTORE PUSH1 0x31 PUSH1 0x4 MSTORE PUSH1 0x24 PUSH0 REVERT INVALID LOG2 PUSH5 0x6970667358 0x22 SLT KECCAK256 SSTORE SWAP16 0xD7 DELEGATECALL LOG0 PUSH7 0xF3AB4BEE56E596 SLT SWAP6 PUSH24 0xDDF17C6B4CE5C8C0C340DD45A5A36EC164736F6C63430008 BYTE STOP CALLER "
				},
				"gasEstimates": {
					"creation": {
						"codeDepositCost": "1756800",
						"executionCost": "48225",
						"totalCost": "1805025"
					},
					"external": {
						"agregarUsuario(string,string,string,string,address,string)": "infinite",
						"buscarUsuario(address)": "infinite",
						"eliminarUsuario(address)": "infinite",
						"login(address,string)": "infinite",
						"modificarUsuario(address,string,string,string,string)": "infinite",
						"traerTodosLosUsuarios()": "infinite"
					}
				},
				"methodIdentifiers": {
					"agregarUsuario(string,string,string,string,address,string)": "8e0f1884",
					"buscarUsuario(address)": "4ec1b895",
					"eliminarUsuario(address)": "e90538e3",
					"login(address,string)": "2f19d50b",
					"modificarUsuario(address,string,string,string,string)": "a202d772",
					"traerTodosLosUsuarios()": "41c9908c"
				}
			},
			"storageLayout": {
				"storage": [
					{
						"astId": 1573,
						"contract": "contracts/ControlUsuarios.sol:DonacionesDeJuguetes",
						"label": "owner",
						"offset": 0,
						"slot": "0",
						"type": "t_address"
					},
					{
						"astId": 1575,
						"contract": "contracts/ControlUsuarios.sol:DonacionesDeJuguetes",
						"label": "usuarioIdCounter",
						"offset": 0,
						"slot": "1",
						"type": "t_uint256"
					},
					{
						"astId": 1595,
						"contract": "contracts/ControlUsuarios.sol:DonacionesDeJuguetes",
						"label": "usuarios",
						"offset": 0,
						"slot": "2",
						"type": "t_mapping(t_address,t_struct(Usuario)1590_storage)"
					},
					{
						"astId": 1598,
						"contract": "contracts/ControlUsuarios.sol:DonacionesDeJuguetes",
						"label": "listaUsuarios",
						"offset": 0,
						"slot": "3",
						"type": "t_array(t_address)dyn_storage"
					}
				],
				"types": {
					"t_address": {
						"encoding": "inplace",
						"label": "address",
						"numberOfBytes": "20"
					},
					"t_array(t_address)dyn_storage": {
						"base": "t_address",
						"encoding": "dynamic_array",
						"label": "address[]",
						"numberOfBytes": "32"
					},
					"t_bytes32": {
						"encoding": "inplace",
						"label": "bytes32",
						"numberOfBytes": "32"
					},
					"t_mapping(t_address,t_struct(Usuario)1590_storage)": {
						"encoding": "mapping",
						"key": "t_address",
						"label": "mapping(address => struct DonacionesDeJuguetes.Usuario)",
						"numberOfBytes": "32",
						"value": "t_struct(Usuario)1590_storage"
					},
					"t_string_storage": {
						"encoding": "bytes",
						"label": "string",
						"numberOfBytes": "32"
					},
					"t_struct(Usuario)1590_storage": {
						"encoding": "inplace",
						"label": "struct DonacionesDeJuguetes.Usuario",
						"members": [
							{
								"astId": 1577,
								"contract": "contracts/ControlUsuarios.sol:DonacionesDeJuguetes",
								"label": "nombre",
								"offset": 0,
								"slot": "0",
								"type": "t_string_storage"
							},
							{
								"astId": 1579,
								"contract": "contracts/ControlUsuarios.sol:DonacionesDeJuguetes",
								"label": "apellido",
								"offset": 0,
								"slot": "1",
								"type": "t_string_storage"
							},
							{
								"astId": 1581,
								"contract": "contracts/ControlUsuarios.sol:DonacionesDeJuguetes",
								"label": "direccion",
								"offset": 0,
								"slot": "2",
								"type": "t_string_storage"
							},
							{
								"astId": 1583,
								"contract": "contracts/ControlUsuarios.sol:DonacionesDeJuguetes",
								"label": "usuarioId",
								"offset": 0,
								"slot": "3",
								"type": "t_uint256"
							},
							{
								"astId": 1585,
								"contract": "contracts/ControlUsuarios.sol:DonacionesDeJuguetes",
								"label": "tipoUsuario",
								"offset": 0,
								"slot": "4",
								"type": "t_string_storage"
							},
							{
								"astId": 1587,
								"contract": "contracts/ControlUsuarios.sol:DonacionesDeJuguetes",
								"label": "clavePublica",
								"offset": 0,
								"slot": "5",
								"type": "t_address"
							},
							{
								"astId": 1589,
								"contract": "contracts/ControlUsuarios.sol:DonacionesDeJuguetes",
								"label": "passwordHash",
								"offset": 0,
								"slot": "6",
								"type": "t_bytes32"
							}
						],
						"numberOfBytes": "224"
					},
					"t_uint256": {
						"encoding": "inplace",
						"label": "uint256",
						"numberOfBytes": "32"
					}
				}
			},
			"userdoc": {
				"kind": "user",
				"methods": {},
				"version": 1
			}
		}
	}
}