{
	"contracts/Historial.sol": {
		"ToyDonationHistory": {
			"abi": [
				{
					"anonymous": false,
					"inputs": [
						{
							"indexed": false,
							"internalType": "uint256",
							"name": "transactionId",
							"type": "uint256"
						},
						{
							"indexed": true,
							"internalType": "address",
							"name": "donor",
							"type": "address"
						},
						{
							"indexed": true,
							"internalType": "address",
							"name": "recipient",
							"type": "address"
						},
						{
							"indexed": false,
							"internalType": "uint256",
							"name": "amount",
							"type": "uint256"
						},
						{
							"indexed": false,
							"internalType": "uint256",
							"name": "timestamp",
							"type": "uint256"
						}
					],
					"name": "DonationRecorded",
					"type": "event"
				},
				{
					"inputs": [
						{
							"internalType": "uint256",
							"name": "",
							"type": "uint256"
						}
					],
					"name": "donations",
					"outputs": [
						{
							"internalType": "uint256",
							"name": "transactionId",
							"type": "uint256"
						},
						{
							"internalType": "address",
							"name": "donor",
							"type": "address"
						},
						{
							"internalType": "address",
							"name": "recipient",
							"type": "address"
						},
						{
							"internalType": "uint256",
							"name": "amount",
							"type": "uint256"
						},
						{
							"internalType": "uint256",
							"name": "timestamp",
							"type": "uint256"
						}
					],
					"stateMutability": "view",
					"type": "function"
				},
				{
					"inputs": [
						{
							"internalType": "address",
							"name": "_address",
							"type": "address"
						}
					],
					"name": "getDonationHistoryByAddress",
					"outputs": [
						{
							"components": [
								{
									"internalType": "uint256",
									"name": "transactionId",
									"type": "uint256"
								},
								{
									"internalType": "address",
									"name": "donor",
									"type": "address"
								},
								{
									"internalType": "address",
									"name": "recipient",
									"type": "address"
								},
								{
									"internalType": "uint256",
									"name": "amount",
									"type": "uint256"
								},
								{
									"internalType": "uint256",
									"name": "timestamp",
									"type": "uint256"
								}
							],
							"internalType": "struct ToyDonationHistory.Donation[]",
							"name": "",
							"type": "tuple[]"
						}
					],
					"stateMutability": "view",
					"type": "function"
				},
				{
					"inputs": [
						{
							"internalType": "uint256",
							"name": "_transactionId",
							"type": "uint256"
						},
						{
							"internalType": "address",
							"name": "_donor",
							"type": "address"
						},
						{
							"internalType": "address",
							"name": "_recipient",
							"type": "address"
						},
						{
							"internalType": "uint256",
							"name": "_amount",
							"type": "uint256"
						}
					],
					"name": "recordDonation",
					"outputs": [],
					"stateMutability": "nonpayable",
					"type": "function"
				}
			],
			"devdoc": {
				"kind": "dev",
				"methods": {},
				"version": 1
			},
			"evm": {
				"assembly": "    /* \"contracts/Historial.sol\":57:2183  contract ToyDonationHistory {... */\n  mstore(0x40, 0x80)\n  callvalue\n  dup1\n  iszero\n  tag_1\n  jumpi\n  0x00\n  dup1\n  revert\ntag_1:\n  pop\n  dataSize(sub_0)\n  dup1\n  dataOffset(sub_0)\n  0x00\n  codecopy\n  0x00\n  return\nstop\n\nsub_0: assembly {\n        /* \"contracts/Historial.sol\":57:2183  contract ToyDonationHistory {... */\n      mstore(0x40, 0x80)\n      callvalue\n      dup1\n      iszero\n      tag_1\n      jumpi\n      0x00\n      dup1\n      revert\n    tag_1:\n      pop\n      jumpi(tag_2, lt(calldatasize, 0x04))\n      shr(0xe0, calldataload(0x00))\n      dup1\n      0x6bf8a162\n      eq\n      tag_3\n      jumpi\n      dup1\n      0x8e059559\n      eq\n      tag_4\n      jumpi\n      dup1\n      0xf8626af8\n      eq\n      tag_5\n      jumpi\n    tag_2:\n      0x00\n      dup1\n      revert\n        /* \"contracts/Historial.sol\":1293:2181  function getDonationHistoryByAddress(address _address) external view returns (Donation[] memory) {... */\n    tag_3:\n      tag_6\n      0x04\n      dup1\n      calldatasize\n      sub\n      dup2\n      add\n      swap1\n      tag_7\n      swap2\n      swap1\n      tag_8\n      jump\t// in\n    tag_7:\n      tag_9\n      jump\t// in\n    tag_6:\n      mload(0x40)\n      tag_10\n      swap2\n      swap1\n      tag_11\n      jump\t// in\n    tag_10:\n      mload(0x40)\n      dup1\n      swap2\n      sub\n      swap1\n      return\n        /* \"contracts/Historial.sol\":761:1192  function recordDonation(uint256 _transactionId, address _donor, address _recipient, uint256 _amount) external {... */\n    tag_4:\n      tag_12\n      0x04\n      dup1\n      calldatasize\n      sub\n      dup2\n      add\n      swap1\n      tag_13\n      swap2\n      swap1\n      tag_14\n      jump\t// in\n    tag_13:\n      tag_15\n      jump\t// in\n    tag_12:\n      stop\n        /* \"contracts/Historial.sol\":468:495  Donation[] public donations */\n    tag_5:\n      tag_16\n      0x04\n      dup1\n      calldatasize\n      sub\n      dup2\n      add\n      swap1\n      tag_17\n      swap2\n      swap1\n      tag_18\n      jump\t// in\n    tag_17:\n      tag_19\n      jump\t// in\n    tag_16:\n      mload(0x40)\n      tag_20\n      swap6\n      swap5\n      swap4\n      swap3\n      swap2\n      swap1\n      tag_21\n      jump\t// in\n    tag_20:\n      mload(0x40)\n      dup1\n      swap2\n      sub\n      swap1\n      return\n        /* \"contracts/Historial.sol\":1293:2181  function getDonationHistoryByAddress(address _address) external view returns (Donation[] memory) {... */\n    tag_9:\n        /* \"contracts/Historial.sol\":1371:1388  Donation[] memory */\n      0x60\n        /* \"contracts/Historial.sol\":1400:1413  uint256 count */\n      0x00\n        /* \"contracts/Historial.sol\":1506:1515  uint256 i */\n      dup1\n        /* \"contracts/Historial.sol\":1501:1686  for (uint256 i = 0; i < donations.length; i++) {... */\n    tag_23:\n        /* \"contracts/Historial.sol\":1525:1534  donations */\n      0x00\n        /* \"contracts/Historial.sol\":1525:1541  donations.length */\n      dup1\n      sload\n      swap1\n      pop\n        /* \"contracts/Historial.sol\":1521:1522  i */\n      dup2\n        /* \"contracts/Historial.sol\":1521:1541  i < donations.length */\n      lt\n        /* \"contracts/Historial.sol\":1501:1686  for (uint256 i = 0; i < donations.length; i++) {... */\n      iszero\n      tag_24\n      jumpi\n        /* \"contracts/Historial.sol\":1588:1596  _address */\n      dup4\n        /* \"contracts/Historial.sol\":1566:1596  donations[i].donor == _address */\n      0xffffffffffffffffffffffffffffffffffffffff\n      and\n        /* \"contracts/Historial.sol\":1566:1575  donations */\n      0x00\n        /* \"contracts/Historial.sol\":1576:1577  i */\n      dup3\n        /* \"contracts/Historial.sol\":1566:1578  donations[i] */\n      dup2\n      sload\n      dup2\n      lt\n      tag_26\n      jumpi\n      tag_27\n      tag_28\n      jump\t// in\n    tag_27:\n    tag_26:\n      swap1\n      0x00\n      mstore\n      keccak256(0x00, 0x20)\n      swap1\n      0x05\n      mul\n      add\n        /* \"contracts/Historial.sol\":1566:1584  donations[i].donor */\n      0x01\n      add\n      0x00\n      swap1\n      sload\n      swap1\n      0x0100\n      exp\n      swap1\n      div\n      0xffffffffffffffffffffffffffffffffffffffff\n      and\n        /* \"contracts/Historial.sol\":1566:1596  donations[i].donor == _address */\n      0xffffffffffffffffffffffffffffffffffffffff\n      and\n      eq\n        /* \"contracts/Historial.sol\":1566:1634  donations[i].donor == _address || donations[i].recipient == _address */\n      dup1\n      tag_30\n      jumpi\n      pop\n        /* \"contracts/Historial.sol\":1626:1634  _address */\n      dup4\n        /* \"contracts/Historial.sol\":1600:1634  donations[i].recipient == _address */\n      0xffffffffffffffffffffffffffffffffffffffff\n      and\n        /* \"contracts/Historial.sol\":1600:1609  donations */\n      0x00\n        /* \"contracts/Historial.sol\":1610:1611  i */\n      dup3\n        /* \"contracts/Historial.sol\":1600:1612  donations[i] */\n      dup2\n      sload\n      dup2\n      lt\n      tag_31\n      jumpi\n      tag_32\n      tag_28\n      jump\t// in\n    tag_32:\n    tag_31:\n      swap1\n      0x00\n      mstore\n      keccak256(0x00, 0x20)\n      swap1\n      0x05\n      mul\n      add\n        /* \"contracts/Historial.sol\":1600:1622  donations[i].recipient */\n      0x02\n      add\n      0x00\n      swap1\n      sload\n      swap1\n      0x0100\n      exp\n      swap1\n      div\n      0xffffffffffffffffffffffffffffffffffffffff\n      and\n        /* \"contracts/Historial.sol\":1600:1634  donations[i].recipient == _address */\n      0xffffffffffffffffffffffffffffffffffffffff\n      and\n      eq\n        /* \"contracts/Historial.sol\":1566:1634  donations[i].donor == _address || donations[i].recipient == _address */\n    tag_30:\n        /* \"contracts/Historial.sol\":1562:1676  if (donations[i].donor == _address || donations[i].recipient == _address) {... */\n      iszero\n      tag_34\n      jumpi\n        /* \"contracts/Historial.sol\":1654:1661  count++ */\n      dup2\n      dup1\n      tag_35\n      swap1\n      tag_36\n      jump\t// in\n    tag_35:\n      swap3\n      pop\n      pop\n        /* \"contracts/Historial.sol\":1562:1676  if (donations[i].donor == _address || donations[i].recipient == _address) {... */\n    tag_34:\n        /* \"contracts/Historial.sol\":1543:1546  i++ */\n      dup1\n      dup1\n      0x01\n      add\n      swap2\n      pop\n      pop\n        /* \"contracts/Historial.sol\":1501:1686  for (uint256 i = 0; i < donations.length; i++) {... */\n      jump(tag_23)\n    tag_24:\n      pop\n        /* \"contracts/Historial.sol\":1772:1796  Donation[] memory result */\n      0x00\n        /* \"contracts/Historial.sol\":1814:1819  count */\n      dup2\n        /* \"contracts/Historial.sol\":1799:1820  new Donation[](count) */\n      0xffffffffffffffff\n      dup2\n      gt\n      iszero\n      tag_37\n      jumpi\n      tag_38\n      tag_39\n      jump\t// in\n    tag_38:\n    tag_37:\n      mload(0x40)\n      swap1\n      dup1\n      dup3\n      mstore\n      dup1\n      0x20\n      mul\n      0x20\n      add\n      dup3\n      add\n      0x40\n      mstore\n      dup1\n      iszero\n      tag_40\n      jumpi\n      dup2\n      0x20\n      add\n    tag_41:\n      tag_42\n      tag_43\n      jump\t// in\n    tag_42:\n      dup2\n      mstore\n      0x20\n      add\n      swap1\n      0x01\n      swap1\n      sub\n      swap1\n      dup2\n      tag_41\n      jumpi\n      swap1\n      pop\n    tag_40:\n      pop\n        /* \"contracts/Historial.sol\":1772:1820  Donation[] memory result = new Donation[](count) */\n      swap1\n      pop\n        /* \"contracts/Historial.sol\":1830:1843  uint256 index */\n      0x00\n        /* \"contracts/Historial.sol\":1925:1934  uint256 i */\n      dup1\n        /* \"contracts/Historial.sol\":1920:2151  for (uint256 i = 0; i < donations.length; i++) {... */\n    tag_44:\n        /* \"contracts/Historial.sol\":1944:1953  donations */\n      0x00\n        /* \"contracts/Historial.sol\":1944:1960  donations.length */\n      dup1\n      sload\n      swap1\n      pop\n        /* \"contracts/Historial.sol\":1940:1941  i */\n      dup2\n        /* \"contracts/Historial.sol\":1940:1960  i < donations.length */\n      lt\n        /* \"contracts/Historial.sol\":1920:2151  for (uint256 i = 0; i < donations.length; i++) {... */\n      iszero\n      tag_45\n      jumpi\n        /* \"contracts/Historial.sol\":2007:2015  _address */\n      dup6\n        /* \"contracts/Historial.sol\":1985:2015  donations[i].donor == _address */\n      0xffffffffffffffffffffffffffffffffffffffff\n      and\n        /* \"contracts/Historial.sol\":1985:1994  donations */\n      0x00\n        /* \"contracts/Historial.sol\":1995:1996  i */\n      dup3\n        /* \"contracts/Historial.sol\":1985:1997  donations[i] */\n      dup2\n      sload\n      dup2\n      lt\n      tag_47\n      jumpi\n      tag_48\n      tag_28\n      jump\t// in\n    tag_48:\n    tag_47:\n      swap1\n      0x00\n      mstore\n      keccak256(0x00, 0x20)\n      swap1\n      0x05\n      mul\n      add\n        /* \"contracts/Historial.sol\":1985:2003  donations[i].donor */\n      0x01\n      add\n      0x00\n      swap1\n      sload\n      swap1\n      0x0100\n      exp\n      swap1\n      div\n      0xffffffffffffffffffffffffffffffffffffffff\n      and\n        /* \"contracts/Historial.sol\":1985:2015  donations[i].donor == _address */\n      0xffffffffffffffffffffffffffffffffffffffff\n      and\n      eq\n        /* \"contracts/Historial.sol\":1985:2053  donations[i].donor == _address || donations[i].recipient == _address */\n      dup1\n      tag_50\n      jumpi\n      pop\n        /* \"contracts/Historial.sol\":2045:2053  _address */\n      dup6\n        /* \"contracts/Historial.sol\":2019:2053  donations[i].recipient == _address */\n      0xffffffffffffffffffffffffffffffffffffffff\n      and\n        /* \"contracts/Historial.sol\":2019:2028  donations */\n      0x00\n        /* \"contracts/Historial.sol\":2029:2030  i */\n      dup3\n        /* \"contracts/Historial.sol\":2019:2031  donations[i] */\n      dup2\n      sload\n      dup2\n      lt\n      tag_51\n      jumpi\n      tag_52\n      tag_28\n      jump\t// in\n    tag_52:\n    tag_51:\n      swap1\n      0x00\n      mstore\n      keccak256(0x00, 0x20)\n      swap1\n      0x05\n      mul\n      add\n        /* \"contracts/Historial.sol\":2019:2041  donations[i].recipient */\n      0x02\n      add\n      0x00\n      swap1\n      sload\n      swap1\n      0x0100\n      exp\n      swap1\n      div\n      0xffffffffffffffffffffffffffffffffffffffff\n      and\n        /* \"contracts/Historial.sol\":2019:2053  donations[i].recipient == _address */\n      0xffffffffffffffffffffffffffffffffffffffff\n      and\n      eq\n        /* \"contracts/Historial.sol\":1985:2053  donations[i].donor == _address || donations[i].recipient == _address */\n    tag_50:\n        /* \"contracts/Historial.sol\":1981:2141  if (donations[i].donor == _address || donations[i].recipient == _address) {... */\n      iszero\n      tag_54\n      jumpi\n        /* \"contracts/Historial.sol\":2089:2098  donations */\n      0x00\n        /* \"contracts/Historial.sol\":2099:2100  i */\n      dup2\n        /* \"contracts/Historial.sol\":2089:2101  donations[i] */\n      dup2\n      sload\n      dup2\n      lt\n      tag_55\n      jumpi\n      tag_56\n      tag_28\n      jump\t// in\n    tag_56:\n    tag_55:\n      swap1\n      0x00\n      mstore\n      keccak256(0x00, 0x20)\n      swap1\n      0x05\n      mul\n      add\n        /* \"contracts/Historial.sol\":2073:2101  result[index] = donations[i] */\n      mload(0x40)\n      dup1\n      0xa0\n      add\n      0x40\n      mstore\n      swap1\n      dup2\n      0x00\n      dup3\n      add\n      sload\n      dup2\n      mstore\n      0x20\n      add\n      0x01\n      dup3\n      add\n      0x00\n      swap1\n      sload\n      swap1\n      0x0100\n      exp\n      swap1\n      div\n      0xffffffffffffffffffffffffffffffffffffffff\n      and\n      0xffffffffffffffffffffffffffffffffffffffff\n      and\n      0xffffffffffffffffffffffffffffffffffffffff\n      and\n      dup2\n      mstore\n      0x20\n      add\n      0x02\n      dup3\n      add\n      0x00\n      swap1\n      sload\n      swap1\n      0x0100\n      exp\n      swap1\n      div\n      0xffffffffffffffffffffffffffffffffffffffff\n      and\n      0xffffffffffffffffffffffffffffffffffffffff\n      and\n      0xffffffffffffffffffffffffffffffffffffffff\n      and\n      dup2\n      mstore\n      0x20\n      add\n      0x03\n      dup3\n      add\n      sload\n      dup2\n      mstore\n      0x20\n      add\n      0x04\n      dup3\n      add\n      sload\n      dup2\n      mstore\n      pop\n      pop\n        /* \"contracts/Historial.sol\":2073:2079  result */\n      dup4\n        /* \"contracts/Historial.sol\":2080:2085  index */\n      dup4\n        /* \"contracts/Historial.sol\":2073:2086  result[index] */\n      dup2\n      mload\n      dup2\n      lt\n      tag_58\n      jumpi\n      tag_59\n      tag_28\n      jump\t// in\n    tag_59:\n    tag_58:\n      0x20\n      mul\n      0x20\n      add\n      add\n        /* \"contracts/Historial.sol\":2073:2101  result[index] = donations[i] */\n      dup2\n      swap1\n      mstore\n      pop\n        /* \"contracts/Historial.sol\":2119:2126  index++ */\n      dup2\n      dup1\n      tag_60\n      swap1\n      tag_36\n      jump\t// in\n    tag_60:\n      swap3\n      pop\n      pop\n        /* \"contracts/Historial.sol\":1981:2141  if (donations[i].donor == _address || donations[i].recipient == _address) {... */\n    tag_54:\n        /* \"contracts/Historial.sol\":1962:1965  i++ */\n      dup1\n      dup1\n      0x01\n      add\n      swap2\n      pop\n      pop\n        /* \"contracts/Historial.sol\":1920:2151  for (uint256 i = 0; i < donations.length; i++) {... */\n      jump(tag_44)\n    tag_45:\n      pop\n        /* \"contracts/Historial.sol\":2168:2174  result */\n      dup2\n        /* \"contracts/Historial.sol\":2161:2174  return result */\n      swap4\n      pop\n      pop\n      pop\n      pop\n        /* \"contracts/Historial.sol\":1293:2181  function getDonationHistoryByAddress(address _address) external view returns (Donation[] memory) {... */\n      swap2\n      swap1\n      pop\n      jump\t// out\n        /* \"contracts/Historial.sol\":761:1192  function recordDonation(uint256 _transactionId, address _donor, address _recipient, uint256 _amount) external {... */\n    tag_15:\n        /* \"contracts/Historial.sol\":881:890  donations */\n      0x00\n        /* \"contracts/Historial.sol\":896:1090  Donation({... */\n      mload(0x40)\n      dup1\n      0xa0\n      add\n      0x40\n      mstore\n      dup1\n        /* \"contracts/Historial.sol\":934:948  _transactionId */\n      dup7\n        /* \"contracts/Historial.sol\":896:1090  Donation({... */\n      dup2\n      mstore\n      0x20\n      add\n        /* \"contracts/Historial.sol\":969:975  _donor */\n      dup6\n        /* \"contracts/Historial.sol\":896:1090  Donation({... */\n      0xffffffffffffffffffffffffffffffffffffffff\n      and\n      dup2\n      mstore\n      0x20\n      add\n        /* \"contracts/Historial.sol\":1000:1010  _recipient */\n      dup5\n        /* \"contracts/Historial.sol\":896:1090  Donation({... */\n      0xffffffffffffffffffffffffffffffffffffffff\n      and\n      dup2\n      mstore\n      0x20\n      add\n        /* \"contracts/Historial.sol\":1032:1039  _amount */\n      dup4\n        /* \"contracts/Historial.sol\":896:1090  Donation({... */\n      dup2\n      mstore\n      0x20\n      add\n        /* \"contracts/Historial.sol\":1064:1079  block.timestamp */\n      timestamp\n        /* \"contracts/Historial.sol\":896:1090  Donation({... */\n      dup2\n      mstore\n      pop\n        /* \"contracts/Historial.sol\":881:1091  donations.push(Donation({... */\n      swap1\n      dup1\n      0x01\n      dup2\n      sload\n      add\n      dup1\n      dup3\n      sstore\n      dup1\n      swap2\n      pop\n      pop\n      0x01\n      swap1\n      sub\n      swap1\n      0x00\n      mstore\n      keccak256(0x00, 0x20)\n      swap1\n      0x05\n      mul\n      add\n      0x00\n      swap1\n      swap2\n      swap1\n      swap2\n      swap1\n      swap2\n      pop\n      0x00\n      dup3\n      add\n      mload\n      dup2\n      0x00\n      add\n      sstore\n      0x20\n      dup3\n      add\n      mload\n      dup2\n      0x01\n      add\n      exp(0x0100, 0x00)\n      dup2\n      sload\n      dup2\n      0xffffffffffffffffffffffffffffffffffffffff\n      mul\n      not\n      and\n      swap1\n      dup4\n      0xffffffffffffffffffffffffffffffffffffffff\n      and\n      mul\n      or\n      swap1\n      sstore\n      pop\n      0x40\n      dup3\n      add\n      mload\n      dup2\n      0x02\n      add\n      exp(0x0100, 0x00)\n      dup2\n      sload\n      dup2\n      0xffffffffffffffffffffffffffffffffffffffff\n      mul\n      not\n      and\n      swap1\n      dup4\n      0xffffffffffffffffffffffffffffffffffffffff\n      and\n      mul\n      or\n      swap1\n      sstore\n      pop\n      0x60\n      dup3\n      add\n      mload\n      dup2\n      0x03\n      add\n      sstore\n      0x80\n      dup3\n      add\n      mload\n      dup2\n      0x04\n      add\n      sstore\n      pop\n      pop\n        /* \"contracts/Historial.sol\":1148:1158  _recipient */\n      dup2\n        /* \"contracts/Historial.sol\":1107:1185  DonationRecorded(_transactionId, _donor, _recipient, _amount, block.timestamp) */\n      0xffffffffffffffffffffffffffffffffffffffff\n      and\n        /* \"contracts/Historial.sol\":1140:1146  _donor */\n      dup4\n        /* \"contracts/Historial.sol\":1107:1185  DonationRecorded(_transactionId, _donor, _recipient, _amount, block.timestamp) */\n      0xffffffffffffffffffffffffffffffffffffffff\n      and\n      0x85539a945a5664bf9101cb74013aa706422fc8124748fd75ab71f03bd3903dce\n        /* \"contracts/Historial.sol\":1124:1138  _transactionId */\n      dup7\n        /* \"contracts/Historial.sol\":1160:1167  _amount */\n      dup5\n        /* \"contracts/Historial.sol\":1169:1184  block.timestamp */\n      timestamp\n        /* \"contracts/Historial.sol\":1107:1185  DonationRecorded(_transactionId, _donor, _recipient, _amount, block.timestamp) */\n      mload(0x40)\n      tag_63\n      swap4\n      swap3\n      swap2\n      swap1\n      tag_64\n      jump\t// in\n    tag_63:\n      mload(0x40)\n      dup1\n      swap2\n      sub\n      swap1\n      log3\n        /* \"contracts/Historial.sol\":761:1192  function recordDonation(uint256 _transactionId, address _donor, address _recipient, uint256 _amount) external {... */\n      pop\n      pop\n      pop\n      pop\n      jump\t// out\n        /* \"contracts/Historial.sol\":468:495  Donation[] public donations */\n    tag_19:\n      0x00\n      dup2\n      dup2\n      sload\n      dup2\n      lt\n      tag_65\n      jumpi\n      0x00\n      dup1\n      revert\n    tag_65:\n      swap1\n      0x00\n      mstore\n      keccak256(0x00, 0x20)\n      swap1\n      0x05\n      mul\n      add\n      0x00\n      swap2\n      pop\n      swap1\n      pop\n      dup1\n      0x00\n      add\n      sload\n      swap1\n      dup1\n      0x01\n      add\n      0x00\n      swap1\n      sload\n      swap1\n      0x0100\n      exp\n      swap1\n      div\n      0xffffffffffffffffffffffffffffffffffffffff\n      and\n      swap1\n      dup1\n      0x02\n      add\n      0x00\n      swap1\n      sload\n      swap1\n      0x0100\n      exp\n      swap1\n      div\n      0xffffffffffffffffffffffffffffffffffffffff\n      and\n      swap1\n      dup1\n      0x03\n      add\n      sload\n      swap1\n      dup1\n      0x04\n      add\n      sload\n      swap1\n      pop\n      dup6\n      jump\t// out\n    tag_43:\n      mload(0x40)\n      dup1\n      0xa0\n      add\n      0x40\n      mstore\n      dup1\n      0x00\n      dup2\n      mstore\n      0x20\n      add\n      and(0xffffffffffffffffffffffffffffffffffffffff, 0x00)\n      dup2\n      mstore\n      0x20\n      add\n      and(0xffffffffffffffffffffffffffffffffffffffff, 0x00)\n      dup2\n      mstore\n      0x20\n      add\n      0x00\n      dup2\n      mstore\n      0x20\n      add\n      0x00\n      dup2\n      mstore\n      pop\n      swap1\n      jump\t// out\n        /* \"#utility.yul\":88:205   */\n    tag_68:\n        /* \"#utility.yul\":197:198   */\n      0x00\n        /* \"#utility.yul\":194:195   */\n      dup1\n        /* \"#utility.yul\":187:199   */\n      revert\n        /* \"#utility.yul\":334:460   */\n    tag_70:\n        /* \"#utility.yul\":371:378   */\n      0x00\n        /* \"#utility.yul\":411:453   */\n      0xffffffffffffffffffffffffffffffffffffffff\n        /* \"#utility.yul\":404:409   */\n      dup3\n        /* \"#utility.yul\":400:454   */\n      and\n        /* \"#utility.yul\":389:454   */\n      swap1\n      pop\n        /* \"#utility.yul\":334:460   */\n      swap2\n      swap1\n      pop\n      jump\t// out\n        /* \"#utility.yul\":466:562   */\n    tag_71:\n        /* \"#utility.yul\":503:510   */\n      0x00\n        /* \"#utility.yul\":532:556   */\n      tag_95\n        /* \"#utility.yul\":550:555   */\n      dup3\n        /* \"#utility.yul\":532:556   */\n      tag_70\n      jump\t// in\n    tag_95:\n        /* \"#utility.yul\":521:556   */\n      swap1\n      pop\n        /* \"#utility.yul\":466:562   */\n      swap2\n      swap1\n      pop\n      jump\t// out\n        /* \"#utility.yul\":568:690   */\n    tag_72:\n        /* \"#utility.yul\":641:665   */\n      tag_97\n        /* \"#utility.yul\":659:664   */\n      dup2\n        /* \"#utility.yul\":641:665   */\n      tag_71\n      jump\t// in\n    tag_97:\n        /* \"#utility.yul\":634:639   */\n      dup2\n        /* \"#utility.yul\":631:666   */\n      eq\n        /* \"#utility.yul\":621:684   */\n      tag_98\n      jumpi\n        /* \"#utility.yul\":680:681   */\n      0x00\n        /* \"#utility.yul\":677:678   */\n      dup1\n        /* \"#utility.yul\":670:682   */\n      revert\n        /* \"#utility.yul\":621:684   */\n    tag_98:\n        /* \"#utility.yul\":568:690   */\n      pop\n      jump\t// out\n        /* \"#utility.yul\":696:835   */\n    tag_73:\n        /* \"#utility.yul\":742:747   */\n      0x00\n        /* \"#utility.yul\":780:786   */\n      dup2\n        /* \"#utility.yul\":767:787   */\n      calldataload\n        /* \"#utility.yul\":758:787   */\n      swap1\n      pop\n        /* \"#utility.yul\":796:829   */\n      tag_100\n        /* \"#utility.yul\":823:828   */\n      dup2\n        /* \"#utility.yul\":796:829   */\n      tag_72\n      jump\t// in\n    tag_100:\n        /* \"#utility.yul\":696:835   */\n      swap3\n      swap2\n      pop\n      pop\n      jump\t// out\n        /* \"#utility.yul\":841:1170   */\n    tag_8:\n        /* \"#utility.yul\":900:906   */\n      0x00\n        /* \"#utility.yul\":949:951   */\n      0x20\n        /* \"#utility.yul\":937:946   */\n      dup3\n        /* \"#utility.yul\":928:935   */\n      dup5\n        /* \"#utility.yul\":924:947   */\n      sub\n        /* \"#utility.yul\":920:952   */\n      slt\n        /* \"#utility.yul\":917:1036   */\n      iszero\n      tag_102\n      jumpi\n        /* \"#utility.yul\":955:1034   */\n      tag_103\n      tag_68\n      jump\t// in\n    tag_103:\n        /* \"#utility.yul\":917:1036   */\n    tag_102:\n        /* \"#utility.yul\":1075:1076   */\n      0x00\n        /* \"#utility.yul\":1100:1153   */\n      tag_104\n        /* \"#utility.yul\":1145:1152   */\n      dup5\n        /* \"#utility.yul\":1136:1142   */\n      dup3\n        /* \"#utility.yul\":1125:1134   */\n      dup6\n        /* \"#utility.yul\":1121:1143   */\n      add\n        /* \"#utility.yul\":1100:1153   */\n      tag_73\n      jump\t// in\n    tag_104:\n        /* \"#utility.yul\":1090:1153   */\n      swap2\n      pop\n        /* \"#utility.yul\":1046:1163   */\n      pop\n        /* \"#utility.yul\":841:1170   */\n      swap3\n      swap2\n      pop\n      pop\n      jump\t// out\n        /* \"#utility.yul\":1176:1314   */\n    tag_74:\n        /* \"#utility.yul\":1267:1273   */\n      0x00\n        /* \"#utility.yul\":1301:1306   */\n      dup2\n        /* \"#utility.yul\":1295:1307   */\n      mload\n        /* \"#utility.yul\":1285:1307   */\n      swap1\n      pop\n        /* \"#utility.yul\":1176:1314   */\n      swap2\n      swap1\n      pop\n      jump\t// out\n        /* \"#utility.yul\":1320:1528   */\n    tag_75:\n        /* \"#utility.yul\":1443:1454   */\n      0x00\n        /* \"#utility.yul\":1477:1483   */\n      dup3\n        /* \"#utility.yul\":1472:1475   */\n      dup3\n        /* \"#utility.yul\":1465:1484   */\n      mstore\n        /* \"#utility.yul\":1517:1521   */\n      0x20\n        /* \"#utility.yul\":1512:1515   */\n      dup3\n        /* \"#utility.yul\":1508:1522   */\n      add\n        /* \"#utility.yul\":1493:1522   */\n      swap1\n      pop\n        /* \"#utility.yul\":1320:1528   */\n      swap3\n      swap2\n      pop\n      pop\n      jump\t// out\n        /* \"#utility.yul\":1534:1690   */\n    tag_76:\n        /* \"#utility.yul\":1625:1629   */\n      0x00\n        /* \"#utility.yul\":1648:1651   */\n      dup2\n        /* \"#utility.yul\":1640:1651   */\n      swap1\n      pop\n        /* \"#utility.yul\":1678:1682   */\n      0x20\n        /* \"#utility.yul\":1673:1676   */\n      dup3\n        /* \"#utility.yul\":1669:1683   */\n      add\n        /* \"#utility.yul\":1661:1683   */\n      swap1\n      pop\n        /* \"#utility.yul\":1534:1690   */\n      swap2\n      swap1\n      pop\n      jump\t// out\n        /* \"#utility.yul\":1696:1773   */\n    tag_77:\n        /* \"#utility.yul\":1733:1740   */\n      0x00\n        /* \"#utility.yul\":1762:1767   */\n      dup2\n        /* \"#utility.yul\":1751:1767   */\n      swap1\n      pop\n        /* \"#utility.yul\":1696:1773   */\n      swap2\n      swap1\n      pop\n      jump\t// out\n        /* \"#utility.yul\":1779:1887   */\n    tag_78:\n        /* \"#utility.yul\":1856:1880   */\n      tag_110\n        /* \"#utility.yul\":1874:1879   */\n      dup2\n        /* \"#utility.yul\":1856:1880   */\n      tag_77\n      jump\t// in\n    tag_110:\n        /* \"#utility.yul\":1851:1854   */\n      dup3\n        /* \"#utility.yul\":1844:1881   */\n      mstore\n        /* \"#utility.yul\":1779:1887   */\n      pop\n      pop\n      jump\t// out\n        /* \"#utility.yul\":1893:2001   */\n    tag_79:\n        /* \"#utility.yul\":1970:1994   */\n      tag_112\n        /* \"#utility.yul\":1988:1993   */\n      dup2\n        /* \"#utility.yul\":1970:1994   */\n      tag_71\n      jump\t// in\n    tag_112:\n        /* \"#utility.yul\":1965:1968   */\n      dup3\n        /* \"#utility.yul\":1958:1995   */\n      mstore\n        /* \"#utility.yul\":1893:2001   */\n      pop\n      pop\n      jump\t// out\n        /* \"#utility.yul\":2087:3126   */\n    tag_80:\n        /* \"#utility.yul\":2222:2226   */\n      0xa0\n        /* \"#utility.yul\":2217:2220   */\n      dup3\n        /* \"#utility.yul\":2213:2227   */\n      add\n        /* \"#utility.yul\":2318:2322   */\n      0x00\n        /* \"#utility.yul\":2311:2316   */\n      dup3\n        /* \"#utility.yul\":2307:2323   */\n      add\n        /* \"#utility.yul\":2301:2324   */\n      mload\n        /* \"#utility.yul\":2337:2400   */\n      tag_114\n        /* \"#utility.yul\":2394:2398   */\n      0x00\n        /* \"#utility.yul\":2389:2392   */\n      dup6\n        /* \"#utility.yul\":2385:2399   */\n      add\n        /* \"#utility.yul\":2371:2383   */\n      dup3\n        /* \"#utility.yul\":2337:2400   */\n      tag_78\n      jump\t// in\n    tag_114:\n        /* \"#utility.yul\":2237:2410   */\n      pop\n        /* \"#utility.yul\":2493:2497   */\n      0x20\n        /* \"#utility.yul\":2486:2491   */\n      dup3\n        /* \"#utility.yul\":2482:2498   */\n      add\n        /* \"#utility.yul\":2476:2499   */\n      mload\n        /* \"#utility.yul\":2512:2575   */\n      tag_115\n        /* \"#utility.yul\":2569:2573   */\n      0x20\n        /* \"#utility.yul\":2564:2567   */\n      dup6\n        /* \"#utility.yul\":2560:2574   */\n      add\n        /* \"#utility.yul\":2546:2558   */\n      dup3\n        /* \"#utility.yul\":2512:2575   */\n      tag_79\n      jump\t// in\n    tag_115:\n        /* \"#utility.yul\":2420:2585   */\n      pop\n        /* \"#utility.yul\":2672:2676   */\n      0x40\n        /* \"#utility.yul\":2665:2670   */\n      dup3\n        /* \"#utility.yul\":2661:2677   */\n      add\n        /* \"#utility.yul\":2655:2678   */\n      mload\n        /* \"#utility.yul\":2691:2754   */\n      tag_116\n        /* \"#utility.yul\":2748:2752   */\n      0x40\n        /* \"#utility.yul\":2743:2746   */\n      dup6\n        /* \"#utility.yul\":2739:2753   */\n      add\n        /* \"#utility.yul\":2725:2737   */\n      dup3\n        /* \"#utility.yul\":2691:2754   */\n      tag_79\n      jump\t// in\n    tag_116:\n        /* \"#utility.yul\":2595:2764   */\n      pop\n        /* \"#utility.yul\":2848:2852   */\n      0x60\n        /* \"#utility.yul\":2841:2846   */\n      dup3\n        /* \"#utility.yul\":2837:2853   */\n      add\n        /* \"#utility.yul\":2831:2854   */\n      mload\n        /* \"#utility.yul\":2867:2930   */\n      tag_117\n        /* \"#utility.yul\":2924:2928   */\n      0x60\n        /* \"#utility.yul\":2919:2922   */\n      dup6\n        /* \"#utility.yul\":2915:2929   */\n      add\n        /* \"#utility.yul\":2901:2913   */\n      dup3\n        /* \"#utility.yul\":2867:2930   */\n      tag_78\n      jump\t// in\n    tag_117:\n        /* \"#utility.yul\":2774:2940   */\n      pop\n        /* \"#utility.yul\":3027:3031   */\n      0x80\n        /* \"#utility.yul\":3020:3025   */\n      dup3\n        /* \"#utility.yul\":3016:3032   */\n      add\n        /* \"#utility.yul\":3010:3033   */\n      mload\n        /* \"#utility.yul\":3046:3109   */\n      tag_118\n        /* \"#utility.yul\":3103:3107   */\n      0x80\n        /* \"#utility.yul\":3098:3101   */\n      dup6\n        /* \"#utility.yul\":3094:3108   */\n      add\n        /* \"#utility.yul\":3080:3092   */\n      dup3\n        /* \"#utility.yul\":3046:3109   */\n      tag_78\n      jump\t// in\n    tag_118:\n        /* \"#utility.yul\":2950:3119   */\n      pop\n        /* \"#utility.yul\":2191:3126   */\n      pop\n        /* \"#utility.yul\":2087:3126   */\n      pop\n      pop\n      jump\t// out\n        /* \"#utility.yul\":3132:3407   */\n    tag_81:\n        /* \"#utility.yul\":3249:3259   */\n      0x00\n        /* \"#utility.yul\":3270:3364   */\n      tag_120\n        /* \"#utility.yul\":3360:3363   */\n      dup4\n        /* \"#utility.yul\":3352:3358   */\n      dup4\n        /* \"#utility.yul\":3270:3364   */\n      tag_80\n      jump\t// in\n    tag_120:\n        /* \"#utility.yul\":3396:3400   */\n      0xa0\n        /* \"#utility.yul\":3391:3394   */\n      dup4\n        /* \"#utility.yul\":3387:3401   */\n      add\n        /* \"#utility.yul\":3373:3401   */\n      swap1\n      pop\n        /* \"#utility.yul\":3132:3407   */\n      swap3\n      swap2\n      pop\n      pop\n      jump\t// out\n        /* \"#utility.yul\":3413:3550   */\n    tag_82:\n        /* \"#utility.yul\":3507:3511   */\n      0x00\n        /* \"#utility.yul\":3539:3543   */\n      0x20\n        /* \"#utility.yul\":3534:3537   */\n      dup3\n        /* \"#utility.yul\":3530:3544   */\n      add\n        /* \"#utility.yul\":3522:3544   */\n      swap1\n      pop\n        /* \"#utility.yul\":3413:3550   */\n      swap2\n      swap1\n      pop\n      jump\t// out\n        /* \"#utility.yul\":3640:4564   */\n    tag_83:\n        /* \"#utility.yul\":3807:3810   */\n      0x00\n        /* \"#utility.yul\":3836:3914   */\n      tag_123\n        /* \"#utility.yul\":3908:3913   */\n      dup3\n        /* \"#utility.yul\":3836:3914   */\n      tag_74\n      jump\t// in\n    tag_123:\n        /* \"#utility.yul\":3930:4040   */\n      tag_124\n        /* \"#utility.yul\":4033:4039   */\n      dup2\n        /* \"#utility.yul\":4028:4031   */\n      dup6\n        /* \"#utility.yul\":3930:4040   */\n      tag_75\n      jump\t// in\n    tag_124:\n        /* \"#utility.yul\":3923:4040   */\n      swap4\n      pop\n        /* \"#utility.yul\":4064:4144   */\n      tag_125\n        /* \"#utility.yul\":4138:4143   */\n      dup4\n        /* \"#utility.yul\":4064:4144   */\n      tag_76\n      jump\t// in\n    tag_125:\n        /* \"#utility.yul\":4167:4174   */\n      dup1\n        /* \"#utility.yul\":4198:4199   */\n      0x00\n        /* \"#utility.yul\":4183:4539   */\n    tag_126:\n        /* \"#utility.yul\":4208:4214   */\n      dup4\n        /* \"#utility.yul\":4205:4206   */\n      dup2\n        /* \"#utility.yul\":4202:4215   */\n      lt\n        /* \"#utility.yul\":4183:4539   */\n      iszero\n      tag_128\n      jumpi\n        /* \"#utility.yul\":4284:4290   */\n      dup2\n        /* \"#utility.yul\":4278:4291   */\n      mload\n        /* \"#utility.yul\":4311:4422   */\n      tag_129\n        /* \"#utility.yul\":4418:4421   */\n      dup9\n        /* \"#utility.yul\":4403:4416   */\n      dup3\n        /* \"#utility.yul\":4311:4422   */\n      tag_81\n      jump\t// in\n    tag_129:\n        /* \"#utility.yul\":4304:4422   */\n      swap8\n      pop\n        /* \"#utility.yul\":4445:4529   */\n      tag_130\n        /* \"#utility.yul\":4522:4528   */\n      dup4\n        /* \"#utility.yul\":4445:4529   */\n      tag_82\n      jump\t// in\n    tag_130:\n        /* \"#utility.yul\":4435:4529   */\n      swap3\n      pop\n        /* \"#utility.yul\":4243:4539   */\n      pop\n        /* \"#utility.yul\":4230:4231   */\n      0x01\n        /* \"#utility.yul\":4227:4228   */\n      dup2\n        /* \"#utility.yul\":4223:4232   */\n      add\n        /* \"#utility.yul\":4218:4232   */\n      swap1\n      pop\n        /* \"#utility.yul\":4183:4539   */\n      jump(tag_126)\n    tag_128:\n        /* \"#utility.yul\":4187:4201   */\n      pop\n        /* \"#utility.yul\":4555:4558   */\n      dup6\n        /* \"#utility.yul\":4548:4558   */\n      swap4\n      pop\n        /* \"#utility.yul\":3812:4564   */\n      pop\n      pop\n      pop\n        /* \"#utility.yul\":3640:4564   */\n      swap3\n      swap2\n      pop\n      pop\n      jump\t// out\n        /* \"#utility.yul\":4570:5039   */\n    tag_11:\n        /* \"#utility.yul\":4761:4765   */\n      0x00\n        /* \"#utility.yul\":4799:4801   */\n      0x20\n        /* \"#utility.yul\":4788:4797   */\n      dup3\n        /* \"#utility.yul\":4784:4802   */\n      add\n        /* \"#utility.yul\":4776:4802   */\n      swap1\n      pop\n        /* \"#utility.yul\":4848:4857   */\n      dup2\n        /* \"#utility.yul\":4842:4846   */\n      dup2\n        /* \"#utility.yul\":4838:4858   */\n      sub\n        /* \"#utility.yul\":4834:4835   */\n      0x00\n        /* \"#utility.yul\":4823:4832   */\n      dup4\n        /* \"#utility.yul\":4819:4836   */\n      add\n        /* \"#utility.yul\":4812:4859   */\n      mstore\n        /* \"#utility.yul\":4876:5032   */\n      tag_132\n        /* \"#utility.yul\":5027:5031   */\n      dup2\n        /* \"#utility.yul\":5018:5024   */\n      dup5\n        /* \"#utility.yul\":4876:5032   */\n      tag_83\n      jump\t// in\n    tag_132:\n        /* \"#utility.yul\":4868:5032   */\n      swap1\n      pop\n        /* \"#utility.yul\":4570:5039   */\n      swap3\n      swap2\n      pop\n      pop\n      jump\t// out\n        /* \"#utility.yul\":5045:5167   */\n    tag_84:\n        /* \"#utility.yul\":5118:5142   */\n      tag_134\n        /* \"#utility.yul\":5136:5141   */\n      dup2\n        /* \"#utility.yul\":5118:5142   */\n      tag_77\n      jump\t// in\n    tag_134:\n        /* \"#utility.yul\":5111:5116   */\n      dup2\n        /* \"#utility.yul\":5108:5143   */\n      eq\n        /* \"#utility.yul\":5098:5161   */\n      tag_135\n      jumpi\n        /* \"#utility.yul\":5157:5158   */\n      0x00\n        /* \"#utility.yul\":5154:5155   */\n      dup1\n        /* \"#utility.yul\":5147:5159   */\n      revert\n        /* \"#utility.yul\":5098:5161   */\n    tag_135:\n        /* \"#utility.yul\":5045:5167   */\n      pop\n      jump\t// out\n        /* \"#utility.yul\":5173:5312   */\n    tag_85:\n        /* \"#utility.yul\":5219:5224   */\n      0x00\n        /* \"#utility.yul\":5257:5263   */\n      dup2\n        /* \"#utility.yul\":5244:5264   */\n      calldataload\n        /* \"#utility.yul\":5235:5264   */\n      swap1\n      pop\n        /* \"#utility.yul\":5273:5306   */\n      tag_137\n        /* \"#utility.yul\":5300:5305   */\n      dup2\n        /* \"#utility.yul\":5273:5306   */\n      tag_84\n      jump\t// in\n    tag_137:\n        /* \"#utility.yul\":5173:5312   */\n      swap3\n      swap2\n      pop\n      pop\n      jump\t// out\n        /* \"#utility.yul\":5318:6083   */\n    tag_14:\n        /* \"#utility.yul\":5404:5410   */\n      0x00\n        /* \"#utility.yul\":5412:5418   */\n      dup1\n        /* \"#utility.yul\":5420:5426   */\n      0x00\n        /* \"#utility.yul\":5428:5434   */\n      dup1\n        /* \"#utility.yul\":5477:5480   */\n      0x80\n        /* \"#utility.yul\":5465:5474   */\n      dup6\n        /* \"#utility.yul\":5456:5463   */\n      dup8\n        /* \"#utility.yul\":5452:5475   */\n      sub\n        /* \"#utility.yul\":5448:5481   */\n      slt\n        /* \"#utility.yul\":5445:5565   */\n      iszero\n      tag_139\n      jumpi\n        /* \"#utility.yul\":5484:5563   */\n      tag_140\n      tag_68\n      jump\t// in\n    tag_140:\n        /* \"#utility.yul\":5445:5565   */\n    tag_139:\n        /* \"#utility.yul\":5604:5605   */\n      0x00\n        /* \"#utility.yul\":5629:5682   */\n      tag_141\n        /* \"#utility.yul\":5674:5681   */\n      dup8\n        /* \"#utility.yul\":5665:5671   */\n      dup3\n        /* \"#utility.yul\":5654:5663   */\n      dup9\n        /* \"#utility.yul\":5650:5672   */\n      add\n        /* \"#utility.yul\":5629:5682   */\n      tag_85\n      jump\t// in\n    tag_141:\n        /* \"#utility.yul\":5619:5682   */\n      swap5\n      pop\n        /* \"#utility.yul\":5575:5692   */\n      pop\n        /* \"#utility.yul\":5731:5733   */\n      0x20\n        /* \"#utility.yul\":5757:5810   */\n      tag_142\n        /* \"#utility.yul\":5802:5809   */\n      dup8\n        /* \"#utility.yul\":5793:5799   */\n      dup3\n        /* \"#utility.yul\":5782:5791   */\n      dup9\n        /* \"#utility.yul\":5778:5800   */\n      add\n        /* \"#utility.yul\":5757:5810   */\n      tag_73\n      jump\t// in\n    tag_142:\n        /* \"#utility.yul\":5747:5810   */\n      swap4\n      pop\n        /* \"#utility.yul\":5702:5820   */\n      pop\n        /* \"#utility.yul\":5859:5861   */\n      0x40\n        /* \"#utility.yul\":5885:5938   */\n      tag_143\n        /* \"#utility.yul\":5930:5937   */\n      dup8\n        /* \"#utility.yul\":5921:5927   */\n      dup3\n        /* \"#utility.yul\":5910:5919   */\n      dup9\n        /* \"#utility.yul\":5906:5928   */\n      add\n        /* \"#utility.yul\":5885:5938   */\n      tag_73\n      jump\t// in\n    tag_143:\n        /* \"#utility.yul\":5875:5938   */\n      swap3\n      pop\n        /* \"#utility.yul\":5830:5948   */\n      pop\n        /* \"#utility.yul\":5987:5989   */\n      0x60\n        /* \"#utility.yul\":6013:6066   */\n      tag_144\n        /* \"#utility.yul\":6058:6065   */\n      dup8\n        /* \"#utility.yul\":6049:6055   */\n      dup3\n        /* \"#utility.yul\":6038:6047   */\n      dup9\n        /* \"#utility.yul\":6034:6056   */\n      add\n        /* \"#utility.yul\":6013:6066   */\n      tag_85\n      jump\t// in\n    tag_144:\n        /* \"#utility.yul\":6003:6066   */\n      swap2\n      pop\n        /* \"#utility.yul\":5958:6076   */\n      pop\n        /* \"#utility.yul\":5318:6083   */\n      swap3\n      swap6\n      swap2\n      swap5\n      pop\n      swap3\n      pop\n      jump\t// out\n        /* \"#utility.yul\":6089:6418   */\n    tag_18:\n        /* \"#utility.yul\":6148:6154   */\n      0x00\n        /* \"#utility.yul\":6197:6199   */\n      0x20\n        /* \"#utility.yul\":6185:6194   */\n      dup3\n        /* \"#utility.yul\":6176:6183   */\n      dup5\n        /* \"#utility.yul\":6172:6195   */\n      sub\n        /* \"#utility.yul\":6168:6200   */\n      slt\n        /* \"#utility.yul\":6165:6284   */\n      iszero\n      tag_146\n      jumpi\n        /* \"#utility.yul\":6203:6282   */\n      tag_147\n      tag_68\n      jump\t// in\n    tag_147:\n        /* \"#utility.yul\":6165:6284   */\n    tag_146:\n        /* \"#utility.yul\":6323:6324   */\n      0x00\n        /* \"#utility.yul\":6348:6401   */\n      tag_148\n        /* \"#utility.yul\":6393:6400   */\n      dup5\n        /* \"#utility.yul\":6384:6390   */\n      dup3\n        /* \"#utility.yul\":6373:6382   */\n      dup6\n        /* \"#utility.yul\":6369:6391   */\n      add\n        /* \"#utility.yul\":6348:6401   */\n      tag_85\n      jump\t// in\n    tag_148:\n        /* \"#utility.yul\":6338:6401   */\n      swap2\n      pop\n        /* \"#utility.yul\":6294:6411   */\n      pop\n        /* \"#utility.yul\":6089:6418   */\n      swap3\n      swap2\n      pop\n      pop\n      jump\t// out\n        /* \"#utility.yul\":6424:6542   */\n    tag_86:\n        /* \"#utility.yul\":6511:6535   */\n      tag_150\n        /* \"#utility.yul\":6529:6534   */\n      dup2\n        /* \"#utility.yul\":6511:6535   */\n      tag_77\n      jump\t// in\n    tag_150:\n        /* \"#utility.yul\":6506:6509   */\n      dup3\n        /* \"#utility.yul\":6499:6536   */\n      mstore\n        /* \"#utility.yul\":6424:6542   */\n      pop\n      pop\n      jump\t// out\n        /* \"#utility.yul\":6548:6666   */\n    tag_87:\n        /* \"#utility.yul\":6635:6659   */\n      tag_152\n        /* \"#utility.yul\":6653:6658   */\n      dup2\n        /* \"#utility.yul\":6635:6659   */\n      tag_71\n      jump\t// in\n    tag_152:\n        /* \"#utility.yul\":6630:6633   */\n      dup3\n        /* \"#utility.yul\":6623:6660   */\n      mstore\n        /* \"#utility.yul\":6548:6666   */\n      pop\n      pop\n      jump\t// out\n        /* \"#utility.yul\":6672:7336   */\n    tag_21:\n        /* \"#utility.yul\":6877:6881   */\n      0x00\n        /* \"#utility.yul\":6915:6918   */\n      0xa0\n        /* \"#utility.yul\":6904:6913   */\n      dup3\n        /* \"#utility.yul\":6900:6919   */\n      add\n        /* \"#utility.yul\":6892:6919   */\n      swap1\n      pop\n        /* \"#utility.yul\":6929:7000   */\n      tag_154\n        /* \"#utility.yul\":6997:6998   */\n      0x00\n        /* \"#utility.yul\":6986:6995   */\n      dup4\n        /* \"#utility.yul\":6982:6999   */\n      add\n        /* \"#utility.yul\":6973:6979   */\n      dup9\n        /* \"#utility.yul\":6929:7000   */\n      tag_86\n      jump\t// in\n    tag_154:\n        /* \"#utility.yul\":7010:7082   */\n      tag_155\n        /* \"#utility.yul\":7078:7080   */\n      0x20\n        /* \"#utility.yul\":7067:7076   */\n      dup4\n        /* \"#utility.yul\":7063:7081   */\n      add\n        /* \"#utility.yul\":7054:7060   */\n      dup8\n        /* \"#utility.yul\":7010:7082   */\n      tag_87\n      jump\t// in\n    tag_155:\n        /* \"#utility.yul\":7092:7164   */\n      tag_156\n        /* \"#utility.yul\":7160:7162   */\n      0x40\n        /* \"#utility.yul\":7149:7158   */\n      dup4\n        /* \"#utility.yul\":7145:7163   */\n      add\n        /* \"#utility.yul\":7136:7142   */\n      dup7\n        /* \"#utility.yul\":7092:7164   */\n      tag_87\n      jump\t// in\n    tag_156:\n        /* \"#utility.yul\":7174:7246   */\n      tag_157\n        /* \"#utility.yul\":7242:7244   */\n      0x60\n        /* \"#utility.yul\":7231:7240   */\n      dup4\n        /* \"#utility.yul\":7227:7245   */\n      add\n        /* \"#utility.yul\":7218:7224   */\n      dup6\n        /* \"#utility.yul\":7174:7246   */\n      tag_86\n      jump\t// in\n    tag_157:\n        /* \"#utility.yul\":7256:7329   */\n      tag_158\n        /* \"#utility.yul\":7324:7327   */\n      0x80\n        /* \"#utility.yul\":7313:7322   */\n      dup4\n        /* \"#utility.yul\":7309:7328   */\n      add\n        /* \"#utility.yul\":7300:7306   */\n      dup5\n        /* \"#utility.yul\":7256:7329   */\n      tag_86\n      jump\t// in\n    tag_158:\n        /* \"#utility.yul\":6672:7336   */\n      swap7\n      swap6\n      pop\n      pop\n      pop\n      pop\n      pop\n      pop\n      jump\t// out\n        /* \"#utility.yul\":7342:7522   */\n    tag_28:\n        /* \"#utility.yul\":7390:7467   */\n      0x4e487b7100000000000000000000000000000000000000000000000000000000\n        /* \"#utility.yul\":7387:7388   */\n      0x00\n        /* \"#utility.yul\":7380:7468   */\n      mstore\n        /* \"#utility.yul\":7487:7491   */\n      0x32\n        /* \"#utility.yul\":7484:7485   */\n      0x04\n        /* \"#utility.yul\":7477:7492   */\n      mstore\n        /* \"#utility.yul\":7511:7515   */\n      0x24\n        /* \"#utility.yul\":7508:7509   */\n      0x00\n        /* \"#utility.yul\":7501:7516   */\n      revert\n        /* \"#utility.yul\":7528:7708   */\n    tag_88:\n        /* \"#utility.yul\":7576:7653   */\n      0x4e487b7100000000000000000000000000000000000000000000000000000000\n        /* \"#utility.yul\":7573:7574   */\n      0x00\n        /* \"#utility.yul\":7566:7654   */\n      mstore\n        /* \"#utility.yul\":7673:7677   */\n      0x11\n        /* \"#utility.yul\":7670:7671   */\n      0x04\n        /* \"#utility.yul\":7663:7678   */\n      mstore\n        /* \"#utility.yul\":7697:7701   */\n      0x24\n        /* \"#utility.yul\":7694:7695   */\n      0x00\n        /* \"#utility.yul\":7687:7702   */\n      revert\n        /* \"#utility.yul\":7714:7947   */\n    tag_36:\n        /* \"#utility.yul\":7753:7756   */\n      0x00\n        /* \"#utility.yul\":7776:7800   */\n      tag_162\n        /* \"#utility.yul\":7794:7799   */\n      dup3\n        /* \"#utility.yul\":7776:7800   */\n      tag_77\n      jump\t// in\n    tag_162:\n        /* \"#utility.yul\":7767:7800   */\n      swap2\n      pop\n        /* \"#utility.yul\":7822:7888   */\n      0xffffffffffffffffffffffffffffffffffffffffffffffffffffffffffffffff\n        /* \"#utility.yul\":7815:7820   */\n      dup3\n        /* \"#utility.yul\":7812:7889   */\n      sub\n        /* \"#utility.yul\":7809:7912   */\n      tag_163\n      jumpi\n        /* \"#utility.yul\":7892:7910   */\n      tag_164\n      tag_88\n      jump\t// in\n    tag_164:\n        /* \"#utility.yul\":7809:7912   */\n    tag_163:\n        /* \"#utility.yul\":7939:7940   */\n      0x01\n        /* \"#utility.yul\":7932:7937   */\n      dup3\n        /* \"#utility.yul\":7928:7941   */\n      add\n        /* \"#utility.yul\":7921:7941   */\n      swap1\n      pop\n        /* \"#utility.yul\":7714:7947   */\n      swap2\n      swap1\n      pop\n      jump\t// out\n        /* \"#utility.yul\":7953:8133   */\n    tag_39:\n        /* \"#utility.yul\":8001:8078   */\n      0x4e487b7100000000000000000000000000000000000000000000000000000000\n        /* \"#utility.yul\":7998:7999   */\n      0x00\n        /* \"#utility.yul\":7991:8079   */\n      mstore\n        /* \"#utility.yul\":8098:8102   */\n      0x41\n        /* \"#utility.yul\":8095:8096   */\n      0x04\n        /* \"#utility.yul\":8088:8103   */\n      mstore\n        /* \"#utility.yul\":8122:8126   */\n      0x24\n        /* \"#utility.yul\":8119:8120   */\n      0x00\n        /* \"#utility.yul\":8112:8127   */\n      revert\n        /* \"#utility.yul\":8139:8581   */\n    tag_64:\n        /* \"#utility.yul\":8288:8292   */\n      0x00\n        /* \"#utility.yul\":8326:8328   */\n      0x60\n        /* \"#utility.yul\":8315:8324   */\n      dup3\n        /* \"#utility.yul\":8311:8329   */\n      add\n        /* \"#utility.yul\":8303:8329   */\n      swap1\n      pop\n        /* \"#utility.yul\":8339:8410   */\n      tag_167\n        /* \"#utility.yul\":8407:8408   */\n      0x00\n        /* \"#utility.yul\":8396:8405   */\n      dup4\n        /* \"#utility.yul\":8392:8409   */\n      add\n        /* \"#utility.yul\":8383:8389   */\n      dup7\n        /* \"#utility.yul\":8339:8410   */\n      tag_86\n      jump\t// in\n    tag_167:\n        /* \"#utility.yul\":8420:8492   */\n      tag_168\n        /* \"#utility.yul\":8488:8490   */\n      0x20\n        /* \"#utility.yul\":8477:8486   */\n      dup4\n        /* \"#utility.yul\":8473:8491   */\n      add\n        /* \"#utility.yul\":8464:8470   */\n      dup6\n        /* \"#utility.yul\":8420:8492   */\n      tag_86\n      jump\t// in\n    tag_168:\n        /* \"#utility.yul\":8502:8574   */\n      tag_169\n        /* \"#utility.yul\":8570:8572   */\n      0x40\n        /* \"#utility.yul\":8559:8568   */\n      dup4\n        /* \"#utility.yul\":8555:8573   */\n      add\n        /* \"#utility.yul\":8546:8552   */\n      dup5\n        /* \"#utility.yul\":8502:8574   */\n      tag_86\n      jump\t// in\n    tag_169:\n        /* \"#utility.yul\":8139:8581   */\n      swap5\n      swap4\n      pop\n      pop\n      pop\n      pop\n      jump\t// out\n\n    auxdata: 0xa2646970667358221220350fd95bc2508ac74062973132d68722c83dfb07e59621456066f253faceaab064736f6c634300081a0033\n}\n",
				"bytecode": {
					"linkReferences": {},
					"object": "6080604052348015600e575f80fd5b50610b0c8061001c5f395ff3fe608060405234801561000f575f80fd5b506004361061003f575f3560e01c80636bf8a162146100435780638e05955914610073578063f8626af81461008f575b5f80fd5b61005d6004803603810190610058919061072b565b6100c3565b60405161006a919061088b565b60405180910390f35b61008d600480360381019061008891906108d5565b610466565b005b6100a960048036038101906100a49190610939565b6105f9565b6040516100ba959493929190610982565b60405180910390f35b60605f805b5f805490508110156101dc578373ffffffffffffffffffffffffffffffffffffffff165f82815481106100fe576100fd6109d3565b5b905f5260205f2090600502016001015f9054906101000a900473ffffffffffffffffffffffffffffffffffffffff1673ffffffffffffffffffffffffffffffffffffffff1614806101bb57508373ffffffffffffffffffffffffffffffffffffffff165f8281548110610174576101736109d3565b5b905f5260205f2090600502016002015f9054906101000a900473ffffffffffffffffffffffffffffffffffffffff1673ffffffffffffffffffffffffffffffffffffffff16145b156101cf5781806101cb90610a2d565b9250505b80806001019150506100c8565b505f8167ffffffffffffffff8111156101f8576101f7610a74565b5b60405190808252806020026020018201604052801561023157816020015b61021e610677565b8152602001906001900390816102165790505b5090505f805b5f8054905081101561045a578573ffffffffffffffffffffffffffffffffffffffff165f828154811061026d5761026c6109d3565b5b905f5260205f2090600502016001015f9054906101000a900473ffffffffffffffffffffffffffffffffffffffff1673ffffffffffffffffffffffffffffffffffffffff16148061032a57508573ffffffffffffffffffffffffffffffffffffffff165f82815481106102e3576102e26109d3565b5b905f5260205f2090600502016002015f9054906101000a900473ffffffffffffffffffffffffffffffffffffffff1673ffffffffffffffffffffffffffffffffffffffff16145b1561044d575f8181548110610342576103416109d3565b5b905f5260205f2090600502016040518060a00160405290815f8201548152602001600182015f9054906101000a900473ffffffffffffffffffffffffffffffffffffffff1673ffffffffffffffffffffffffffffffffffffffff1673ffffffffffffffffffffffffffffffffffffffff168152602001600282015f9054906101000a900473ffffffffffffffffffffffffffffffffffffffff1673ffffffffffffffffffffffffffffffffffffffff1673ffffffffffffffffffffffffffffffffffffffff16815260200160038201548152602001600482015481525050838381518110610433576104326109d3565b5b6020026020010181905250818061044990610a2d565b9250505b8080600101915050610237565b50819350505050919050565b5f6040518060a001604052808681526020018573ffffffffffffffffffffffffffffffffffffffff1681526020018473ffffffffffffffffffffffffffffffffffffffff16815260200183815260200142815250908060018154018082558091505060019003905f5260205f2090600502015f909190919091505f820151815f01556020820151816001015f6101000a81548173ffffffffffffffffffffffffffffffffffffffff021916908373ffffffffffffffffffffffffffffffffffffffff1602179055506040820151816002015f6101000a81548173ffffffffffffffffffffffffffffffffffffffff021916908373ffffffffffffffffffffffffffffffffffffffff160217905550606082015181600301556080820151816004015550508173ffffffffffffffffffffffffffffffffffffffff168373ffffffffffffffffffffffffffffffffffffffff167f85539a945a5664bf9101cb74013aa706422fc8124748fd75ab71f03bd3903dce8684426040516105eb93929190610aa1565b60405180910390a350505050565b5f8181548110610607575f80fd5b905f5260205f2090600502015f91509050805f015490806001015f9054906101000a900473ffffffffffffffffffffffffffffffffffffffff1690806002015f9054906101000a900473ffffffffffffffffffffffffffffffffffffffff16908060030154908060040154905085565b6040518060a001604052805f81526020015f73ffffffffffffffffffffffffffffffffffffffff1681526020015f73ffffffffffffffffffffffffffffffffffffffff1681526020015f81526020015f81525090565b5f80fd5b5f73ffffffffffffffffffffffffffffffffffffffff82169050919050565b5f6106fa826106d1565b9050919050565b61070a816106f0565b8114610714575f80fd5b50565b5f8135905061072581610701565b92915050565b5f602082840312156107405761073f6106cd565b5b5f61074d84828501610717565b91505092915050565b5f81519050919050565b5f82825260208201905092915050565b5f819050602082019050919050565b5f819050919050565b6107918161077f565b82525050565b6107a0816106f0565b82525050565b60a082015f8201516107ba5f850182610788565b5060208201516107cd6020850182610797565b5060408201516107e06040850182610797565b5060608201516107f36060850182610788565b5060808201516108066080850182610788565b50505050565b5f61081783836107a6565b60a08301905092915050565b5f602082019050919050565b5f61083982610756565b6108438185610760565b935061084e83610770565b805f5b8381101561087e578151610865888261080c565b975061087083610823565b925050600181019050610851565b5085935050505092915050565b5f6020820190508181035f8301526108a3818461082f565b905092915050565b6108b48161077f565b81146108be575f80fd5b50565b5f813590506108cf816108ab565b92915050565b5f805f80608085870312156108ed576108ec6106cd565b5b5f6108fa878288016108c1565b945050602061090b87828801610717565b935050604061091c87828801610717565b925050606061092d878288016108c1565b91505092959194509250565b5f6020828403121561094e5761094d6106cd565b5b5f61095b848285016108c1565b91505092915050565b61096d8161077f565b82525050565b61097c816106f0565b82525050565b5f60a0820190506109955f830188610964565b6109a26020830187610973565b6109af6040830186610973565b6109bc6060830185610964565b6109c96080830184610964565b9695505050505050565b7f4e487b71000000000000000000000000000000000000000000000000000000005f52603260045260245ffd5b7f4e487b71000000000000000000000000000000000000000000000000000000005f52601160045260245ffd5b5f610a378261077f565b91507fffffffffffffffffffffffffffffffffffffffffffffffffffffffffffffffff8203610a6957610a68610a00565b5b600182019050919050565b7f4e487b71000000000000000000000000000000000000000000000000000000005f52604160045260245ffd5b5f606082019050610ab45f830186610964565b610ac16020830185610964565b610ace6040830184610964565b94935050505056fea2646970667358221220350fd95bc2508ac74062973132d68722c83dfb07e59621456066f253faceaab064736f6c634300081a0033",
					"opcodes": "PUSH1 0x80 PUSH1 0x40 MSTORE CALLVALUE DUP1 ISZERO PUSH1 0xE JUMPI PUSH0 DUP1 REVERT JUMPDEST POP PUSH2 0xB0C DUP1 PUSH2 0x1C PUSH0 CODECOPY PUSH0 RETURN INVALID PUSH1 0x80 PUSH1 0x40 MSTORE CALLVALUE DUP1 ISZERO PUSH2 0xF JUMPI PUSH0 DUP1 REVERT JUMPDEST POP PUSH1 0x4 CALLDATASIZE LT PUSH2 0x3F JUMPI PUSH0 CALLDATALOAD PUSH1 0xE0 SHR DUP1 PUSH4 0x6BF8A162 EQ PUSH2 0x43 JUMPI DUP1 PUSH4 0x8E059559 EQ PUSH2 0x73 JUMPI DUP1 PUSH4 0xF8626AF8 EQ PUSH2 0x8F JUMPI JUMPDEST PUSH0 DUP1 REVERT JUMPDEST PUSH2 0x5D PUSH1 0x4 DUP1 CALLDATASIZE SUB DUP2 ADD SWAP1 PUSH2 0x58 SWAP2 SWAP1 PUSH2 0x72B JUMP JUMPDEST PUSH2 0xC3 JUMP JUMPDEST PUSH1 0x40 MLOAD PUSH2 0x6A SWAP2 SWAP1 PUSH2 0x88B JUMP JUMPDEST PUSH1 0x40 MLOAD DUP1 SWAP2 SUB SWAP1 RETURN JUMPDEST PUSH2 0x8D PUSH1 0x4 DUP1 CALLDATASIZE SUB DUP2 ADD SWAP1 PUSH2 0x88 SWAP2 SWAP1 PUSH2 0x8D5 JUMP JUMPDEST PUSH2 0x466 JUMP JUMPDEST STOP JUMPDEST PUSH2 0xA9 PUSH1 0x4 DUP1 CALLDATASIZE SUB DUP2 ADD SWAP1 PUSH2 0xA4 SWAP2 SWAP1 PUSH2 0x939 JUMP JUMPDEST PUSH2 0x5F9 JUMP JUMPDEST PUSH1 0x40 MLOAD PUSH2 0xBA SWAP6 SWAP5 SWAP4 SWAP3 SWAP2 SWAP1 PUSH2 0x982 JUMP JUMPDEST PUSH1 0x40 MLOAD DUP1 SWAP2 SUB SWAP1 RETURN JUMPDEST PUSH1 0x60 PUSH0 DUP1 JUMPDEST PUSH0 DUP1 SLOAD SWAP1 POP DUP2 LT ISZERO PUSH2 0x1DC JUMPI DUP4 PUSH20 0xFFFFFFFFFFFFFFFFFFFFFFFFFFFFFFFFFFFFFFFF AND PUSH0 DUP3 DUP2 SLOAD DUP2 LT PUSH2 0xFE JUMPI PUSH2 0xFD PUSH2 0x9D3 JUMP JUMPDEST JUMPDEST SWAP1 PUSH0 MSTORE PUSH1 0x20 PUSH0 KECCAK256 SWAP1 PUSH1 0x5 MUL ADD PUSH1 0x1 ADD PUSH0 SWAP1 SLOAD SWAP1 PUSH2 0x100 EXP SWAP1 DIV PUSH20 0xFFFFFFFFFFFFFFFFFFFFFFFFFFFFFFFFFFFFFFFF AND PUSH20 0xFFFFFFFFFFFFFFFFFFFFFFFFFFFFFFFFFFFFFFFF AND EQ DUP1 PUSH2 0x1BB JUMPI POP DUP4 PUSH20 0xFFFFFFFFFFFFFFFFFFFFFFFFFFFFFFFFFFFFFFFF AND PUSH0 DUP3 DUP2 SLOAD DUP2 LT PUSH2 0x174 JUMPI PUSH2 0x173 PUSH2 0x9D3 JUMP JUMPDEST JUMPDEST SWAP1 PUSH0 MSTORE PUSH1 0x20 PUSH0 KECCAK256 SWAP1 PUSH1 0x5 MUL ADD PUSH1 0x2 ADD PUSH0 SWAP1 SLOAD SWAP1 PUSH2 0x100 EXP SWAP1 DIV PUSH20 0xFFFFFFFFFFFFFFFFFFFFFFFFFFFFFFFFFFFFFFFF AND PUSH20 0xFFFFFFFFFFFFFFFFFFFFFFFFFFFFFFFFFFFFFFFF AND EQ JUMPDEST ISZERO PUSH2 0x1CF JUMPI DUP2 DUP1 PUSH2 0x1CB SWAP1 PUSH2 0xA2D JUMP JUMPDEST SWAP3 POP POP JUMPDEST DUP1 DUP1 PUSH1 0x1 ADD SWAP2 POP POP PUSH2 0xC8 JUMP JUMPDEST POP PUSH0 DUP2 PUSH8 0xFFFFFFFFFFFFFFFF DUP2 GT ISZERO PUSH2 0x1F8 JUMPI PUSH2 0x1F7 PUSH2 0xA74 JUMP JUMPDEST JUMPDEST PUSH1 0x40 MLOAD SWAP1 DUP1 DUP3 MSTORE DUP1 PUSH1 0x20 MUL PUSH1 0x20 ADD DUP3 ADD PUSH1 0x40 MSTORE DUP1 ISZERO PUSH2 0x231 JUMPI DUP2 PUSH1 0x20 ADD JUMPDEST PUSH2 0x21E PUSH2 0x677 JUMP JUMPDEST DUP2 MSTORE PUSH1 0x20 ADD SWAP1 PUSH1 0x1 SWAP1 SUB SWAP1 DUP2 PUSH2 0x216 JUMPI SWAP1 POP JUMPDEST POP SWAP1 POP PUSH0 DUP1 JUMPDEST PUSH0 DUP1 SLOAD SWAP1 POP DUP2 LT ISZERO PUSH2 0x45A JUMPI DUP6 PUSH20 0xFFFFFFFFFFFFFFFFFFFFFFFFFFFFFFFFFFFFFFFF AND PUSH0 DUP3 DUP2 SLOAD DUP2 LT PUSH2 0x26D JUMPI PUSH2 0x26C PUSH2 0x9D3 JUMP JUMPDEST JUMPDEST SWAP1 PUSH0 MSTORE PUSH1 0x20 PUSH0 KECCAK256 SWAP1 PUSH1 0x5 MUL ADD PUSH1 0x1 ADD PUSH0 SWAP1 SLOAD SWAP1 PUSH2 0x100 EXP SWAP1 DIV PUSH20 0xFFFFFFFFFFFFFFFFFFFFFFFFFFFFFFFFFFFFFFFF AND PUSH20 0xFFFFFFFFFFFFFFFFFFFFFFFFFFFFFFFFFFFFFFFF AND EQ DUP1 PUSH2 0x32A JUMPI POP DUP6 PUSH20 0xFFFFFFFFFFFFFFFFFFFFFFFFFFFFFFFFFFFFFFFF AND PUSH0 DUP3 DUP2 SLOAD DUP2 LT PUSH2 0x2E3 JUMPI PUSH2 0x2E2 PUSH2 0x9D3 JUMP JUMPDEST JUMPDEST SWAP1 PUSH0 MSTORE PUSH1 0x20 PUSH0 KECCAK256 SWAP1 PUSH1 0x5 MUL ADD PUSH1 0x2 ADD PUSH0 SWAP1 SLOAD SWAP1 PUSH2 0x100 EXP SWAP1 DIV PUSH20 0xFFFFFFFFFFFFFFFFFFFFFFFFFFFFFFFFFFFFFFFF AND PUSH20 0xFFFFFFFFFFFFFFFFFFFFFFFFFFFFFFFFFFFFFFFF AND EQ JUMPDEST ISZERO PUSH2 0x44D JUMPI PUSH0 DUP2 DUP2 SLOAD DUP2 LT PUSH2 0x342 JUMPI PUSH2 0x341 PUSH2 0x9D3 JUMP JUMPDEST JUMPDEST SWAP1 PUSH0 MSTORE PUSH1 0x20 PUSH0 KECCAK256 SWAP1 PUSH1 0x5 MUL ADD PUSH1 0x40 MLOAD DUP1 PUSH1 0xA0 ADD PUSH1 0x40 MSTORE SWAP1 DUP2 PUSH0 DUP3 ADD SLOAD DUP2 MSTORE PUSH1 0x20 ADD PUSH1 0x1 DUP3 ADD PUSH0 SWAP1 SLOAD SWAP1 PUSH2 0x100 EXP SWAP1 DIV PUSH20 0xFFFFFFFFFFFFFFFFFFFFFFFFFFFFFFFFFFFFFFFF AND PUSH20 0xFFFFFFFFFFFFFFFFFFFFFFFFFFFFFFFFFFFFFFFF AND PUSH20 0xFFFFFFFFFFFFFFFFFFFFFFFFFFFFFFFFFFFFFFFF AND DUP2 MSTORE PUSH1 0x20 ADD PUSH1 0x2 DUP3 ADD PUSH0 SWAP1 SLOAD SWAP1 PUSH2 0x100 EXP SWAP1 DIV PUSH20 0xFFFFFFFFFFFFFFFFFFFFFFFFFFFFFFFFFFFFFFFF AND PUSH20 0xFFFFFFFFFFFFFFFFFFFFFFFFFFFFFFFFFFFFFFFF AND PUSH20 0xFFFFFFFFFFFFFFFFFFFFFFFFFFFFFFFFFFFFFFFF AND DUP2 MSTORE PUSH1 0x20 ADD PUSH1 0x3 DUP3 ADD SLOAD DUP2 MSTORE PUSH1 0x20 ADD PUSH1 0x4 DUP3 ADD SLOAD DUP2 MSTORE POP POP DUP4 DUP4 DUP2 MLOAD DUP2 LT PUSH2 0x433 JUMPI PUSH2 0x432 PUSH2 0x9D3 JUMP JUMPDEST JUMPDEST PUSH1 0x20 MUL PUSH1 0x20 ADD ADD DUP2 SWAP1 MSTORE POP DUP2 DUP1 PUSH2 0x449 SWAP1 PUSH2 0xA2D JUMP JUMPDEST SWAP3 POP POP JUMPDEST DUP1 DUP1 PUSH1 0x1 ADD SWAP2 POP POP PUSH2 0x237 JUMP JUMPDEST POP DUP2 SWAP4 POP POP POP POP SWAP2 SWAP1 POP JUMP JUMPDEST PUSH0 PUSH1 0x40 MLOAD DUP1 PUSH1 0xA0 ADD PUSH1 0x40 MSTORE DUP1 DUP7 DUP2 MSTORE PUSH1 0x20 ADD DUP6 PUSH20 0xFFFFFFFFFFFFFFFFFFFFFFFFFFFFFFFFFFFFFFFF AND DUP2 MSTORE PUSH1 0x20 ADD DUP5 PUSH20 0xFFFFFFFFFFFFFFFFFFFFFFFFFFFFFFFFFFFFFFFF AND DUP2 MSTORE PUSH1 0x20 ADD DUP4 DUP2 MSTORE PUSH1 0x20 ADD TIMESTAMP DUP2 MSTORE POP SWAP1 DUP1 PUSH1 0x1 DUP2 SLOAD ADD DUP1 DUP3 SSTORE DUP1 SWAP2 POP POP PUSH1 0x1 SWAP1 SUB SWAP1 PUSH0 MSTORE PUSH1 0x20 PUSH0 KECCAK256 SWAP1 PUSH1 0x5 MUL ADD PUSH0 SWAP1 SWAP2 SWAP1 SWAP2 SWAP1 SWAP2 POP PUSH0 DUP3 ADD MLOAD DUP2 PUSH0 ADD SSTORE PUSH1 0x20 DUP3 ADD MLOAD DUP2 PUSH1 0x1 ADD PUSH0 PUSH2 0x100 EXP DUP2 SLOAD DUP2 PUSH20 0xFFFFFFFFFFFFFFFFFFFFFFFFFFFFFFFFFFFFFFFF MUL NOT AND SWAP1 DUP4 PUSH20 0xFFFFFFFFFFFFFFFFFFFFFFFFFFFFFFFFFFFFFFFF AND MUL OR SWAP1 SSTORE POP PUSH1 0x40 DUP3 ADD MLOAD DUP2 PUSH1 0x2 ADD PUSH0 PUSH2 0x100 EXP DUP2 SLOAD DUP2 PUSH20 0xFFFFFFFFFFFFFFFFFFFFFFFFFFFFFFFFFFFFFFFF MUL NOT AND SWAP1 DUP4 PUSH20 0xFFFFFFFFFFFFFFFFFFFFFFFFFFFFFFFFFFFFFFFF AND MUL OR SWAP1 SSTORE POP PUSH1 0x60 DUP3 ADD MLOAD DUP2 PUSH1 0x3 ADD SSTORE PUSH1 0x80 DUP3 ADD MLOAD DUP2 PUSH1 0x4 ADD SSTORE POP POP DUP2 PUSH20 0xFFFFFFFFFFFFFFFFFFFFFFFFFFFFFFFFFFFFFFFF AND DUP4 PUSH20 0xFFFFFFFFFFFFFFFFFFFFFFFFFFFFFFFFFFFFFFFF AND PUSH32 0x85539A945A5664BF9101CB74013AA706422FC8124748FD75AB71F03BD3903DCE DUP7 DUP5 TIMESTAMP PUSH1 0x40 MLOAD PUSH2 0x5EB SWAP4 SWAP3 SWAP2 SWAP1 PUSH2 0xAA1 JUMP JUMPDEST PUSH1 0x40 MLOAD DUP1 SWAP2 SUB SWAP1 LOG3 POP POP POP POP JUMP JUMPDEST PUSH0 DUP2 DUP2 SLOAD DUP2 LT PUSH2 0x607 JUMPI PUSH0 DUP1 REVERT JUMPDEST SWAP1 PUSH0 MSTORE PUSH1 0x20 PUSH0 KECCAK256 SWAP1 PUSH1 0x5 MUL ADD PUSH0 SWAP2 POP SWAP1 POP DUP1 PUSH0 ADD SLOAD SWAP1 DUP1 PUSH1 0x1 ADD PUSH0 SWAP1 SLOAD SWAP1 PUSH2 0x100 EXP SWAP1 DIV PUSH20 0xFFFFFFFFFFFFFFFFFFFFFFFFFFFFFFFFFFFFFFFF AND SWAP1 DUP1 PUSH1 0x2 ADD PUSH0 SWAP1 SLOAD SWAP1 PUSH2 0x100 EXP SWAP1 DIV PUSH20 0xFFFFFFFFFFFFFFFFFFFFFFFFFFFFFFFFFFFFFFFF AND SWAP1 DUP1 PUSH1 0x3 ADD SLOAD SWAP1 DUP1 PUSH1 0x4 ADD SLOAD SWAP1 POP DUP6 JUMP JUMPDEST PUSH1 0x40 MLOAD DUP1 PUSH1 0xA0 ADD PUSH1 0x40 MSTORE DUP1 PUSH0 DUP2 MSTORE PUSH1 0x20 ADD PUSH0 PUSH20 0xFFFFFFFFFFFFFFFFFFFFFFFFFFFFFFFFFFFFFFFF AND DUP2 MSTORE PUSH1 0x20 ADD PUSH0 PUSH20 0xFFFFFFFFFFFFFFFFFFFFFFFFFFFFFFFFFFFFFFFF AND DUP2 MSTORE PUSH1 0x20 ADD PUSH0 DUP2 MSTORE PUSH1 0x20 ADD PUSH0 DUP2 MSTORE POP SWAP1 JUMP JUMPDEST PUSH0 DUP1 REVERT JUMPDEST PUSH0 PUSH20 0xFFFFFFFFFFFFFFFFFFFFFFFFFFFFFFFFFFFFFFFF DUP3 AND SWAP1 POP SWAP2 SWAP1 POP JUMP JUMPDEST PUSH0 PUSH2 0x6FA DUP3 PUSH2 0x6D1 JUMP JUMPDEST SWAP1 POP SWAP2 SWAP1 POP JUMP JUMPDEST PUSH2 0x70A DUP2 PUSH2 0x6F0 JUMP JUMPDEST DUP2 EQ PUSH2 0x714 JUMPI PUSH0 DUP1 REVERT JUMPDEST POP JUMP JUMPDEST PUSH0 DUP2 CALLDATALOAD SWAP1 POP PUSH2 0x725 DUP2 PUSH2 0x701 JUMP JUMPDEST SWAP3 SWAP2 POP POP JUMP JUMPDEST PUSH0 PUSH1 0x20 DUP3 DUP5 SUB SLT ISZERO PUSH2 0x740 JUMPI PUSH2 0x73F PUSH2 0x6CD JUMP JUMPDEST JUMPDEST PUSH0 PUSH2 0x74D DUP5 DUP3 DUP6 ADD PUSH2 0x717 JUMP JUMPDEST SWAP2 POP POP SWAP3 SWAP2 POP POP JUMP JUMPDEST PUSH0 DUP2 MLOAD SWAP1 POP SWAP2 SWAP1 POP JUMP JUMPDEST PUSH0 DUP3 DUP3 MSTORE PUSH1 0x20 DUP3 ADD SWAP1 POP SWAP3 SWAP2 POP POP JUMP JUMPDEST PUSH0 DUP2 SWAP1 POP PUSH1 0x20 DUP3 ADD SWAP1 POP SWAP2 SWAP1 POP JUMP JUMPDEST PUSH0 DUP2 SWAP1 POP SWAP2 SWAP1 POP JUMP JUMPDEST PUSH2 0x791 DUP2 PUSH2 0x77F JUMP JUMPDEST DUP3 MSTORE POP POP JUMP JUMPDEST PUSH2 0x7A0 DUP2 PUSH2 0x6F0 JUMP JUMPDEST DUP3 MSTORE POP POP JUMP JUMPDEST PUSH1 0xA0 DUP3 ADD PUSH0 DUP3 ADD MLOAD PUSH2 0x7BA PUSH0 DUP6 ADD DUP3 PUSH2 0x788 JUMP JUMPDEST POP PUSH1 0x20 DUP3 ADD MLOAD PUSH2 0x7CD PUSH1 0x20 DUP6 ADD DUP3 PUSH2 0x797 JUMP JUMPDEST POP PUSH1 0x40 DUP3 ADD MLOAD PUSH2 0x7E0 PUSH1 0x40 DUP6 ADD DUP3 PUSH2 0x797 JUMP JUMPDEST POP PUSH1 0x60 DUP3 ADD MLOAD PUSH2 0x7F3 PUSH1 0x60 DUP6 ADD DUP3 PUSH2 0x788 JUMP JUMPDEST POP PUSH1 0x80 DUP3 ADD MLOAD PUSH2 0x806 PUSH1 0x80 DUP6 ADD DUP3 PUSH2 0x788 JUMP JUMPDEST POP POP POP POP JUMP JUMPDEST PUSH0 PUSH2 0x817 DUP4 DUP4 PUSH2 0x7A6 JUMP JUMPDEST PUSH1 0xA0 DUP4 ADD SWAP1 POP SWAP3 SWAP2 POP POP JUMP JUMPDEST PUSH0 PUSH1 0x20 DUP3 ADD SWAP1 POP SWAP2 SWAP1 POP JUMP JUMPDEST PUSH0 PUSH2 0x839 DUP3 PUSH2 0x756 JUMP JUMPDEST PUSH2 0x843 DUP2 DUP6 PUSH2 0x760 JUMP JUMPDEST SWAP4 POP PUSH2 0x84E DUP4 PUSH2 0x770 JUMP JUMPDEST DUP1 PUSH0 JUMPDEST DUP4 DUP2 LT ISZERO PUSH2 0x87E JUMPI DUP2 MLOAD PUSH2 0x865 DUP9 DUP3 PUSH2 0x80C JUMP JUMPDEST SWAP8 POP PUSH2 0x870 DUP4 PUSH2 0x823 JUMP JUMPDEST SWAP3 POP POP PUSH1 0x1 DUP2 ADD SWAP1 POP PUSH2 0x851 JUMP JUMPDEST POP DUP6 SWAP4 POP POP POP POP SWAP3 SWAP2 POP POP JUMP JUMPDEST PUSH0 PUSH1 0x20 DUP3 ADD SWAP1 POP DUP2 DUP2 SUB PUSH0 DUP4 ADD MSTORE PUSH2 0x8A3 DUP2 DUP5 PUSH2 0x82F JUMP JUMPDEST SWAP1 POP SWAP3 SWAP2 POP POP JUMP JUMPDEST PUSH2 0x8B4 DUP2 PUSH2 0x77F JUMP JUMPDEST DUP2 EQ PUSH2 0x8BE JUMPI PUSH0 DUP1 REVERT JUMPDEST POP JUMP JUMPDEST PUSH0 DUP2 CALLDATALOAD SWAP1 POP PUSH2 0x8CF DUP2 PUSH2 0x8AB JUMP JUMPDEST SWAP3 SWAP2 POP POP JUMP JUMPDEST PUSH0 DUP1 PUSH0 DUP1 PUSH1 0x80 DUP6 DUP8 SUB SLT ISZERO PUSH2 0x8ED JUMPI PUSH2 0x8EC PUSH2 0x6CD JUMP JUMPDEST JUMPDEST PUSH0 PUSH2 0x8FA DUP8 DUP3 DUP9 ADD PUSH2 0x8C1 JUMP JUMPDEST SWAP5 POP POP PUSH1 0x20 PUSH2 0x90B DUP8 DUP3 DUP9 ADD PUSH2 0x717 JUMP JUMPDEST SWAP4 POP POP PUSH1 0x40 PUSH2 0x91C DUP8 DUP3 DUP9 ADD PUSH2 0x717 JUMP JUMPDEST SWAP3 POP POP PUSH1 0x60 PUSH2 0x92D DUP8 DUP3 DUP9 ADD PUSH2 0x8C1 JUMP JUMPDEST SWAP2 POP POP SWAP3 SWAP6 SWAP2 SWAP5 POP SWAP3 POP JUMP JUMPDEST PUSH0 PUSH1 0x20 DUP3 DUP5 SUB SLT ISZERO PUSH2 0x94E JUMPI PUSH2 0x94D PUSH2 0x6CD JUMP JUMPDEST JUMPDEST PUSH0 PUSH2 0x95B DUP5 DUP3 DUP6 ADD PUSH2 0x8C1 JUMP JUMPDEST SWAP2 POP POP SWAP3 SWAP2 POP POP JUMP JUMPDEST PUSH2 0x96D DUP2 PUSH2 0x77F JUMP JUMPDEST DUP3 MSTORE POP POP JUMP JUMPDEST PUSH2 0x97C DUP2 PUSH2 0x6F0 JUMP JUMPDEST DUP3 MSTORE POP POP JUMP JUMPDEST PUSH0 PUSH1 0xA0 DUP3 ADD SWAP1 POP PUSH2 0x995 PUSH0 DUP4 ADD DUP9 PUSH2 0x964 JUMP JUMPDEST PUSH2 0x9A2 PUSH1 0x20 DUP4 ADD DUP8 PUSH2 0x973 JUMP JUMPDEST PUSH2 0x9AF PUSH1 0x40 DUP4 ADD DUP7 PUSH2 0x973 JUMP JUMPDEST PUSH2 0x9BC PUSH1 0x60 DUP4 ADD DUP6 PUSH2 0x964 JUMP JUMPDEST PUSH2 0x9C9 PUSH1 0x80 DUP4 ADD DUP5 PUSH2 0x964 JUMP JUMPDEST SWAP7 SWAP6 POP POP POP POP POP POP JUMP JUMPDEST PUSH32 0x4E487B7100000000000000000000000000000000000000000000000000000000 PUSH0 MSTORE PUSH1 0x32 PUSH1 0x4 MSTORE PUSH1 0x24 PUSH0 REVERT JUMPDEST PUSH32 0x4E487B7100000000000000000000000000000000000000000000000000000000 PUSH0 MSTORE PUSH1 0x11 PUSH1 0x4 MSTORE PUSH1 0x24 PUSH0 REVERT JUMPDEST PUSH0 PUSH2 0xA37 DUP3 PUSH2 0x77F JUMP JUMPDEST SWAP2 POP PUSH32 0xFFFFFFFFFFFFFFFFFFFFFFFFFFFFFFFFFFFFFFFFFFFFFFFFFFFFFFFFFFFFFFFF DUP3 SUB PUSH2 0xA69 JUMPI PUSH2 0xA68 PUSH2 0xA00 JUMP JUMPDEST JUMPDEST PUSH1 0x1 DUP3 ADD SWAP1 POP SWAP2 SWAP1 POP JUMP JUMPDEST PUSH32 0x4E487B7100000000000000000000000000000000000000000000000000000000 PUSH0 MSTORE PUSH1 0x41 PUSH1 0x4 MSTORE PUSH1 0x24 PUSH0 REVERT JUMPDEST PUSH0 PUSH1 0x60 DUP3 ADD SWAP1 POP PUSH2 0xAB4 PUSH0 DUP4 ADD DUP7 PUSH2 0x964 JUMP JUMPDEST PUSH2 0xAC1 PUSH1 0x20 DUP4 ADD DUP6 PUSH2 0x964 JUMP JUMPDEST PUSH2 0xACE PUSH1 0x40 DUP4 ADD DUP5 PUSH2 0x964 JUMP JUMPDEST SWAP5 SWAP4 POP POP POP POP JUMP INVALID LOG2 PUSH5 0x6970667358 0x22 SLT KECCAK256 CALLDATALOAD 0xF 0xD9 JUMPDEST 0xC2 POP DUP11 0xC7 BLOCKHASH PUSH3 0x973132 0xD6 DUP8 0x22 0xC8 RETURNDATASIZE 0xFB SMOD 0xE5 SWAP7 0x21 GASLIMIT PUSH1 0x66 CALLCODE MSTORE8 STATICCALL 0xCE 0xAA 0xB0 PUSH5 0x736F6C6343 STOP ADDMOD BYTE STOP CALLER "
				},
				"gasEstimates": {
					"creation": {
						"codeDepositCost": "565600",
						"executionCost": "598",
						"totalCost": "566198"
					},
					"external": {
						"donations(uint256)": "infinite",
						"getDonationHistoryByAddress(address)": "infinite",
						"recordDonation(uint256,address,address,uint256)": "infinite"
					}
				},
				"methodIdentifiers": {
					"donations(uint256)": "f8626af8",
					"getDonationHistoryByAddress(address)": "6bf8a162",
					"recordDonation(uint256,address,address,uint256)": "8e059559"
				}
			},
			"storageLayout": {
				"storage": [
					{
						"astId": 16,
						"contract": "contracts/Historial.sol:ToyDonationHistory",
						"label": "donations",
						"offset": 0,
						"slot": "0",
						"type": "t_array(t_struct(Donation)12_storage)dyn_storage"
					}
				],
				"types": {
					"t_address": {
						"encoding": "inplace",
						"label": "address",
						"numberOfBytes": "20"
					},
					"t_array(t_struct(Donation)12_storage)dyn_storage": {
						"base": "t_struct(Donation)12_storage",
						"encoding": "dynamic_array",
						"label": "struct ToyDonationHistory.Donation[]",
						"numberOfBytes": "32"
					},
					"t_struct(Donation)12_storage": {
						"encoding": "inplace",
						"label": "struct ToyDonationHistory.Donation",
						"members": [
							{
								"astId": 3,
								"contract": "contracts/Historial.sol:ToyDonationHistory",
								"label": "transactionId",
								"offset": 0,
								"slot": "0",
								"type": "t_uint256"
							},
							{
								"astId": 5,
								"contract": "contracts/Historial.sol:ToyDonationHistory",
								"label": "donor",
								"offset": 0,
								"slot": "1",
								"type": "t_address"
							},
							{
								"astId": 7,
								"contract": "contracts/Historial.sol:ToyDonationHistory",
								"label": "recipient",
								"offset": 0,
								"slot": "2",
								"type": "t_address"
							},
							{
								"astId": 9,
								"contract": "contracts/Historial.sol:ToyDonationHistory",
								"label": "amount",
								"offset": 0,
								"slot": "3",
								"type": "t_uint256"
							},
							{
								"astId": 11,
								"contract": "contracts/Historial.sol:ToyDonationHistory",
								"label": "timestamp",
								"offset": 0,
								"slot": "4",
								"type": "t_uint256"
							}
						],
						"numberOfBytes": "160"
					},
					"t_uint256": {
						"encoding": "inplace",
						"label": "uint256",
						"numberOfBytes": "32"
					}
				}
			},
			"userdoc": {
				"kind": "user",
				"methods": {},
				"version": 1
			}
		}
	}
}