{
  "_format": "hh-sol-artifact-1",
  "contractName": "ToyDonationMultiSig",
  "sourceName": "contracts/WalletMultiSig.sol",
  "abi": [
    {
      "inputs": [
        {
          "internalType": "address[]",
          "name": "_owners",
          "type": "address[]"
        },
        {
          "internalType": "uint256",
          "name": "_requiredApprovals",
          "type": "uint256"
        },
        {
          "internalType": "address",
          "name": "_toyDonationHistoryAddress",
          "type": "address"
        }
      ],
      "stateMutability": "nonpayable",
      "type": "constructor"
    },
    {
      "anonymous": false,
      "inputs": [
        {
          "indexed": true,
          "internalType": "address",
          "name": "sender",
          "type": "address"
        },
        {
          "indexed": false,
          "internalType": "uint256",
          "name": "amount",
          "type": "uint256"
        }
      ],
      "name": "Deposit",
      "type": "event"
    },
    {
      "anonymous": false,
      "inputs": [
        {
          "indexed": false,
          "internalType": "uint256",
          "name": "transactionId",
          "type": "uint256"
        },
        {
          "indexed": true,
          "internalType": "address",
          "name": "owner",
          "type": "address"
        }
      ],
      "name": "TransactionApproved",
      "type": "event"
    },
    {
      "anonymous": false,
      "inputs": [
        {
          "indexed": false,
          "internalType": "uint256",
          "name": "transactionId",
          "type": "uint256"
        },
        {
          "indexed": true,
          "internalType": "address",
          "name": "to",
          "type": "address"
        },
        {
          "indexed": false,
          "internalType": "uint256",
          "name": "amount",
          "type": "uint256"
        }
      ],
      "name": "TransactionExecuted",
      "type": "event"
    },
    {
      "anonymous": false,
      "inputs": [
        {
          "indexed": false,
          "internalType": "uint256",
          "name": "transactionId",
          "type": "uint256"
        },
        {
          "indexed": true,
          "internalType": "address",
          "name": "to",
          "type": "address"
        },
        {
          "indexed": false,
          "internalType": "uint256",
          "name": "amount",
          "type": "uint256"
        }
      ],
      "name": "TransactionSubmitted",
      "type": "event"
    },
    {
      "inputs": [
        {
          "internalType": "uint256",
          "name": "",
          "type": "uint256"
        },
        {
          "internalType": "address",
          "name": "",
          "type": "address"
        }
      ],
      "name": "approvals",
      "outputs": [
        {
          "internalType": "bool",
          "name": "",
          "type": "bool"
        }
      ],
      "stateMutability": "view",
      "type": "function"
    },
    {
      "inputs": [
        {
          "internalType": "uint256",
          "name": "_transactionId",
          "type": "uint256"
        }
      ],
      "name": "approveTransaction",
      "outputs": [],
      "stateMutability": "nonpayable",
      "type": "function"
    },
    {
      "inputs": [],
      "name": "deposit",
      "outputs": [],
      "stateMutability": "payable",
      "type": "function"
    },
    {
      "inputs": [
        {
          "internalType": "uint256",
          "name": "_transactionId",
          "type": "uint256"
        }
      ],
      "name": "executeTransaction",
      "outputs": [],
      "stateMutability": "nonpayable",
      "type": "function"
    },
    {
      "inputs": [],
      "name": "getOwners",
      "outputs": [
        {
          "internalType": "address[]",
          "name": "",
          "type": "address[]"
        }
      ],
      "stateMutability": "view",
      "type": "function"
    },
    {
      "inputs": [
        {
          "internalType": "uint256",
          "name": "_transactionId",
          "type": "uint256"
        }
      ],
      "name": "getTransaction",
      "outputs": [
        {
          "internalType": "address",
          "name": "to",
          "type": "address"
        },
        {
          "internalType": "uint256",
          "name": "amount",
          "type": "uint256"
        },
        {
          "internalType": "uint256",
          "name": "approvalCount",
          "type": "uint256"
        },
        {
          "internalType": "bool",
          "name": "executed",
          "type": "bool"
        },
        {
          "internalType": "enum ToyDonationMultiSig.TransactionState",
          "name": "state",
          "type": "uint8"
        }
      ],
      "stateMutability": "view",
      "type": "function"
    },
    {
      "inputs": [
        {
          "internalType": "uint256",
          "name": "_transactionId",
          "type": "uint256"
        }
      ],
      "name": "getTransactionState",
      "outputs": [
        {
          "internalType": "enum ToyDonationMultiSig.TransactionState",
          "name": "",
          "type": "uint8"
        }
      ],
      "stateMutability": "view",
      "type": "function"
    },
    {
      "inputs": [],
      "name": "getTransactions",
      "outputs": [
        {
          "components": [
            {
              "internalType": "address",
              "name": "to",
              "type": "address"
            },
            {
              "internalType": "uint256",
              "name": "amount",
              "type": "uint256"
            },
            {
              "internalType": "uint256",
              "name": "approvalCount",
              "type": "uint256"
            },
            {
              "internalType": "bool",
              "name": "executed",
              "type": "bool"
            },
            {
              "internalType": "enum ToyDonationMultiSig.TransactionState",
              "name": "state",
              "type": "uint8"
            }
          ],
          "internalType": "struct ToyDonationMultiSig.Transaction[]",
          "name": "",
          "type": "tuple[]"
        }
      ],
      "stateMutability": "view",
      "type": "function"
    },
    {
      "inputs": [
        {
          "internalType": "address",
          "name": "",
          "type": "address"
        }
      ],
      "name": "isOwner",
      "outputs": [
        {
          "internalType": "bool",
          "name": "",
          "type": "bool"
        }
      ],
      "stateMutability": "view",
      "type": "function"
    },
    {
      "inputs": [
        {
          "internalType": "uint256",
          "name": "",
          "type": "uint256"
        }
      ],
      "name": "owners",
      "outputs": [
        {
          "internalType": "address",
          "name": "",
          "type": "address"
        }
      ],
      "stateMutability": "view",
      "type": "function"
    },
    {
      "inputs": [],
      "name": "requiredApprovals",
      "outputs": [
        {
          "internalType": "uint256",
          "name": "",
          "type": "uint256"
        }
      ],
      "stateMutability": "view",
      "type": "function"
    },
    {
      "inputs": [
        {
          "internalType": "address",
          "name": "_to",
          "type": "address"
        },
        {
          "internalType": "uint256",
          "name": "_amount",
          "type": "uint256"
        }
      ],
      "name": "submitTransaction",
      "outputs": [],
      "stateMutability": "nonpayable",
      "type": "function"
    },
    {
      "inputs": [],
      "name": "toyDonationHistory",
      "outputs": [
        {
          "internalType": "contract IToyDonationHistory",
          "name": "",
          "type": "address"
        }
      ],
      "stateMutability": "view",
      "type": "function"
    },
    {
      "inputs": [
        {
          "internalType": "uint256",
          "name": "",
          "type": "uint256"
        }
      ],
      "name": "transactions",
      "outputs": [
        {
          "internalType": "address",
          "name": "to",
          "type": "address"
        },
        {
          "internalType": "uint256",
          "name": "amount",
          "type": "uint256"
        },
        {
          "internalType": "uint256",
          "name": "approvalCount",
          "type": "uint256"
        },
        {
          "internalType": "bool",
          "name": "executed",
          "type": "bool"
        },
        {
          "internalType": "enum ToyDonationMultiSig.TransactionState",
          "name": "state",
          "type": "uint8"
        }
      ],
      "stateMutability": "view",
      "type": "function"
    }
  ],
  "bytecode": "0x608060405234801561001057600080fd5b506040516122fe3803806122fe83398181016040528101906100329190610577565b6000835111610076576040517f08c379a000000000000000000000000000000000000000000000000000000000815260040161006d90610643565b60405180910390fd5b600082118015610087575082518211155b6100c6576040517f08c379a00000000000000000000000000000000000000000000000000000000081526004016100bd906106af565b60405180910390fd5b600073ffffffffffffffffffffffffffffffffffffffff168173ffffffffffffffffffffffffffffffffffffffff1603610135576040517f08c379a000000000000000000000000000000000000000000000000000000000815260040161012c9061071b565b60405180910390fd5b60005b83518110156103255760008482815181106101565761015561073b565b5b60200260200101519050600073ffffffffffffffffffffffffffffffffffffffff168173ffffffffffffffffffffffffffffffffffffffff16036101cf576040517f08c379a00000000000000000000000000000000000000000000000000000000081526004016101c6906107b6565b60405180910390fd5b600260008273ffffffffffffffffffffffffffffffffffffffff1673ffffffffffffffffffffffffffffffffffffffff16815260200190815260200160002060009054906101000a900460ff161561025c576040517f08c379a000000000000000000000000000000000000000000000000000000000815260040161025390610822565b60405180910390fd5b6001600260008373ffffffffffffffffffffffffffffffffffffffff1673ffffffffffffffffffffffffffffffffffffffff16815260200190815260200160002060006101000a81548160ff0219169083151502179055506000819080600181540180825580915050600190039060005260206000200160009091909190916101000a81548173ffffffffffffffffffffffffffffffffffffffff021916908373ffffffffffffffffffffffffffffffffffffffff160217905550508080600101915050610138565b508160018190555080600360006101000a81548173ffffffffffffffffffffffffffffffffffffffff021916908373ffffffffffffffffffffffffffffffffffffffff160217905550505050610842565b6000604051905090565b600080fd5b600080fd5b600080fd5b6000601f19601f8301169050919050565b7f4e487b7100000000000000000000000000000000000000000000000000000000600052604160045260246000fd5b6103d88261038f565b810181811067ffffffffffffffff821117156103f7576103f66103a0565b5b80604052505050565b600061040a610376565b905061041682826103cf565b919050565b600067ffffffffffffffff821115610436576104356103a0565b5b602082029050602081019050919050565b600080fd5b600073ffffffffffffffffffffffffffffffffffffffff82169050919050565b60006104778261044c565b9050919050565b6104878161046c565b811461049257600080fd5b50565b6000815190506104a48161047e565b92915050565b60006104bd6104b88461041b565b610400565b905080838252602082019050602084028301858111156104e0576104df610447565b5b835b8181101561050957806104f58882610495565b8452602084019350506020810190506104e2565b5050509392505050565b600082601f8301126105285761052761038a565b5b81516105388482602086016104aa565b91505092915050565b6000819050919050565b61055481610541565b811461055f57600080fd5b50565b6000815190506105718161054b565b92915050565b6000806000606084860312156105905761058f610380565b5b600084015167ffffffffffffffff8111156105ae576105ad610385565b5b6105ba86828701610513565b93505060206105cb86828701610562565b92505060406105dc86828701610495565b9150509250925092565b600082825260208201905092915050565b7f4465626520686162657220616c206d656e6f7320756e206f776e657200000000600082015250565b600061062d601c836105e6565b9150610638826105f7565b602082019050919050565b6000602082019050818103600083015261065c81610620565b9050919050565b7f4e756d65726f20696e76616c69646f206465206170726f626163696f6e657300600082015250565b6000610699601f836105e6565b91506106a482610663565b602082019050919050565b600060208201905081810360008301526106c88161068c565b9050919050565b7f446972656363696f6e20646520686973746f7269616c20696e76616c69646100600082015250565b6000610705601f836105e6565b9150610710826106cf565b602082019050919050565b60006020820190508181036000830152610734816106f8565b9050919050565b7f4e487b7100000000000000000000000000000000000000000000000000000000600052603260045260246000fd5b7f446972656363696f6e206465206f776e657220696e76616c6964610000000000600082015250565b60006107a0601b836105e6565b91506107ab8261076a565b602082019050919050565b600060208201905081810360008301526107cf81610793565b9050919050565b7f4f776e6572206475706c696361646f0000000000000000000000000000000000600082015250565b600061080c600f836105e6565b9150610817826107d6565b602082019050919050565b6000602082019050818103600083015261083b816107ff565b9050919050565b611aad806108516000396000f3fe6080604052600436106100dd5760003560e01c80638c4029e71161007f578063a0e67e2b11610059578063a0e67e2b146102ee578063ab2850da14610319578063d0e30db014610356578063ee22610b14610360576100dd565b80638c4029e71461025757806399c1aadc146102825780639ace38c2146102ad576100dd565b80632f54bf6e116100bb5780632f54bf6e1461017157806333ea3dc8146101ae5780633c8eac87146101ef57806383920e901461022c576100dd565b8063025e7c27146100e25780631d43b6531461011f578063242232d114610148575b600080fd5b3480156100ee57600080fd5b50610109600480360381019061010491906110b1565b610389565b604051610116919061111f565b60405180910390f35b34801561012b57600080fd5b5061014660048036038101906101419190611166565b6103c8565b005b34801561015457600080fd5b5061016f600480360381019061016a91906110b1565b6105e5565b005b34801561017d57600080fd5b50610198600480360381019061019391906111a6565b610899565b6040516101a591906111ee565b60405180910390f35b3480156101ba57600080fd5b506101d560048036038101906101d091906110b1565b6108b9565b6040516101e695949392919061128f565b60405180910390f35b3480156101fb57600080fd5b50610216600480360381019061021191906110b1565b61094d565b60405161022391906112e2565b60405180910390f35b34801561023857600080fd5b50610241610989565b60405161024e9190611450565b60405180910390f35b34801561026357600080fd5b5061026c610aa8565b60405161027991906114d1565b60405180910390f35b34801561028e57600080fd5b50610297610ace565b6040516102a491906114ec565b60405180910390f35b3480156102b957600080fd5b506102d460048036038101906102cf91906110b1565b610ad4565b6040516102e595949392919061128f565b60405180910390f35b3480156102fa57600080fd5b50610303610b54565b60405161031091906115b6565b60405180910390f35b34801561032557600080fd5b50610340600480360381019061033b91906115d8565b610be2565b60405161034d91906111ee565b60405180910390f35b61035e610c11565b005b34801561036c57600080fd5b50610387600480360381019061038291906110b1565b610ca4565b005b6000818154811061039957600080fd5b906000526020600020016000915054906101000a900473ffffffffffffffffffffffffffffffffffffffff1681565b600260003373ffffffffffffffffffffffffffffffffffffffff1673ffffffffffffffffffffffffffffffffffffffff16815260200190815260200160002060009054906101000a900460ff16610454576040517f08c379a000000000000000000000000000000000000000000000000000000000815260040161044b90611675565b60405180910390fd5b60046040518060a001604052808473ffffffffffffffffffffffffffffffffffffffff16815260200183815260200160008152602001600015158152602001600060028111156104a7576104a6611218565b5b815250908060018154018082558091505060019003906000526020600020906004020160009091909190915060008201518160000160006101000a81548173ffffffffffffffffffffffffffffffffffffffff021916908373ffffffffffffffffffffffffffffffffffffffff160217905550602082015181600101556040820151816002015560608201518160030160006101000a81548160ff02191690831515021790555060808201518160030160016101000a81548160ff0219169083600281111561057957610578611218565b5b021790555050508173ffffffffffffffffffffffffffffffffffffffff167f6974e8be5912ae917b788db2884a51e71cbe0f0979af347e6a32d07d52ef82a360016004805490506105ca91906116c4565b836040516105d99291906116f8565b60405180910390a25050565b600260003373ffffffffffffffffffffffffffffffffffffffff1673ffffffffffffffffffffffffffffffffffffffff16815260200190815260200160002060009054906101000a900460ff16610671576040517f08c379a000000000000000000000000000000000000000000000000000000000815260040161066890611675565b60405180910390fd5b60006004828154811061068757610686611721565b5b906000526020600020906004020190508060030160009054906101000a900460ff16156106e9576040517f08c379a00000000000000000000000000000000000000000000000000000000081526004016106e09061179c565b60405180910390fd5b6005600083815260200190815260200160002060003373ffffffffffffffffffffffffffffffffffffffff1673ffffffffffffffffffffffffffffffffffffffff16815260200190815260200160002060009054906101000a900460ff1615610787576040517f08c379a000000000000000000000000000000000000000000000000000000000815260040161077e90611808565b60405180910390fd5b60016005600084815260200190815260200160002060003373ffffffffffffffffffffffffffffffffffffffff1673ffffffffffffffffffffffffffffffffffffffff16815260200190815260200160002060006101000a81548160ff02191690831515021790555060018160020160008282546108059190611828565b925050819055506001548160020154106108475760018160030160016101000a81548160ff0219169083600281111561084157610840611218565b5b02179055505b3373ffffffffffffffffffffffffffffffffffffffff167f924813d717e221b5f46dcd8a56da1679e4612584ab3237d55e5faabf6f6a30798360405161088d91906114ec565b60405180910390a25050565b60026020528060005260406000206000915054906101000a900460ff1681565b600080600080600080600487815481106108d6576108d5611721565b5b906000526020600020906004020190508060000160009054906101000a900473ffffffffffffffffffffffffffffffffffffffff16816001015482600201548360030160009054906101000a900460ff168460030160019054906101000a900460ff16955095509550955095505091939590929450565b60006004828154811061096357610962611721565b5b906000526020600020906004020160030160019054906101000a900460ff169050919050565b60606004805480602002602001604051908101604052809291908181526020016000905b82821015610a9f57838290600052602060002090600402016040518060a00160405290816000820160009054906101000a900473ffffffffffffffffffffffffffffffffffffffff1673ffffffffffffffffffffffffffffffffffffffff1673ffffffffffffffffffffffffffffffffffffffff16815260200160018201548152602001600282015481526020016003820160009054906101000a900460ff161515151581526020016003820160019054906101000a900460ff166002811115610a7a57610a79611218565b5b6002811115610a8c57610a8b611218565b5b81525050815260200190600101906109ad565b50505050905090565b600360009054906101000a900473ffffffffffffffffffffffffffffffffffffffff1681565b60015481565b60048181548110610ae457600080fd5b90600052602060002090600402016000915090508060000160009054906101000a900473ffffffffffffffffffffffffffffffffffffffff16908060010154908060020154908060030160009054906101000a900460ff16908060030160019054906101000a900460ff16905085565b60606000805480602002602001604051908101604052809291908181526020018280548015610bd857602002820191906000526020600020905b8160009054906101000a900473ffffffffffffffffffffffffffffffffffffffff1673ffffffffffffffffffffffffffffffffffffffff1681526020019060010190808311610b8e575b5050505050905090565b60056020528160005260406000206020528060005260406000206000915091509054906101000a900460ff1681565b60003411610c54576040517f08c379a0000000000000000000000000000000000000000000000000000000008152600401610c4b906118a8565b60405180910390fd5b3373ffffffffffffffffffffffffffffffffffffffff167fe1fffcc4923d04b559f4d29a8bfc6cda04eb5b0d3c460751c2402c5c5cc9109c34604051610c9a91906114ec565b60405180910390a2565b600260003373ffffffffffffffffffffffffffffffffffffffff1673ffffffffffffffffffffffffffffffffffffffff16815260200190815260200160002060009054906101000a900460ff16610d30576040517f08c379a0000000000000000000000000000000000000000000000000000000008152600401610d2790611675565b60405180910390fd5b600060048281548110610d4657610d45611721565b5b9060005260206000209060040201905060016002811115610d6a57610d69611218565b5b8160030160019054906101000a900460ff166002811115610d8e57610d8d611218565b5b14610dce576040517f08c379a0000000000000000000000000000000000000000000000000000000008152600401610dc59061193a565b60405180910390fd5b8060030160009054906101000a900460ff1615610e20576040517f08c379a0000000000000000000000000000000000000000000000000000000008152600401610e179061179c565b60405180910390fd5b60018160030160006101000a81548160ff02191690831515021790555060028160030160016101000a81548160ff02191690836002811115610e6557610e64611218565b5b021790555060008160000160009054906101000a900473ffffffffffffffffffffffffffffffffffffffff1673ffffffffffffffffffffffffffffffffffffffff168260010154604051610eb89061198b565b60006040518083038185875af1925050503d8060008114610ef5576040519150601f19603f3d011682016040523d82523d6000602084013e610efa565b606091505b5050905080610f3e576040517f08c379a0000000000000000000000000000000000000000000000000000000008152600401610f3590611a12565b60405180910390fd5b8160000160009054906101000a900473ffffffffffffffffffffffffffffffffffffffff1673ffffffffffffffffffffffffffffffffffffffff167fda19024f6708ce28e75d9c0ec389fb05a8e5cc9dfe520f61239c10d51a11e59c848460010154604051610fae9291906116f8565b60405180910390a2600360009054906101000a900473ffffffffffffffffffffffffffffffffffffffff1673ffffffffffffffffffffffffffffffffffffffff16638e05955984338560000160009054906101000a900473ffffffffffffffffffffffffffffffffffffffff1686600101546040518563ffffffff1660e01b815260040161103f9493929190611a32565b600060405180830381600087803b15801561105957600080fd5b505af115801561106d573d6000803e3d6000fd5b50505050505050565b600080fd5b6000819050919050565b61108e8161107b565b811461109957600080fd5b50565b6000813590506110ab81611085565b92915050565b6000602082840312156110c7576110c6611076565b5b60006110d58482850161109c565b91505092915050565b600073ffffffffffffffffffffffffffffffffffffffff82169050919050565b6000611109826110de565b9050919050565b611119816110fe565b82525050565b60006020820190506111346000830184611110565b92915050565b611143816110fe565b811461114e57600080fd5b50565b6000813590506111608161113a565b92915050565b6000806040838503121561117d5761117c611076565b5b600061118b85828601611151565b925050602061119c8582860161109c565b9150509250929050565b6000602082840312156111bc576111bb611076565b5b60006111ca84828501611151565b91505092915050565b60008115159050919050565b6111e8816111d3565b82525050565b600060208201905061120360008301846111df565b92915050565b6112128161107b565b82525050565b7f4e487b7100000000000000000000000000000000000000000000000000000000600052602160045260246000fd5b6003811061125857611257611218565b5b50565b600081905061126982611247565b919050565b60006112798261125b565b9050919050565b6112898161126e565b82525050565b600060a0820190506112a46000830188611110565b6112b16020830187611209565b6112be6040830186611209565b6112cb60608301856111df565b6112d86080830184611280565b9695505050505050565b60006020820190506112f76000830184611280565b92915050565b600081519050919050565b600082825260208201905092915050565b6000819050602082019050919050565b611332816110fe565b82525050565b6113418161107b565b82525050565b611350816111d3565b82525050565b61135f8161126e565b82525050565b60a08201600082015161137b6000850182611329565b50602082015161138e6020850182611338565b5060408201516113a16040850182611338565b5060608201516113b46060850182611347565b5060808201516113c76080850182611356565b50505050565b60006113d98383611365565b60a08301905092915050565b6000602082019050919050565b60006113fd826112fd565b6114078185611308565b935061141283611319565b8060005b8381101561144357815161142a88826113cd565b9750611435836113e5565b925050600181019050611416565b5085935050505092915050565b6000602082019050818103600083015261146a81846113f2565b905092915050565b6000819050919050565b600061149761149261148d846110de565b611472565b6110de565b9050919050565b60006114a98261147c565b9050919050565b60006114bb8261149e565b9050919050565b6114cb816114b0565b82525050565b60006020820190506114e660008301846114c2565b92915050565b60006020820190506115016000830184611209565b92915050565b600081519050919050565b600082825260208201905092915050565b6000819050602082019050919050565b600061153f8383611329565b60208301905092915050565b6000602082019050919050565b600061156382611507565b61156d8185611512565b935061157883611523565b8060005b838110156115a95781516115908882611533565b975061159b8361154b565b92505060018101905061157c565b5085935050505092915050565b600060208201905081810360008301526115d08184611558565b905092915050565b600080604083850312156115ef576115ee611076565b5b60006115fd8582860161109c565b925050602061160e85828601611151565b9150509250929050565b600082825260208201905092915050565b7f4e6f20657320756e206f776e6572000000000000000000000000000000000000600082015250565b600061165f600e83611618565b915061166a82611629565b602082019050919050565b6000602082019050818103600083015261168e81611652565b9050919050565b7f4e487b7100000000000000000000000000000000000000000000000000000000600052601160045260246000fd5b60006116cf8261107b565b91506116da8361107b565b92508282039050818111156116f2576116f1611695565b5b92915050565b600060408201905061170d6000830185611209565b61171a6020830184611209565b9392505050565b7f4e487b7100000000000000000000000000000000000000000000000000000000600052603260045260246000fd5b7f4c61207472616e73616363696f6e2079612066756520656a6563757461646100600082015250565b6000611786601f83611618565b915061179182611750565b602082019050919050565b600060208201905081810360008301526117b581611779565b9050919050565b7f5961206170726f62617374652065737461207472616e73616363696f6e000000600082015250565b60006117f2601d83611618565b91506117fd826117bc565b602082019050919050565b60006020820190508181036000830152611821816117e5565b9050919050565b60006118338261107b565b915061183e8361107b565b925082820190508082111561185657611855611695565b5b92915050565b7f4465626520656e7669617220756e2076616c6f72206d61796f72206120300000600082015250565b6000611892601e83611618565b915061189d8261185c565b602082019050919050565b600060208201905081810360008301526118c181611885565b9050919050565b7f4e6f2073652068616e206170726f6261646f20737566696369656e746573207460008201527f72616e73616363696f6e65730000000000000000000000000000000000000000602082015250565b6000611924602c83611618565b915061192f826118c8565b604082019050919050565b6000602082019050818103600083015261195381611917565b9050919050565b600081905092915050565b50565b600061197560008361195a565b915061198082611965565b600082019050919050565b600061199682611968565b9150819050919050565b7f46616c6c6f20656e206c61207472616e73666572656e63696120646520666f6e60008201527f646f730000000000000000000000000000000000000000000000000000000000602082015250565b60006119fc602383611618565b9150611a07826119a0565b604082019050919050565b60006020820190508181036000830152611a2b816119ef565b9050919050565b6000608082019050611a476000830187611209565b611a546020830186611110565b611a616040830185611110565b611a6e6060830184611209565b9594505050505056fea2646970667358221220172a23e5590025de698424e8cc42c2686dd05c3bc407306e75ac075ca0b2e77664736f6c634300081b0033",
  "linkReferences": {},
  "deployedLinkReferences": {}
}