{
  "_format": "hh-sol-artifact-1",
  "contractName": "NFTJugador",
  "sourceName": "contracts/NFTJugador.sol",
  "abi": [
    {
      "inputs": [],
      "stateMutability": "nonpayable",
      "type": "constructor"
    },
    {
      "anonymous": false,
      "inputs": [
        {
          "indexed": true,
          "internalType": "address",
          "name": "owner",
          "type": "address"
        },
        {
          "indexed": true,
          "internalType": "address",
          "name": "approved",
          "type": "address"
        },
        {
          "indexed": true,
          "internalType": "uint256",
          "name": "tokenId",
          "type": "uint256"
        }
      ],
      "name": "Approval",
      "type": "event"
    },
    {
      "anonymous": false,
      "inputs": [
        {
          "indexed": true,
          "internalType": "address",
          "name": "owner",
          "type": "address"
        },
        {
          "indexed": true,
          "internalType": "address",
          "name": "operator",
          "type": "address"
        },
        {
          "indexed": false,
          "internalType": "bool",
          "name": "approved",
          "type": "bool"
        }
      ],
      "name": "ApprovalForAll",
      "type": "event"
    },
    {
      "anonymous": false,
      "inputs": [
        {
          "indexed": false,
          "internalType": "uint256",
          "name": "_fromTokenId",
          "type": "uint256"
        },
        {
          "indexed": false,
          "internalType": "uint256",
          "name": "_toTokenId",
          "type": "uint256"
        }
      ],
      "name": "BatchMetadataUpdate",
      "type": "event"
    },
    {
      "anonymous": false,
      "inputs": [
        {
          "indexed": false,
          "internalType": "uint256",
          "name": "_tokenId",
          "type": "uint256"
        }
      ],
      "name": "MetadataUpdate",
      "type": "event"
    },
    {
      "anonymous": false,
      "inputs": [
        {
          "indexed": true,
          "internalType": "address",
          "name": "from",
          "type": "address"
        },
        {
          "indexed": true,
          "internalType": "address",
          "name": "to",
          "type": "address"
        },
        {
          "indexed": true,
          "internalType": "uint256",
          "name": "tokenId",
          "type": "uint256"
        }
      ],
      "name": "Transfer",
      "type": "event"
    },
    {
      "inputs": [
        {
          "internalType": "address",
          "name": "to",
          "type": "address"
        },
        {
          "internalType": "uint256",
          "name": "tokenId",
          "type": "uint256"
        }
      ],
      "name": "approve",
      "outputs": [],
      "stateMutability": "nonpayable",
      "type": "function"
    },
    {
      "inputs": [
        {
          "internalType": "address",
          "name": "owner",
          "type": "address"
        }
      ],
      "name": "balanceOf",
      "outputs": [
        {
          "internalType": "uint256",
          "name": "",
          "type": "uint256"
        }
      ],
      "stateMutability": "view",
      "type": "function"
    },
    {
      "inputs": [
        {
          "internalType": "uint256",
          "name": "tokenId",
          "type": "uint256"
        }
      ],
      "name": "consultarNFT",
      "outputs": [
        {
          "internalType": "string",
          "name": "",
          "type": "string"
        },
        {
          "internalType": "string",
          "name": "",
          "type": "string"
        },
        {
          "internalType": "string",
          "name": "",
          "type": "string"
        },
        {
          "internalType": "string",
          "name": "",
          "type": "string"
        },
        {
          "internalType": "string",
          "name": "",
          "type": "string"
        }
      ],
      "stateMutability": "view",
      "type": "function"
    },
    {
      "inputs": [
        {
          "internalType": "address",
          "name": "_equipo",
          "type": "address"
        },
        {
          "internalType": "string",
          "name": "_nombre",
          "type": "string"
        },
        {
          "internalType": "string",
          "name": "_nickname",
          "type": "string"
        },
        {
          "internalType": "string",
          "name": "_rol",
          "type": "string"
        },
        {
          "internalType": "string",
          "name": "_nacionalidad",
          "type": "string"
        },
        {
          "internalType": "string",
          "name": "_imagen",
          "type": "string"
        }
      ],
      "name": "crearNFT",
      "outputs": [
        {
          "internalType": "uint256",
          "name": "",
          "type": "uint256"
        }
      ],
      "stateMutability": "nonpayable",
      "type": "function"
    },
    {
      "inputs": [
        {
          "internalType": "uint256",
          "name": "tokenId",
          "type": "uint256"
        }
      ],
      "name": "getApproved",
      "outputs": [
        {
          "internalType": "address",
          "name": "",
          "type": "address"
        }
      ],
      "stateMutability": "view",
      "type": "function"
    },
    {
      "inputs": [
        {
          "internalType": "address",
          "name": "owner",
          "type": "address"
        },
        {
          "internalType": "address",
          "name": "operator",
          "type": "address"
        }
      ],
      "name": "isApprovedForAll",
      "outputs": [
        {
          "internalType": "bool",
          "name": "",
          "type": "bool"
        }
      ],
      "stateMutability": "view",
      "type": "function"
    },
    {
      "inputs": [
        {
          "internalType": "uint256",
          "name": "",
          "type": "uint256"
        }
      ],
      "name": "jugadores",
      "outputs": [
        {
          "internalType": "string",
          "name": "nombre",
          "type": "string"
        },
        {
          "internalType": "string",
          "name": "nickname",
          "type": "string"
        },
        {
          "internalType": "string",
          "name": "rol",
          "type": "string"
        },
        {
          "internalType": "string",
          "name": "nacionalidad",
          "type": "string"
        },
        {
          "internalType": "string",
          "name": "imagen",
          "type": "string"
        }
      ],
      "stateMutability": "view",
      "type": "function"
    },
    {
      "inputs": [],
      "name": "name",
      "outputs": [
        {
          "internalType": "string",
          "name": "",
          "type": "string"
        }
      ],
      "stateMutability": "view",
      "type": "function"
    },
    {
      "inputs": [
        {
          "internalType": "uint256",
          "name": "tokenId",
          "type": "uint256"
        }
      ],
      "name": "ownerOf",
      "outputs": [
        {
          "internalType": "address",
          "name": "",
          "type": "address"
        }
      ],
      "stateMutability": "view",
      "type": "function"
    },
    {
      "inputs": [
        {
          "internalType": "address",
          "name": "from",
          "type": "address"
        },
        {
          "internalType": "address",
          "name": "to",
          "type": "address"
        },
        {
          "internalType": "uint256",
          "name": "tokenId",
          "type": "uint256"
        }
      ],
      "name": "safeTransferFrom",
      "outputs": [],
      "stateMutability": "nonpayable",
      "type": "function"
    },
    {
      "inputs": [
        {
          "internalType": "address",
          "name": "from",
          "type": "address"
        },
        {
          "internalType": "address",
          "name": "to",
          "type": "address"
        },
        {
          "internalType": "uint256",
          "name": "tokenId",
          "type": "uint256"
        },
        {
          "internalType": "bytes",
          "name": "data",
          "type": "bytes"
        }
      ],
      "name": "safeTransferFrom",
      "outputs": [],
      "stateMutability": "nonpayable",
      "type": "function"
    },
    {
      "inputs": [
        {
          "internalType": "address",
          "name": "operator",
          "type": "address"
        },
        {
          "internalType": "bool",
          "name": "approved",
          "type": "bool"
        }
      ],
      "name": "setApprovalForAll",
      "outputs": [],
      "stateMutability": "nonpayable",
      "type": "function"
    },
    {
      "inputs": [
        {
          "internalType": "bytes4",
          "name": "interfaceId",
          "type": "bytes4"
        }
      ],
      "name": "supportsInterface",
      "outputs": [
        {
          "internalType": "bool",
          "name": "",
          "type": "bool"
        }
      ],
      "stateMutability": "view",
      "type": "function"
    },
    {
      "inputs": [],
      "name": "symbol",
      "outputs": [
        {
          "internalType": "string",
          "name": "",
          "type": "string"
        }
      ],
      "stateMutability": "view",
      "type": "function"
    },
    {
      "inputs": [
        {
          "internalType": "uint256",
          "name": "tokenId",
          "type": "uint256"
        }
      ],
      "name": "tokenURI",
      "outputs": [
        {
          "internalType": "string",
          "name": "",
          "type": "string"
        }
      ],
      "stateMutability": "view",
      "type": "function"
    },
    {
      "inputs": [
        {
          "internalType": "address",
          "name": "from",
          "type": "address"
        },
        {
          "internalType": "address",
          "name": "to",
          "type": "address"
        },
        {
          "internalType": "uint256",
          "name": "tokenId",
          "type": "uint256"
        }
      ],
      "name": "transferFrom",
      "outputs": [],
      "stateMutability": "nonpayable",
      "type": "function"
    },
    {
      "inputs": [
        {
          "internalType": "address",
          "name": "_to",
          "type": "address"
        },
        {
          "internalType": "uint256",
          "name": "tokenId",
          "type": "uint256"
        }
      ],
      "name": "transferirNFT",
      "outputs": [],
      "stateMutability": "nonpayable",
      "type": "function"
    }
  ],
  "bytecode": "0x608060405234801561001057600080fd5b506040518060400160405280600a81526020017f4e46544a756761646f72000000000000000000000000000000000000000000008152506040518060400160405280600481526020017f4e46544a00000000000000000000000000000000000000000000000000000000815250816000908161008c91906102f4565b50806001908161009c91906102f4565b5050506103c6565b600081519050919050565b7f4e487b7100000000000000000000000000000000000000000000000000000000600052604160045260246000fd5b7f4e487b7100000000000000000000000000000000000000000000000000000000600052602260045260246000fd5b6000600282049050600182168061012557607f821691505b602082108103610138576101376100de565b5b50919050565b60008190508160005260206000209050919050565b60006020601f8301049050919050565b600082821b905092915050565b6000600883026101a07fffffffffffffffffffffffffffffffffffffffffffffffffffffffffffffffff82610163565b6101aa8683610163565b95508019841693508086168417925050509392505050565b6000819050919050565b6000819050919050565b60006101f16101ec6101e7846101c2565b6101cc565b6101c2565b9050919050565b6000819050919050565b61020b836101d6565b61021f610217826101f8565b848454610170565b825550505050565b600090565b610234610227565b61023f818484610202565b505050565b5b818110156102635761025860008261022c565b600181019050610245565b5050565b601f8211156102a8576102798161013e565b61028284610153565b81016020851015610291578190505b6102a561029d85610153565b830182610244565b50505b505050565b600082821c905092915050565b60006102cb600019846008026102ad565b1980831691505092915050565b60006102e483836102ba565b9150826002028217905092915050565b6102fd826100a4565b67ffffffffffffffff811115610316576103156100af565b5b610320825461010d565b61032b828285610267565b600060209050601f83116001811461035e576000841561034c578287015190505b61035685826102d8565b8655506103be565b601f19841661036c8661013e565b60005b828110156103945784890151825560018201915060208501945060208101905061036f565b868310156103b157848901516103ad601f8916826102ba565b8355505b6001600288020188555050505b505050505050565b613439806103d56000396000f3fe608060405234801561001057600080fd5b506004361061010b5760003560e01c80636352211e116100a2578063a8bcb24111610071578063a8bcb241146102e4578063a99a963714610300578063b88d4fde14610330578063c87b56dd1461034c578063e985e9c51461037c5761010b565b80636352211e1461024a57806370a082311461027a57806395d89b41146102aa578063a22cb465146102c85761010b565b806309842ac7116100de57806309842ac7146101aa57806323b872dd146101de57806342842e0e146101fa5780634aead46c146102165761010b565b806301ffc9a71461011057806306fdde0314610140578063081812fc1461015e578063095ea7b31461018e575b600080fd5b61012a60048036038101906101259190612189565b6103ac565b60405161013791906121d1565b60405180910390f35b61014861040d565b604051610155919061227c565b60405180910390f35b610178600480360381019061017391906122d4565b61049f565b6040516101859190612342565b60405180910390f35b6101a860048036038101906101a39190612389565b6104e5565b005b6101c460048036038101906101bf91906122d4565b6105fc565b6040516101d59594939291906123c9565b60405180910390f35b6101f860048036038101906101f3919061243f565b610975565b005b610214600480360381019061020f919061243f565b6109d5565b005b610230600480360381019061022b91906122d4565b6109f5565b6040516102419594939291906123c9565b60405180910390f35b610264600480360381019061025f91906122d4565b610cd3565b6040516102719190612342565b60405180910390f35b610294600480360381019061028f9190612492565b610d59565b6040516102a191906124ce565b60405180910390f35b6102b2610e10565b6040516102bf919061227c565b60405180910390f35b6102e260048036038101906102dd9190612515565b610ea2565b005b6102fe60048036038101906102f99190612389565b610eb8565b005b61031a6004803603810190610315919061268a565b610ec7565b60405161032791906124ce565b60405180910390f35b61034a60048036038101906103459190612844565b610fae565b005b610366600480360381019061036191906122d4565b611010565b604051610373919061227c565b60405180910390f35b610396600480360381019061039191906128c7565b611122565b6040516103a391906121d1565b60405180910390f35b6000634906490660e01b7bffffffffffffffffffffffffffffffffffffffffffffffffffffffff1916827bffffffffffffffffffffffffffffffffffffffffffffffffffffffff191614806104065750610405826111b6565b5b9050919050565b60606000805461041c90612936565b80601f016020809104026020016040519081016040528092919081815260200182805461044890612936565b80156104955780601f1061046a57610100808354040283529160200191610495565b820191906000526020600020905b81548152906001019060200180831161047857829003601f168201915b5050505050905090565b60006104aa82611298565b6004600083815260200190815260200160002060009054906101000a900473ffffffffffffffffffffffffffffffffffffffff169050919050565b60006104f082610cd3565b90508073ffffffffffffffffffffffffffffffffffffffff168373ffffffffffffffffffffffffffffffffffffffff1603610560576040517f08c379a0000000000000000000000000000000000000000000000000000000008152600401610557906129d9565b60405180910390fd5b8073ffffffffffffffffffffffffffffffffffffffff1661057f6112e3565b73ffffffffffffffffffffffffffffffffffffffff1614806105ae57506105ad816105a86112e3565b611122565b5b6105ed576040517f08c379a00000000000000000000000000000000000000000000000000000000081526004016105e490612a6b565b60405180910390fd5b6105f783836112eb565b505050565b606080606080606061060d866113a4565b61064c576040517f08c379a000000000000000000000000000000000000000000000000000000000815260040161064390612ad7565b60405180910390fd5b6000600860008881526020019081526020016000206040518060a001604052908160008201805461067c90612936565b80601f01602080910402602001604051908101604052809291908181526020018280546106a890612936565b80156106f55780601f106106ca576101008083540402835291602001916106f5565b820191906000526020600020905b8154815290600101906020018083116106d857829003601f168201915b5050505050815260200160018201805461070e90612936565b80601f016020809104026020016040519081016040528092919081815260200182805461073a90612936565b80156107875780601f1061075c57610100808354040283529160200191610787565b820191906000526020600020905b81548152906001019060200180831161076a57829003601f168201915b505050505081526020016002820180546107a090612936565b80601f01602080910402602001604051908101604052809291908181526020018280546107cc90612936565b80156108195780601f106107ee57610100808354040283529160200191610819565b820191906000526020600020905b8154815290600101906020018083116107fc57829003601f168201915b5050505050815260200160038201805461083290612936565b80601f016020809104026020016040519081016040528092919081815260200182805461085e90612936565b80156108ab5780601f10610880576101008083540402835291602001916108ab565b820191906000526020600020905b81548152906001019060200180831161088e57829003601f168201915b505050505081526020016004820180546108c490612936565b80601f01602080910402602001604051908101604052809291908181526020018280546108f090612936565b801561093d5780601f106109125761010080835404028352916020019161093d565b820191906000526020600020905b81548152906001019060200180831161092057829003601f168201915b505050505081525050905080600001518160200151826040015183606001518460800151955095509550955095505091939590929450565b6109866109806112e3565b826113e5565b6109c5576040517f08c379a00000000000000000000000000000000000000000000000000000000081526004016109bc90612b69565b60405180910390fd5b6109d083838361147a565b505050565b6109f083838360405180602001604052806000815250610fae565b505050565b6008602052806000526040600020600091509050806000018054610a1890612936565b80601f0160208091040260200160405190810160405280929190818152602001828054610a4490612936565b8015610a915780601f10610a6657610100808354040283529160200191610a91565b820191906000526020600020905b815481529060010190602001808311610a7457829003601f168201915b505050505090806001018054610aa690612936565b80601f0160208091040260200160405190810160405280929190818152602001828054610ad290612936565b8015610b1f5780601f10610af457610100808354040283529160200191610b1f565b820191906000526020600020905b815481529060010190602001808311610b0257829003601f168201915b505050505090806002018054610b3490612936565b80601f0160208091040260200160405190810160405280929190818152602001828054610b6090612936565b8015610bad5780601f10610b8257610100808354040283529160200191610bad565b820191906000526020600020905b815481529060010190602001808311610b9057829003601f168201915b505050505090806003018054610bc290612936565b80601f0160208091040260200160405190810160405280929190818152602001828054610bee90612936565b8015610c3b5780601f10610c1057610100808354040283529160200191610c3b565b820191906000526020600020905b815481529060010190602001808311610c1e57829003601f168201915b505050505090806004018054610c5090612936565b80601f0160208091040260200160405190810160405280929190818152602001828054610c7c90612936565b8015610cc95780601f10610c9e57610100808354040283529160200191610cc9565b820191906000526020600020905b815481529060010190602001808311610cac57829003601f168201915b5050505050905085565b600080610cdf83611773565b9050600073ffffffffffffffffffffffffffffffffffffffff168173ffffffffffffffffffffffffffffffffffffffff1603610d50576040517f08c379a0000000000000000000000000000000000000000000000000000000008152600401610d4790612bd5565b60405180910390fd5b80915050919050565b60008073ffffffffffffffffffffffffffffffffffffffff168273ffffffffffffffffffffffffffffffffffffffff1603610dc9576040517f08c379a0000000000000000000000000000000000000000000000000000000008152600401610dc090612c67565b60405180910390fd5b600360008373ffffffffffffffffffffffffffffffffffffffff1673ffffffffffffffffffffffffffffffffffffffff168152602001908152602001600020549050919050565b606060018054610e1f90612936565b80601f0160208091040260200160405190810160405280929190818152602001828054610e4b90612936565b8015610e985780601f10610e6d57610100808354040283529160200191610e98565b820191906000526020600020905b815481529060010190602001808311610e7b57829003601f168201915b5050505050905090565b610eb4610ead6112e3565b83836117b0565b5050565b610ec33383836109d5565b5050565b6000610ed3600761191c565b6000610edf6007611932565b9050610eeb8882611940565b610ef58184611b5d565b6040518060a0016040528088815260200187815260200186815260200185815260200184815250600860008381526020019081526020016000206000820151816000019081610f449190612e33565b506020820151816001019081610f5a9190612e33565b506040820151816002019081610f709190612e33565b506060820151816003019081610f869190612e33565b506080820151816004019081610f9c9190612e33565b50905050809150509695505050505050565b610fbf610fb96112e3565b836113e5565b610ffe576040517f08c379a0000000000000000000000000000000000000000000000000000000008152600401610ff590612b69565b60405180910390fd5b61100a84848484611c01565b50505050565b606061101b82611298565b600060066000848152602001908152602001600020805461103b90612936565b80601f016020809104026020016040519081016040528092919081815260200182805461106790612936565b80156110b45780601f10611089576101008083540402835291602001916110b4565b820191906000526020600020905b81548152906001019060200180831161109757829003601f168201915b5050505050905060006110c5611c5d565b905060008151036110da57819250505061111d565b60008251111561110f5780826040516020016110f7929190612f41565b6040516020818303038152906040529250505061111d565b61111884611c74565b925050505b919050565b6000600560008473ffffffffffffffffffffffffffffffffffffffff1673ffffffffffffffffffffffffffffffffffffffff16815260200190815260200160002060008373ffffffffffffffffffffffffffffffffffffffff1673ffffffffffffffffffffffffffffffffffffffff16815260200190815260200160002060009054906101000a900460ff16905092915050565b60007f80ac58cd000000000000000000000000000000000000000000000000000000007bffffffffffffffffffffffffffffffffffffffffffffffffffffffff1916827bffffffffffffffffffffffffffffffffffffffffffffffffffffffff1916148061128157507f5b5e139f000000000000000000000000000000000000000000000000000000007bffffffffffffffffffffffffffffffffffffffffffffffffffffffff1916827bffffffffffffffffffffffffffffffffffffffffffffffffffffffff1916145b80611291575061129082611cdc565b5b9050919050565b6112a1816113a4565b6112e0576040517f08c379a00000000000000000000000000000000000000000000000000000000081526004016112d790612bd5565b60405180910390fd5b50565b600033905090565b816004600083815260200190815260200160002060006101000a81548173ffffffffffffffffffffffffffffffffffffffff021916908373ffffffffffffffffffffffffffffffffffffffff160217905550808273ffffffffffffffffffffffffffffffffffffffff1661135e83610cd3565b73ffffffffffffffffffffffffffffffffffffffff167f8c5be1e5ebec7d5bd14f71427d1e84f3dd0314c0f7b2291e5b200ac8c7c3b92560405160405180910390a45050565b60008073ffffffffffffffffffffffffffffffffffffffff166113c683611773565b73ffffffffffffffffffffffffffffffffffffffff1614159050919050565b6000806113f183610cd3565b90508073ffffffffffffffffffffffffffffffffffffffff168473ffffffffffffffffffffffffffffffffffffffff16148061143357506114328185611122565b5b8061147157508373ffffffffffffffffffffffffffffffffffffffff166114598461049f565b73ffffffffffffffffffffffffffffffffffffffff16145b91505092915050565b8273ffffffffffffffffffffffffffffffffffffffff1661149a82610cd3565b73ffffffffffffffffffffffffffffffffffffffff16146114f0576040517f08c379a00000000000000000000000000000000000000000000000000000000081526004016114e790612fd7565b60405180910390fd5b600073ffffffffffffffffffffffffffffffffffffffff168273ffffffffffffffffffffffffffffffffffffffff160361155f576040517f08c379a000000000000000000000000000000000000000000000000000000000815260040161155690613069565b60405180910390fd5b61156c8383836001611d46565b8273ffffffffffffffffffffffffffffffffffffffff1661158c82610cd3565b73ffffffffffffffffffffffffffffffffffffffff16146115e2576040517f08c379a00000000000000000000000000000000000000000000000000000000081526004016115d990612fd7565b60405180910390fd5b6004600082815260200190815260200160002060006101000a81549073ffffffffffffffffffffffffffffffffffffffff02191690556001600360008573ffffffffffffffffffffffffffffffffffffffff1673ffffffffffffffffffffffffffffffffffffffff168152602001908152602001600020600082825403925050819055506001600360008473ffffffffffffffffffffffffffffffffffffffff1673ffffffffffffffffffffffffffffffffffffffff16815260200190815260200160002060008282540192505081905550816002600083815260200190815260200160002060006101000a81548173ffffffffffffffffffffffffffffffffffffffff021916908373ffffffffffffffffffffffffffffffffffffffff160217905550808273ffffffffffffffffffffffffffffffffffffffff168473ffffffffffffffffffffffffffffffffffffffff167fddf252ad1be2c89b69c2b068fc378daa952ba7f163c4a11628f55a4df523b3ef60405160405180910390a461176e8383836001611d4c565b505050565b60006002600083815260200190815260200160002060009054906101000a900473ffffffffffffffffffffffffffffffffffffffff169050919050565b8173ffffffffffffffffffffffffffffffffffffffff168373ffffffffffffffffffffffffffffffffffffffff160361181e576040517f08c379a0000000000000000000000000000000000000000000000000000000008152600401611815906130d5565b60405180910390fd5b80600560008573ffffffffffffffffffffffffffffffffffffffff1673ffffffffffffffffffffffffffffffffffffffff16815260200190815260200160002060008473ffffffffffffffffffffffffffffffffffffffff1673ffffffffffffffffffffffffffffffffffffffff16815260200190815260200160002060006101000a81548160ff0219169083151502179055508173ffffffffffffffffffffffffffffffffffffffff168373ffffffffffffffffffffffffffffffffffffffff167f17307eab39ab6107e8899845ad3d59bd9653f200f220920489ca2b5937696c318360405161190f91906121d1565b60405180910390a3505050565b6001816000016000828254019250508190555050565b600081600001549050919050565b600073ffffffffffffffffffffffffffffffffffffffff168273ffffffffffffffffffffffffffffffffffffffff16036119af576040517f08c379a00000000000000000000000000000000000000000000000000000000081526004016119a690613141565b60405180910390fd5b6119b8816113a4565b156119f8576040517f08c379a00000000000000000000000000000000000000000000000000000000081526004016119ef906131ad565b60405180910390fd5b611a06600083836001611d46565b611a0f816113a4565b15611a4f576040517f08c379a0000000000000000000000000000000000000000000000000000000008152600401611a46906131ad565b60405180910390fd5b6001600360008473ffffffffffffffffffffffffffffffffffffffff1673ffffffffffffffffffffffffffffffffffffffff16815260200190815260200160002060008282540192505081905550816002600083815260200190815260200160002060006101000a81548173ffffffffffffffffffffffffffffffffffffffff021916908373ffffffffffffffffffffffffffffffffffffffff160217905550808273ffffffffffffffffffffffffffffffffffffffff16600073ffffffffffffffffffffffffffffffffffffffff167fddf252ad1be2c89b69c2b068fc378daa952ba7f163c4a11628f55a4df523b3ef60405160405180910390a4611b59600083836001611d4c565b5050565b611b66826113a4565b611ba5576040517f08c379a0000000000000000000000000000000000000000000000000000000008152600401611b9c9061323f565b60405180910390fd5b80600660008481526020019081526020016000209081611bc59190612e33565b507ff8e1a15aba9398e019f0b49df1a4fde98ee17ae345cb5f6b5e2c27f5033e8ce782604051611bf591906124ce565b60405180910390a15050565b611c0c84848461147a565b611c1884848484611d52565b611c57576040517f08c379a0000000000000000000000000000000000000000000000000000000008152600401611c4e906132d1565b60405180910390fd5b50505050565b606060405180602001604052806000815250905090565b6060611c7f82611298565b6000611c89611c5d565b90506000815111611ca95760405180602001604052806000815250611cd4565b80611cb384611ed9565b604051602001611cc4929190612f41565b6040516020818303038152906040525b915050919050565b60007f01ffc9a7000000000000000000000000000000000000000000000000000000007bffffffffffffffffffffffffffffffffffffffffffffffffffffffff1916827bffffffffffffffffffffffffffffffffffffffffffffffffffffffff1916149050919050565b50505050565b50505050565b6000611d738473ffffffffffffffffffffffffffffffffffffffff16611fa7565b15611ecc578373ffffffffffffffffffffffffffffffffffffffff1663150b7a02611d9c6112e3565b8786866040518563ffffffff1660e01b8152600401611dbe9493929190613346565b6020604051808303816000875af1925050508015611dfa57506040513d601f19601f82011682018060405250810190611df791906133a7565b60015b611e7c573d8060008114611e2a576040519150601f19603f3d011682016040523d82523d6000602084013e611e2f565b606091505b506000815103611e74576040517f08c379a0000000000000000000000000000000000000000000000000000000008152600401611e6b906132d1565b60405180910390fd5b805181602001fd5b63150b7a0260e01b7bffffffffffffffffffffffffffffffffffffffffffffffffffffffff1916817bffffffffffffffffffffffffffffffffffffffffffffffffffffffff191614915050611ed1565b600190505b949350505050565b606060006001611ee884611fca565b01905060008167ffffffffffffffff811115611f0757611f0661255f565b5b6040519080825280601f01601f191660200182016040528015611f395781602001600182028036833780820191505090505b509050600082602001820190505b600115611f9c578080600190039150507f3031323334353637383961626364656600000000000000000000000000000000600a86061a8153600a8581611f9057611f8f6133d4565b5b04945060008503611f47575b819350505050919050565b6000808273ffffffffffffffffffffffffffffffffffffffff163b119050919050565b600080600090507a184f03e93ff9f4daa797ed6e38ed64bf6a1f0100000000000000008310612028577a184f03e93ff9f4daa797ed6e38ed64bf6a1f010000000000000000838161201e5761201d6133d4565b5b0492506040810190505b6d04ee2d6d415b85acef81000000008310612065576d04ee2d6d415b85acef8100000000838161205b5761205a6133d4565b5b0492506020810190505b662386f26fc10000831061209457662386f26fc10000838161208a576120896133d4565b5b0492506010810190505b6305f5e10083106120bd576305f5e10083816120b3576120b26133d4565b5b0492506008810190505b61271083106120e25761271083816120d8576120d76133d4565b5b0492506004810190505b6064831061210557606483816120fb576120fa6133d4565b5b0492506002810190505b600a8310612114576001810190505b80915050919050565b6000604051905090565b600080fd5b600080fd5b60007fffffffff0000000000000000000000000000000000000000000000000000000082169050919050565b61216681612131565b811461217157600080fd5b50565b6000813590506121838161215d565b92915050565b60006020828403121561219f5761219e612127565b5b60006121ad84828501612174565b91505092915050565b60008115159050919050565b6121cb816121b6565b82525050565b60006020820190506121e660008301846121c2565b92915050565b600081519050919050565b600082825260208201905092915050565b60005b8381101561222657808201518184015260208101905061220b565b60008484015250505050565b6000601f19601f8301169050919050565b600061224e826121ec565b61225881856121f7565b9350612268818560208601612208565b61227181612232565b840191505092915050565b600060208201905081810360008301526122968184612243565b905092915050565b6000819050919050565b6122b18161229e565b81146122bc57600080fd5b50565b6000813590506122ce816122a8565b92915050565b6000602082840312156122ea576122e9612127565b5b60006122f8848285016122bf565b91505092915050565b600073ffffffffffffffffffffffffffffffffffffffff82169050919050565b600061232c82612301565b9050919050565b61233c81612321565b82525050565b60006020820190506123576000830184612333565b92915050565b61236681612321565b811461237157600080fd5b50565b6000813590506123838161235d565b92915050565b600080604083850312156123a05761239f612127565b5b60006123ae85828601612374565b92505060206123bf858286016122bf565b9150509250929050565b600060a08201905081810360008301526123e38188612243565b905081810360208301526123f78187612243565b9050818103604083015261240b8186612243565b9050818103606083015261241f8185612243565b905081810360808301526124338184612243565b90509695505050505050565b60008060006060848603121561245857612457612127565b5b600061246686828701612374565b935050602061247786828701612374565b9250506040612488868287016122bf565b9150509250925092565b6000602082840312156124a8576124a7612127565b5b60006124b684828501612374565b91505092915050565b6124c88161229e565b82525050565b60006020820190506124e360008301846124bf565b92915050565b6124f2816121b6565b81146124fd57600080fd5b50565b60008135905061250f816124e9565b92915050565b6000806040838503121561252c5761252b612127565b5b600061253a85828601612374565b925050602061254b85828601612500565b9150509250929050565b600080fd5b600080fd5b7f4e487b7100000000000000000000000000000000000000000000000000000000600052604160045260246000fd5b61259782612232565b810181811067ffffffffffffffff821117156125b6576125b561255f565b5b80604052505050565b60006125c961211d565b90506125d5828261258e565b919050565b600067ffffffffffffffff8211156125f5576125f461255f565b5b6125fe82612232565b9050602081019050919050565b82818337600083830152505050565b600061262d612628846125da565b6125bf565b9050828152602081018484840111156126495761264861255a565b5b61265484828561260b565b509392505050565b600082601f83011261267157612670612555565b5b813561268184826020860161261a565b91505092915050565b60008060008060008060c087890312156126a7576126a6612127565b5b60006126b589828a01612374565b965050602087013567ffffffffffffffff8111156126d6576126d561212c565b5b6126e289828a0161265c565b955050604087013567ffffffffffffffff8111156127035761270261212c565b5b61270f89828a0161265c565b945050606087013567ffffffffffffffff8111156127305761272f61212c565b5b61273c89828a0161265c565b935050608087013567ffffffffffffffff81111561275d5761275c61212c565b5b61276989828a0161265c565b92505060a087013567ffffffffffffffff81111561278a5761278961212c565b5b61279689828a0161265c565b9150509295509295509295565b600067ffffffffffffffff8211156127be576127bd61255f565b5b6127c782612232565b9050602081019050919050565b60006127e76127e2846127a3565b6125bf565b9050828152602081018484840111156128035761280261255a565b5b61280e84828561260b565b509392505050565b600082601f83011261282b5761282a612555565b5b813561283b8482602086016127d4565b91505092915050565b6000806000806080858703121561285e5761285d612127565b5b600061286c87828801612374565b945050602061287d87828801612374565b935050604061288e878288016122bf565b925050606085013567ffffffffffffffff8111156128af576128ae61212c565b5b6128bb87828801612816565b91505092959194509250565b600080604083850312156128de576128dd612127565b5b60006128ec85828601612374565b92505060206128fd85828601612374565b9150509250929050565b7f4e487b7100000000000000000000000000000000000000000000000000000000600052602260045260246000fd5b6000600282049050600182168061294e57607f821691505b60208210810361296157612960612907565b5b50919050565b7f4552433732313a20617070726f76616c20746f2063757272656e74206f776e6560008201527f7200000000000000000000000000000000000000000000000000000000000000602082015250565b60006129c36021836121f7565b91506129ce82612967565b604082019050919050565b600060208201905081810360008301526129f2816129b6565b9050919050565b7f4552433732313a20617070726f76652063616c6c6572206973206e6f7420746f60008201527f6b656e206f776e6572206f7220617070726f76656420666f7220616c6c000000602082015250565b6000612a55603d836121f7565b9150612a60826129f9565b604082019050919050565b60006020820190508181036000830152612a8481612a48565b9050919050565b7f4e4654206e6f2065786973746500000000000000000000000000000000000000600082015250565b6000612ac1600d836121f7565b9150612acc82612a8b565b602082019050919050565b60006020820190508181036000830152612af081612ab4565b9050919050565b7f4552433732313a2063616c6c6572206973206e6f7420746f6b656e206f776e6560008201527f72206f7220617070726f76656400000000000000000000000000000000000000602082015250565b6000612b53602d836121f7565b9150612b5e82612af7565b604082019050919050565b60006020820190508181036000830152612b8281612b46565b9050919050565b7f4552433732313a20696e76616c696420746f6b656e2049440000000000000000600082015250565b6000612bbf6018836121f7565b9150612bca82612b89565b602082019050919050565b60006020820190508181036000830152612bee81612bb2565b9050919050565b7f4552433732313a2061646472657373207a65726f206973206e6f74206120766160008201527f6c6964206f776e65720000000000000000000000000000000000000000000000602082015250565b6000612c516029836121f7565b9150612c5c82612bf5565b604082019050919050565b60006020820190508181036000830152612c8081612c44565b9050919050565b60008190508160005260206000209050919050565b60006020601f8301049050919050565b600082821b905092915050565b600060088302612ce97fffffffffffffffffffffffffffffffffffffffffffffffffffffffffffffffff82612cac565b612cf38683612cac565b95508019841693508086168417925050509392505050565b6000819050919050565b6000612d30612d2b612d268461229e565b612d0b565b61229e565b9050919050565b6000819050919050565b612d4a83612d15565b612d5e612d5682612d37565b848454612cb9565b825550505050565b600090565b612d73612d66565b612d7e818484612d41565b505050565b5b81811015612da257612d97600082612d6b565b600181019050612d84565b5050565b601f821115612de757612db881612c87565b612dc184612c9c565b81016020851015612dd0578190505b612de4612ddc85612c9c565b830182612d83565b50505b505050565b600082821c905092915050565b6000612e0a60001984600802612dec565b1980831691505092915050565b6000612e238383612df9565b9150826002028217905092915050565b612e3c826121ec565b67ffffffffffffffff811115612e5557612e5461255f565b5b612e5f8254612936565b612e6a828285612da6565b600060209050601f831160018114612e9d5760008415612e8b578287015190505b612e958582612e17565b865550612efd565b601f198416612eab86612c87565b60005b82811015612ed357848901518255600182019150602085019450602081019050612eae565b86831015612ef05784890151612eec601f891682612df9565b8355505b6001600288020188555050505b505050505050565b600081905092915050565b6000612f1b826121ec565b612f258185612f05565b9350612f35818560208601612208565b80840191505092915050565b6000612f4d8285612f10565b9150612f598284612f10565b91508190509392505050565b7f4552433732313a207472616e736665722066726f6d20696e636f72726563742060008201527f6f776e6572000000000000000000000000000000000000000000000000000000602082015250565b6000612fc16025836121f7565b9150612fcc82612f65565b604082019050919050565b60006020820190508181036000830152612ff081612fb4565b9050919050565b7f4552433732313a207472616e7366657220746f20746865207a65726f2061646460008201527f7265737300000000000000000000000000000000000000000000000000000000602082015250565b60006130536024836121f7565b915061305e82612ff7565b604082019050919050565b6000602082019050818103600083015261308281613046565b9050919050565b7f4552433732313a20617070726f766520746f2063616c6c657200000000000000600082015250565b60006130bf6019836121f7565b91506130ca82613089565b602082019050919050565b600060208201905081810360008301526130ee816130b2565b9050919050565b7f4552433732313a206d696e7420746f20746865207a65726f2061646472657373600082015250565b600061312b6020836121f7565b9150613136826130f5565b602082019050919050565b6000602082019050818103600083015261315a8161311e565b9050919050565b7f4552433732313a20746f6b656e20616c7265616479206d696e74656400000000600082015250565b6000613197601c836121f7565b91506131a282613161565b602082019050919050565b600060208201905081810360008301526131c68161318a565b9050919050565b7f45524337323155524953746f726167653a2055524920736574206f66206e6f6e60008201527f6578697374656e7420746f6b656e000000000000000000000000000000000000602082015250565b6000613229602e836121f7565b9150613234826131cd565b604082019050919050565b600060208201905081810360008301526132588161321c565b9050919050565b7f4552433732313a207472616e7366657220746f206e6f6e20455243373231526560008201527f63656976657220696d706c656d656e7465720000000000000000000000000000602082015250565b60006132bb6032836121f7565b91506132c68261325f565b604082019050919050565b600060208201905081810360008301526132ea816132ae565b9050919050565b600081519050919050565b600082825260208201905092915050565b6000613318826132f1565b61332281856132fc565b9350613332818560208601612208565b61333b81612232565b840191505092915050565b600060808201905061335b6000830187612333565b6133686020830186612333565b61337560408301856124bf565b8181036060830152613387818461330d565b905095945050505050565b6000815190506133a18161215d565b92915050565b6000602082840312156133bd576133bc612127565b5b60006133cb84828501613392565b91505092915050565b7f4e487b7100000000000000000000000000000000000000000000000000000000600052601260045260246000fdfea2646970667358221220bb782b83356f009ad62e7946d2a01cab1e5be461144ee0193471185a0793960064736f6c634300081b0033",
  "linkReferences": {},
  "deployedLinkReferences": {}
}