{
  "_format": "hh-sol-artifact-1",
  "contractName": "Jugadores",
  "sourceName": "contracts/Jugadores.sol",
  "abi": [
    {
      "anonymous": false,
      "inputs": [
        {
          "indexed": true,
          "internalType": "address",
          "name": "id",
          "type": "address"
        },
        {
          "indexed": false,
          "internalType": "string",
          "name": "nombre",
          "type": "string"
        },
        {
          "indexed": false,
          "internalType": "string",
          "name": "nickname",
          "type": "string"
        }
      ],
      "name": "JugadorActualizado",
      "type": "event"
    },
    {
      "anonymous": false,
      "inputs": [
        {
          "indexed": true,
          "internalType": "address",
          "name": "id",
          "type": "address"
        }
      ],
      "name": "JugadorEliminado",
      "type": "event"
    },
    {
      "anonymous": false,
      "inputs": [
        {
          "indexed": true,
          "internalType": "address",
          "name": "id",
          "type": "address"
        },
        {
          "indexed": false,
          "internalType": "string",
          "name": "nombre",
          "type": "string"
        },
        {
          "indexed": false,
          "internalType": "string",
          "name": "nickname",
          "type": "string"
        }
      ],
      "name": "JugadorRegistrado",
      "type": "event"
    },
    {
      "inputs": [
        {
          "internalType": "address",
          "name": "_id",
          "type": "address"
        },
        {
          "internalType": "string",
          "name": "_nombre",
          "type": "string"
        },
        {
          "internalType": "string",
          "name": "_nickname",
          "type": "string"
        },
        {
          "internalType": "string",
          "name": "_rol",
          "type": "string"
        },
        {
          "internalType": "string",
          "name": "_nacionalidad",
          "type": "string"
        },
        {
          "internalType": "string",
          "name": "_imagenIPFS",
          "type": "string"
        }
      ],
      "name": "actualizarJugador",
      "outputs": [],
      "stateMutability": "nonpayable",
      "type": "function"
    },
    {
      "inputs": [
        {
          "internalType": "address",
          "name": "_id",
          "type": "address"
        }
      ],
      "name": "eliminarJugador",
      "outputs": [],
      "stateMutability": "nonpayable",
      "type": "function"
    },
    {
      "inputs": [
        {
          "internalType": "address",
          "name": "",
          "type": "address"
        }
      ],
      "name": "jugadores",
      "outputs": [
        {
          "internalType": "string",
          "name": "nombre",
          "type": "string"
        },
        {
          "internalType": "string",
          "name": "nickname",
          "type": "string"
        },
        {
          "internalType": "string",
          "name": "rol",
          "type": "string"
        },
        {
          "internalType": "string",
          "name": "nacionalidad",
          "type": "string"
        },
        {
          "internalType": "string",
          "name": "imagenIPFS",
          "type": "string"
        }
      ],
      "stateMutability": "view",
      "type": "function"
    },
    {
      "inputs": [
        {
          "internalType": "address",
          "name": "_id",
          "type": "address"
        }
      ],
      "name": "obtenerJugador",
      "outputs": [
        {
          "internalType": "string",
          "name": "",
          "type": "string"
        },
        {
          "internalType": "string",
          "name": "",
          "type": "string"
        },
        {
          "internalType": "string",
          "name": "",
          "type": "string"
        },
        {
          "internalType": "string",
          "name": "",
          "type": "string"
        },
        {
          "internalType": "string",
          "name": "",
          "type": "string"
        }
      ],
      "stateMutability": "view",
      "type": "function"
    },
    {
      "inputs": [
        {
          "internalType": "address",
          "name": "_id",
          "type": "address"
        },
        {
          "internalType": "string",
          "name": "_nombre",
          "type": "string"
        },
        {
          "internalType": "string",
          "name": "_nickname",
          "type": "string"
        },
        {
          "internalType": "string",
          "name": "_rol",
          "type": "string"
        },
        {
          "internalType": "string",
          "name": "_nacionalidad",
          "type": "string"
        },
        {
          "internalType": "string",
          "name": "_imagenIPFS",
          "type": "string"
        }
      ],
      "name": "registrarJugador",
      "outputs": [],
      "stateMutability": "nonpayable",
      "type": "function"
    }
  ],
  "bytecode": "0x6080604052348015600f57600080fd5b506115428061001f6000396000f3fe608060405234801561001057600080fd5b50600436106100575760003560e01c80631f7171d91461005c5780635c630871146100785780639594c203146100ac578063a9dda798146100c8578063e5d94cae146100e4575b600080fd5b61007660048036038101906100719190610eda565b610118565b005b610092600480360381019061008d9190610ff3565b6102d6565b6040516100a395949392919061109f565b60405180910390f35b6100c660048036038101906100c19190610ff3565b6106c2565b005b6100e260048036038101906100dd9190610eda565b610829565b005b6100fe60048036038101906100f99190610ff3565b6109e7565b60405161010f95949392919061109f565b60405180910390f35b60008060008873ffffffffffffffffffffffffffffffffffffffff1673ffffffffffffffffffffffffffffffffffffffff168152602001908152602001600020600001805461016690611144565b9050146101a8576040517f08c379a000000000000000000000000000000000000000000000000000000000815260040161019f906111c1565b60405180910390fd5b6040518060a00160405280868152602001858152602001848152602001838152602001828152506000808873ffffffffffffffffffffffffffffffffffffffff1673ffffffffffffffffffffffffffffffffffffffff16815260200190815260200160002060008201518160000190816102229190611397565b5060208201518160010190816102389190611397565b50604082015181600201908161024e9190611397565b5060608201518160030190816102649190611397565b50608082015181600401908161027a9190611397565b509050508573ffffffffffffffffffffffffffffffffffffffff167fdbed158f27be86c43a65ecb8698c62093b594d71e14b92d42484ab44a6a25d8c86866040516102c6929190611469565b60405180910390a2505050505050565b606080606080606060008060008873ffffffffffffffffffffffffffffffffffffffff1673ffffffffffffffffffffffffffffffffffffffff168152602001908152602001600020600001805461032c90611144565b90500361036e576040517f08c379a0000000000000000000000000000000000000000000000000000000008152600401610365906114ec565b60405180910390fd5b60008060008873ffffffffffffffffffffffffffffffffffffffff1673ffffffffffffffffffffffffffffffffffffffff1681526020019081526020016000206040518060a00160405290816000820180546103c990611144565b80601f01602080910402602001604051908101604052809291908181526020018280546103f590611144565b80156104425780601f1061041757610100808354040283529160200191610442565b820191906000526020600020905b81548152906001019060200180831161042557829003601f168201915b5050505050815260200160018201805461045b90611144565b80601f016020809104026020016040519081016040528092919081815260200182805461048790611144565b80156104d45780601f106104a9576101008083540402835291602001916104d4565b820191906000526020600020905b8154815290600101906020018083116104b757829003601f168201915b505050505081526020016002820180546104ed90611144565b80601f016020809104026020016040519081016040528092919081815260200182805461051990611144565b80156105665780601f1061053b57610100808354040283529160200191610566565b820191906000526020600020905b81548152906001019060200180831161054957829003601f168201915b5050505050815260200160038201805461057f90611144565b80601f01602080910402602001604051908101604052809291908181526020018280546105ab90611144565b80156105f85780601f106105cd576101008083540402835291602001916105f8565b820191906000526020600020905b8154815290600101906020018083116105db57829003601f168201915b5050505050815260200160048201805461061190611144565b80601f016020809104026020016040519081016040528092919081815260200182805461063d90611144565b801561068a5780601f1061065f5761010080835404028352916020019161068a565b820191906000526020600020905b81548152906001019060200180831161066d57829003601f168201915b505050505081525050905080600001518160200151826040015183606001518460800151955095509550955095505091939590929450565b60008060008373ffffffffffffffffffffffffffffffffffffffff1673ffffffffffffffffffffffffffffffffffffffff168152602001908152602001600020600001805461071090611144565b905003610752576040517f08c379a0000000000000000000000000000000000000000000000000000000008152600401610749906114ec565b60405180910390fd5b6000808273ffffffffffffffffffffffffffffffffffffffff1673ffffffffffffffffffffffffffffffffffffffff168152602001908152602001600020600080820160006107a19190610cc5565b6001820160006107b19190610cc5565b6002820160006107c19190610cc5565b6003820160006107d19190610cc5565b6004820160006107e19190610cc5565b50508073ffffffffffffffffffffffffffffffffffffffff167f3aefdad6ac3f1015d0d6439c26648d372b11980bf42e4d8aea26cf8b18d402de60405160405180910390a250565b60008060008873ffffffffffffffffffffffffffffffffffffffff1673ffffffffffffffffffffffffffffffffffffffff168152602001908152602001600020600001805461087790611144565b9050036108b9576040517f08c379a00000000000000000000000000000000000000000000000000000000081526004016108b0906114ec565b60405180910390fd5b6040518060a00160405280868152602001858152602001848152602001838152602001828152506000808873ffffffffffffffffffffffffffffffffffffffff1673ffffffffffffffffffffffffffffffffffffffff16815260200190815260200160002060008201518160000190816109339190611397565b5060208201518160010190816109499190611397565b50604082015181600201908161095f9190611397565b5060608201518160030190816109759190611397565b50608082015181600401908161098b9190611397565b509050508573ffffffffffffffffffffffffffffffffffffffff167fdc3772237ee4432b9aababe49e3b2530f7b1fc21763d3e7f3e796cb36803d42186866040516109d7929190611469565b60405180910390a2505050505050565b6000602052806000526040600020600091509050806000018054610a0a90611144565b80601f0160208091040260200160405190810160405280929190818152602001828054610a3690611144565b8015610a835780601f10610a5857610100808354040283529160200191610a83565b820191906000526020600020905b815481529060010190602001808311610a6657829003601f168201915b505050505090806001018054610a9890611144565b80601f0160208091040260200160405190810160405280929190818152602001828054610ac490611144565b8015610b115780601f10610ae657610100808354040283529160200191610b11565b820191906000526020600020905b815481529060010190602001808311610af457829003601f168201915b505050505090806002018054610b2690611144565b80601f0160208091040260200160405190810160405280929190818152602001828054610b5290611144565b8015610b9f5780601f10610b7457610100808354040283529160200191610b9f565b820191906000526020600020905b815481529060010190602001808311610b8257829003601f168201915b505050505090806003018054610bb490611144565b80601f0160208091040260200160405190810160405280929190818152602001828054610be090611144565b8015610c2d5780601f10610c0257610100808354040283529160200191610c2d565b820191906000526020600020905b815481529060010190602001808311610c1057829003601f168201915b505050505090806004018054610c4290611144565b80601f0160208091040260200160405190810160405280929190818152602001828054610c6e90611144565b8015610cbb5780601f10610c9057610100808354040283529160200191610cbb565b820191906000526020600020905b815481529060010190602001808311610c9e57829003601f168201915b5050505050905085565b508054610cd190611144565b6000825580601f10610ce35750610d02565b601f016020900490600052602060002090810190610d019190610d05565b5b50565b5b80821115610d1e576000816000905550600101610d06565b5090565b6000604051905090565b600080fd5b600080fd5b600073ffffffffffffffffffffffffffffffffffffffff82169050919050565b6000610d6182610d36565b9050919050565b610d7181610d56565b8114610d7c57600080fd5b50565b600081359050610d8e81610d68565b92915050565b600080fd5b600080fd5b6000601f19601f8301169050919050565b7f4e487b7100000000000000000000000000000000000000000000000000000000600052604160045260246000fd5b610de782610d9e565b810181811067ffffffffffffffff82111715610e0657610e05610daf565b5b80604052505050565b6000610e19610d22565b9050610e258282610dde565b919050565b600067ffffffffffffffff821115610e4557610e44610daf565b5b610e4e82610d9e565b9050602081019050919050565b82818337600083830152505050565b6000610e7d610e7884610e2a565b610e0f565b905082815260208101848484011115610e9957610e98610d99565b5b610ea4848285610e5b565b509392505050565b600082601f830112610ec157610ec0610d94565b5b8135610ed1848260208601610e6a565b91505092915050565b60008060008060008060c08789031215610ef757610ef6610d2c565b5b6000610f0589828a01610d7f565b965050602087013567ffffffffffffffff811115610f2657610f25610d31565b5b610f3289828a01610eac565b955050604087013567ffffffffffffffff811115610f5357610f52610d31565b5b610f5f89828a01610eac565b945050606087013567ffffffffffffffff811115610f8057610f7f610d31565b5b610f8c89828a01610eac565b935050608087013567ffffffffffffffff811115610fad57610fac610d31565b5b610fb989828a01610eac565b92505060a087013567ffffffffffffffff811115610fda57610fd9610d31565b5b610fe689828a01610eac565b9150509295509295509295565b60006020828403121561100957611008610d2c565b5b600061101784828501610d7f565b91505092915050565b600081519050919050565b600082825260208201905092915050565b60005b8381101561105a57808201518184015260208101905061103f565b60008484015250505050565b600061107182611020565b61107b818561102b565b935061108b81856020860161103c565b61109481610d9e565b840191505092915050565b600060a08201905081810360008301526110b98188611066565b905081810360208301526110cd8187611066565b905081810360408301526110e18186611066565b905081810360608301526110f58185611066565b905081810360808301526111098184611066565b90509695505050505050565b7f4e487b7100000000000000000000000000000000000000000000000000000000600052602260045260246000fd5b6000600282049050600182168061115c57607f821691505b60208210810361116f5761116e611115565b5b50919050565b7f4a756761646f72207961207265676973747261646f0000000000000000000000600082015250565b60006111ab60158361102b565b91506111b682611175565b602082019050919050565b600060208201905081810360008301526111da8161119e565b9050919050565b60008190508160005260206000209050919050565b60006020601f8301049050919050565b600082821b905092915050565b6000600883026112437fffffffffffffffffffffffffffffffffffffffffffffffffffffffffffffffff82611206565b61124d8683611206565b95508019841693508086168417925050509392505050565b6000819050919050565b6000819050919050565b600061129461128f61128a84611265565b61126f565b611265565b9050919050565b6000819050919050565b6112ae83611279565b6112c26112ba8261129b565b848454611213565b825550505050565b600090565b6112d76112ca565b6112e28184846112a5565b505050565b5b81811015611306576112fb6000826112cf565b6001810190506112e8565b5050565b601f82111561134b5761131c816111e1565b611325846111f6565b81016020851015611334578190505b611348611340856111f6565b8301826112e7565b50505b505050565b600082821c905092915050565b600061136e60001984600802611350565b1980831691505092915050565b6000611387838361135d565b9150826002028217905092915050565b6113a082611020565b67ffffffffffffffff8111156113b9576113b8610daf565b5b6113c38254611144565b6113ce82828561130a565b600060209050601f83116001811461140157600084156113ef578287015190505b6113f9858261137b565b865550611461565b601f19841661140f866111e1565b60005b8281101561143757848901518255600182019150602085019450602081019050611412565b868310156114545784890151611450601f89168261135d565b8355505b6001600288020188555050505b505050505050565b600060408201905081810360008301526114838185611066565b905081810360208301526114978184611066565b90509392505050565b7f4a756761646f72206e6f207265676973747261646f0000000000000000000000600082015250565b60006114d660158361102b565b91506114e1826114a0565b602082019050919050565b60006020820190508181036000830152611505816114c9565b905091905056fea2646970667358221220da6b3596922ad97196fc1fbb3c878f4017964f60291a4b7b012bb2f1262197e464736f6c634300081b0033",
  "linkReferences": {},
  "deployedLinkReferences": {}
}