{
  "_format": "hh-sol-artifact-1",
  "contractName": "Jugadores",
  "sourceName": "contracts/Jugadores.sol",
  "abi": [
    {
      "inputs": [
        {
          "internalType": "address",
          "name": "_nftContractAddress",
          "type": "address"
        }
      ],
      "stateMutability": "nonpayable",
      "type": "constructor"
    },
    {
      "anonymous": false,
      "inputs": [
        {
          "indexed": false,
          "internalType": "uint256",
          "name": "idJugador",
          "type": "uint256"
        },
        {
          "indexed": false,
          "internalType": "string",
          "name": "nombre",
          "type": "string"
        },
        {
          "indexed": false,
          "internalType": "string",
          "name": "nickname",
          "type": "string"
        }
      ],
      "name": "JugadorActualizado",
      "type": "event"
    },
    {
      "anonymous": false,
      "inputs": [
        {
          "indexed": false,
          "internalType": "uint256",
          "name": "idJugador",
          "type": "uint256"
        }
      ],
      "name": "JugadorEliminado",
      "type": "event"
    },
    {
      "anonymous": false,
      "inputs": [
        {
          "indexed": false,
          "internalType": "uint256",
          "name": "idJugador",
          "type": "uint256"
        },
        {
          "indexed": false,
          "internalType": "string",
          "name": "nombre",
          "type": "string"
        },
        {
          "indexed": false,
          "internalType": "string",
          "name": "nickname",
          "type": "string"
        }
      ],
      "name": "JugadorRegistrado",
      "type": "event"
    },
    {
      "inputs": [
        {
          "internalType": "uint256",
          "name": "_idJugador",
          "type": "uint256"
        },
        {
          "internalType": "string",
          "name": "_nombre",
          "type": "string"
        },
        {
          "internalType": "string",
          "name": "_nickname",
          "type": "string"
        },
        {
          "internalType": "string",
          "name": "_rol",
          "type": "string"
        },
        {
          "internalType": "string",
          "name": "_nacionalidad",
          "type": "string"
        },
        {
          "internalType": "string",
          "name": "_imagenIPFS",
          "type": "string"
        },
        {
          "internalType": "uint256",
          "name": "_equipoId",
          "type": "uint256"
        },
        {
          "internalType": "uint256",
          "name": "_nftId",
          "type": "uint256"
        }
      ],
      "name": "actualizarJugador",
      "outputs": [],
      "stateMutability": "nonpayable",
      "type": "function"
    },
    {
      "inputs": [
        {
          "internalType": "uint256",
          "name": "_idJugador",
          "type": "uint256"
        }
      ],
      "name": "consultarJugador",
      "outputs": [
        {
          "internalType": "uint256",
          "name": "",
          "type": "uint256"
        },
        {
          "internalType": "string",
          "name": "",
          "type": "string"
        },
        {
          "internalType": "string",
          "name": "",
          "type": "string"
        },
        {
          "internalType": "string",
          "name": "",
          "type": "string"
        },
        {
          "internalType": "string",
          "name": "",
          "type": "string"
        },
        {
          "internalType": "string",
          "name": "",
          "type": "string"
        },
        {
          "internalType": "uint256",
          "name": "",
          "type": "uint256"
        },
        {
          "internalType": "uint256",
          "name": "",
          "type": "uint256"
        }
      ],
      "stateMutability": "view",
      "type": "function"
    },
    {
      "inputs": [
        {
          "internalType": "uint256",
          "name": "_idJugador",
          "type": "uint256"
        }
      ],
      "name": "eliminarJugador",
      "outputs": [],
      "stateMutability": "nonpayable",
      "type": "function"
    },
    {
      "inputs": [
        {
          "internalType": "uint256",
          "name": "",
          "type": "uint256"
        }
      ],
      "name": "jugadores",
      "outputs": [
        {
          "internalType": "uint256",
          "name": "idJugador",
          "type": "uint256"
        },
        {
          "internalType": "string",
          "name": "nombre",
          "type": "string"
        },
        {
          "internalType": "string",
          "name": "nickname",
          "type": "string"
        },
        {
          "internalType": "string",
          "name": "rol",
          "type": "string"
        },
        {
          "internalType": "string",
          "name": "nacionalidad",
          "type": "string"
        },
        {
          "internalType": "string",
          "name": "imagenIPFS",
          "type": "string"
        },
        {
          "internalType": "uint256",
          "name": "equipoId",
          "type": "uint256"
        },
        {
          "internalType": "uint256",
          "name": "nftId",
          "type": "uint256"
        }
      ],
      "stateMutability": "view",
      "type": "function"
    },
    {
      "inputs": [],
      "name": "nftContractAddress",
      "outputs": [
        {
          "internalType": "address",
          "name": "",
          "type": "address"
        }
      ],
      "stateMutability": "view",
      "type": "function"
    },
    {
      "inputs": [
        {
          "internalType": "uint256",
          "name": "_idJugador",
          "type": "uint256"
        },
        {
          "internalType": "string",
          "name": "_nombre",
          "type": "string"
        },
        {
          "internalType": "string",
          "name": "_nickname",
          "type": "string"
        },
        {
          "internalType": "string",
          "name": "_rol",
          "type": "string"
        },
        {
          "internalType": "string",
          "name": "_nacionalidad",
          "type": "string"
        },
        {
          "internalType": "string",
          "name": "_imagenIPFS",
          "type": "string"
        },
        {
          "internalType": "uint256",
          "name": "_equipoId",
          "type": "uint256"
        },
        {
          "internalType": "uint256",
          "name": "_nftId",
          "type": "uint256"
        }
      ],
      "name": "registrarJugador",
      "outputs": [],
      "stateMutability": "nonpayable",
      "type": "function"
    },
    {
      "inputs": [],
      "name": "totalJugadores",
      "outputs": [
        {
          "internalType": "uint256",
          "name": "",
          "type": "uint256"
        }
      ],
      "stateMutability": "view",
      "type": "function"
    }
  ],
  "bytecode": "0x608060405234801561001057600080fd5b50604051611744380380611744833981810160405281019061003291906100dc565b80600260006101000a81548173ffffffffffffffffffffffffffffffffffffffff021916908373ffffffffffffffffffffffffffffffffffffffff16021790555050610109565b600080fd5b600073ffffffffffffffffffffffffffffffffffffffff82169050919050565b60006100a98261007e565b9050919050565b6100b98161009e565b81146100c457600080fd5b50565b6000815190506100d6816100b0565b92915050565b6000602082840312156100f2576100f1610079565b5b6000610100848285016100c7565b91505092915050565b61162c806101186000396000f3fe608060405234801561001057600080fd5b506004361061007d5760003560e01c8063a4f30d871161005b578063a4f30d87146100f3578063a896ba751461010f578063aae282e114610146578063afbd494c146101645761007d565b80633d34cbf3146100825780634aead46c146100a057806393969f6e146100d7575b600080fd5b61008a610180565b6040516100979190610cf8565b60405180910390f35b6100ba60048036038101906100b59190610d53565b610186565b6040516100ce989796959493929190610e10565b60405180910390f35b6100f160048036038101906100ec9190610fe6565b610476565b005b61010d60048036038101906101089190610fe6565b6105fa565b005b61012960048036038101906101249190610d53565b61078a565b60405161013d989796959493929190610e10565b60405180910390f35b61014e610b4d565b60405161015b9190611169565b60405180910390f35b61017e60048036038101906101799190610d53565b610b73565b005b60015481565b60006020528060005260406000206000915090508060000154908060010180546101af906111b3565b80601f01602080910402602001604051908101604052809291908181526020018280546101db906111b3565b80156102285780601f106101fd57610100808354040283529160200191610228565b820191906000526020600020905b81548152906001019060200180831161020b57829003601f168201915b50505050509080600201805461023d906111b3565b80601f0160208091040260200160405190810160405280929190818152602001828054610269906111b3565b80156102b65780601f1061028b576101008083540402835291602001916102b6565b820191906000526020600020905b81548152906001019060200180831161029957829003601f168201915b5050505050908060030180546102cb906111b3565b80601f01602080910402602001604051908101604052809291908181526020018280546102f7906111b3565b80156103445780601f1061031957610100808354040283529160200191610344565b820191906000526020600020905b81548152906001019060200180831161032757829003601f168201915b505050505090806004018054610359906111b3565b80601f0160208091040260200160405190810160405280929190818152602001828054610385906111b3565b80156103d25780601f106103a7576101008083540402835291602001916103d2565b820191906000526020600020905b8154815290600101906020018083116103b557829003601f168201915b5050505050908060050180546103e7906111b3565b80601f0160208091040260200160405190810160405280929190818152602001828054610413906111b3565b80156104605780601f1061043557610100808354040283529160200191610460565b820191906000526020600020905b81548152906001019060200180831161044357829003601f168201915b5050505050908060060154908060070154905088565b60008060008a81526020019081526020016000206001018054610498906111b3565b9050036104da576040517f08c379a00000000000000000000000000000000000000000000000000000000081526004016104d190611230565b60405180910390fd5b604051806101000160405280898152602001888152602001878152602001868152602001858152602001848152602001838152602001828152506000808a815260200190815260200160002060008201518160000155602082015181600101908161054591906113fc565b50604082015181600201908161055b91906113fc565b50606082015181600301908161057191906113fc565b50608082015181600401908161058791906113fc565b5060a082015181600501908161059d91906113fc565b5060c0820151816006015560e082015181600701559050507f94307eb3df4dc877b4544f1a02e369e269d733229df251de9c74ebf612cd80dd8888886040516105e8939291906114ce565b60405180910390a15050505050505050565b60008060008a81526020019081526020016000206000015414610652576040517f08c379a00000000000000000000000000000000000000000000000000000000081526004016106499061155f565b60405180910390fd5b604051806101000160405280898152602001888152602001878152602001868152602001858152602001848152602001838152602001828152506000808a81526020019081526020016000206000820151816000015560208201518160010190816106bd91906113fc565b5060408201518160020190816106d391906113fc565b5060608201518160030190816106e991906113fc565b5060808201518160040190816106ff91906113fc565b5060a082015181600501908161071591906113fc565b5060c0820151816006015560e082015181600701559050507fe2f4ef37412acf6a6c14774bfe6f8da64defa1bbfde68ff5a909a316b8b25b48888888604051610760939291906114ce565b60405180910390a16001600081548092919061077b906115ae565b91905055505050505050505050565b6000606080606080606060008060008060008b815260200190815260200160002060000154036107ef576040517f08c379a00000000000000000000000000000000000000000000000000000000081526004016107e690611230565b60405180910390fd5b60008060008b81526020019081526020016000206040518061010001604052908160008201548152602001600182018054610829906111b3565b80601f0160208091040260200160405190810160405280929190818152602001828054610855906111b3565b80156108a25780601f10610877576101008083540402835291602001916108a2565b820191906000526020600020905b81548152906001019060200180831161088557829003601f168201915b505050505081526020016002820180546108bb906111b3565b80601f01602080910402602001604051908101604052809291908181526020018280546108e7906111b3565b80156109345780601f1061090957610100808354040283529160200191610934565b820191906000526020600020905b81548152906001019060200180831161091757829003601f168201915b5050505050815260200160038201805461094d906111b3565b80601f0160208091040260200160405190810160405280929190818152602001828054610979906111b3565b80156109c65780601f1061099b576101008083540402835291602001916109c6565b820191906000526020600020905b8154815290600101906020018083116109a957829003601f168201915b505050505081526020016004820180546109df906111b3565b80601f0160208091040260200160405190810160405280929190818152602001828054610a0b906111b3565b8015610a585780601f10610a2d57610100808354040283529160200191610a58565b820191906000526020600020905b815481529060010190602001808311610a3b57829003601f168201915b50505050508152602001600582018054610a71906111b3565b80601f0160208091040260200160405190810160405280929190818152602001828054610a9d906111b3565b8015610aea5780601f10610abf57610100808354040283529160200191610aea565b820191906000526020600020905b815481529060010190602001808311610acd57829003601f168201915b50505050508152602001600682015481526020016007820154815250509050806000015181602001518260400151836060015184608001518560a001518660c001518760e001519850985098509850985098509850985050919395975091939597565b600260009054906101000a900473ffffffffffffffffffffffffffffffffffffffff1681565b60008060008381526020019081526020016000206000015403610bcb576040517f08c379a0000000000000000000000000000000000000000000000000000000008152600401610bc290611230565b60405180910390fd5b600080828152602001908152602001600020600080820160009055600182016000610bf69190610c82565b600282016000610c069190610c82565b600382016000610c169190610c82565b600482016000610c269190610c82565b600582016000610c369190610c82565b6006820160009055600782016000905550507f7587957a9c8a0e91f432bee47f6d86c2e85f28a4c6a0910841e797d73f9f7a1181604051610c779190610cf8565b60405180910390a150565b508054610c8e906111b3565b6000825580601f10610ca05750610cbf565b601f016020900490600052602060002090810190610cbe9190610cc2565b5b50565b5b80821115610cdb576000816000905550600101610cc3565b5090565b6000819050919050565b610cf281610cdf565b82525050565b6000602082019050610d0d6000830184610ce9565b92915050565b6000604051905090565b600080fd5b600080fd5b610d3081610cdf565b8114610d3b57600080fd5b50565b600081359050610d4d81610d27565b92915050565b600060208284031215610d6957610d68610d1d565b5b6000610d7784828501610d3e565b91505092915050565b600081519050919050565b600082825260208201905092915050565b60005b83811015610dba578082015181840152602081019050610d9f565b60008484015250505050565b6000601f19601f8301169050919050565b6000610de282610d80565b610dec8185610d8b565b9350610dfc818560208601610d9c565b610e0581610dc6565b840191505092915050565b600061010082019050610e26600083018b610ce9565b8181036020830152610e38818a610dd7565b90508181036040830152610e4c8189610dd7565b90508181036060830152610e608188610dd7565b90508181036080830152610e748187610dd7565b905081810360a0830152610e888186610dd7565b9050610e9760c0830185610ce9565b610ea460e0830184610ce9565b9998505050505050505050565b600080fd5b600080fd5b7f4e487b7100000000000000000000000000000000000000000000000000000000600052604160045260246000fd5b610ef382610dc6565b810181811067ffffffffffffffff82111715610f1257610f11610ebb565b5b80604052505050565b6000610f25610d13565b9050610f318282610eea565b919050565b600067ffffffffffffffff821115610f5157610f50610ebb565b5b610f5a82610dc6565b9050602081019050919050565b82818337600083830152505050565b6000610f89610f8484610f36565b610f1b565b905082815260208101848484011115610fa557610fa4610eb6565b5b610fb0848285610f67565b509392505050565b600082601f830112610fcd57610fcc610eb1565b5b8135610fdd848260208601610f76565b91505092915050565b600080600080600080600080610100898b03121561100757611006610d1d565b5b60006110158b828c01610d3e565b985050602089013567ffffffffffffffff81111561103657611035610d22565b5b6110428b828c01610fb8565b975050604089013567ffffffffffffffff81111561106357611062610d22565b5b61106f8b828c01610fb8565b965050606089013567ffffffffffffffff8111156110905761108f610d22565b5b61109c8b828c01610fb8565b955050608089013567ffffffffffffffff8111156110bd576110bc610d22565b5b6110c98b828c01610fb8565b94505060a089013567ffffffffffffffff8111156110ea576110e9610d22565b5b6110f68b828c01610fb8565b93505060c06111078b828c01610d3e565b92505060e06111188b828c01610d3e565b9150509295985092959890939650565b600073ffffffffffffffffffffffffffffffffffffffff82169050919050565b600061115382611128565b9050919050565b61116381611148565b82525050565b600060208201905061117e600083018461115a565b92915050565b7f4e487b7100000000000000000000000000000000000000000000000000000000600052602260045260246000fd5b600060028204905060018216806111cb57607f821691505b6020821081036111de576111dd611184565b5b50919050565b7f4a756761646f72206e6f207265676973747261646f0000000000000000000000600082015250565b600061121a601583610d8b565b9150611225826111e4565b602082019050919050565b600060208201905081810360008301526112498161120d565b9050919050565b60008190508160005260206000209050919050565b60006020601f8301049050919050565b600082821b905092915050565b6000600883026112b27fffffffffffffffffffffffffffffffffffffffffffffffffffffffffffffffff82611275565b6112bc8683611275565b95508019841693508086168417925050509392505050565b6000819050919050565b60006112f96112f46112ef84610cdf565b6112d4565b610cdf565b9050919050565b6000819050919050565b611313836112de565b61132761131f82611300565b848454611282565b825550505050565b600090565b61133c61132f565b61134781848461130a565b505050565b5b8181101561136b57611360600082611334565b60018101905061134d565b5050565b601f8211156113b05761138181611250565b61138a84611265565b81016020851015611399578190505b6113ad6113a585611265565b83018261134c565b50505b505050565b600082821c905092915050565b60006113d3600019846008026113b5565b1980831691505092915050565b60006113ec83836113c2565b9150826002028217905092915050565b61140582610d80565b67ffffffffffffffff81111561141e5761141d610ebb565b5b61142882546111b3565b61143382828561136f565b600060209050601f8311600181146114665760008415611454578287015190505b61145e85826113e0565b8655506114c6565b601f19841661147486611250565b60005b8281101561149c57848901518255600182019150602085019450602081019050611477565b868310156114b957848901516114b5601f8916826113c2565b8355505b6001600288020188555050505b505050505050565b60006060820190506114e36000830186610ce9565b81810360208301526114f58185610dd7565b905081810360408301526115098184610dd7565b9050949350505050565b7f4a756761646f72207961207265676973747261646f0000000000000000000000600082015250565b6000611549601583610d8b565b915061155482611513565b602082019050919050565b600060208201905081810360008301526115788161153c565b9050919050565b7f4e487b7100000000000000000000000000000000000000000000000000000000600052601160045260246000fd5b60006115b982610cdf565b91507fffffffffffffffffffffffffffffffffffffffffffffffffffffffffffffffff82036115eb576115ea61157f565b5b60018201905091905056fea2646970667358221220d6a0615497e6bf9bc8580932942615c8180d1263e84cad8014599c9471078ebf64736f6c634300081b0033",
  "linkReferences": {},
  "deployedLinkReferences": {}
}