{
  "_format": "hh-sol-artifact-1",
  "contractName": "Jugadores",
  "sourceName": "contracts/Jugadores.sol",
  "abi": [
    {
      "inputs": [
        {
          "internalType": "address",
          "name": "_nftContractAddress",
          "type": "address"
        }
      ],
      "stateMutability": "nonpayable",
      "type": "constructor"
    },
    {
      "anonymous": false,
      "inputs": [
        {
          "indexed": true,
          "internalType": "address",
          "name": "id",
          "type": "address"
        },
        {
          "indexed": false,
          "internalType": "string",
          "name": "nombre",
          "type": "string"
        },
        {
          "indexed": false,
          "internalType": "string",
          "name": "nickname",
          "type": "string"
        }
      ],
      "name": "JugadorActualizado",
      "type": "event"
    },
    {
      "anonymous": false,
      "inputs": [
        {
          "indexed": true,
          "internalType": "address",
          "name": "id",
          "type": "address"
        }
      ],
      "name": "JugadorEliminado",
      "type": "event"
    },
    {
      "anonymous": false,
      "inputs": [
        {
          "indexed": true,
          "internalType": "address",
          "name": "id",
          "type": "address"
        },
        {
          "indexed": false,
          "internalType": "string",
          "name": "nombre",
          "type": "string"
        },
        {
          "indexed": false,
          "internalType": "string",
          "name": "nickname",
          "type": "string"
        }
      ],
      "name": "JugadorRegistrado",
      "type": "event"
    },
    {
      "anonymous": false,
      "inputs": [
        {
          "indexed": true,
          "internalType": "address",
          "name": "jugadorId",
          "type": "address"
        },
        {
          "indexed": false,
          "internalType": "uint256",
          "name": "tokenId",
          "type": "uint256"
        }
      ],
      "name": "NFTAsociado",
      "type": "event"
    },
    {
      "inputs": [
        {
          "internalType": "address",
          "name": "_id",
          "type": "address"
        },
        {
          "internalType": "string",
          "name": "_nombre",
          "type": "string"
        },
        {
          "internalType": "string",
          "name": "_nickname",
          "type": "string"
        },
        {
          "internalType": "string",
          "name": "_rol",
          "type": "string"
        },
        {
          "internalType": "string",
          "name": "_nacionalidad",
          "type": "string"
        },
        {
          "internalType": "string",
          "name": "_imagenIPFS",
          "type": "string"
        }
      ],
      "name": "actualizarJugador",
      "outputs": [],
      "stateMutability": "nonpayable",
      "type": "function"
    },
    {
      "inputs": [
        {
          "internalType": "address",
          "name": "_id",
          "type": "address"
        },
        {
          "internalType": "uint256",
          "name": "tokenId",
          "type": "uint256"
        }
      ],
      "name": "asociarNFT",
      "outputs": [],
      "stateMutability": "nonpayable",
      "type": "function"
    },
    {
      "inputs": [
        {
          "internalType": "address",
          "name": "_id",
          "type": "address"
        }
      ],
      "name": "eliminarJugador",
      "outputs": [],
      "stateMutability": "nonpayable",
      "type": "function"
    },
    {
      "inputs": [
        {
          "internalType": "address",
          "name": "",
          "type": "address"
        },
        {
          "internalType": "uint256",
          "name": "",
          "type": "uint256"
        }
      ],
      "name": "jugadorNFTs",
      "outputs": [
        {
          "internalType": "uint256",
          "name": "",
          "type": "uint256"
        }
      ],
      "stateMutability": "view",
      "type": "function"
    },
    {
      "inputs": [
        {
          "internalType": "address",
          "name": "",
          "type": "address"
        }
      ],
      "name": "jugadores",
      "outputs": [
        {
          "internalType": "string",
          "name": "nombre",
          "type": "string"
        },
        {
          "internalType": "string",
          "name": "nickname",
          "type": "string"
        },
        {
          "internalType": "string",
          "name": "rol",
          "type": "string"
        },
        {
          "internalType": "string",
          "name": "nacionalidad",
          "type": "string"
        },
        {
          "internalType": "string",
          "name": "imagenIPFS",
          "type": "string"
        }
      ],
      "stateMutability": "view",
      "type": "function"
    },
    {
      "inputs": [
        {
          "internalType": "address",
          "name": "_id",
          "type": "address"
        },
        {
          "internalType": "string",
          "name": "metadata",
          "type": "string"
        }
      ],
      "name": "minarReconocimiento",
      "outputs": [],
      "stateMutability": "nonpayable",
      "type": "function"
    },
    {
      "inputs": [],
      "name": "nftContractAddress",
      "outputs": [
        {
          "internalType": "address",
          "name": "",
          "type": "address"
        }
      ],
      "stateMutability": "view",
      "type": "function"
    },
    {
      "inputs": [
        {
          "internalType": "address",
          "name": "_id",
          "type": "address"
        }
      ],
      "name": "obtenerJugador",
      "outputs": [
        {
          "internalType": "string",
          "name": "",
          "type": "string"
        },
        {
          "internalType": "string",
          "name": "",
          "type": "string"
        },
        {
          "internalType": "string",
          "name": "",
          "type": "string"
        },
        {
          "internalType": "string",
          "name": "",
          "type": "string"
        },
        {
          "internalType": "string",
          "name": "",
          "type": "string"
        }
      ],
      "stateMutability": "view",
      "type": "function"
    },
    {
      "inputs": [
        {
          "internalType": "address",
          "name": "_id",
          "type": "address"
        }
      ],
      "name": "obtenerNFTsDeJugador",
      "outputs": [
        {
          "internalType": "uint256[]",
          "name": "",
          "type": "uint256[]"
        }
      ],
      "stateMutability": "view",
      "type": "function"
    },
    {
      "inputs": [
        {
          "internalType": "address",
          "name": "_id",
          "type": "address"
        },
        {
          "internalType": "string",
          "name": "_nombre",
          "type": "string"
        },
        {
          "internalType": "string",
          "name": "_nickname",
          "type": "string"
        },
        {
          "internalType": "string",
          "name": "_rol",
          "type": "string"
        },
        {
          "internalType": "string",
          "name": "_nacionalidad",
          "type": "string"
        },
        {
          "internalType": "string",
          "name": "_imagenIPFS",
          "type": "string"
        }
      ],
      "name": "registrarJugador",
      "outputs": [],
      "stateMutability": "nonpayable",
      "type": "function"
    }
  ],
  "bytecode": "0x608060405234801561001057600080fd5b50604051612119380380612119833981810160405281019061003291906100dc565b80600260006101000a81548173ffffffffffffffffffffffffffffffffffffffff021916908373ffffffffffffffffffffffffffffffffffffffff16021790555050610109565b600080fd5b600073ffffffffffffffffffffffffffffffffffffffff82169050919050565b60006100a98261007e565b9050919050565b6100b98161009e565b81146100c457600080fd5b50565b6000815190506100d6816100b0565b92915050565b6000602082840312156100f2576100f1610079565b5b6000610100848285016100c7565b91505092915050565b612001806101186000396000f3fe608060405234801561001057600080fd5b506004361061009e5760003560e01c8063a9dda79811610066578063a9dda7981461015b578063aae282e114610177578063af4964c714610195578063bd7bfffc146101c5578063e5d94cae146101e15761009e565b8063019165b2146100a35780631f7171d9146100d35780635c630871146100ef5780639594c203146101235780639dcff0c21461013f575b600080fd5b6100bd60048036038101906100b891906113fb565b610215565b6040516100ca919061144a565b60405180910390f35b6100ed60048036038101906100e891906115ab565b610246565b005b610109600480360381019061010491906116c4565b610404565b60405161011a959493929190611770565b60405180910390f35b61013d600480360381019061013891906116c4565b6107f0565b005b610159600480360381019061015491906117e6565b6109a2565b005b610175600480360381019061017091906115ab565b610acd565b005b61017f610c8b565b60405161018c9190611851565b60405180910390f35b6101af60048036038101906101aa91906116c4565b610cb1565b6040516101bc919061192a565b60405180910390f35b6101df60048036038101906101da91906113fb565b610d48565b005b6101fb60048036038101906101f691906116c4565b610ff7565b60405161020c959493929190611770565b60405180910390f35b6001602052816000526040600020818154811061023157600080fd5b90600052602060002001600091509150505481565b60008060008873ffffffffffffffffffffffffffffffffffffffff1673ffffffffffffffffffffffffffffffffffffffff16815260200190815260200160002060000180546102949061197b565b9050146102d6576040517f08c379a00000000000000000000000000000000000000000000000000000000081526004016102cd906119f8565b60405180910390fd5b6040518060a00160405280868152602001858152602001848152602001838152602001828152506000808873ffffffffffffffffffffffffffffffffffffffff1673ffffffffffffffffffffffffffffffffffffffff16815260200190815260200160002060008201518160000190816103509190611bc4565b5060208201518160010190816103669190611bc4565b50604082015181600201908161037c9190611bc4565b5060608201518160030190816103929190611bc4565b5060808201518160040190816103a89190611bc4565b509050508573ffffffffffffffffffffffffffffffffffffffff167fdbed158f27be86c43a65ecb8698c62093b594d71e14b92d42484ab44a6a25d8c86866040516103f4929190611c96565b60405180910390a2505050505050565b606080606080606060008060008873ffffffffffffffffffffffffffffffffffffffff1673ffffffffffffffffffffffffffffffffffffffff168152602001908152602001600020600001805461045a9061197b565b90500361049c576040517f08c379a000000000000000000000000000000000000000000000000000000000815260040161049390611d19565b60405180910390fd5b60008060008873ffffffffffffffffffffffffffffffffffffffff1673ffffffffffffffffffffffffffffffffffffffff1681526020019081526020016000206040518060a00160405290816000820180546104f79061197b565b80601f01602080910402602001604051908101604052809291908181526020018280546105239061197b565b80156105705780601f1061054557610100808354040283529160200191610570565b820191906000526020600020905b81548152906001019060200180831161055357829003601f168201915b505050505081526020016001820180546105899061197b565b80601f01602080910402602001604051908101604052809291908181526020018280546105b59061197b565b80156106025780601f106105d757610100808354040283529160200191610602565b820191906000526020600020905b8154815290600101906020018083116105e557829003601f168201915b5050505050815260200160028201805461061b9061197b565b80601f01602080910402602001604051908101604052809291908181526020018280546106479061197b565b80156106945780601f1061066957610100808354040283529160200191610694565b820191906000526020600020905b81548152906001019060200180831161067757829003601f168201915b505050505081526020016003820180546106ad9061197b565b80601f01602080910402602001604051908101604052809291908181526020018280546106d99061197b565b80156107265780601f106106fb57610100808354040283529160200191610726565b820191906000526020600020905b81548152906001019060200180831161070957829003601f168201915b5050505050815260200160048201805461073f9061197b565b80601f016020809104026020016040519081016040528092919081815260200182805461076b9061197b565b80156107b85780601f1061078d576101008083540402835291602001916107b8565b820191906000526020600020905b81548152906001019060200180831161079b57829003601f168201915b505050505081525050905080600001518160200151826040015183606001518460800151955095509550955095505091939590929450565b60008060008373ffffffffffffffffffffffffffffffffffffffff1673ffffffffffffffffffffffffffffffffffffffff168152602001908152602001600020600001805461083e9061197b565b905003610880576040517f08c379a000000000000000000000000000000000000000000000000000000000815260040161087790611d19565b60405180910390fd5b6000808273ffffffffffffffffffffffffffffffffffffffff1673ffffffffffffffffffffffffffffffffffffffff168152602001908152602001600020600080820160006108cf91906112d5565b6001820160006108df91906112d5565b6002820160006108ef91906112d5565b6003820160006108ff91906112d5565b60048201600061090f91906112d5565b5050600160008273ffffffffffffffffffffffffffffffffffffffff1673ffffffffffffffffffffffffffffffffffffffff168152602001908152602001600020600061095c9190611315565b8073ffffffffffffffffffffffffffffffffffffffff167f3aefdad6ac3f1015d0d6439c26648d372b11980bf42e4d8aea26cf8b18d402de60405160405180910390a250565b60008060008473ffffffffffffffffffffffffffffffffffffffff1673ffffffffffffffffffffffffffffffffffffffff16815260200190815260200160002060000180546109f09061197b565b905003610a32576040517f08c379a0000000000000000000000000000000000000000000000000000000008152600401610a2990611d19565b60405180910390fd5b6000600260009054906101000a900473ffffffffffffffffffffffffffffffffffffffff1690508073ffffffffffffffffffffffffffffffffffffffff1663b182fcc98484866040518463ffffffff1660e01b8152600401610a9693929190611d39565b600060405180830381600087803b158015610ab057600080fd5b505af1158015610ac4573d6000803e3d6000fd5b50505050505050565b60008060008873ffffffffffffffffffffffffffffffffffffffff1673ffffffffffffffffffffffffffffffffffffffff1681526020019081526020016000206000018054610b1b9061197b565b905003610b5d576040517f08c379a0000000000000000000000000000000000000000000000000000000008152600401610b5490611d19565b60405180910390fd5b6040518060a00160405280868152602001858152602001848152602001838152602001828152506000808873ffffffffffffffffffffffffffffffffffffffff1673ffffffffffffffffffffffffffffffffffffffff1681526020019081526020016000206000820151816000019081610bd79190611bc4565b506020820151816001019081610bed9190611bc4565b506040820151816002019081610c039190611bc4565b506060820151816003019081610c199190611bc4565b506080820151816004019081610c2f9190611bc4565b509050508573ffffffffffffffffffffffffffffffffffffffff167fdc3772237ee4432b9aababe49e3b2530f7b1fc21763d3e7f3e796cb36803d4218686604051610c7b929190611c96565b60405180910390a2505050505050565b600260009054906101000a900473ffffffffffffffffffffffffffffffffffffffff1681565b6060600160008373ffffffffffffffffffffffffffffffffffffffff1673ffffffffffffffffffffffffffffffffffffffff168152602001908152602001600020805480602002602001604051908101604052809291908181526020018280548015610d3c57602002820191906000526020600020905b815481526020019060010190808311610d28575b50505050509050919050565b60008060008473ffffffffffffffffffffffffffffffffffffffff1673ffffffffffffffffffffffffffffffffffffffff1681526020019081526020016000206000018054610d969061197b565b905003610dd8576040517f08c379a0000000000000000000000000000000000000000000000000000000008152600401610dcf90611d19565b60405180910390fd5b6000600260009054906101000a900473ffffffffffffffffffffffffffffffffffffffff1690506000808273ffffffffffffffffffffffffffffffffffffffff166382260f35856040518263ffffffff1660e01b8152600401610e3b919061144a565b600060405180830381865afa158015610e58573d6000803e3d6000fd5b505050506040513d6000823e3d601f19601f82011682018060405250810190610e819190611e4a565b50925050915060018260ff1614610ecd576040517f08c379a0000000000000000000000000000000000000000000000000000000008152600401610ec490611f19565b60405180910390fd5b600073ffffffffffffffffffffffffffffffffffffffff168173ffffffffffffffffffffffffffffffffffffffff1614610f3c576040517f08c379a0000000000000000000000000000000000000000000000000000000008152600401610f3390611fab565b60405180910390fd5b600160008673ffffffffffffffffffffffffffffffffffffffff1673ffffffffffffffffffffffffffffffffffffffff1681526020019081526020016000208490806001815401808255809150506001900390600052602060002001600090919091909150558473ffffffffffffffffffffffffffffffffffffffff167f0e84b60468968a68dd3a7aa71447734eb05d13f4ef8231471b1fb6ec4fe1ca8985604051610fe8919061144a565b60405180910390a25050505050565b600060205280600052604060002060009150905080600001805461101a9061197b565b80601f01602080910402602001604051908101604052809291908181526020018280546110469061197b565b80156110935780601f1061106857610100808354040283529160200191611093565b820191906000526020600020905b81548152906001019060200180831161107657829003601f168201915b5050505050908060010180546110a89061197b565b80601f01602080910402602001604051908101604052809291908181526020018280546110d49061197b565b80156111215780601f106110f657610100808354040283529160200191611121565b820191906000526020600020905b81548152906001019060200180831161110457829003601f168201915b5050505050908060020180546111369061197b565b80601f01602080910402602001604051908101604052809291908181526020018280546111629061197b565b80156111af5780601f10611184576101008083540402835291602001916111af565b820191906000526020600020905b81548152906001019060200180831161119257829003601f168201915b5050505050908060030180546111c49061197b565b80601f01602080910402602001604051908101604052809291908181526020018280546111f09061197b565b801561123d5780601f106112125761010080835404028352916020019161123d565b820191906000526020600020905b81548152906001019060200180831161122057829003601f168201915b5050505050908060040180546112529061197b565b80601f016020809104026020016040519081016040528092919081815260200182805461127e9061197b565b80156112cb5780601f106112a0576101008083540402835291602001916112cb565b820191906000526020600020905b8154815290600101906020018083116112ae57829003601f168201915b5050505050905085565b5080546112e19061197b565b6000825580601f106112f35750611312565b601f0160209004906000526020600020908101906113119190611336565b5b50565b50805460008255906000526020600020908101906113339190611336565b50565b5b8082111561134f576000816000905550600101611337565b5090565b6000604051905090565b600080fd5b600080fd5b600073ffffffffffffffffffffffffffffffffffffffff82169050919050565b600061139282611367565b9050919050565b6113a281611387565b81146113ad57600080fd5b50565b6000813590506113bf81611399565b92915050565b6000819050919050565b6113d8816113c5565b81146113e357600080fd5b50565b6000813590506113f5816113cf565b92915050565b600080604083850312156114125761141161135d565b5b6000611420858286016113b0565b9250506020611431858286016113e6565b9150509250929050565b611444816113c5565b82525050565b600060208201905061145f600083018461143b565b92915050565b600080fd5b600080fd5b6000601f19601f8301169050919050565b7f4e487b7100000000000000000000000000000000000000000000000000000000600052604160045260246000fd5b6114b88261146f565b810181811067ffffffffffffffff821117156114d7576114d6611480565b5b80604052505050565b60006114ea611353565b90506114f682826114af565b919050565b600067ffffffffffffffff82111561151657611515611480565b5b61151f8261146f565b9050602081019050919050565b82818337600083830152505050565b600061154e611549846114fb565b6114e0565b90508281526020810184848401111561156a5761156961146a565b5b61157584828561152c565b509392505050565b600082601f83011261159257611591611465565b5b81356115a284826020860161153b565b91505092915050565b60008060008060008060c087890312156115c8576115c761135d565b5b60006115d689828a016113b0565b965050602087013567ffffffffffffffff8111156115f7576115f6611362565b5b61160389828a0161157d565b955050604087013567ffffffffffffffff81111561162457611623611362565b5b61163089828a0161157d565b945050606087013567ffffffffffffffff81111561165157611650611362565b5b61165d89828a0161157d565b935050608087013567ffffffffffffffff81111561167e5761167d611362565b5b61168a89828a0161157d565b92505060a087013567ffffffffffffffff8111156116ab576116aa611362565b5b6116b789828a0161157d565b9150509295509295509295565b6000602082840312156116da576116d961135d565b5b60006116e8848285016113b0565b91505092915050565b600081519050919050565b600082825260208201905092915050565b60005b8381101561172b578082015181840152602081019050611710565b60008484015250505050565b6000611742826116f1565b61174c81856116fc565b935061175c81856020860161170d565b6117658161146f565b840191505092915050565b600060a082019050818103600083015261178a8188611737565b9050818103602083015261179e8187611737565b905081810360408301526117b28186611737565b905081810360608301526117c68185611737565b905081810360808301526117da8184611737565b90509695505050505050565b600080604083850312156117fd576117fc61135d565b5b600061180b858286016113b0565b925050602083013567ffffffffffffffff81111561182c5761182b611362565b5b6118388582860161157d565b9150509250929050565b61184b81611387565b82525050565b60006020820190506118666000830184611842565b92915050565b600081519050919050565b600082825260208201905092915050565b6000819050602082019050919050565b6118a1816113c5565b82525050565b60006118b38383611898565b60208301905092915050565b6000602082019050919050565b60006118d78261186c565b6118e18185611877565b93506118ec83611888565b8060005b8381101561191d57815161190488826118a7565b975061190f836118bf565b9250506001810190506118f0565b5085935050505092915050565b6000602082019050818103600083015261194481846118cc565b905092915050565b7f4e487b7100000000000000000000000000000000000000000000000000000000600052602260045260246000fd5b6000600282049050600182168061199357607f821691505b6020821081036119a6576119a561194c565b5b50919050565b7f4a756761646f72207961207265676973747261646f0000000000000000000000600082015250565b60006119e26015836116fc565b91506119ed826119ac565b602082019050919050565b60006020820190508181036000830152611a11816119d5565b9050919050565b60008190508160005260206000209050919050565b60006020601f8301049050919050565b600082821b905092915050565b600060088302611a7a7fffffffffffffffffffffffffffffffffffffffffffffffffffffffffffffffff82611a3d565b611a848683611a3d565b95508019841693508086168417925050509392505050565b6000819050919050565b6000611ac1611abc611ab7846113c5565b611a9c565b6113c5565b9050919050565b6000819050919050565b611adb83611aa6565b611aef611ae782611ac8565b848454611a4a565b825550505050565b600090565b611b04611af7565b611b0f818484611ad2565b505050565b5b81811015611b3357611b28600082611afc565b600181019050611b15565b5050565b601f821115611b7857611b4981611a18565b611b5284611a2d565b81016020851015611b61578190505b611b75611b6d85611a2d565b830182611b14565b50505b505050565b600082821c905092915050565b6000611b9b60001984600802611b7d565b1980831691505092915050565b6000611bb48383611b8a565b9150826002028217905092915050565b611bcd826116f1565b67ffffffffffffffff811115611be657611be5611480565b5b611bf0825461197b565b611bfb828285611b37565b600060209050601f831160018114611c2e5760008415611c1c578287015190505b611c268582611ba8565b865550611c8e565b601f198416611c3c86611a18565b60005b82811015611c6457848901518255600182019150602085019450602081019050611c3f565b86831015611c815784890151611c7d601f891682611b8a565b8355505b6001600288020188555050505b505050505050565b60006040820190508181036000830152611cb08185611737565b90508181036020830152611cc48184611737565b90509392505050565b7f4a756761646f72206e6f207265676973747261646f0000000000000000000000600082015250565b6000611d036015836116fc565b9150611d0e82611ccd565b602082019050919050565b60006020820190508181036000830152611d3281611cf6565b9050919050565b6000606082019050611d4e6000830186611842565b8181036020830152611d608185611737565b9050611d6f6040830184611842565b949350505050565b600060ff82169050919050565b611d8d81611d77565b8114611d9857600080fd5b50565b600081519050611daa81611d84565b92915050565b6000611dc3611dbe846114fb565b6114e0565b905082815260208101848484011115611ddf57611dde61146a565b5b611dea84828561170d565b509392505050565b600082601f830112611e0757611e06611465565b5b8151611e17848260208601611db0565b91505092915050565b600081519050611e2f81611399565b92915050565b600081519050611e44816113cf565b92915050565b60008060008060808587031215611e6457611e6361135d565b5b6000611e7287828801611d9b565b945050602085015167ffffffffffffffff811115611e9357611e92611362565b5b611e9f87828801611df2565b9350506040611eb087828801611e20565b9250506060611ec187828801611e35565b91505092959194509250565b7f4e4654206e6f20657320756e207265636f6e6f63696d69656e746f0000000000600082015250565b6000611f03601b836116fc565b9150611f0e82611ecd565b602082019050919050565b60006020820190508181036000830152611f3281611ef6565b9050919050565b7f4e465420796120657374612061736f636961646f2061206f74726f206a75676160008201527f646f720000000000000000000000000000000000000000000000000000000000602082015250565b6000611f956023836116fc565b9150611fa082611f39565b604082019050919050565b60006020820190508181036000830152611fc481611f88565b905091905056fea2646970667358221220442abe2c2cedc7d32e9132257224e8867dd8a1203781f8c29601cdfcf060c44a64736f6c634300081b0033",
  "linkReferences": {},
  "deployedLinkReferences": {}
}