{
  "_format": "hh-sol-artifact-1",
  "contractName": "Historial",
  "sourceName": "contracts/Historial.sol",
  "abi": [
    {
      "inputs": [],
      "name": "consultarHistorial",
      "outputs": [
        {
          "components": [
            {
              "internalType": "uint256",
              "name": "idNFT",
              "type": "uint256"
            },
            {
              "internalType": "address",
              "name": "from",
              "type": "address"
            },
            {
              "internalType": "address",
              "name": "to",
              "type": "address"
            },
            {
              "internalType": "uint256",
              "name": "amount",
              "type": "uint256"
            },
            {
              "internalType": "string",
              "name": "tipo",
              "type": "string"
            },
            {
              "internalType": "uint256",
              "name": "timestamp",
              "type": "uint256"
            }
          ],
          "internalType": "struct Historial.Transaccion[]",
          "name": "",
          "type": "tuple[]"
        }
      ],
      "stateMutability": "view",
      "type": "function"
    },
    {
      "inputs": [
        {
          "internalType": "uint256",
          "name": "",
          "type": "uint256"
        }
      ],
      "name": "historialTransacciones",
      "outputs": [
        {
          "internalType": "uint256",
          "name": "idNFT",
          "type": "uint256"
        },
        {
          "internalType": "address",
          "name": "from",
          "type": "address"
        },
        {
          "internalType": "address",
          "name": "to",
          "type": "address"
        },
        {
          "internalType": "uint256",
          "name": "amount",
          "type": "uint256"
        },
        {
          "internalType": "string",
          "name": "tipo",
          "type": "string"
        },
        {
          "internalType": "uint256",
          "name": "timestamp",
          "type": "uint256"
        }
      ],
      "stateMutability": "view",
      "type": "function"
    },
    {
      "inputs": [
        {
          "internalType": "uint256",
          "name": "_idNFT",
          "type": "uint256"
        },
        {
          "internalType": "address",
          "name": "_from",
          "type": "address"
        },
        {
          "internalType": "address",
          "name": "_to",
          "type": "address"
        },
        {
          "internalType": "uint256",
          "name": "_amount",
          "type": "uint256"
        },
        {
          "internalType": "string",
          "name": "_tipo",
          "type": "string"
        }
      ],
      "name": "registrarTransaccion",
      "outputs": [],
      "stateMutability": "nonpayable",
      "type": "function"
    }
  ],
  "bytecode": "0x6080604052348015600f57600080fd5b50610d738061001f6000396000f3fe608060405234801561001057600080fd5b50600436106100415760003560e01c80631f4c12c8146100465780637032bd1c14610062578063c7f3398214610097575b600080fd5b610060600480360381019061005b91906106c1565b6100b5565b005b61007c60048036038101906100779190610758565b610204565b60405161008e96959493929190610822565b60405180910390f35b61009f610318565b6040516100ac9190610a3d565b60405180910390f35b60006040518060c001604052808781526020018673ffffffffffffffffffffffffffffffffffffffff1681526020018573ffffffffffffffffffffffffffffffffffffffff1681526020018481526020018381526020014281525090806001815401808255809150506001900390600052602060002090600602016000909190919091506000820151816000015560208201518160010160006101000a81548173ffffffffffffffffffffffffffffffffffffffff021916908373ffffffffffffffffffffffffffffffffffffffff16021790555060408201518160020160006101000a81548173ffffffffffffffffffffffffffffffffffffffff021916908373ffffffffffffffffffffffffffffffffffffffff1602179055506060820151816003015560808201518160040190816101f09190610c6b565b5060a0820151816005015550505050505050565b6000818154811061021457600080fd5b90600052602060002090600602016000915090508060000154908060010160009054906101000a900473ffffffffffffffffffffffffffffffffffffffff16908060020160009054906101000a900473ffffffffffffffffffffffffffffffffffffffff169080600301549080600401805461028f90610a8e565b80601f01602080910402602001604051908101604052809291908181526020018280546102bb90610a8e565b80156103085780601f106102dd57610100808354040283529160200191610308565b820191906000526020600020905b8154815290600101906020018083116102eb57829003601f168201915b5050505050908060050154905086565b60606000805480602002602001604051908101604052809291908181526020016000905b828210156104ca57838290600052602060002090600602016040518060c0016040529081600082015481526020016001820160009054906101000a900473ffffffffffffffffffffffffffffffffffffffff1673ffffffffffffffffffffffffffffffffffffffff1673ffffffffffffffffffffffffffffffffffffffff1681526020016002820160009054906101000a900473ffffffffffffffffffffffffffffffffffffffff1673ffffffffffffffffffffffffffffffffffffffff1673ffffffffffffffffffffffffffffffffffffffff1681526020016003820154815260200160048201805461042f90610a8e565b80601f016020809104026020016040519081016040528092919081815260200182805461045b90610a8e565b80156104a85780601f1061047d576101008083540402835291602001916104a8565b820191906000526020600020905b81548152906001019060200180831161048b57829003601f168201915b505050505081526020016005820154815250508152602001906001019061033c565b50505050905090565b6000604051905090565b600080fd5b600080fd5b6000819050919050565b6104fa816104e7565b811461050557600080fd5b50565b600081359050610517816104f1565b92915050565b600073ffffffffffffffffffffffffffffffffffffffff82169050919050565b60006105488261051d565b9050919050565b6105588161053d565b811461056357600080fd5b50565b6000813590506105758161054f565b92915050565b600080fd5b600080fd5b6000601f19601f8301169050919050565b7f4e487b7100000000000000000000000000000000000000000000000000000000600052604160045260246000fd5b6105ce82610585565b810181811067ffffffffffffffff821117156105ed576105ec610596565b5b80604052505050565b60006106006104d3565b905061060c82826105c5565b919050565b600067ffffffffffffffff82111561062c5761062b610596565b5b61063582610585565b9050602081019050919050565b82818337600083830152505050565b600061066461065f84610611565b6105f6565b9050828152602081018484840111156106805761067f610580565b5b61068b848285610642565b509392505050565b600082601f8301126106a8576106a761057b565b5b81356106b8848260208601610651565b91505092915050565b600080600080600060a086880312156106dd576106dc6104dd565b5b60006106eb88828901610508565b95505060206106fc88828901610566565b945050604061070d88828901610566565b935050606061071e88828901610508565b925050608086013567ffffffffffffffff81111561073f5761073e6104e2565b5b61074b88828901610693565b9150509295509295909350565b60006020828403121561076e5761076d6104dd565b5b600061077c84828501610508565b91505092915050565b61078e816104e7565b82525050565b61079d8161053d565b82525050565b600081519050919050565b600082825260208201905092915050565b60005b838110156107dd5780820151818401526020810190506107c2565b60008484015250505050565b60006107f4826107a3565b6107fe81856107ae565b935061080e8185602086016107bf565b61081781610585565b840191505092915050565b600060c0820190506108376000830189610785565b6108446020830188610794565b6108516040830187610794565b61085e6060830186610785565b818103608083015261087081856107e9565b905061087f60a0830184610785565b979650505050505050565b600081519050919050565b600082825260208201905092915050565b6000819050602082019050919050565b6108bf816104e7565b82525050565b6108ce8161053d565b82525050565b600082825260208201905092915050565b60006108f0826107a3565b6108fa81856108d4565b935061090a8185602086016107bf565b61091381610585565b840191505092915050565b600060c08301600083015161093660008601826108b6565b50602083015161094960208601826108c5565b50604083015161095c60408601826108c5565b50606083015161096f60608601826108b6565b506080830151848203608086015261098782826108e5565b91505060a083015161099c60a08601826108b6565b508091505092915050565b60006109b3838361091e565b905092915050565b6000602082019050919050565b60006109d38261088a565b6109dd8185610895565b9350836020820285016109ef856108a6565b8060005b85811015610a2b5784840389528151610a0c85826109a7565b9450610a17836109bb565b925060208a019950506001810190506109f3565b50829750879550505050505092915050565b60006020820190508181036000830152610a5781846109c8565b905092915050565b7f4e487b7100000000000000000000000000000000000000000000000000000000600052602260045260246000fd5b60006002820490506001821680610aa657607f821691505b602082108103610ab957610ab8610a5f565b5b50919050565b60008190508160005260206000209050919050565b60006020601f8301049050919050565b600082821b905092915050565b600060088302610b217fffffffffffffffffffffffffffffffffffffffffffffffffffffffffffffffff82610ae4565b610b2b8683610ae4565b95508019841693508086168417925050509392505050565b6000819050919050565b6000610b68610b63610b5e846104e7565b610b43565b6104e7565b9050919050565b6000819050919050565b610b8283610b4d565b610b96610b8e82610b6f565b848454610af1565b825550505050565b600090565b610bab610b9e565b610bb6818484610b79565b505050565b5b81811015610bda57610bcf600082610ba3565b600181019050610bbc565b5050565b601f821115610c1f57610bf081610abf565b610bf984610ad4565b81016020851015610c08578190505b610c1c610c1485610ad4565b830182610bbb565b50505b505050565b600082821c905092915050565b6000610c4260001984600802610c24565b1980831691505092915050565b6000610c5b8383610c31565b9150826002028217905092915050565b610c74826107a3565b67ffffffffffffffff811115610c8d57610c8c610596565b5b610c978254610a8e565b610ca2828285610bde565b600060209050601f831160018114610cd55760008415610cc3578287015190505b610ccd8582610c4f565b865550610d35565b601f198416610ce386610abf565b60005b82811015610d0b57848901518255600182019150602085019450602081019050610ce6565b86831015610d285784890151610d24601f891682610c31565b8355505b6001600288020188555050505b50505050505056fea2646970667358221220a4ff7678c472fedd1ff043d32d7c4ad1d4ac8f9959c63b34498539454167582564736f6c634300081b0033",
  "linkReferences": {},
  "deployedLinkReferences": {}
}