{
  "_format": "hh-sol-artifact-1",
  "contractName": "ToyDonationHistory",
  "sourceName": "contracts/Historial.sol",
  "abi": [
    {
      "anonymous": false,
      "inputs": [
        {
          "indexed": false,
          "internalType": "uint256",
          "name": "transactionId",
          "type": "uint256"
        },
        {
          "indexed": true,
          "internalType": "address",
          "name": "donor",
          "type": "address"
        },
        {
          "indexed": true,
          "internalType": "address",
          "name": "recipient",
          "type": "address"
        },
        {
          "indexed": false,
          "internalType": "uint256",
          "name": "amount",
          "type": "uint256"
        },
        {
          "indexed": false,
          "internalType": "uint256",
          "name": "timestamp",
          "type": "uint256"
        }
      ],
      "name": "DonationRecorded",
      "type": "event"
    },
    {
      "inputs": [
        {
          "internalType": "uint256",
          "name": "",
          "type": "uint256"
        }
      ],
      "name": "donations",
      "outputs": [
        {
          "internalType": "uint256",
          "name": "transactionId",
          "type": "uint256"
        },
        {
          "internalType": "address",
          "name": "donor",
          "type": "address"
        },
        {
          "internalType": "address",
          "name": "recipient",
          "type": "address"
        },
        {
          "internalType": "uint256",
          "name": "amount",
          "type": "uint256"
        },
        {
          "internalType": "uint256",
          "name": "timestamp",
          "type": "uint256"
        }
      ],
      "stateMutability": "view",
      "type": "function"
    },
    {
      "inputs": [
        {
          "internalType": "address",
          "name": "_address",
          "type": "address"
        }
      ],
      "name": "getDonationHistoryByAddress",
      "outputs": [
        {
          "components": [
            {
              "internalType": "uint256",
              "name": "transactionId",
              "type": "uint256"
            },
            {
              "internalType": "address",
              "name": "donor",
              "type": "address"
            },
            {
              "internalType": "address",
              "name": "recipient",
              "type": "address"
            },
            {
              "internalType": "uint256",
              "name": "amount",
              "type": "uint256"
            },
            {
              "internalType": "uint256",
              "name": "timestamp",
              "type": "uint256"
            }
          ],
          "internalType": "struct ToyDonationHistory.Donation[]",
          "name": "",
          "type": "tuple[]"
        }
      ],
      "stateMutability": "view",
      "type": "function"
    },
    {
      "inputs": [
        {
          "internalType": "uint256",
          "name": "_transactionId",
          "type": "uint256"
        },
        {
          "internalType": "address",
          "name": "_donor",
          "type": "address"
        },
        {
          "internalType": "address",
          "name": "_recipient",
          "type": "address"
        },
        {
          "internalType": "uint256",
          "name": "_amount",
          "type": "uint256"
        }
      ],
      "name": "recordDonation",
      "outputs": [],
      "stateMutability": "nonpayable",
      "type": "function"
    }
  ],
  "bytecode": "0x6080604052348015600f57600080fd5b50610b648061001f6000396000f3fe608060405234801561001057600080fd5b50600436106100415760003560e01c80636bf8a162146100465780638e05955914610076578063f8626af814610092575b600080fd5b610060600480360381019061005b9190610763565b6100c6565b60405161006d91906108cf565b60405180910390f35b610090600480360381019061008b919061091d565b610484565b005b6100ac60048036038101906100a79190610984565b61061f565b6040516100bd9594939291906109cf565b60405180910390f35b60606000805b6000805490508110156101e9578373ffffffffffffffffffffffffffffffffffffffff166000828154811061010457610103610a22565b5b906000526020600020906005020160010160009054906101000a900473ffffffffffffffffffffffffffffffffffffffff1673ffffffffffffffffffffffffffffffffffffffff1614806101c857508373ffffffffffffffffffffffffffffffffffffffff166000828154811061017e5761017d610a22565b5b906000526020600020906005020160020160009054906101000a900473ffffffffffffffffffffffffffffffffffffffff1673ffffffffffffffffffffffffffffffffffffffff16145b156101dc5781806101d890610a80565b9250505b80806001019150506100cc565b5060008167ffffffffffffffff81111561020657610205610ac8565b5b60405190808252806020026020018201604052801561023f57816020015b61022c6106a5565b8152602001906001900390816102245790505b5090506000805b600080549050811015610478578573ffffffffffffffffffffffffffffffffffffffff166000828154811061027e5761027d610a22565b5b906000526020600020906005020160010160009054906101000a900473ffffffffffffffffffffffffffffffffffffffff1673ffffffffffffffffffffffffffffffffffffffff16148061034257508573ffffffffffffffffffffffffffffffffffffffff16600082815481106102f8576102f7610a22565b5b906000526020600020906005020160020160009054906101000a900473ffffffffffffffffffffffffffffffffffffffff1673ffffffffffffffffffffffffffffffffffffffff16145b1561046b576000818154811061035b5761035a610a22565b5b90600052602060002090600502016040518060a0016040529081600082015481526020016001820160009054906101000a900473ffffffffffffffffffffffffffffffffffffffff1673ffffffffffffffffffffffffffffffffffffffff1673ffffffffffffffffffffffffffffffffffffffff1681526020016002820160009054906101000a900473ffffffffffffffffffffffffffffffffffffffff1673ffffffffffffffffffffffffffffffffffffffff1673ffffffffffffffffffffffffffffffffffffffff1681526020016003820154815260200160048201548152505083838151811061045157610450610a22565b5b6020026020010181905250818061046790610a80565b9250505b8080600101915050610246565b50819350505050919050565b60006040518060a001604052808681526020018573ffffffffffffffffffffffffffffffffffffffff1681526020018473ffffffffffffffffffffffffffffffffffffffff1681526020018381526020014281525090806001815401808255809150506001900390600052602060002090600502016000909190919091506000820151816000015560208201518160010160006101000a81548173ffffffffffffffffffffffffffffffffffffffff021916908373ffffffffffffffffffffffffffffffffffffffff16021790555060408201518160020160006101000a81548173ffffffffffffffffffffffffffffffffffffffff021916908373ffffffffffffffffffffffffffffffffffffffff160217905550606082015181600301556080820151816004015550508173ffffffffffffffffffffffffffffffffffffffff168373ffffffffffffffffffffffffffffffffffffffff167f85539a945a5664bf9101cb74013aa706422fc8124748fd75ab71f03bd3903dce86844260405161061193929190610af7565b60405180910390a350505050565b6000818154811061062f57600080fd5b90600052602060002090600502016000915090508060000154908060010160009054906101000a900473ffffffffffffffffffffffffffffffffffffffff16908060020160009054906101000a900473ffffffffffffffffffffffffffffffffffffffff16908060030154908060040154905085565b6040518060a0016040528060008152602001600073ffffffffffffffffffffffffffffffffffffffff168152602001600073ffffffffffffffffffffffffffffffffffffffff16815260200160008152602001600081525090565b600080fd5b600073ffffffffffffffffffffffffffffffffffffffff82169050919050565b600061073082610705565b9050919050565b61074081610725565b811461074b57600080fd5b50565b60008135905061075d81610737565b92915050565b60006020828403121561077957610778610700565b5b60006107878482850161074e565b91505092915050565b600081519050919050565b600082825260208201905092915050565b6000819050602082019050919050565b6000819050919050565b6107cf816107bc565b82525050565b6107de81610725565b82525050565b60a0820160008201516107fa60008501826107c6565b50602082015161080d60208501826107d5565b50604082015161082060408501826107d5565b50606082015161083360608501826107c6565b50608082015161084660808501826107c6565b50505050565b600061085883836107e4565b60a08301905092915050565b6000602082019050919050565b600061087c82610790565b610886818561079b565b9350610891836107ac565b8060005b838110156108c25781516108a9888261084c565b97506108b483610864565b925050600181019050610895565b5085935050505092915050565b600060208201905081810360008301526108e98184610871565b905092915050565b6108fa816107bc565b811461090557600080fd5b50565b600081359050610917816108f1565b92915050565b6000806000806080858703121561093757610936610700565b5b600061094587828801610908565b94505060206109568782880161074e565b93505060406109678782880161074e565b925050606061097887828801610908565b91505092959194509250565b60006020828403121561099a57610999610700565b5b60006109a884828501610908565b91505092915050565b6109ba816107bc565b82525050565b6109c981610725565b82525050565b600060a0820190506109e460008301886109b1565b6109f160208301876109c0565b6109fe60408301866109c0565b610a0b60608301856109b1565b610a1860808301846109b1565b9695505050505050565b7f4e487b7100000000000000000000000000000000000000000000000000000000600052603260045260246000fd5b7f4e487b7100000000000000000000000000000000000000000000000000000000600052601160045260246000fd5b6000610a8b826107bc565b91507fffffffffffffffffffffffffffffffffffffffffffffffffffffffffffffffff8203610abd57610abc610a51565b5b600182019050919050565b7f4e487b7100000000000000000000000000000000000000000000000000000000600052604160045260246000fd5b6000606082019050610b0c60008301866109b1565b610b1960208301856109b1565b610b2660408301846109b1565b94935050505056fea26469706673582212202ea29cc36d9a522c0f6e145beabbfe1d284402b7d4547d01e37249153f8bcd5864736f6c634300081b0033",
  "linkReferences": {},
  "deployedLinkReferences": {}
}