{
  "_format": "hh-sol-artifact-1",
  "contractName": "Wallet",
  "sourceName": "contracts/Wallet.sol",
  "abi": [
    {
      "inputs": [
        {
          "internalType": "address[]",
          "name": "_owners",
          "type": "address[]"
        },
        {
          "internalType": "uint256",
          "name": "_numConfirmationsRequired",
          "type": "uint256"
        }
      ],
      "stateMutability": "nonpayable",
      "type": "constructor"
    },
    {
      "inputs": [
        {
          "internalType": "uint256",
          "name": "_transactionId",
          "type": "uint256"
        }
      ],
      "name": "confirmTransaction",
      "outputs": [],
      "stateMutability": "nonpayable",
      "type": "function"
    },
    {
      "inputs": [],
      "name": "consultarSaldo",
      "outputs": [
        {
          "internalType": "uint256",
          "name": "",
          "type": "uint256"
        }
      ],
      "stateMutability": "view",
      "type": "function"
    },
    {
      "inputs": [],
      "name": "depositarGas",
      "outputs": [],
      "stateMutability": "payable",
      "type": "function"
    },
    {
      "inputs": [
        {
          "internalType": "address",
          "name": "",
          "type": "address"
        }
      ],
      "name": "isOwner",
      "outputs": [
        {
          "internalType": "bool",
          "name": "",
          "type": "bool"
        }
      ],
      "stateMutability": "view",
      "type": "function"
    },
    {
      "inputs": [],
      "name": "numConfirmationsRequired",
      "outputs": [
        {
          "internalType": "uint256",
          "name": "",
          "type": "uint256"
        }
      ],
      "stateMutability": "view",
      "type": "function"
    },
    {
      "inputs": [
        {
          "internalType": "uint256",
          "name": "",
          "type": "uint256"
        }
      ],
      "name": "owners",
      "outputs": [
        {
          "internalType": "address",
          "name": "",
          "type": "address"
        }
      ],
      "stateMutability": "view",
      "type": "function"
    },
    {
      "inputs": [
        {
          "internalType": "address",
          "name": "_to",
          "type": "address"
        },
        {
          "internalType": "uint256",
          "name": "_amount",
          "type": "uint256"
        }
      ],
      "name": "submitTransaction",
      "outputs": [],
      "stateMutability": "nonpayable",
      "type": "function"
    },
    {
      "inputs": [],
      "name": "transactionCount",
      "outputs": [
        {
          "internalType": "uint256",
          "name": "",
          "type": "uint256"
        }
      ],
      "stateMutability": "view",
      "type": "function"
    },
    {
      "inputs": [
        {
          "internalType": "uint256",
          "name": "",
          "type": "uint256"
        }
      ],
      "name": "transactions",
      "outputs": [
        {
          "internalType": "address",
          "name": "to",
          "type": "address"
        },
        {
          "internalType": "uint256",
          "name": "amount",
          "type": "uint256"
        },
        {
          "internalType": "bool",
          "name": "executed",
          "type": "bool"
        },
        {
          "internalType": "uint256",
          "name": "numConfirmations",
          "type": "uint256"
        }
      ],
      "stateMutability": "view",
      "type": "function"
    },
    {
      "inputs": [
        {
          "internalType": "address",
          "name": "_from",
          "type": "address"
        },
        {
          "internalType": "address",
          "name": "_to",
          "type": "address"
        },
        {
          "internalType": "uint256",
          "name": "tokenId",
          "type": "uint256"
        }
      ],
      "name": "transferirNFT",
      "outputs": [],
      "stateMutability": "nonpayable",
      "type": "function"
    }
  ],
  "bytecode": "0x608060405234801561001057600080fd5b506040516110133803806110138339818101604052810190610032919061038a565b81600090805190602001906100489291906100e2565b508060028190555060005b82518110156100da576001806000858481518110610074576100736103e6565b5b602002602001015173ffffffffffffffffffffffffffffffffffffffff1673ffffffffffffffffffffffffffffffffffffffff16815260200190815260200160002060006101000a81548160ff0219169083151502179055508080600101915050610053565b505050610415565b82805482825590600052602060002090810192821561015b579160200282015b8281111561015a5782518260006101000a81548173ffffffffffffffffffffffffffffffffffffffff021916908373ffffffffffffffffffffffffffffffffffffffff16021790555091602001919060010190610102565b5b509050610168919061016c565b5090565b5b8082111561018557600081600090555060010161016d565b5090565b6000604051905090565b600080fd5b600080fd5b600080fd5b6000601f19601f8301169050919050565b7f4e487b7100000000000000000000000000000000000000000000000000000000600052604160045260246000fd5b6101eb826101a2565b810181811067ffffffffffffffff8211171561020a576102096101b3565b5b80604052505050565b600061021d610189565b905061022982826101e2565b919050565b600067ffffffffffffffff821115610249576102486101b3565b5b602082029050602081019050919050565b600080fd5b600073ffffffffffffffffffffffffffffffffffffffff82169050919050565b600061028a8261025f565b9050919050565b61029a8161027f565b81146102a557600080fd5b50565b6000815190506102b781610291565b92915050565b60006102d06102cb8461022e565b610213565b905080838252602082019050602084028301858111156102f3576102f261025a565b5b835b8181101561031c578061030888826102a8565b8452602084019350506020810190506102f5565b5050509392505050565b600082601f83011261033b5761033a61019d565b5b815161034b8482602086016102bd565b91505092915050565b6000819050919050565b61036781610354565b811461037257600080fd5b50565b6000815190506103848161035e565b92915050565b600080604083850312156103a1576103a0610193565b5b600083015167ffffffffffffffff8111156103bf576103be610198565b5b6103cb85828601610326565b92505060206103dc85828601610375565b9150509250929050565b7f4e487b7100000000000000000000000000000000000000000000000000000000600052603260045260246000fd5b610bef806104246000396000f3fe6080604052600436106100915760003560e01c8063b77bf60011610059578063b77bf600146101a2578063b8c86d26146101cd578063c01a8c84146101d7578063d0549b8514610200578063d6f033fd1461022b57610091565b8063025e7c27146100965780631d43b653146100d35780632f54bf6e146100fc5780633f3e8dd6146101395780639ace38c214610162575b600080fd5b3480156100a257600080fd5b506100bd60048036038101906100b89190610779565b610256565b6040516100ca91906107e7565b60405180910390f35b3480156100df57600080fd5b506100fa60048036038101906100f5919061082e565b610295565b005b34801561010857600080fd5b50610123600480360381019061011e919061086e565b610411565b60405161013091906108b6565b60405180910390f35b34801561014557600080fd5b50610160600480360381019061015b91906108d1565b610431565b005b34801561016e57600080fd5b5061018960048036038101906101849190610779565b6104c2565b6040516101999493929190610933565b60405180910390f35b3480156101ae57600080fd5b506101b761051f565b6040516101c49190610978565b60405180910390f35b6101d5610525565b005b3480156101e357600080fd5b506101fe60048036038101906101f99190610779565b610527565b005b34801561020c57600080fd5b50610215610730565b6040516102229190610978565b60405180910390f35b34801561023757600080fd5b50610240610736565b60405161024d9190610978565b60405180910390f35b6000818154811061026657600080fd5b906000526020600020016000915054906101000a900473ffffffffffffffffffffffffffffffffffffffff1681565b600160003373ffffffffffffffffffffffffffffffffffffffff1673ffffffffffffffffffffffffffffffffffffffff16815260200190815260200160002060009054906101000a900460ff16610321576040517f08c379a000000000000000000000000000000000000000000000000000000000815260040161031890610a16565b60405180910390fd5b6000600454905060405180608001604052808473ffffffffffffffffffffffffffffffffffffffff16815260200183815260200160001515815260200160008152506003600083815260200190815260200160002060008201518160000160006101000a81548173ffffffffffffffffffffffffffffffffffffffff021916908373ffffffffffffffffffffffffffffffffffffffff1602179055506020820151816001015560408201518160020160006101000a81548160ff021916908315150217905550606082015181600301559050506004600081548092919061040790610a65565b9190505550505050565b60016020528060005260406000206000915054906101000a900460ff1681565b600160003373ffffffffffffffffffffffffffffffffffffffff1673ffffffffffffffffffffffffffffffffffffffff16815260200190815260200160002060009054906101000a900460ff166104bd576040517f08c379a00000000000000000000000000000000000000000000000000000000081526004016104b490610a16565b60405180910390fd5b505050565b60036020528060005260406000206000915090508060000160009054906101000a900473ffffffffffffffffffffffffffffffffffffffff16908060010154908060020160009054906101000a900460ff16908060030154905084565b60045481565b565b600160003373ffffffffffffffffffffffffffffffffffffffff1673ffffffffffffffffffffffffffffffffffffffff16815260200190815260200160002060009054906101000a900460ff166105b3576040517f08c379a00000000000000000000000000000000000000000000000000000000081526004016105aa90610a16565b60405180910390fd5b8060045481106105f8576040517f08c379a00000000000000000000000000000000000000000000000000000000081526004016105ef90610af9565b60405180910390fd5b816003600082815260200190815260200160002060020160009054906101000a900460ff161561065d576040517f08c379a000000000000000000000000000000000000000000000000000000000815260040161065490610b65565b60405180910390fd5b600060036000858152602001908152602001600020905060018160030160008282546106899190610b85565b9250508190555060025481600301541061072a5760018160020160006101000a81548160ff0219169083151502179055508060000160009054906101000a900473ffffffffffffffffffffffffffffffffffffffff1673ffffffffffffffffffffffffffffffffffffffff166108fc82600101549081150290604051600060405180830381858888f19350505050158015610728573d6000803e3d6000fd5b505b50505050565b60025481565b600047905090565b600080fd5b6000819050919050565b61075681610743565b811461076157600080fd5b50565b6000813590506107738161074d565b92915050565b60006020828403121561078f5761078e61073e565b5b600061079d84828501610764565b91505092915050565b600073ffffffffffffffffffffffffffffffffffffffff82169050919050565b60006107d1826107a6565b9050919050565b6107e1816107c6565b82525050565b60006020820190506107fc60008301846107d8565b92915050565b61080b816107c6565b811461081657600080fd5b50565b60008135905061082881610802565b92915050565b600080604083850312156108455761084461073e565b5b600061085385828601610819565b925050602061086485828601610764565b9150509250929050565b6000602082840312156108845761088361073e565b5b600061089284828501610819565b91505092915050565b60008115159050919050565b6108b08161089b565b82525050565b60006020820190506108cb60008301846108a7565b92915050565b6000806000606084860312156108ea576108e961073e565b5b60006108f886828701610819565b935050602061090986828701610819565b925050604061091a86828701610764565b9150509250925092565b61092d81610743565b82525050565b600060808201905061094860008301876107d8565b6109556020830186610924565b61096260408301856108a7565b61096f6060830184610924565b95945050505050565b600060208201905061098d6000830184610924565b92915050565b600082825260208201905092915050565b7f536f6c6f206c6f732070726f706965746172696f732070756564656e20656a6560008201527f637574617220657374612066756e63696f6e0000000000000000000000000000602082015250565b6000610a00603283610993565b9150610a0b826109a4565b604082019050919050565b60006020820190508181036000830152610a2f816109f3565b9050919050565b7f4e487b7100000000000000000000000000000000000000000000000000000000600052601160045260246000fd5b6000610a7082610743565b91507fffffffffffffffffffffffffffffffffffffffffffffffffffffffffffffffff8203610aa257610aa1610a36565b5b600182019050919050565b7f4c61207472616e73616363696f6e206e6f206578697374650000000000000000600082015250565b6000610ae3601883610993565b9150610aee82610aad565b602082019050919050565b60006020820190508181036000830152610b1281610ad6565b9050919050565b7f4c61207472616e73616363696f6e2079612066756520656a6563757461646100600082015250565b6000610b4f601f83610993565b9150610b5a82610b19565b602082019050919050565b60006020820190508181036000830152610b7e81610b42565b9050919050565b6000610b9082610743565b9150610b9b83610743565b9250828201905080821115610bb357610bb2610a36565b5b9291505056fea2646970667358221220f141be7c9167c89e5d5b96f1781b24fafc56703510e29772f4d7088b7093e73464736f6c634300081b0033",
  "linkReferences": {},
  "deployedLinkReferences": {}
}