{
  "_format": "hh-sol-artifact-1",
  "contractName": "Wallet",
  "sourceName": "contracts/Wallet.sol",
  "abi": [
    {
      "inputs": [],
      "stateMutability": "nonpayable",
      "type": "constructor"
    },
    {
      "anonymous": false,
      "inputs": [
        {
          "indexed": true,
          "internalType": "address",
          "name": "sender",
          "type": "address"
        },
        {
          "indexed": false,
          "internalType": "uint256",
          "name": "amount",
          "type": "uint256"
        }
      ],
      "name": "Deposit",
      "type": "event"
    },
    {
      "anonymous": false,
      "inputs": [
        {
          "indexed": true,
          "internalType": "address",
          "name": "to",
          "type": "address"
        },
        {
          "indexed": false,
          "internalType": "uint256",
          "name": "amount",
          "type": "uint256"
        }
      ],
      "name": "Withdrawal",
      "type": "event"
    },
    {
      "inputs": [],
      "name": "deposit",
      "outputs": [],
      "stateMutability": "payable",
      "type": "function"
    },
    {
      "inputs": [],
      "name": "owner",
      "outputs": [
        {
          "internalType": "address",
          "name": "",
          "type": "address"
        }
      ],
      "stateMutability": "view",
      "type": "function"
    },
    {
      "inputs": [
        {
          "internalType": "uint256",
          "name": "_amount",
          "type": "uint256"
        }
      ],
      "name": "withdraw",
      "outputs": [],
      "stateMutability": "nonpayable",
      "type": "function"
    }
  ],
  "bytecode": "0x6080604052348015600f57600080fd5b50336000806101000a81548173ffffffffffffffffffffffffffffffffffffffff021916908373ffffffffffffffffffffffffffffffffffffffff1602179055506105968061005f6000396000f3fe6080604052600436106100345760003560e01c80632e1a7d4d146100395780638da5cb5b14610062578063d0e30db01461008d575b600080fd5b34801561004557600080fd5b50610060600480360381019061005b9190610332565b610097565b005b34801561006e57600080fd5b50610077610240565b60405161008491906103a0565b60405180910390f35b610095610264565b005b60008054906101000a900473ffffffffffffffffffffffffffffffffffffffff1673ffffffffffffffffffffffffffffffffffffffff163373ffffffffffffffffffffffffffffffffffffffff1614610125576040517f08c379a000000000000000000000000000000000000000000000000000000000815260040161011c9061043e565b60405180910390fd5b80471015610168576040517f08c379a000000000000000000000000000000000000000000000000000000000815260040161015f906104aa565b60405180910390fd5b60008054906101000a900473ffffffffffffffffffffffffffffffffffffffff1673ffffffffffffffffffffffffffffffffffffffff166108fc829081150290604051600060405180830381858888f193505050501580156101ce573d6000803e3d6000fd5b5060008054906101000a900473ffffffffffffffffffffffffffffffffffffffff1673ffffffffffffffffffffffffffffffffffffffff167f7fcf532c15f0a6db0bd6d0e038bea71d30d808c7d98cb3bf7268a95bf5081b658260405161023591906104d9565b60405180910390a250565b60008054906101000a900473ffffffffffffffffffffffffffffffffffffffff1681565b600034116102a7576040517f08c379a000000000000000000000000000000000000000000000000000000000815260040161029e90610540565b60405180910390fd5b3373ffffffffffffffffffffffffffffffffffffffff167fe1fffcc4923d04b559f4d29a8bfc6cda04eb5b0d3c460751c2402c5c5cc9109c346040516102ed91906104d9565b60405180910390a2565b600080fd5b6000819050919050565b61030f816102fc565b811461031a57600080fd5b50565b60008135905061032c81610306565b92915050565b600060208284031215610348576103476102f7565b5b60006103568482850161031d565b91505092915050565b600073ffffffffffffffffffffffffffffffffffffffff82169050919050565b600061038a8261035f565b9050919050565b61039a8161037f565b82525050565b60006020820190506103b56000830184610391565b92915050565b600082825260208201905092915050565b7f536f6c6f20656c2070726f706965746172696f207075656465207265616c697a60008201527f6172206573746120616363696f6e000000000000000000000000000000000000602082015250565b6000610428602e836103bb565b9150610433826103cc565b604082019050919050565b600060208201905081810360008301526104578161041b565b9050919050565b7f466f6e646f7320696e737566696369656e746573000000000000000000000000600082015250565b60006104946014836103bb565b915061049f8261045e565b602082019050919050565b600060208201905081810360008301526104c381610487565b9050919050565b6104d3816102fc565b82525050565b60006020820190506104ee60008301846104ca565b92915050565b7f4465626520656e76696172204574686572000000000000000000000000000000600082015250565b600061052a6011836103bb565b9150610535826104f4565b602082019050919050565b600060208201905081810360008301526105598161051d565b905091905056fea2646970667358221220c35a350cf7d300ae3ebce6c3cf86db2b9b42f6b378c83278df12b1cd9281537864736f6c634300081b0033",
  "linkReferences": {},
  "deployedLinkReferences": {}
}